:101B8D007C007D0A12151BEF1F70011E144E70F79D
:011B9D002225
:101B0D00AB07AA060BBB00010AEB1B70011A144AA6
:0C1B1D0060097F847E03121B8D80EE2285
:03002000DFFE22DE
:101AF000D2907FDC7E05121B8DC290D2917FDC7E5E
:0D1B000005121B8DC2917F147E00021B0D8B
:021868008F519E
:10186A00E4F552E552C395515021D2907F9F7E05EF
:10187A00121B8DC290D2917F197E06121B8DC291C6
:0B188A007F147E00121B0D055280D859
:011895002230
:0A1798008E688F698C6A8D6B8B6C74
:1017A200E4F56DE56DC3956C5021D290AF6BAE6AD6
:1017B200121B8DC290D291AF69AE68121B8DC2917D
:0B17C2007F147E00121B0D056D80D807
:0117CD0022F9
:021896008F5170
:10189800E4F552E552C395515021D2907F2C7E0633
:1018A800121B8DC290D2917F8C7E05121B8DC29126
:0B18B8007F147E00121B0D055280D82B
:0118C3002202
:081836008E518F528C538D542A
:10183E00E4F555D290AF54AE53121B8DC290D29197
:10184E00AF52AE51121B8DC2917F147E00121B0D32
:09185E000555E555C3940240DA7A
:01186700225E
:1018C400E4F575D2907FAA7E05121B8DC290D29149
:1018D4007FAA7E05121B8DC2917F147E00121B0D00
:0918E4000575E575C3946440DA52
:0118ED0022D8
:1018EE00E4F551D2907F787E05121B8DC290D29175
:1018FE007F787E05121B8DC2917F147E00121B0D08
:09190E000551E551C3941840DABB
:0119170022AD
:10191800E4F551D2907F787E05121B8DC290D2914A
:101928007F787E05121B8DC2917F147E00121B0DDD
:091938000551E551C3940F40DA9A
:011941002283
:10194200E4F551D2907FB47E05121B8DC290D291E4
:101952007FB47E05121B8DC2917F147E00121B0D77
:091962000551E551C3944B40DA34
:01196B002259
:10196C00E4F576D2907F0E7E06121B8DC290D2913A
:10197C007F0E7E06121B8DC2917F147E00121B0DF2
:09198C000576E576C3944640DAC5
:01199500222F
:10199600E4F551D2907F407E06121B8DC290D29103
:1019A6007F407E06121B8DC2917F147E00121B0D96
:0919B6000551E551C3941A40DA11
:0119BF002205
:1019C000E4F551D2907F407E06121B8DC290D291D9
:1019D0007F407E06121B8DC2917F147E00121B0D6C
:0919E0000551E551C3940F40DAF2
:0119E90022DB
:1019EA00E4F551D2907F047E06121B8DC290D291EB
:1019FA007F047E06121B8DC2917F147E00121B0D7E
:091A0A000551E551C3944640DA90
:011A130022B0
:101A1400E4F577D2907F407E06121B8DC290D2915E
:101A24007F407E06121B8DC2917F147E00121B0D17
:091A34000577E577C3941A40DA46
:011A3D002286
:101AAE008E518F52D290AF05AE04121B8DC290D2C2
:101ABE0091AF52AE51121B8DC2917F147E00021B4C
:011ACE000D0A
:1017CE00E4F551F552D2907FA07E05121B8DC2908A
:1017DE00D2917FA07E05121B8DC2917F147E0012C6
:1017EE001B0D0552E55270020551C39444E5519408
:0317FE000040D2D6
:0118010022C4
:10180200E4F51EF51FD2907F187E06121B8DC29042
:10181200D2917F187E06121B8DC2917F147E001218
:101822001B0D051FE51F7002051EC39444E51E949F
:031832000040D2A1
:011835002290
:03002300021713AE
:07171300C0E0C0D075D00852
:10171A00309820AF99C298E56E2408FDE433FCE5C1
:10172A00706D7001EC600CAE700570EE5407247891
:10173A00F8A60F30991BC299E56F65716011AF6FFA
:10174A00056FEF54072480F8E6F599C20A8002C2B1
:01175A000985
:05175B00D0D0D0E03207
:101A6600200A22200905D2098F9922C2ACAE71053F
:101A760071EE54072480F8A607E571656F54077068
:061A860002D20AD2AC22DC
:101B7700AD07BD0A08200AFD7F0D121A66200AFD6F
:061B8700AF05121A6622F0
:101B6000E570656E60FAC2ACAF6E056EEF54072487
:061B700078F8E6FFD2AC9C
:011B7600224C
:101B4500E4F56EF570F56FF571C209C20A43892097
:0B1B5500758DFDD28E7598D8D2AC22A1
:06000300121B45D2AF22E2
:0716A000017200027300005B
:0F1B9E00438901E4F58CF58AD2AFD2A9C28C221B
:03000B00021BAD28
:031BAD00C28C32B5
:10176000E4F551F552C2A6C2A7D2A67F19FE121BFC
:101770008DC2A630A7FDD28C30A703208CFAC28C74
:10178000AF8CEFFEAD8A7C00E42DFFEC3EFE7D3A8F
:0717900012151B8E518F5250
:01179700222F
:101A3E007265643D256C642C677265656E3D256C20
:101A4E00642C626C75653D256C640A00636F6C6F67
:081A5E0072203D2025640A00FE
:1016A70004100000000004180000000004140000EB
:0216B700000031
:101B2900D2AFE4F5C943C81075985075CDFF75CC8F
:0C1B3900DC75CBFF75CADCD2CAD2992241
:101ACF00E4F554C2937FC87E00121B0DD2937FC8DA
:101ADF007E00121B0D0554E554C3940340E5C293D9
:011AEF0022D4
:10000E00758951758CFC758A66D2AFD2A9D28CD205
:02001E008E2230
:03000B00021A8C4A
:101A8C00C0E0C0D0C28CC28E051DE51D7002051CC5
:101A9C00758CFCE58A2466F58AD28CD28ED0D0D097
:021AAC00E03226
:1011CE00755102121ACF7F507E00121B0DD293D290
:1011DE00A1D2A212000E121B29AF511551EF7003AE
:1011EE000212C6E4F51CF51DC2A3D2A4E51D644887
:1011FE00451C70F8C28CC28EAF8DEFFEAD8B7C009D
:10120E00E42DFFEC3EFEE48F178E16F515F514F562
:10121E008BF58DF51CF51DD28CD28ED2A3D2A4E502
:10122E001D6449451C70F8C28CC28EAF8DEFFEADA9
:10123E008B7C00E42DFFEC3EFEE48F138E12F51135
:10124E00F510F58BF58DF51CF51DD28CD28EC2A343
:10125E00C2A4E51D644C451C70F8C28CC28EAF8DC5
:10126E00EFFEAD8B7C00E42DFFEC3EFEE48F1B8E7B
:10127E001AF519F518F58BF58DF51CF51D7BFF7A12
:10128E001A793E851B5A851A59851958851857851E
:10129E00135E85125D85115C85105B851762851660
:1012AE006185156085145F120ED47FC87E00121BF7
:1012BE000DD28CD28E0211E77BFF7A1A793E851BF6
:1012CE005A851A5985195885185785135E85125DEA
:1012DE0085115C85105B85176285166185156085A5
:1012EE00145F120ED4E47F23FEFDFCAB1BAA1AA9D9
:1012FE0019A818D3121570502FE47F23FEFDFCABF6
:10130E0013AA12A911A810121570501CE47F23FE07
:10131E00FDFCAB17AA16A915A81412157050097565
:10132E005200755302021414E47FC8FEFDFCAB1B81
:10133E00AA1AA919A818C3121570402FE47FC8FE67
:10134E00FDFCAB13AA12A911A810121570401CE4D3
:10135E007FC8FEFDFCAB17AA16A915A814121570AE
:10136E004009755200755301021414E47F96FEFD78
:10137E00FCAB1BAA1AA919A818C3121570402FE4AA
:10138E007F32FEFDFCAB13AA12A911A810D31215C1
:10139E0070501BE47F32FEFDFCAB17AA16A915A8F0
:1013AE001412157050087552007553038058E47F5F
:1013BE00C8FEFDFCAB1BAA1AA919A818C3121570FA
:1013CE00402FE47F96FEFDFCAB13AA12A911A810C4
:1013DE00121570401CE47F64FEFDFCAB17AA16A923
:1013EE0015A814D312157050087552007553048049
:1013FE00157552007553057BFF7A1A795A85525727
:10140E00855358120ED4C2AFC2A9C28CC28EAE5230
:02141E00AF53CA
:0114200022A9
:1016B9000234000002430000012B00012D01014109
:1016C9000001260101330101460001310001250015
:1016D900013600012A00012C00013000012401011A
:1016E9002900013200013D000140000128010142A9
:1016F90000012300013F00013B00014500012700D3
:09170900013C00012200013E0038
:10002600E4F547F548F549F54CF54DF54E12000354
:100036007FD07E07121B0D7F28121868E528B401B1
:1000460003121421E52360030200EFE538640F452F
:100056003760030200EFE53B60030200EFF534F57D
:10006600350547E54714B40A00506390007F75F0E4
:1000760003A4C58325F0C5837302009D02009F0279
:1000860000A10200A30200A50200A70200AE020022
:10009600B80200C20200CC802D8021801580098024
:1000A600007F0D12186880267F0D1218681219C07D
:1000B600801C7F0D12186812191880127F0D1218F5
:1000C6006812199680087F0D1218681218EEE54717
:1000D60030E00AD39400400575330180097542016A
:1000E600752301E4F533E4F54EE533B4010A121B3A
:1000F6009E1217608E4F8F50C3E5509405E54F94BE
:1001060000502FE53364017029053E7F0C121868F4
:10011600121AF0E53EB403050547753B021211CEEF
:100126008E2E8F2F7F32121868753601E4F53375DF
:100136003101E536700302032EE52F6404452E7067
:1001460006E5476401603EE52F6401452E7006E52D
:100156004764036030E52F6403452E7006E5476467
:10016600056022E52F6402452E7006E547640760A8
:1001760014E52F6405452E6003020323E547640951
:100186006003020323754101753B01E52F640145B8
:100196002E6010E52F6403452E6008E52F640245A6
:1001A6002E7046E53A643045396010E53A641045EC
:1001B600396008E53A64204539702EE52F452E60F2
:1001C60028E541B40123E4F5287F06121868121ABF
:1001D600F07F191218961217CE752801053CE4F522
:1001E60041F536F52EF52F0547E52F6404452E60BB
:1001F600030202ACE53A642045397051E52F452EDD
:10020600604BE54164017045F5287F14121868E4D7
:10021600F543F5447DE67C057FE67E05121AAE05BC
:1002260044E54470020543C39403E5436480948027
:1002360040E2121AF07F191218961217CE7528018D
:10024600053CE4F541F536F52EF52F0547E53A640C
:100256001045397051E5384537704BE52F452E600E
:1002660045E5416401703FF528F543F5447DE67C9C
:10027600057FE67E05121AAE0544E5447002054385
:10028600C39403E5436480948040E2121AF07F1918
:100296001218961217CE752801053CE4F541F5367D
:1002A600F52EF52F0547E52F6405452E707AE53ABC
:1002B60064104539702EE52F452E6028E541B401BE
:1002C60023E4F5287F12121868121AF07F19121803
:1002D600961217CE752801053CE4F541F536F52E44
:1002E600F52F0547E53A64204539703CE538453732
:1002F6007036E52F452E6030E5416401702AF528F9
:10030600121AF07F191218961217CE752801053C9D
:10031600E4F541F536F52EF52F0547800B7F1412CF
:1003260018681217CEE4F536E54730E053E531702C
:100336004FE53845377002054ED3E54E648094820A
:10034600403EE53845376028E538640A4537602081
:10035600E538640545376018E538640945376010A7
:10036600E538640B45376008E538640D453770108D
:10037600753B017F411218681217CE0547E4F54E0A
:10038600E54720E049D394004044E5316401703EDE
:10039600E54264017038E54875F028A4FFC374B4DB
:1003A6009FFFE495F0FED3E5359FEE6480F8E534D3
:1003B60064809840137F1E1218961217CEE4F5310A
:1003C600F534F535F5420548E4F533020454E547BE
:1003D60020E07BD394004076E53B64017070E538FD
:1003E600640F45377068F534F535F531E54724FC7B
:1003F600601D24FE601B24FE602424FE602A24085F
:10040600702E7F121218681218EE121918802180A9
:100416000D7F121218681217CE1219C080127F12A1
:1004260012186812191880057F121218681218EE31
:100436000547E54730E00AD394004005753301804F
:1004460008752301E4F52BF533E4F54EF53BD3E5CA
:10045600359450E534648094804010E531700CE5A5
:1004660023B40107E4F534F535F523E53E6403606E
:1004760003020042E538640F45376003020042E597
:100486003B64026003020042F534F535E54724FC7F
:10049600601A24FE602324FE602924FE602F2408AF
:1004A60070337F121218681218EE80297F12121804
:1004B600681218EE121918801C7F1212186812178B
:1004C600CE80127F121218681219C080057F121290
:1004D6001868121996E4F526E53E640360030207E0
:1004E60031E528B40103121421E53E6403703FE5AB
:1004F6002F452E6039E4F534F535F53E754101E5B5
:100506002E702BE52F14601214601B14601124FE4C
:1005160060190470191218EE8014121918800F7FD2
:100526000A12186880081219C08003121996C3E5CA
:10053600359450E5346480948050030206D1E52F4B
:100546006401452E6010E52F6403452E6008E52FF3
:100556006402452E7045E53A643045396010E53A47
:10056600641045396008E53A64204539702DE52F59
:10057600452E6027E541B40122E4F5287F061218CE
:1005860068121AF07F1E1218961217CE75280105EA
:100596003CE4F534F535752601F541E52F6404454F
:1005A6002E600302065CE53A642045397050E52F5B
:1005B600452E604AE54164017044F5287F141218FF
:1005C60068E4F543F5447DE67C057FE67E05121A70
:1005D600AE0544E54470020543C39403E5436480D5
:1005E600948040E2121AF07F1E1218961217CE75EA
:1005F6002801053CE4F534F535752601F541E53A63
:10060600641045397050E5384537704AE52F452E58
:100616006044E5416401703EF528F543F5447DE606
:100626007C057FE67E05121AAE0544E54470020598
:1006360043C39403E5436480948040E2121AF07F3A
:100646001E1218961217CE752801053CE4F534F5EE
:1006560035752601F541E52F6405452E706DE53AA1
:1006660064104539702DE52F452E6027E541B4010C
:1006760022E4F5287F12121868121AF07F1E12184B
:10068600961217CE752801053CE4F534F535752626
:1006960001F541E53A642045397030E53845377053
:1006A6002AE52F452E6024E541B4011FE4F5281202
:1006B6001AF07F1E1218961217CE752801053CE413
:1006C600F534F535752601F541F536E538640F45FF
:1006D6003760030204E7E526640160030204E7F5D8
:1006E60034F535E52E703FE52F1460171460251498
:1006F600601B24FE602804702D7F0C1218681219E6
:100706009680237F141218681219C080197F0F1261
:10071600186880127F1212186812191880087F0C48
:100726001218681218EEE4F52EF52F753301E4F56C
:1007360046F541752801752301F54EE53C640370C5
:1007460003020A19E528B40103121421E533B401A2
:100756000A121B9E1217608E4F8F50C3E5509405E8
:10076600E54F94005024E533B4011F7F0C1218683E
:10077600121AF01211CE8E2E8F2F1217CE7F141250
:100786001868E4F526F533752301D3E5359450E56D
:100796003464809480400CE523B40107E4F534F515
:1007A60035F523E5237058E538640F45377050E575
:1007B60026704CF534F535F54EE52E703FE52F14D1
:1007C600601714602514601B24FE602804702D7FBA
:1007D6000C1218681218EE80237F0F12186812196F
:1007E6001880197F0F12186880127F0F121868126E
:1007F60019C080087F0F121868121996754101D327
:10080600E5359450E5346480948050030209A0E5F0
:100816002F6401452E6010E52F6403452E6008E520
:100826002F6402452E7045E53A643045396010E57F
:100836003A641045396008E53A64204539702DE57B
:100846002F452E6027E541B40122E4F5287F0612E4
:100856001868121AF07F1E1218961217CE75280104
:10086600053CE4F534F535752601F541E52F6404BC
:10087600452E600302092DE53A642045397050E59E
:100886002F452E604AE54164017044F5287F141215
:100896001868E4F543F5447DE67C057FE67E05129F
:1008A6001AAE0544E54470020543C39403E5436468
:1008B60080948040E2121AF07F1E1218961217CE0C
:1008C600752801053CE4F534F535752601F541E555
:1008D6003A641045397050E5384537704AE52F457A
:1008E6002E6044E5416401703EF528F543F5447DEC
:1008F600E67C057FE67E05121AAE0544E5447002E5
:100906000543C39403E5436480948040E2121AF0E1
:100916007F1E1218961217CE752801053CE4F53491
:10092600F535752601F541E52F6405452E706BE515
:100936003A64104539702DE52F452E6027E541B400
:100946000122E4F5287F12121868121AF07F1E128F
:1009560018961217CE752801053CE4F534F5357561
:100966002601F541E53A64204539702EE5384537CC
:100976007028E52F452E6022E541B4011DE4F528D7
:10098600121AF07F1E1218961217CE752801053C12
:10099600E4F534F535752601F541E52360030207D4
:1009A6004AE538640F4537600302074AE5266401C5
:1009B600600302074A753301F534F535E52E703FBD
:1009C600E52F14601714602514601B24FE602804AC
:1009D600702D7F0C12186812199680237F14121836
:1009E600681219C080197F0F12186880127F1212C0
:1009F600186812191880087F0C1218681218EEE48D
:100A0600F52EF52FE53C6403600302074A1218EE43
:100A1600752A01E4F546F526752801F53CF52EF50F
:100A26002FF54F755064F54EF534F535E528B401CC
:100A360003121421E52A6401706EF54CF54DF54A52
:100A4600F54B121B9E1217608E4F8F507DFA7C0558
:100A56007FFA7E05121AAEC3E550940AE54F94005C
:100A66004030E5509414E54F94005026854A4C8555
:100A76004B4DE549940640187D047C067F047E06AE
:100A8600121AAE121AF07F0F121868753D01801502
:100A96000549054BE54B7002054AC394C8E54A640F
:100AA600809480409DE4F52AD3E54D942DE54C6471
:100AB6008094804008753001E4F52C8006752C0181
:100AC600E4F530E538640F4537702CE53D64017078
:100AD60026F534F535754001E52CB4010A7F0E1272
:100AE6001868121996800DE530B401087F111218A6
:100AF600681218EEE4F53DE538640F45377042E5B7
:100B0600406401703CD3E535940AE53464809480F2
:100B1600402FE4F534F535E52CB4010A7F0F1218A1
:100B2600681219EA800DE530B401137F0F121868B8
:100B36001219427F14121868E4F526753201E4F59D
:100B460040E538640F45377079E53264017073D338
:100B5600E535941EE534648094804066121AF012DE
:100B660011CE8E2E8F2FE52F6402452E700375460B
:100B760001E4F532F526F534F535F54EE52E703FF0
:100B8600E52F14601714602514601B24FE602804EA
:100B9600702D7F0C1218681218EE80237F0F121822
:100BA6006812191880197F0F12186880127F0F12A9
:100BB60018681219C080087F0F12186812199675E6
:100BC6004101D3E5359450E53464809480500302A6
:100BD6000D6DE52F6401452E6010E52F6403452E4B
:100BE6006008E52F6402452E7047E53A64304539C2
:100BF6006010E53A641045396008E53A64204539E5
:100C0600702FE52F452E6029E541B40124E4F5282F
:100C16007F0B121868121AF07F1E1218961217CE42
:100C2600752801053CE4F534F535F541752601F5E1
:100C36004EE52F6404452E6003020CF6E53A642067
:100C460045397052E52F452E604CE54164017046EA
:100C5600F5287F12121868E4F543F5447DE67C0515
:100C66007FE67E05121AAE0544E54470020543C3CD
:100C76009403E5436480948040E2121AF07F1E12CA
:100C860018961217CE752801053CE4F534F535F5AE
:100C960041752601F54EE53A641045397052E5383E
:100CA6004537704CE52F452E6046E541640170409E
:100CB600F528F543F5447DE67C057FE67E05121AA8
:100CC600AE0544E54470020543C39403E5436480DE
:100CD600948040E2121AF07F1E1218961217CE75F3
:100CE6002801053CE4F534F535F541752601F54E48
:100CF600E52F6405452E706FE53A64104539702F6F
:100D0600E52F452E6029E541B40124E4F5287F123C
:100D1600121868121AF07F1E1218961217CE75282E
:100D260001053CE4F534F535F541752601F54EE54A
:100D36003A642045397030E5384537702AE52F4545
:100D46002E6024E541B4011FE4F528121AF07F1E37
:100D56001218961217CE752801053CE4F534F535C0
:100D6600F541752601F54EE53C64026066E538649A
:100D76000F4537705EE52664017058E52F452E60F5
:100D860052E4F526F534F535E52E703FE52F14606F
:100D96001414602214601824FE602804702D7F0C41
:100DA60012186880267F0F121868121918801C7F87
:100DB6000F12186880087F0F121868121918121877
:100DC600EE80087F0C1218681217CE752A01E4F51A
:100DD6002EF52FE53C64027065F52AE538640F456B
:100DE60037705BE52664017055E52F452E604FE4AC
:100DF600F526F534F535E52E703FE52F146017140A
:100E0600602514601B24FE602804702D7F0C1218C8
:100E16006812199680237F141218681219C0801957
:100E26007F0F12186880127F121218681219188024
:100E3600087F0C1218681218EEE4F52EF52FE53C23
:100E460064026003020A32D3E53594BEE534648059
:100E560094805003020A32E52F452E6003020A32BF
:0C0E6600F534F535121AF0121AF080FB7A
:101421007580FFE580540F753700F538E58054303D
:10143100753900F53A7F01121868E5376003021526
:101441001AE53814B40F00400302151A90145B75A5
:10145100F003A4C58325F0C5837302148802149692
:1014610002149F0214C30214DF0214E80214F102F1
:1014710014B102151A0214FA02151A0214CC02153B
:101481000302150C0215150535E535700205347D8D
:101491000E7C0680150535E53570020534220535CB
:1014A100E535700205347DDC7C057F0E7E06802BE0
:1014B1000535E535700205347DAA7C057FAA7E05D8
:1014C10080190535E53570510534220535E535704E
:1014D1000205347DAA7C057FDC7E050218360535C0
:1014E100E53570350534220535E535702C05342296
:1014F1000535E53570230534220535E535701A05C6
:1015010034220535E53570110534220535E5357090
:0A151100080534227F061218682234
:03000000021614D1
:0C161400787FE4F6D8FD75818702165B34
:10151B00BC000BBE0029EF8DF084FFADF022E4CCB4
:10152B00F875F008EF2FFFEE33FEEC33FCEE9DEC7D
:10153B00984005FCEE9DFE0FD5F0E9E4CEFD22EDC3
:10154B00F8F5F0EE8420D21CFEADF075F008EF2F0D
:10155B00FFED33FD4007985006D5F0F222C398FDFE
:05156B000FD5F0EA229B
:10157000EB9FF5F0EA9E42F0E99D42F0EC6480C8F2
:0615800064809845F02292
:100E7200E5632457F8E60563227854300702785771
:100E8200E475F0011215DE0215862000EB7F2ED2EA
:100E9200008018EF540F2490D43440D4FF30040B58
:100EA200EF24BFB41A0050032461FFE56460021509
:100EB200640567E5677002056630070D7854E475CE
:100EC200F0011215DEEF0215CC021B777403D20774
:100ED2008003E4C207F5638B548A558956E4F564AE
:100EE200F566F567E56460077F20120EAD80F57543
:100EF20065FFC201C200C202C203C205C206C20825
:100F0200120E7BFF700D3007057F00120EBEAF6719
:100F1200AE6622B4255FC2D5C204120E7BFF24D076
:100F2200B40A00501A75F00A786430D50508B6FF85
:100F32000106C6A426F620D5047002D20380D92465
:100F4200CFB41A00EF5004C2E5D2040210BED2019F
:100F520080C6D20080C0D20280BCD2D580BAD2056F
:100F620080B47F20120EAD2002077401B5640040E8
:100F7200F1120E72FF120EAD020EE6D208D20680F8
:100F820095120E72FB120E72FA120E72F94A4B7021
:100F920006798F7A117BFF20022EE564602A7E009B
:100FA2008E8275830012159F60060EEE656570F0E5
:100FB200C2D5EBC0E0EAC0E0E9C0E0EE121105D014
:100FC200E0F9D0E0FAD0E0FB121586FF60AAEBC090
:100FD200E0EAC0E0E9C0E0120EADD0E02401F9D0B1
:100FE200E03400FAD0E0FBE5650460DCD565D98029
:100FF200877BFF7A117901D202809C791080027975
:1010020008C206C2088008D2D5790A8004790AC2C9
:10101200D5E565047002F565E4FAFDFEFF120E7275
:10102200FC7B08200113120E72FD7B1030000A12A5
:101032000E72FE120E72FF7B20EC3382D592D550D7
:1010420013C3E43000069FFFE49EFEE42001039DEB
:10105200FDE49CFCE4CBF8C201EC700CCFCECDCC0D
:10106200E824F8F870F38017C3EF33FFEE33FEED98
:1010720033FDEC33FCEB33FB994002FB0FD8E9EB79
:10108200300105F8D0E0C448B201C0E00AEC4D4E90
:101092004F78207B0070C2EAB5650040BCC0E01208
:1010A2001107D0F0D0E0200104C4C0E0C4B201C0F6
:1010B200F0120E96D0F0D5F0EB020EE61215EE0FFE
:1010C20083530FFD580F544C0F504210014F10091B
:0F10D200441009490F6943100F550FF3460FF3F0
:1010E100450FF34711AF500F582D0F5C2E0F7F2B7B
:1010F1000F60230F7D2011982A0F184800000F77E9
:101101003F3F3F00790AA2D5200314300509B910E9
:10111100020404B9080104A2D520060250010420EA
:1011210002689202B564005034C0E07F2030031998
:101131007F30A20272067205500F12115EC202C206
:1011410006C205C2087F30800F300503E9C0E012F6
:101151000EAD300503D0E0F9D0E0B564CC30051711
:101161007F30B9100C120EAD7F583004077F7880A4
:1011710003B90803120EAD3002057F2D020EAD7FBB
:10118100202008F87F2B2006F322920280CF286EC0
:10119100756C6C2900D201120E723001F8C201780F
:1011A1006430D50108F6020F182D50434958120E2C
:1011B100722403B405004001E49011AA93120E9E1B
:0D11C100743A120E9ED203756404020FFDF5
:10162000020026E493A3F8E493A34003F68001F2BA
:1016300008DFF48029E493A3F85407240CC8C333CB
:10164000C4540F4420C8834004F456800146F6DF9A
:10165000E4800B01020408102040809016A0E47E74
:10166000019360BCA3FF543F30E509541FFEE4938F
:10167000A360010ECF54C025E060A840B8E493A356
:10168000FAE493A3F8E493A3C8C582C8CAC583CA81
:10169000F0A3C8C582C8CAC583CADFE9DEE780BE39
:0117120000D6
:10158600BB010689828A83E0225002E722BBFE0263
:09159600E32289828A83E4932296
:10159F00BB010CE58229F582E5833AF583E0225001
:1015AF0006E92582F8E622BBFE06E92582F8E2224B
:0D15BF00E58229F582E5833AF583E4932265
:1015CC00BB010689828A83F0225002F722BBFE01FE
:0215DC00F322F8
:1015DE00FAE6FB0808E6F925F0F618E6CA3AF6220E
:1015EE00D083D082F8E4937012740193700DA3A38C
:1015FE0093F8740193F5828883E4737402936860A0
:06160E00EFA3A3A380DF9F
:00000001FF
