:1010AE007C007D0A120A2CEF1F70011E144E70F781
:0110BE00220F
:10102E00AB07AA060BBB00010AEB1B70011A144A90
:0C103E0060097F847E031210AE80EE2259
:03002000DFFE22DE
:10101100D2907FDC7E051210AEC290D2917FDC7E31
:0D102100051210AEC2917F147E0002102E49
:020D89008F30A9
:100D8B00E4F531E531C395305021D2907F9F7E053C
:100D9B001210AEC290D2917F197E061210AEC29184
:0B0DAB007F147E0012102E053180D84E
:010DB600221A
:0A0CB9008E688F698C6A8D6B8B6C5E
:100CC300E4F56DE56DC3956C5021D290AF6BAE6AC0
:100CD3001210AEC290D291AF69AE681210AEC2913B
:0B0CE3007F147E0012102E056D80D8DB
:010CEE0022E3
:020DB7008F307B
:100DB900E4F531E531C395305021D2907F2C7E0680
:100DC9001210AEC290D2917F8C7E051210AEC291E4
:0B0DD9007F147E0012102E053180D820
:010DE40022EC
:080D57008E308F318C328D3398
:100D5F00E4F534D290AF33AE321210AEC290D291CE
:100D6F00AF31AE301210AEC2917F147E0012102E32
:090D7F000534E534C3940240DAA6
:010D88002248
:100DE500E4F575D2907FAA7E051210AEC290D2911D
:100DF5007FAA7E051210AEC2917F147E0012102EBE
:090E05000575E575C3946440DA3B
:010E0E0022C1
:100E0F00E4F530D2907F787E051210AEC290D29169
:100E1F007F787E051210AEC2917F147E0012102EC5
:090E2F000530E530C3941840DAE7
:010E38002297
:100E3900E4F530D2907F787E051210AEC290D2913F
:100E49007F787E051210AEC2917F147E0012102E9B
:090E59000530E530C3940F40DAC6
:010E6200226D
:100E6300E4F576D2907FB47E051210AEC290D29193
:100E73007FB47E051210AEC2917F147E0012102E35
:090E83000576E576C3944640DAD9
:010E8C002243
:100E8D00E4F577D2907F0E7E061210AEC290D2910D
:100E9D007F0E7E061210AEC2917F147E0012102EB0
:090EAD000577E577C3944640DAAD
:010EB6002219
:100EB700E4F530D2907F407E061210AEC290D291F8
:100EC7007F407E061210AEC2917F147E0012102E54
:090ED7000530E530C3941A40DA3D
:010EE00022EF
:100EE100E4F530D2907F407E061210AEC290D291CE
:100EF1007F407E061210AEC2917F147E0012102E2A
:090F01000530E530C3940F40DA1D
:010F0A0022C4
:100F0B00E4F578D2907F047E061210AEC290D29197
:100F1B007F047E061210AEC2917F147E0012102E3B
:090F2B000578E578C3944640DA2C
:010F3400229A
:100F3500E4F579D2907F407E061210AEC290D29130
:100F45007F407E061210AEC2917F147E0012102ED5
:090F55000579E579C3941A40DA2C
:010F5E002270
:100FCF008E308F31D290AF05AE041210AEC290D2D8
:100FDF0091AF31AE301210AEC2917F147E0002106D
:010FEF002ED3
:100CEF00E4F530F531D2907FA07E051210AEC290A0
:100CFF00D2917FA07E051210AEC2917F147E00129A
:100D0F00102E0531E53170020530C39444E530945F
:030D1F000040D2BF
:010D220022AE
:100D2300E4F51EF51FD2907F187E061210AEC29016
:100D3300D2917F187E061210AEC2917F147E0012EC
:100D4300102E051FE51F7002051EC39444E51E9473
:030D53000040D28B
:010D5600227A
:03002300020C20AC
:070C2000C0E0C0D075D00850
:100C2700309820AF99C298E56E2408FDE433FCE5BF
:100C3700706D7001EC600CAE700570EE5407247A8D
:100C4700F8A60F30991BC299E56F65716011AF6FF8
:100C5700056FEF54072482F8E6F599C20A8002C2AD
:010C67000983
:050C6800D0D0D0E03205
:100F8700200A22200905D2098F9922C2ACAE710529
:100F970071EE54072482F8A607E571656F54077050
:060FA70002D20AD2AC22C6
:10109800AD07BD0A08200AFD7F0D120F87200AFD43
:0610A800AF05120F8722C4
:10108100E570656E60FAC2ACAF6E056EEF54072471
:061091007AF8E6FFD2AC84
:011097002236
:10106600E4F56EF570F56FF571C209C20A43892081
:0B107600758DFDD28E7598D8D2AC228B
:06000300121066D2AF22CC
:070BB1000172000273000055
:0F10BF00438901E4F58CF58AD2AFD2A9C28C2205
:03000B000210CE12
:0310CE00C28C329F
:100C6D00E4F530F531C2A6C2A7D2A67F19FE121047
:100C7D00AEC2A630A7FDD28C30A703208CFAC28C51
:100C8D00AF8CEFFEAD8A7C00E42DFFEC3EFE7D3A8D
:100C9D00120A2C8E308F31C3E5319403E530940068
:0B0CAD005005E4F530F531AE30AF31FA
:010CB8002219
:100F5F007265643D256C642C677265656E3D256C0A
:100F6F00642C626C75653D256C640A00636F6C6F51
:080F7F0072203D2025640A00E8
:100BB80004100000000004180000000004140000E5
:020BC80000002B
:10104A00D2AFE4F5C943C81075985075CDFF75CC79
:0C105A00DC75CBFF75CADCD2CAD299222B
:100FF000E4F533C2937FC87E0012102ED2937FC8CF
:101000007E0012102E0533E533C3940340E5C293EE
:0110100022BD
:10000E00758951758CFC758A66D2AFD2A9D28CD205
:02001E008E2230
:03000B00020FAD34
:100FAD00C0E0C0D0C28CC28E051DE51D7002051CAF
:100FBD00758CFCE58A2466F58AD28CD28ED0D0D081
:020FCD00E03210
:1006DF00753002120FF07F507E0012102ED293D27F
:1006EF00A1D2A212000E12104AAF301530EF7003D4
:1006FF000207D7E4F51CF51DC2A3D2A4E51D64487B
:10070F00451C70F8C28CC28EAF8DEFFEAD8B7C0096
:10071F00E42DFFEC3EFEE48F178E16F515F514F55C
:10072F008BF58DF51CF51DD28CD28ED2A3D2A4E5FC
:10073F001D6449451C70F8C28CC28EAF8DEFFEADA3
:10074F008B7C00E42DFFEC3EFEE48F138E12F5112F
:10075F00F510F58BF58DF51CF51DD28CD28EC2A33D
:10076F00C2A4E51D644C451C70F8C28CC28EAF8DBF
:10077F00EFFEAD8B7C00E42DFFEC3EFEE48F1B8E75
:10078F001AF519F518F58BF58DF51CF51D7BFF7A0C
:10079F000F795F851B39851A388519378518368586
:1007AF00133D85123C85113B85103A8517418516FF
:1007BF004085153F85143E1203E57FC87E00121059
:1007CF002ED28CD28E0206F87BFF7A0F795F851BB3
:1007DF0039851A3885193785183685133D85123CAA
:1007EF0085113B85103A85174185164085153F8544
:1007FF00143E1203E5E47F23FEFDFCAB1BAA1AA9EE
:10080F0019A818D3120A81502FE47F23FEFDFCABE9
:10081F0013AA12A911A810120A81501CE47F23FEFB
:10082F00FDFCAB17AA16A915A814120A8150097559
:10083F003100753202020925E47FC8FEFDFCAB1BB7
:10084F00AA1AA919A818C3120A81402FE47FC8FE5B
:10085F00FDFCAB13AA12A911A810120A81401CE4C7
:10086F007FC8FEFDFCAB17AA16A915A814120A81A2
:10087F004009753100753201020925E47F96FEFDAE
:10088F00FCAB1BAA1AA919A818C3120A81402FE49E
:10089F007F32FEFDFCAB13AA12A911A810D3120AC6
:1008AF0081501BE47F32FEFDFCAB17AA16A915A8D9
:1008BF0014120A8150087531007532038058E47F95
:1008CF00C8FEFDFCAB1BAA1AA919A818C3120A81EE
:1008DF00402FE47F96FEFDFCAB13AA12A911A810BE
:1008EF00120A81401CE47F64FEFDFCAB17AA16A917
:1008FF0015A814D3120A815008753100753204807F
:10090F00157531007532057BFF7A0F797B8531368E
:10091F008532371203E5C2AFC2A9C28CC28EAE3187
:02092F00AF32E5
:0109310022A3
:100BCA0002560000014F0001650101510101630055
:100BDA00014B01015501016700015300014A00015F
:100BEA005800014E00015000015200014901014D17
:100BFA0000015400015F00016200014C0101640020
:100C0A00014800016100015D00016600015E00010A
:050C1A0047000160002D
:10002600E4F522F523F524F529F52AF52BF52CF52B
:100036002D1200037FD07E0712102E7F28120D8905
:10004600755501E4F567755101F553F563754C0176
:10005600754801F52DE55E64037003020382E54CE5
:10006600B40103120932E555B401371210BF120C60
:100076006D8E2E8F2FD3E52F9406E52E9400400D1E
:10008600E52F9414E52E94005003755301D3E52F04
:10009600945FE52E9400400AE553B40105E4F52E7D
:1000A600F52FC3E52F9403E52E94005026E551B4B1
:1000B6000121E555B4011C1210111206DF8E258FA1
:1000C60026120CEF7F14120D89755301E4F551F5D4
:1000D6004BF555D3E557940AE55664809480400E57
:1000E600E54B700AE5537006F556F557F548E548B1
:1000F6007058E55A640F45597050E54B704CF556EB
:10010600F557F52DE525703FE52614601714602593
:1001160014601B24FE602804702D7F0C120D8912BA
:100126000E0F80237F0F120D89120E3980197F0F53
:10013600120D8980127F0F120D89120EE180087F41
:100146000F120D89120EB7756301C3E557941EE5AC
:10015600566480948050030202F7E5266401452523
:100166006010E526640345256008E52664024525FA
:100176007047E55C6430455B6010E55C6410455B88
:100186006008E55C6420455B702FE52645256029FF
:10019600E563B40124E4F54C7F03120D89121011B6
:1001A6007F1E120DB7120CEF754C01055EE4F55675
:1001B600F557F553754B01F563E52664044525604F
:1001C6000302027EE55C6420455B7052E526452508
:1001D600604CE56364017046F54C7F0F120D89E4AF
:1001E600F52BF52C7DE67C057FE67E05120FCF0507
:1001F6002CE52C7002052BC39403E52B64809480B8
:1002060040E21210117F1E120DB7120CEF754C0151
:10021600055EE4F556F557F553754B01F563E55C58
:100226006410455B7052E55A4559704CE5264525E4
:100236006046E56364017040F54CF52BF52C7DE6D0
:100246007C057FE67E05120FCF052CE52C70020596
:100256002BC39403E52B6480948040E21210117F37
:100266001E120DB7120CEF754C01055EE4F556F53E
:1002760057F553754B01F563E52664054525707101
:10028600E55C6410455B702FE52645256029E5632E
:10029600B40124E4F54C7F0A120D891210117F1E59
:1002A600120DB7120CEF754C01055EE4F556F557C5
:1002B600F553754B01F563E55C6420455B7032E5EB
:1002C6005A4559702CE52645256026E563B401217B
:1002D600E4F54C1210117F1E120DB7120CEF754C7F
:1002E60001055EE4F556F557F553754B01F563F5D3
:1002F60058E5486003020064E55A640F45596003F7
:10030600020064E54B6401600302006475550175E3
:100316005101F556F557E525703FE526146017148B
:10032600602514601B24FE602804702D7F0C120DBE
:1003360089120EB780237F14120D89120EE18019DF
:100346007F0F120D8980127F12120D89120E3980CD
:10035600087F0C120D89120E0FE4F525F526E55ED1
:1003660064036003020064D3E557940AE55664808B
:0C03760094805003020064E4F556F55733
:010382002258
:100932007580FFE580540F755900F55AE5805430F3
:10094200755B00F55C7F01120D89E5596003020AAF
:100952002BE55A14B40F004003020A2B90096C7560
:10096200F003A4C58325F0C583730209990209A780
:100972000209B00209D40209F00209F9020A0202CC
:1009820009C2020A2B020A0B020A2B0209DD020A21
:1009920014020A1D020A260557E557700205567D04
:1009A2000E7C0680150557E557700205562205573D
:1009B200E557700205567DDC7C057F0E7E06802B96
:1009C2000557E557700205567DAA7C057FAA7E056C
:1009D20080190557E55770510556220557E557709E
:1009E2000205567DAA7C057FDC7E05020D57055760
:1009F200E55770350556220557E557702C055622E6
:100A02000557E55770230556220557E557701A0515
:100A120056220557E55770110556220557E55770BE
:0A0A2200080556227F06120D8922F6
:03000000020B25CB
:0C0B2500787FE4F6D8FD758189020B6C26
:100A2C00BC000BBE0029EF8DF084FFADF022E4CCAE
:100A3C00F875F008EF2FFFEE33FEEC33FCEE9DEC77
:100A4C00984005FCEE9DFE0FD5F0E9E4CEFD22EDBD
:100A5C00F8F5F0EE8420D21CFEADF075F008EF2F07
:100A6C00FFED33FD4007985006D5F0F222C398FDF8
:050A7C000FD5F0EA2295
:100A8100EB9FF5F0EA9E42F0E99D42F0EC6480C8EC
:060A910064809845F0228C
:10038300E5422436F8E60542227833300702783610
:10039300E475F001120AEF020A972000EB7F2ED2D8
:1003A300008018EF540F2490D43440D4FF30040B52
:1003B300EF24BFB41A0050032461FFE54360021524
:1003C300430546E5467002054530070D7833E4756D
:1003D300F001120AEFEF020ADD0210987403D2074C
:1003E3008003E4C207F5428B338A348935E4F5434D
:1003F300F545F546E54360077F201203BE80F5759A
:1004030044FFC201C200C202C203C205C206C2083F
:1004130012038CFF700D3007057F001203CFAF4628
:10042300AE4522B4255FC2D5C20412038CFF24D08B
:10043300B40A00501A75F00A784330D50508B6FFA0
:100443000106C6A426F620D5047002D20380D9245F
:10045300CFB41A00EF5004C2E5D2040205CFD20193
:1004630080C6D20080C0D20280BCD2D580BAD20569
:1004730080B47F201203BE2002077401B5430040FD
:10048300F1120383FF1203BE0203F7D208D20680E0
:1004930095120383FB120383FA120383F94A4B7009
:1004A3000679A07A067BFF20022EE543602A7E00B0
:1004B3008E82758300120AB060060EEE654470F0FA
:1004C300C2D5EBC0E0EAC0E0E9C0E0EE120616D008
:1004D300E0F9D0E0FAD0E0FB120A97FF60AAEBC084
:1004E300E0EAC0E0E9C0E01203BED0E02401F9D0A5
:1004F300E03400FAD0E0FBE5440460DCD544D98065
:10050300877BFF7A067912D202809C791080027968
:1005130008C206C2088008D2D5790A8004790AC2C3
:10052300D5E544047002F544E4FAFDFEFF120383AB
:10053300FC7B08200113120383FD7B1030000A1299
:100543000383FE120383FF7B20EC3382D592D550C5
:1005530013C3E43000069FFFE49EFEE42001039DE5
:10056300FDE49CFCE4CBF8C201EC700CCFCECDCC07
:10057300E824F8F870F38017C3EF33FFEE33FEED92
:1005830033FDEC33FCEB33FB994002FB0FD8E9EB73
:10059300300105F8D0E0C448B201C0E00AEC4D4E8A
:1005A3004F78207B0070C2EAB5440040BCC0E01223
:1005B3000618D0F0D0E0200104C4C0E0C4B201C0EA
:1005C300F01203A7D0F0D5F0EB0203F7120AFF04F1
:1005D3009453050E5804654C04614205124F051AE5
:0F05E30044051A49047A430520550504460504CA
:1005F2004505044706C05004692D046D2E04902B56
:10060200047123048E2006A92A04294800000488C4
:100612003F3F3F00790AA2D5200314300509B910E3
:10062200020404B9080104A2D520060250010420E4
:1006320002689202B543005034C0E07F20300319B3
:100642007F30A20272067205500F12066FC202C2FA
:1006520006C205C2087F30800F300503E9C0E012F0
:1006620003BE300503D0E0F9D0E0B543CC30051726
:100672007F30B9100C1203BE7F583004077F788098
:1006820003B908031203BE3002057F2D0203BE7FA9
:10069200202008F87F2B2006F322920280CF286EBA
:1006A200756C6C2900D2011203833001F8C2017803
:1006B2004330D50108F60204292D5043495812034C
:1006C200832403B405004001E49006BB931203AFF8
:0D06D200743A1203AFD20375430402050E03
:100B3100020026E493A3F8E493A34003F68001F2B4
:100B410008DFF48029E493A3F85407240CC8C333C5
:100B5100C4540F4420C8834004F456800146F6DF94
:100B6100E4800B0102040810204080900BB1E47E68
:100B7100019360BCA3FF543F30E509541FFEE49389
:100B8100A360010ECF54C025E060A840B8E493A350
:100B9100FAE493A3F8E493A3C8C582C8CAC583CA7B
:100BA100F0A3C8C582C8CAC583CADFE9DEE780BE33
:010C1F0000D4
:100A9700BB010689828A83E0225002E722BBFE025D
:090AA700E32289828A83E4932290
:100AB000BB010CE58229F582E5833AF583E02250FB
:100AC00006E92582F8E622BBFE06E92582F8E22245
:0D0AD000E58229F582E5833AF583E493225F
:100ADD00BB010689828A83F0225002F722BBFE01F8
:020AED00F322F2
:100AEF00FAE6FB0808E6F925F0F618E6CA3AF62208
:100AFF00D083D082F8E4937012740193700DA3A386
:100B0F0093F8740193F5828883E473740293686099
:060B1F00EFA3A3A380DF99
:00000001FF
