:10000E007C007D0A120283EF1F70011E144E70F7E2
:01001E0022BF
:10063300AB07AA060BBB00010AEB1B70011A144A95
:0C06430060097F847E0312000E80EE220E
:03001F00DFFE22DF
:10061600D2907FDC7E0512000EC290D2917FDC7EE6
:0D0626000512000EC2917F147E0002063303
:0203F9008F155E
:1003FB00E4F516E516C395155021D2907F9F7E0527
:10040B0012000EC290D2917F197E0612000EC2917D
:0B041B007F147E00120633051680D807
:0104260022B3
:0A035D008E1A8F1B8C1C8D1D8B1E49
:10036700E4F51FE51FC3951E5021D290AF1DAE1CAB
:1003770012000EC290D291AF1BAE1A12000EC2919C
:0B0387007F147E00120633051F80D893
:010392002248
:020427008F152F
:10042900E4F516E516C395155021D2907F2C7E066A
:1004390012000EC290D2917F8C7E0512000EC291DD
:0B0449007F147E00120633051680D8D9
:010454002285
:0803C7008E158F168C178D189E
:1003CF00E4F519D290AF18AE1712000EC290D29169
:1003DF00AF16AE1512000EC2917F147E00120633B7
:0903EF000519E519C3940240DA76
:0103F80022E2
:10045500E4F52FD2907FAA7E0512000EC290D291AC
:100465007FAA7E0512000EC2917F147E001206330C
:09047500052FE52FC3946440DA61
:01047E00225B
:10047F00E4F515D2907F787E0512000EC290D291CE
:10048F007F787E0512000EC2917F147E0012063314
:09049F000515E515C3941840DAB7
:0104A8002231
:1004A900E4F515D2907F787E0512000EC290D291A4
:1004B9007F787E0512000EC2917F147E00120633EA
:0904C9000515E515C3940F40DA96
:0104D2002207
:1004D300E4F530D2907FC87E0512000EC290D2910F
:1004E3007FC87E0512000EC2917F147E0012063370
:0904F3000530E530C394B440DA91
:0104FC0022DD
:1004FD00E4F531D2907F0E7E0612000EC290D2919D
:10050D007F0E7E0612000EC2917F147E00120633FE
:09051D000531E531C3944640DAD2
:0105260022B2
:10052700E4F515D2907F407E0612000EC290D2915C
:100537007F407E0612000EC2917F147E00120633A2
:090547000515E515C3941A40DA0C
:010550002288
:10055100E4F515D2907F407E0612000EC290D29132
:100561007F407E0612000EC2917F147E0012063378
:090571000515E515C3940F40DAED
:01057A00225E
:10057B00E4F532D2907FF07E0512000EC290D2913C
:10058B007FF07E0512000EC2917F147E001206339F
:09059B000532E532C394B440DAE4
:0105A4002234
:1005A500E4F533D2907F407E0612000EC290D291C0
:1005B5007F407E0612000EC2917F147E0012063324
:0905C5000533E533C3941A40DA52
:0105CE00220A
:1005F5008E2B8F2CD290AF05AE0412000EC290D276
:1006050091AF2CAE2B12000EC2917F147E00020614
:0106150033B1
:10039300E4F515F516D2907FA07E0512000EC290EB
:1003A300D2917FA07E0512000EC2917F147E0012AF
:1003B30006330516E51670020515C39444E5159436
:0303C3000040D225
:0103C6002214
:030023000202D8FE
:0702D800C0E0C0D075D008A2
:1002DF00309820AF99C298E5212408FDE433FCE55E
:1002EF00236D7001EC600CAE230523EE540724340C
:1002FF00F8A60F30991BC299E52265246011AF2231
:10030F000522EF5407243CF8E6F599C2018002C29A
:01031F0000DD
:05032000D0D0D0E03256
:1005CF00200122200005D2008F9922C2ACAE240553
:1005DF0024EE5407243CF8A607E52465225407703F
:0605EF0002D201D2AC2291
:10068100AD07BD0A082001FD7F0D1205CF2001FD38
:06069100AF051205CF22A7
:10066A00E523652160FAC2ACAF210521EF540724C6
:06067A0034F8E6FFD2ACEB
:010680002257
:10064F00E4F521F523F522F524C200C201438920E8
:0B065F00758DFDD28E7598D8D2AC22AC
:0600030012064FD2AF22ED
:0706A60001250002260000FF
:0F069700438901E4F58CF58AD2AFD2A9C28C2237
:03000B000206B139
:0306B100C28C32C6
:10032500E4F52DF52EC2A6C2A7D2A67F19FE1200AE
:100335000EC2A630A7FDD28C30A703208CFAC28C42
:10034500AF8CEFFEAD8A7C00E42DFFEC3EFE7D3ADE
:070355001202838E2D8F2E92
:01035C00227E
:0306AD0001280021
:10002600751002E4F511F512F513F5147FD07E076D
:100036001206337F281203F975800FE580540F7579
:100046002900F52A7F011203F9E5297079E52A14BA
:10005600B40F00507190006975F003A4C58325F0B4
:10006600C5837302009602009C02009C0200B00247
:1000760000C70200C70200C70200A60200CC0200A9
:10008600C70200CC0200BA0200C70200C70200C7BE
:100096007D0E7C0680047DDC7C057F0E7E06801C42
:1000A6007DAA7C057FAA7E0580127DC87C057FDC43
:1000B6007E0580087DAA7C057FDC7E051203C7804D
:1000C600057F061203F9E52A640F4529600302013C
:1000D6005A0510E51020E008D394004003E4F52803
:1000E600E51014B40A0050699000FC75F003A4C52D
:1000F6008325F0C5837302011A02011E0201200244
:10010600012402012802012A02013102013B0201F7
:100116001E02014F7F0C803380257F0F80197F14CC
:10012600800B80007F0F1203F980267F0F1203F9E0
:10013600120551801C7F121203F91204A980127F46
:100146000F1203F912052780087F0F1203F9120414
:100156007FE4F514E51020E031D39400402CE52827
:1001660070280514E51175F005A4FFC3741E9FD30E
:100176006480F8E51464809840107F1E12042712EC
:100186000393752801E4F5140511E51030E055E5F3
:100196002A452970020514D3E514648094814044ED
:1001A600E52A45296038E52A640445296030E52AB0
:1001B600640245296028E52A640545296020E52A68
:1001C600640A45296018E52A640945296010E52A6C
:1001D600640E45296008E52A64074529700612035E
:1001E60093E4F514E510640A600302003E12061655
:0101F60022E6
:030000000201F703
:0C01F700787FE4F6D8FD75814302023EDB
:10028300BC000BBE0029EF8DF084FFADF022E4CC5F
:10029300F875F008EF2FFFEE33FEEC33FCEE9DEC28
:1002A300984005FCEE9DFE0FD5F0E9E4CEFD22ED6E
:1002B300F8F5F0EE8420D21CFEADF075F008EF2FB8
:1002C300FFED33FD4007985006D5F0F222C398FDA9
:0502D3000FD5F0EA2246
:10020300020026E493A3F8E493A34003F68001F2EB
:1002130008DFF48029E493A3F85407240CC8C333FC
:10022300C4540F4420C8834004F456800146F6DFCB
:10023300E4800B01020408102040809006A6E47EAF
:10024300019360BCA3FF543F30E509541FFEE493C0
:10025300A360010ECF54C025E060A840B8E493A387
:10026300FAE493A3F8E493A3C8C582C8CAC583CAB2
:10027300F0A3C8C582C8CAC583CADFE9DEE780BE6A
:0106B0000049
:00000001FF
