:10000E007C007D0A120176EF1F70011E144E70F7F0
:01001E0022BF
:10052600AB07AA060BBB00010AEB1B70011A144AA3
:0C05360060097F847E0312000E80EE221C
:03001F00DFFE22DF
:10050900D2907FDC7E0512000EC290D2917FDC7EF4
:0D0519000512000EC2917F147E000205261F
:0202EC008F176A
:1002EE00E4F518E518C395175021D2907F9F7E052F
:1002FE0012000EC290D2917F197E0612000EC2918C
:0B030E007F147E00120526051880D821
:0103190022C1
:0A0250008E218F228C238D248B2534
:10025A00E4F526E526C395255021D290AF24AE2396
:10026A0012000EC290D291AF22AE2112000EC2919C
:0B027A007F147E00120526052680D8A8
:010285002256
:02031A008F2E24
:10031C00E4F52FE52FC3952E5021D2907F2C7E062D
:10032C0012000EC290D2917F8C7E0512000EC291EB
:0B033C007F147E00120526052F80D8DC
:010347002293
:0802BA008E178F188C198D1AA4
:1002C200E4F51BD290AF1AAE1912000EC290D29171
:1002D200AF18AE1712000EC2917F147E00120526CF
:0902E200051BE51BC3940240DA80
:0102EB0022F0
:10034800E4F534D2907FAA7E0512000EC290D291B5
:100358007FAA7E0512000EC2917F147E0012052628
:090368000534E534C3946440DA65
:010371002269
:10037200E4F535D2907F787E0512000EC290D291BC
:100382007F787E0512000EC2917F147E0012052630
:090392000535E535C3941840DA85
:01039B00223F
:10039C00E4F536D2907F787E0512000EC290D29191
:1003AC007F787E0512000EC2917F147E0012052606
:0903BC000536E536C3940F40DA62
:0103C5002215
:1003C600E4F537D2907FC87E0512000EC290D29116
:1003D6007FC87E0512000EC2917F147E001205268C
:0903E6000537E537C394B440DA91
:0103EF0022EB
:1003F000E4F538D2907F0E7E0612000EC290D291A4
:100400007F0E7E0612000EC2917F147E001205261A
:090410000538E538C3944640DAD2
:0104190022C0
:10041A00E4F539D2907F407E0612000EC290D29146
:10042A007F407E0612000EC2917F147E00120526BE
:09043A000539E539C3941A40DAD2
:010443002296
:10044400E4F53AD2907F407E0612000EC290D2911B
:100454007F407E0612000EC2917F147E0012052694
:09046400053AE53AC3940F40DAB1
:01046D00226C
:10046E00E4F53BD2907FF07E0512000EC290D29141
:10047E007FF07E0512000EC2917F147E00120526BB
:09048E00053BE53BC394B440DAE0
:010497002242
:10049800E4F53CD2907F407E0612000EC290D291C5
:1004A8007F407E0612000EC2917F147E0012052640
:0904B800053CE53CC3941A40DA4E
:0104C1002218
:1004E8008E308F31D290AF05AE0412000EC290D27A
:1004F80091AF31AE3012000EC2917F147E0002051A
:0105080026CC
:10028600E4F517F518D2907FA07E0512000EC290F5
:10029600D2917FA07E0512000EC2917F147E0012BD
:1002A60005260518E51870020517C39444E517944A
:0302B6000040D233
:0102B9002222
:030023000201CB0C
:0701CB00C0E0C0D075D008B0
:1001D200309820AF99C298E51C2408FDE433FCE571
:1001E2001E6D7001EC600CAE1E051EEE5407243D20
:1001F200F8A60F30991BC299E51D651F6011AF1D4E
:10020200051DEF54072445F8E6F599C2018002C2A4
:0102120000EB
:05021300D0D0D0E03264
:1004C200200122200005D2008F9922C2ACAE1F0566
:1004D2001FEE54072445F8A607E51F651D54077053
:0604E20002D201D2AC229F
:10057400AD07BD0A082001FD7F0D1204C22001FD54
:06058400AF051204C222C3
:10055D00E51E651C60FAC2ACAF1C051CEF540724E8
:06056D003DF8E6FFD2ACF0
:010573002265
:10054200E4F51CF51EF51DF51FC200C2014389200A
:0B055200758DFDD28E7598D8D2AC22BA
:06000300120542D2AF22FB
:07059900012B00022C000001
:0F058A00438901E4F58CF58AD2AFD2A9C28C2245
:03000B000205A744
:0305A700C28C32D1
:10021800E4F532F533C2A6C2A7D2A67F19FE1200B2
:100228000EC2A630A7FDD28C30A703208CFAC28C50
:10023800AF8CEFFEAD8A7C00E42DFFEC3EFE7D3AEC
:070248001201768E328F33A4
:01024F00228C
:0605A000012700012A0101
:10002600E4F510F511F512F513F5141200037580B9
:100036000FE580540F752800F5297F011202ECE5C3
:10004600287079E52914B40F00507190005F75F09F
:1000560003A4C58325F0C5837302008C02009202B7
:1000660000920200A60200BD0200BD0200BD020011
:100076009C0200C20200BD0200C20200B00200BD26
:100086000200BD0200BD7D0E7C0680047DDC7C0581
:100096007F0E7E06801C7DAA7C057FAA7E058012C7
:1000A6007DC87C057FDC7E0580087DAA7C057FDC1B
:1000B6007E051202BA80057F061202ECE529452864
:1000C60070020514D3E51464809481500302003451
:1000D600E52945286003020034120286E4F527F577
:0400E60014020034CC
:030000000200EA11
:0C00EA00787FE4F6D8FD75814C020131EE
:10017600BC000BBE0029EF8DF084FFADF022E4CC6D
:10018600F875F008EF2FFFEE33FEEC33FCEE9DEC36
:10019600984005FCEE9DFE0FD5F0E9E4CEFD22ED7C
:1001A600F8F5F0EE8420D21CFEADF075F008EF2FC6
:1001B600FFED33FD4007985006D5F0F222C398FDB7
:0501C6000FD5F0EA2254
:1000F600020026E493A3F8E493A34003F68001F2FA
:1001060008DFF48029E493A3F85407240CC8C3330A
:10011600C4540F4420C8834004F456800146F6DFD9
:10012600E4800B0102040810204080900599E47ECB
:10013600019360BCA3FF543F30E509541FFEE493CE
:10014600A360010ECF54C025E060A840B8E493A395
:10015600FAE493A3F8E493A3C8C582C8CAC583CAC0
:10016600F0A3C8C582C8CAC583CADFE9DEE780BE78
:0105A6000054
:00000001FF
