:101BFB007C007D0A12155FEF1F70011E144E70F7EB
:011C0B0022B6
:101B7B00AB07AA060BBB00010AEB1B70011A144A38
:0C1B8B0060097F847E03121BFB80EE22A9
:03002000DFFE22DE
:101B5E00D2907FDC7E05121BFBC290D2917FDC7E81
:0D1B6E0005121BFBC2917F147E00021B7B41
:0218D6008F2F52
:1018D800E4F530E530C3952F5021D2907F9F7E05E7
:1018E800121BFBC290D2917F197E06121BFBC2917C
:0B18F8007F147E00121B7B053080D89F
:0119030022C1
:0A17D0008E678F688C698D6A8B6B41
:1017DA00E4F56CE56CC3956B5021D290AF6AAE69A3
:1017EA00121BFBC290D291AF68AE67121BFBC2916B
:0B17FA007F147E00121B7B056C80D862
:0118050022C0
:021904008F2F23
:10190600E4F530E530C3952F5021D2907F2C7E062A
:10191600121BFBC290D2917F8C7E05121BFBC291DB
:0B1926007F147E00121B7B053080D870
:011931002293
:0818A4008E2F8F308C318D3244
:1018AC00E4F533D290AF32AE31121BFBC290D29121
:1018BC00AF30AE2F121BFBC2917F147E00121B7B2C
:0918CC000533E533C3940240DA50
:0118D50022F0
:0A1806008E2F8F308C318D328B3322
:10181000E4F534E534C395335021D290AF32AE3184
:10182000121BFBC290D291AF30AE2F121BFBC291A4
:0B1830007F147E00121B7B053480D863
:01183B00228A
:10193200E4F574D2907FAA7E05121BFBC290D2916D
:101942007FAA7E05121BFBC2917F147E00121B7BB5
:091952000574E574C3946440DAE5
:01195B002269
:10195C00E4F52FD2907F787E05121BFBC290D291BA
:10196C007F787E05121BFBC2917F147E00121B7BBD
:09197C00052FE52FC3941840DA91
:01198500223F
:10198600E4F52FD2907F787E05121BFBC290D29190
:101996007F787E05121BFBC2917F147E00121B7B93
:0919A600052FE52FC3940F40DA70
:0119AF002215
:1019B000E4F52FD2907FB47E05121BFBC290D2912A
:1019C0007FB47E05121BFBC2917F147E00121B7B2D
:0919D000052FE52FC3944B40DA0A
:0119D90022EB
:1019DA00E4F575D2907F0E7E06121BFBC290D2915F
:1019EA007F0E7E06121BFBC2917F147E00121B7BA8
:0919FA000575E575C3944640DA59
:011A030022C0
:101A0400E4F52FD2907F407E06121BFBC290D29148
:101A14007F407E06121BFBC2917F147E00121B7B4B
:091A2400052FE52FC3941A40DAE6
:011A2D002296
:101A2E00E4F52FD2907F407E06121BFBC290D2911E
:101A3E007F407E06121BFBC2917F147E00121B7B21
:091A4E00052FE52FC3940F40DAC7
:011A5700226C
:101A5800E4F52FD2907F047E06121BFBC290D29130
:101A68007F047E06121BFBC2917F147E00121B7B33
:091A7800052FE52FC3944640DA66
:011A81002242
:101A8200E4F576D2907F407E06121BFBC290D29183
:101A92007F407E06121BFBC2917F147E00121B7BCD
:091AA2000576E576C3941A40DADA
:011AAB002218
:101B1C008E2F8F30D290AF05AE04121BFBC290D229
:101B2C0091AF30AE2F121BFBC2917F147E00021BB3
:011B3C007B2D
:10183C00E4F52FF530D2907FA07E05121BFBC290F1
:10184C00D2917FA07E05121BFBC2917F147E0012E9
:10185C001B7B0530E5307002052FC39444E52F94B3
:03186C000040D267
:01186F002256
:10187000E4F51EF51FD2907F187E06121BFBC29066
:10188000D2917F187E06121BFBC2917F147E00123C
:101890001B7B051FE51F7002051EC39444E51E94C3
:0318A0000040D233
:0118A3002222
:0300230002174B76
:07174B00C0E0C0D075D0081A
:10175200309820AF99C298E56D2408FDE433FCE58A
:101762006F6D7001EC600CAE6F056FEE540724785C
:10177200F8A60F30991BC299E56E65706011AF6EC5
:10178200056EEF54072480F8E6F599C20A8002C27A
:01179200094D
:05179300D0D0D0E032CF
:101AD400200A22200905D2098F9922C2ACAE7005D2
:101AE40070EE54072480F8A607E570656E540770FD
:061AF40002D20AD2AC226E
:101BE500AD07BD0A08200AFD7F0D121AD4200AFD93
:061BF500AF05121AD42214
:101BCE00E56F656D60FAC2ACAF6D056DEF5407241D
:061BDE0078F8E6FFD2AC2E
:011BE40022DE
:101BB300E4F56DF56FF56EF570C209C20A4389202D
:0B1BC300758DFDD28E7598D8D2AC2233
:06000300121BB3D2AF2274
:0716E4000171000272000019
:0F1C0C00438901E4F58CF58AD2AFD2A9C28C22AC
:03000B00021C1BB9
:031C1B00C28C3246
:10179800E4F52FF530C2A6C2A7D2A67F19FE121B08
:1017A800FBC2A630A7FDD28C30A703208CFAC28CCE
:1017B800AF8CEFFEAD8A7C00E42DFFEC3EFE7D3A57
:0717C80012155F8E2F8F3018
:0117CF0022F7
:101AAC007265643D256C642C677265656E3D256CB2
:101ABC00642C626C75653D256C640A00636F6C6FF9
:081ACC0072203D2025640A0090
:1016EB0004100000000004180000000004140000A7
:0216FB000000ED
:101B9700D2AFE4F5C943C81075985075CDFF75CC21
:0C1BA700DC75CBFF75CADCD2CAD29922D3
:101B3D00E4F577C2937FC87E00121B7BD2937FC8DA
:101B4D007E00121B7B0577E577C3940340E5C293B6
:011B5D002265
:10000E00758951758CFC758A66D2AFD2A9D28CD205
:02001E008E2230
:03000B00021AFADC
:101AFA00C0E0C0D0C28CC28E051DE51D7002051C57
:101B0A00758CFCE58A2466F58AD28CD28ED0D0D028
:021B1A00E032B7
:10121C00752F02D293D2A1D2A212000E121B97AF3D
:10122C002F152FEF700302130AE4F51CF51DC2A352
:10123C00D2A4E51D645F451C70F8C28CC28EAF8DC4
:10124C00EFFEAD8B7C00E42DFFEC3EFEE48F178EA1
:10125C0016F515F514F58BF58DF51CF51DD28CD204
:10126C008ED2A3D2A4E51D645F451C70F8C28CC25B
:10127C008EAF8DEFFEAD8B7C00E42DFFEC3EFEE4DB
:10128C008F138E12F511F510F58BF58DF51CF51DE0
:10129C00D28CD28EC2A3C2A4E51D645F451C70F82B
:1012AC00C28CC28EAF8DEFFEAD8B7C00E42DFFECBB
:1012BC003EFEE48F1B8E1AF519F518F58BF58DF59E
:1012CC001CF51D7BFF7A1A79AC851B38851A37857E
:1012DC00193685183585133C85123B85113A8510D6
:1012EC003985174085163F85153E85143D120F2212
:1012FC007FC87E00121B7BD28CD28E02122B7BFFFE
:10130C007A1A79AC851B38851A37851936851835C4
:10131C0085133C85123B85113A851039851740851C
:10132C00163F85153E85143D120F22E47F23FEFDEA
:10133C00FCAB1BAA1AA919A818D31215B4502FE488
:10134C007F23FEFDFCAB13AA12A911A8101215B431
:10135C00501CE47F23FEFDFCAB17AA16A915A8149C
:10136C001215B45009753000753102021458E47F1F
:10137C00C8FEFDFCAB1BAA1AA919A818C31215B4F8
:10138C00402FE47FC8FEFDFCAB13AA12A911A810D4
:10139C001215B4401CE47FC8FEFDFCAB17AA16A9BD
:1013AC0015A8141215B440097530007531010214DA
:1013BC0058E47F96FEFDFCAB1BAA1AA919A818C30A
:1013CC001215B4402FE47F41FEFDFCAB13AA12A909
:1013DC0011A810D31215B4501BE47F41FEFDFCABD9
:1013EC0017AA16A915A8141215B450087530007553
:1013FC0031038058E47FC8FEFDFCAB1BAA1AA91967
:10140C00A818C31215B4402FE47F96FEFDFCAB1355
:10141C00AA12A911A8101215B4401CE47F64FEFD99
:10142C00FCAB17AA16A915A814D31215B45008753D
:10143C00300075310480157530007531057BFF7AED
:10144C001A79C8853035853136120F22C2AFC2A940
:08145C00C28CC28EAE30AF312C
:011464002265
:1016FD000254000002640000014C00016100014829
:10170D000101530001660001510001620101560003
:10171D00014B00014D00015000015200015D00011F
:10172D006000014A01016300014700015F00015B98
:0D173D0000014900015C00014600015E0052
:10002600E4F522F523F524F525F52AF52BF52C1212
:1000360000037FD07E07121B7B7F281218D6E54A65
:10004600B40103121465E54760030200E7E558644E
:100056000F455760030200E7E55B60030200E77F98
:100066000D1218D6E4F554F5550522E52214B40A06
:1000760000505090008775F003A4C58325F0C58312
:10008600730200A50200A70200A90200AB0200C984
:100096000200C90200B20200B70200C10200C68017
:1000A6001F801880117F021218D68000121A2E8027
:1000B600127F021218D61219868008121A048003BB
:1000C60012195CE52230E00DD39400400875530107
:1000D600754B018009756301754701E4F553E4F535
:1000E6002CE54B6401600302016EF52AF52BF5261B
:1000F600F527121B5EE4F528F529121C0C12179839
:100106008E2D8F2E0529E52970020528C39402E558
:10011600286480948040E3C3E52E9408E52D94007E
:100126004018E52E941EE52D9400500E755301855A
:10013600262A85272B121B5E802B7FC87E00121B6A
:100146007B7B177D047C067F047E0612180605223B
:1001560005220527E52770020526C39404E52664D3
:10016600809480408DE4F54BE553B4010A121C0CD3
:100176001217988E2D8F2EC3E52E9405E52D94002B
:100186005029E553B40124055E7F0F1218D6121BC1
:100196005EE55EB403050522755B0212121C8E4EE7
:1001A6008F4F755601E4F553755101E556700302FC
:1001B6000385E54F6404454E7006E5226401603E02
:1001C600E54F6401454E7006E52264036030E54F55
:1001D6006403454E7006E52264056022E54F64021D
:1001E600454E7006E52264076014E54F6405454EEA
:1001F600600302037AE5226409600302037A7561EB
:1002060001755B01E54F6401454E6010E54F6403DF
:10021600454E6008E54F6402454E7046E55A643027
:1002260045596010E55A641045596008E55A64203E
:100236004559702EE54F454E6028E561B40123E42B
:10024600F54A7F061218D6121B5E7F1B121904127E
:10025600183C754A01055CE4F561F556F54EF54F17
:100266000522E54F6404454E6003020303E55A6424
:100276002045597051E54F454E604BE5616401706C
:1002860045F54A7F141218D6E4F564F5657DE67CDB
:10029600057FE67E05121B1C0565E5657002056493
:1002A600C39403E5646480948040E2121B5E7F1B66
:1002B60012190412183C754A01055CE4F561F556FD
:1002C600F54EF54F0522E55A64104559702FE5584D
:1002D60045577029E54F454E6023E561B4011EE49C
:1002E600F54A121B5E7F1912190412183C754A0151
:1002F600055CE4F561F556F54EF54F0522E54F64CC
:1003060005454E707AE55A64104559702EE54F45FD
:100316004E6028E561B40123E4F54A7F121218D62F
:10032600121B5E7F1B12190412183C754A01055CEC
:10033600E4F561F556F54EF54F0522E55A6420457C
:1003460059703CE55845577036E54F454E6030E5E7
:10035600616401702AF54A121B5E7F1B1219041292
:10036600183C754A01055CE4F561F556F54EF54F06
:100376000522800B7F4B1218D612183CE4F556E581
:100386002220E049D394004044E5516401703EE5E3
:100396006364017038E52375F028A4FFC374B49F25
:1003A600FFE495F0FED3E5559FEE6480F8E55464CE
:1003B600809840137F1B12190412183CE4F551F57E
:1003C60054F555F5630523E4F553020469E5223037
:1003D600E003020469D394005003020469E55B64F8
:1003E600016003020469E558640F45577075F554BA
:1003F600F555F551E52224FC602724FE602524FEF0
:10040600602E24FE6034240870387F121218D67BC2
:10041600167D787C057F787E05121806121986806F
:1004260021800D7F121218D612183C121A2E801235
:100436007F121218D612198680057F121218D6124C
:10044600195C0522E52230E00DD39400400875536F
:1004560001754B018008754701E4F54CF553E4F549
:100466002CF55BD3E5559450E55464809480401098
:10047600E551700CE547B40107E4F554F555F54729
:10048600E55E64036003020044E558640F45576067
:1004960003020044E55B64026003020044F554F580
:1004A600557F0D1218D6E52224FC601524FE60192E
:1004B60024FE601A24FE601B2408701A12195C8040
:1004C6001512195C121986800D12183C8008121A32
:1004D6002E8000121A04E4F548E55E640360030208
:1004E6000747E54AB40103121465E55E6403703FED
:1004F600E54F454E6039E4F554F555F55E756101F5
:10050600E54E702BE54F14601214601B1460112425
:10051600FE601904701912195C8014121986800F76
:100526007F0A1218D68008121A2E8003121A04C3E4
:10053600E5559450E5546480948050030206D2E554
:100546004F6401454E6010E54F6403454E6008E573
:100556004F6402454E7045E55A643045596010E5D2
:100566005A641045596008E55A64204559702DE5CE
:100576004F454E6027E561B40122E4F54A7F061235
:1005860018D6121B5E7F1E12190412183C754A01FA
:10059600055CE4F554F555754801F561E54F6404CD
:1005A600454E600302065DE55A642045597050E5E4
:1005B6004F454E604AE56164017044F54A7F141266
:1005C60018D6E4F564F5657DE67C057FE67E0512C2
:1005D6001B1C0565E56570020564C39403E5646448
:1005E60080948040E2121B5E7F1E12190412183C92
:1005F600754A01055CE4F554F555754801F561E564
:100606005A641045597050E5584557704AE54F45AC
:100616004E6044E5616401703EF54AF564F5657D1A
:10062600E67C057FE67E05121B1C0565E565700206
:100636000564C39403E5646480948040E2121B5E03
:100646007F1E12190412183C754A01055CE4F55424
:10065600F555754801F561E54F6405454E706DE544
:100666005A64104559702DE54F454E6027E561B433
:100676000122E4F54A7F121218D6121B5E7F1E1263
:10068600190412183C754A01055CE4F554F55575D4
:100696004801F561E55A642045597030E5584557DB
:1006A600702AE54F454E6024E561B4011FE4F54A22
:1006B600121B5E7F1E12190412183C754A01055C56
:1006C600E4F554F555754801F561F556E558640F9E
:1006D600455760030204E8E548640160030204E844
:1006E600F554F555E54E703FE54F14601714602537
:1006F60014601B24FE602804702D7F0F1218D6127A
:100706001A0480237F141218D6121A2E80197F0F0E
:100716001218D680127F121218D612198680087FF8
:100726000C1218D612195CE55CB403107B1E7D789A
:100736007C057F787E05121806754B01E4F54EF5AB
:100746004F755301E4F566F561754A01754701F584
:100756002CE55C64037003020A39E54AB40103120E
:100766001465E553B4010A121C0C1217988E2D8FCE
:100776002EC3E52E9405E52D94005024E553B401CF
:100786001F7F0F1218D6121B5E12121C8E4E8F4F31
:1007960012183C7F141218D6E4F548F55375470134
:1007A600D3E5559450E55464809480400CE547B4F5
:1007B6000107E4F554F555F547E5477058E55864E3
:1007C6000F45577050E548704CF554F555F52CE536
:1007D6004E703FE54F14601714602514601B24FE0D
:1007E600602804702D7F0C1218D612195C80237FA6
:1007F6000F1218D612198680197F0F1218D680127A
:100806007F0F1218D6121A2E80087F0F1218D612D2
:100816001A04756101D3E5559450E55464809480BB
:1008260050030209B6E54F6401454E6010E54F647A
:1008360003454E6008E54F6402454E7045E55A642F
:100846003045596010E55A641045596008E55A6408
:10085600204559702DE54F454E6027E561B40122CC
:10086600E4F54A7F061218D6121B5E7F1E12190483
:1008760012183C754A01055CE4F554F555754801B6
:10088600F561E54F6404454E6003020943E55A6489
:100896002045597050E54F454E604AE56164017048
:1008A60044F54A7F141218D6E4F564F5657DE67CB6
:1008B600057FE67E05121B1C0565E565700205646D
:1008C600C39403E5646480948040E2121B5E7F1E3D
:1008D60012190412183C754A01055CE4F554F555E5
:1008E600754801F561E55A641045597050E558455B
:1008F60057704AE54F454E6044E5616401703EF528
:100906004AF564F5657DE67C057FE67E05121B1CCF
:100916000565E56570020564C39403E56464809427
:100926008040E2121B5E7F1E12190412183C754AA3
:1009360001055CE4F554F555754801F561E54F642C
:1009460005454E706BE55A64104559702DE54F45C7
:100956004E6027E561B40122E4F54A7F121218D6EB
:10096600121B5E7F1E12190412183C754A01055CA3
:10097600E4F554F555754801F561E55A6420455985
:10098600702EE55845577028E54F454E6022E561C3
:10099600B4011DE4F54A121B5E7F1E1219041218DB
:1009A6003C754A01055CE4F554F555754801F56159
:1009B600E5476003020760E558640F455760030288
:1009C6000760E54864016003020760755301F5544A
:1009D600F555E54E703FE54F146017146025146019
:1009E6001B24FE602804702D7F0C1218D6121A04E0
:1009F60080237F141218D6121A2E80197F0F121810
:100A0600D680127F121218D612198680087F0C1211
:100A160018D612195CE4F54EF54FE55C64036003E5
:100A26000207607B1E7D787C057F787E051218069E
:100A3600754B01E4F551F566F548754A01F55CF527
:100A46004EF54FF52D752E64F52CF554F555754B71
:100A560001E54AB40103121465E54B640160030223
:100A66000AEBF52AF52BF526F527121C0C1217981A
:100A76008E2D8F2E7DFA7C057FFA7E05121B1CC3F8
:100A8600E52E9408E52D94004036E52E9419E52DC3
:100A96009400502C85262A85272BE5249406401E93
:100AA6007D047C067F047E06121B1C121B5E7F0FD4
:100AB6001218D6755101755D01E4F52480150524DB
:100AC6000527E52770020526C394C8E526648094A9
:100AD600804097E551700B121A04755C02E4F54EDE
:100AE600F54FE4F54BD3E52B9437E52A64809480E3
:100AF6004008755001E4F54D8006754D01E4F5504A
:100B0600E558640F4557703DE55D64017037F5544F
:100B1600F555756001E54DB401117F0E1218D67BAF
:100B26001E7D227C067F227E068014E550B40112CB
:100B36007F171218D67B2D7D967C057F967E051233
:100B46001806E4F55DE558640F45577042E56064A4
:100B560001703CD3E555940AE55464809480402F97
:100B6600E4F554F555E54DB4010A7F0F1218D61277
:100B76001A58800DE550B401137F0F1218D61219BA
:100B8600B07F141218D6E4F548755201E4F560E515
:100B960058640F45577079E55264017073D3E55573
:100BA600941EE554648094804066121B5E12121CEB
:100BB6008E4E8F4FE54F6402454E7003756601E415
:100BC600F552F548F554F555F52CE54E703FE54FD1
:100BD60014601714602514601B24FE602804702D11
:100BE6007F0C1218D612195C80237F0F1218D612AA
:100BF600198680197F0F1218D680127F0F1218D609
:100C0600121A2E80087F0F1218D6121A0475610167
:100C1600D3E5559450E554648094805003020DBB8F
:100C2600E54F6401454E6010E54F6403454E60088C
:100C3600E54F6402454E7047E55A643045596010E9
:100C4600E55A641045596008E55A64204559702FE5
:100C5600E54F454E6029E561B40124E4F54A7F0C71
:100C66001218D6121B5E7F1E12190412183C754A02
:100C760001055CE4F554F555F561754801F52CE57B
:100C86004F6404454E6003020D44E55A64204559FD
:100C96007052E54F454E604CE56164017046F54A79
:100CA6007F121218D6E4F564F5657DE67C057FE6CD
:100CB6007E05121B1C0565E56570020564C3940379
:100CC600E5646480948040E2121B5E7F1E12190464
:100CD60012183C754A01055CE4F554F555F5617545
:100CE6004801F52CE55A641045597052E5584557A8
:100CF600704CE54F454E6046E56164017040F54A2B
:100D0600F564F5657DE67C057FE67E05121B1C0510
:100D160065E56570020564C39403E56464809480A8
:100D260040E2121B5E7F1E12190412183C754A011E
:100D3600055CE4F554F555F561754801F52CE54F6C
:100D46006405454E706FE55A64104559702FE54F9E
:100D5600454E6029E561B40124E4F54A7F12121874
:100D6600D6121B5E7F1E12190412183C754A010525
:100D76005CE4F554F555F561754801F52CE55A64C2
:100D86002045597030E5584557702AE54F454E6065
:100D960024E561B4011FE4F54A121B5E7F1E121999
:100DA6000412183C754A01055CE4F554F555F561E5
:100DB600754801F52CE55C64026066E558640F45EC
:100DC60057705EE54864017058E54F454E6052E441
:100DD600F548F554F555E54E703FE54F146014148B
:100DE600602214601824FE602804702D7F0A1218F1
:100DF600D680267F121218D6121986801C7F0F12F3
:100E060018D680087F121218D612198612195C801D
:100E1600087F0C1218D612183C754B01E4F54EF5F6
:100E26004FE55C64027065F54BE558640F455770F5
:100E36005BE54864017055E54F454E604FE4F54863
:100E4600F554F555E54E703FE54F146017146025CF
:100E560014601B24FE602804702D7F0C1218D61215
:100E66001A0480237F141218D6121A2E80197F0FA7
:100E76001218D680127F121218D612198680087F91
:100E86000C1218D612195CE4F54EF54FE55C6402B7
:100E96006003020A57D3E55594C3E55464809480F1
:100EA6005003020A57E54F454E6003020A57F554B0
:0A0EB600F555121B5E121B5E80FB57
:101465007580FFE580540F755700F558E5805430B9
:10147500755900F55A7F011218D6E5576003021514
:101485005EE55814B40F00400302155E90149F7575
:10149500F003A4C58325F0C583730214CC0214DAC6
:1014A5000214E302150702152302152C0215350255
:1014B50014F502155E02153E02155E0215100215A1
:1014C500470215500215590555E555700205547D1D
:1014D5000E7C0680150555E5557002055422055507
:1014E500E555700205547DDC7C057F0E7E06802B5C
:1014F5000555E555700205547DAA7C057FAA7E0534
:1015050080190555E55570510554220555E5557069
:101515000205547DAA7C057FDC7E050218A40555CD
:10152500E55570350554220555E555702C055422B1
:101535000555E55570230554220555E555701A05E1
:1015450054220555E55570110554220555E555708C
:0A155500080554227F061218D62262
:030000000216588D
:0C165800787FE4F6D8FD75818702169FAC
:10155F00BC000BBE0029EF8DF084FFADF022E4CC70
:10156F00F875F008EF2FFFEE33FEEC33FCEE9DEC39
:10157F00984005FCEE9DFE0FD5F0E9E4CEFD22ED7F
:10158F00F8F5F0EE8420D21CFEADF075F008EF2FC9
:10159F00FFED33FD4007985006D5F0F222C398FDBA
:0515AF000FD5F0EA2257
:1015B400EB9FF5F0EA9E42F0E99D42F0EC6480C8AE
:0615C40064809845F0224E
:100EC000E5412435F8E605412278323007027835CD
:100ED000E475F0011216220215CA2000EB7F2ED213
:100EE000008018EF540F2490D43440D4FF30040B0A
:100EF000EF24BFB41A0050032461FFE542600215DD
:100F0000420545E5457002054430070D7832E47529
:100F1000F001121622EF021610021BE57403D2072D
:100F20008003E4C207F5418B328A338934E4F54209
:100F3000F544F545E54260077F20120EFB80F5750C
:100F400043FFC201C200C202C203C205C206C208F8
:100F5000120EC9FF700D3007057F00120F0CAF4550
:100F6000AE4422B4255FC2D5C204120EC9FF24D0FC
:100F7000B40A00501A75F00A784230D50508B6FF59
:100F80000106C6A426F620D5047002D20380D92417
:100F9000CFB41A00EF5004C2E5D20402110CD20102
:100FA00080C6D20080C0D20280BCD2D580BAD20521
:100FB00080B47F20120EFB2002077401B54200406E
:100FC000F1120EC0FF120EFB020F34D208D20680BF
:100FD00095120EC0FB120EC0FA120EC0F94A4B70E9
:100FE0000679DD7A117BFF20022EE542602A7E0021
:100FF0008E827583001215E360060EEE654370F075
:10100000C2D5EBC0E0EAC0E0E9C0E0EE121153D077
:10101000E0F9D0E0FAD0E0FB1215CAFF60AAEBC0FD
:10102000E0EAC0E0E9C0E0120EFBD0E02401F9D014
:10103000E03400FAD0E0FBE5430460DCD543D9801E
:10104000877BFF7A11794FD202809C7910800279D8
:1010500008C206C2088008D2D5790A8004790AC27B
:10106000D5E543047002F543E4FAFDFEFF120EC01D
:10107000FC7B08200113120EC0FD7B1030000A1209
:101080000EC0FE120EC0FF7B20EC3382D592D550ED
:1010900013C3E43000069FFFE49EFEE42001039D9D
:1010A000FDE49CFCE4CBF8C201EC700CCFCECDCCBF
:1010B000E824F8F870F38017C3EF33FFEE33FEED4A
:1010C00033FDEC33FCEB33FB994002FB0FD8E9EB2B
:1010D000300105F8D0E0C448B201C0E00AEC4D4E42
:1010E0004F78207B0070C2EAB5430040BCC0E012DC
:1010F0001155D0F0D0E0200104C4C0E0C4B201C05A
:10110000F0120EE4D0F0D5F0EB020F341216320FCD
:10111000D153104B580FA24C0F9E42104F4F1057F7
:0F112000441057490FB743105D55104146104119
:10112F004510414711FD500FA62D0FAA2E0FCD2BA5
:10113F000FAE230FCB2011E62A0F664800000FC514
:10114F003F3F3F00790AA2D5200314300509B9109B
:10115F00020404B9080104A2D5200602500104209C
:10116F0002689202B542005034C0E07F203003196C
:10117F007F30A20272067205500F1211ACC202C26A
:10118F0006C205C2087F30800F300503E9C0E012A8
:10119F000EFB300503D0E0F9D0E0B542CC30051797
:1011AF007F30B9100C120EFB7F583004077F788008
:1011BF0003B90803120EFB3002057F2D020EFB7FD1
:1011CF00202008F87F2B2006F322920280CF286E72
:1011DF00756C6C2900D201120EC03001F8C2017873
:1011EF004230D50108F6020F662D50434958120EB2
:1011FF00C02403B405004001E49011F893120EECE3
:0D120F00743A120EECD20375420402104B2B
:10166400020026E493A3F8E493A34003F68001F276
:1016740008DFF48029E493A3F85407240CC8C33387
:10168400C4540F4420C8834004F456800146F6DF56
:10169400E4800B01020408102040809016E4E47EEC
:1016A400019360BCA3FF543F30E509541FFEE4934B
:1016B400A360010ECF54C025E060A840B8E493A312
:1016C400FAE493A3F8E493A3C8C582C8CAC583CA3D
:1016D400F0A3C8C582C8CAC583CADFE9DEE780BEF5
:01174A00009E
:1015CA00BB010689828A83E0225002E722BBFE021F
:0915DA00E32289828A83E4932252
:1015E300BB010CE58229F582E5833AF583E02250BD
:1015F30006E92582F8E622BBFE06E92582F8E22207
:0D160300E58229F582E5833AF583E4932220
:10161000BB010689828A83F0225002F722BBFE01B9
:02162000F322B3
:10162200FAE6FB0808E6F925F0F618E6CA3AF622C9
:10163200D083D082F8E4937012740193700DA3A347
:1016420093F8740193F5828883E47374029368605B
:06165200EFA3A3A380DF5B
:00000001FF
