:1014F6007C007D0A120E5DEF1F70011E144E70F700
:0115060022C2
:10147600AB07AA060BBB00010AEB1B70011A144A44
:0C14860060097F847E031214F680EE22C1
:03002000DFFE22DE
:10145900D2907FDC7E051214F6C290D2917FDC7E99
:0D146900051214F6C2917F147E0002147665
:0211D1008F2C61
:1011D300E4F52DE52DC3952C5021D2907F9F7E05FC
:1011E3001214F6C290D2917F197E061214F6C291A0
:0B11F3007F147E00121476052D80D8BA
:0111FE0022CE
:0A10CB008E638F648C658D668B6761
:1010D500E4F568E568C395675021D290AF66AE65C3
:1010E5001214F6C290D291AF64AE631214F6C29197
:0B10F5007F147E00121476056880D87E
:0111000022CC
:0211FF008F2C33
:10120100E4F52DE52DC3952C5021D2907F2C7E063F
:101211001214F6C290D2917F8C7E051214F6C291FF
:0B1221007F147E00121476052D80D88B
:01122C00229F
:08119F008E2C8F2D8C2E8D2F5C
:1011A700E4F530D290AF2FAE2E1214F6C290D29142
:1011B700AF2DAE2C1214F6C2917F147E0012147656
:0911C7000530E530C3940240DA62
:0111D00022FC
:0A1101008E2C8F2D8C2E8D2F8B303D
:10110B00E4F531E531C395305021D290AF2FAE2E9F
:10111B001214F6C290D291AF2DAE2C1214F6C291CE
:0B112B007F147E00121476053180D87E
:011136002296
:10122D00E4F570D2907FAA7E051214F6C290D29189
:10123D007FAA7E051214F6C2917F147E00121476D9
:09124D000570E570C3946440DAF9
:011256002275
:10125700E4F52CD2907F787E051214F6C290D291D5
:101267007F787E051214F6C2917F147E00121476E1
:09127700052CE52CC3941640DAA5
:01128000224B
:10128100E4F52CD2907F787E051214F6C290D291AB
:101291007F787E051214F6C2917F147E00121476B7
:0912A100052CE52CC3940F40DA82
:0112AA002221
:1012AB00E4F52CD2907FB47E051214F6C290D29145
:1012BB007FB47E051214F6C2917F147E0012147651
:0912CB00052CE52CC3944B40DA1C
:0112D40022F7
:1012D500E4F571D2907F0E7E061214F6C290D2917B
:1012E5007F0E7E061214F6C2917F147E00121476CC
:0912F5000571E571C3944640DA6D
:0112FE0022CD
:1012FF00E4F52CD2907F407E061214F6C290D29164
:10130F007F407E061214F6C2917F147E001214766F
:09131F00052CE52CC3941A40DAF8
:0113280022A2
:10132900E4F52CD2907F407E061214F6C290D29139
:101339007F407E061214F6C2917F147E0012147645
:09134900052CE52CC3940F40DAD9
:011352002278
:10135300E4F52CD2907F047E061214F6C290D2914B
:101363007F047E061214F6C2917F147E0012147657
:09137300052CE52CC3944640DA78
:01137C00224E
:10137D00E4F572D2907F407E061214F6C290D2919F
:10138D007F407E061214F6C2917F147E00121476F1
:09139D000572E572C3941A40DAEE
:0113A6002224
:101417008E2C8F2DD290AF05AE041214F6C290D247
:1014270091AF2DAE2C1214F6C2917F147E000214D8
:01143700763E
:10113700E4F52CF52DD2907FA07E051214F6C2900F
:10114700D2917FA07E051214F6C2917F147E001201
:101157001476052DE52D7002052CC39444E52C94D7
:031167000040D273
:01116A002262
:10116B00E4F51EF51FD2907F187E061214F6C2907E
:10117B00D2917F187E061214F6C2917F147E001254
:10118B001476051FE51F7002051EC39444E51E94DB
:03119B000040D23F
:01119E00222E
:0300230002104682
:07104600C0E0C0D075D00826
:10104D00309820AF99C298E5692408FDE433FCE59A
:10105D006B6D7001EC600CAE6B056BEE5407247478
:10106D00F8A60F30991BC299E56A656C6011AF6ADD
:10107D00056AEF5407247CF8E6F599C20A8002C28E
:01108D000959
:05108E00D0D0D0E032DB
:1013CF00200A22200905D2098F9922C2ACAE6C05E2
:1013DF006CEE5407247CF8A607E56C656A54077019
:0613EF0002D20AD2AC227A
:1014E000AD07BD0A08200AFD7F0D1213CF200AFDAB
:0614F000AF051213CF222C
:1014C900E56B656960FAC2ACAF690569EF54072439
:0614D90074F8E6FFD2AC3E
:0114DF0022EA
:1014AE00E4F569F56BF56AF56CC209C20A43892049
:0B14BE00758DFDD28E7598D8D2AC223F
:060003001214AED2AF2280
:070FE200016D00026E00002A
:0F150700438901E4F58CF58AD2AFD2A9C28C22B8
:03000B00021516C5
:03151600C28C3252
:10109300E4F52CF52DC2A6C2A7D2A67F19FE121421
:1010A300F6C2A630A7FDD28C30A703208CFAC28CDF
:1010B300AF8CEFFEAD8A7C00E42DFFEC3EFE7D3A63
:0710C300120E5D8E2C8F2D33
:0110CA002203
:1013A7007265643D256C642C677265656E3D256CBE
:1013B700642C626C75653D256C640A00636F6C6F05
:0813C70072203D2025640A009C
:100FE90004100000000004180000000004140000B0
:020FF9000000F6
:10149200D2AFE4F5C943C81075985075CDFF75CC2D
:0C14A200DC75CBFF75CADCD2CAD29922DF
:10143800E4F573C2937FC87E00121476D2937FC8F6
:101448007E001214760573E573C3940340E5C293D6
:011458002271
:10000E00758951758CFC758A66D2AFD2A9D28CD205
:02001E008E2230
:03000B000213F5E8
:1013F500C0E0C0D0C28CC28E051DE51D7002051C63
:10140500758CFCE58A2466F58AD28CD28ED0D0D034
:02141500E032C3
:100B1A00752C02D293D2A1D2A212000E121492AF55
:100B2A002C152CEF7003020C08E4F51CF51DC2A36A
:100B3A00D2A4E51D6448451C70F8C28CC28EAF8DE4
:100B4A00EFFEAD8B7C00E42DFFEC3EFEE48F178EAA
:100B5A0016F515F514F58BF58DF51CF51DD28CD20D
:100B6A008ED2A3D2A4E51D6449451C70F8C28CC27A
:100B7A008EAF8DEFFEAD8B7C00E42DFFEC3EFEE4E4
:100B8A008F138E12F511F510F58BF58DF51CF51DE9
:100B9A00D28CD28EC2A3C2A4E51D644C451C70F847
:100BAA00C28CC28EAF8DEFFEAD8B7C00E42DFFECC4
:100BBA003EFEE48F1B8E1AF519F518F58BF58DF5A7
:100BCA001CF51D7BFF7A1379A7851B35851A348599
:100BDA0019338518328513398512388511378510EE
:100BEA003685173D85163C85153B85143A12082033
:100BFA007FC87E00121476D28CD28E020B297BFF1C
:100C0A007A1379A7851B35851A34851933851832E5
:100C1A0085133985123885113785103685173D8534
:100C2A00163C85153B85143A120820E47F23FEFD05
:100C3A00FCAB1BAA1AA919A818D3120EB2502FE49A
:100C4A007F23FEFDFCAB13AA12A911A810120EB243
:100C5A00501CE47F23FEFDFCAB17AA16A915A814A5
:100C6A00120EB25009752D00752E02020D56E47F40
:100C7A00C8FEFDFCAB1BAA1AA919A818C3120EB20A
:100C8A00402FE47FC8FEFDFCAB13AA12A911A810DD
:100C9A00120EB2401CE47FC8FEFDFCAB17AA16A9CF
:100CAA0015A814120EB24009752D00752E01020DF9
:100CBA0056E47F96FEFDFCAB1BAA1AA919A818C315
:100CCA00120EB2402FE47F32FEFDFCAB13AA12A92A
:100CDA0011A810D3120EB2501BE47F32FEFDFCABFA
:100CEA0017AA16A915A814120EB25008752D007568
:100CFA002E038058E47FC8FEFDFCAB1BAA1AA91973
:100D0A00A818C3120EB2402FE47F96FEFDFCAB1367
:100D1A00AA12A911A810120EB2401CE47F64FEFDAB
:100D2A00FCAB17AA16A915A814D3120EB25008754F
:100D3A002D00752E048015752D00752E057BFF7A02
:100D4A001379C3852D32852E33120820C2AFC2A96A
:080D5A00C28CC28EAE2DAF2E3B
:010D6200226E
:100FFB000251000002600000014900015E00014542
:10100B0001015001016200014E0001530001480033
:10101B00014A00014D00014F00015A00015D000122
:10102B004701015F00014400015C000158000146CB
:0A103B0000015900014300015B00B1
:10002600E4F522F523F524F527F528F52912000332
:100036007FD07E071214767F281211D1755001E405
:10004600F562F55E754701754401F529755902E5B6
:100056005964037003020337E547B40103120D63C5
:10006600E550B4010A1215071210938E2A8F2BC37E
:10007600E52B9405E52A94005024E550B4011F7F32
:100086000F1211D1121459120B1A8E4B8F4C1211DA
:10009600377F141211D1E4F545F550754401D3E5C7
:1000A600529450E55164809480400CE544B40107B5
:1000B600E4F551F552F544E5447058E555640F45AD
:1000C600547050E545704CF551F552F529E54B70E5
:1000D6003FE54C14601714602514601B24FE60284D
:1000E60004702D7F0C1211D112125780237F0F122C
:1000F60011D112128180197F0F1211D180127F0F38
:100106001211D112132980087F0F1211D11212FF7A
:10011600755E01D3E5529450E55164809480500396
:100126000202B4E54C6401454B6010E54C6403459E
:100136004B6008E54C6402454B7045E55764304515
:10014600566010E557641045566008E5576420452B
:1001560056702DE54C454B6027E55EB40122E4F56B
:10016600477F061211D11214597F1E1211FF121168
:10017600377547010559E4F551F552754501F55EA8
:10018600E54C6404454B6003020241E55764204593
:10019600567050E54C454B604AE55E64017044F587
:1001A600477F141211D1E4F560F5617DE67C057F89
:1001B600E67E051214170561E56170020560C394B9
:1001C60003E5606480948040E21214597F1E121188
:1001D600FF1211377547010559E4F551F55275457A
:1001E60001F55EE557641045567050E55545547067
:1001F6004AE54C454B6044E55E6401703EF547F5C3
:1002060060F5617DE67C057FE67E051214170561C3
:10021600E56170020560C39403E5606480948040E4
:10022600E21214597F1E1211FF121137754701058C
:1002360059E4F551F552754501F55EE54C64054501
:100246004B706BE55764104556702DE54C454B6079
:1002560027E55EB40122E4F5477F121211D112148C
:10026600597F1E1211FF1211377547010559E4F522
:1002760051F552754501F55EE55764204556702ED9
:10028600E55545547028E54C454B6022E55EB401C2
:100296001DE4F5471214597F1E1211FF121137750E
:1002A60047010559E4F551F552754501F55EE544FA
:1002B600600302005EE555640F4554600302005E6C
:1002C600E5456401600302005E755001F551F55283
:1002D600E54B703FE54C14601714602514601B2431
:1002E600FE602804702D7F0C1211D11212FF80239C
:1002F6007F141211D112132980197F0F1211D18088
:10030600127F121211D112128180087F0C1211D1A4
:10031600121257E4F54BF54CE559640360030200ED
:100326005E7B1E7D787C057F787E051211017548FF
:1003360001E4F54EF562F545754701F559F54BF5BE
:100346004CF52A752B64F529F551F552754801E5EA
:1003560047B40103120D63E548640160030203E933
:10036600F527F528F525F5261215071210938E2A7E
:100376008F2B7DFA7C057FFA7E05121417C3E52BB9
:100386009408E52A94004036E52B9419E52A940052
:10039600502C852527852628E5249406401E7D04B5
:1003A6007C067F047E061214171214597F0F121151
:1003B600D1754E01755A01E4F524801505240526EC
:1003C600E52670020525C394C8E52564809480401F
:1003D60097E54E700B1212FF755902E4F54BF54C7A
:1003E600E4F548D3E5289437E527648094804008EF
:1003F600754D01E4F54A8006754A01E4F54DE5556B
:10040600640F4554703DE55A64017037F551F55255
:10041600755D01E54AB401117F0E1211D17B1E7D77
:10042600227C067F227E068014E54DB401127F17DA
:100436001211D17B2A7D967C057F967E05121101CD
:10044600E4F55AE555640F45547042E55D64017064
:100456003CD3E552940AE55164809480402FE4F53C
:1004660051F552E54AB4010A7F0F1211D112135306
:10047600800DE54DB401137F0F1211D11212AB7F1F
:10048600141211D1E4F545754F01E4F55DE55564A7
:100496000F45547079E54F64017073D3E552941E8D
:1004A600E551648094804066121459120B1A8E4BE3
:1004B6008F4CE54C6402454B7003756201E4F54FC1
:1004C600F545F551F552F529E54B703FE54C1460BD
:1004D6001714602514601B24FE602804702D7F0C01
:1004E6001211D112125780237F0F1211D1121281CD
:1004F60080197F0F1211D180127F0F1211D11213A2
:100506002980087F0F1211D11212FF755E01D3E503
:10051600529450E5516480948050030206B9E54C2C
:100526006401454B6010E54C6403454B6008E54C9F
:100536006402454B7047E557643045566010E557F1
:10054600641045566008E55764204556702FE54C03
:10055600454B6029E55EB40124E4F5477F0B121193
:10056600D11214597F1E1211FF121137754701055A
:1005760059E4F551F552F55E754501F529E54C64EA
:1005860004454B6003020642E55764204556705207
:10059600E54C454B604CE55E64017046F5477F12BD
:1005A6001211D1E4F560F5617DE67C057FE67E05F6
:1005B6001214170561E56170020560C39403E560D6
:1005C6006480948040E21214597F1E1211FF1211AA
:1005D600377547010559E4F551F552F55E75450144
:1005E600F529E557641045567052E5554554704C4B
:1005F600E54C454B6046E55E64017040F547F560A5
:10060600F5617DE67C057FE67E051214170561E53A
:100616006170020560C39403E5606480948040E2E3
:100626001214597F1E1211FF121137754701055911
:10063600E4F551F552F55E754501F529E54C64057D
:10064600454B706FE55764104556702FE54C454B8A
:100656006029E55EB40124E4F5477F121211D11238
:1006660014597F1E1211FF1211377547010559E4FF
:10067600F551F552F55E754501F529E557642045B6
:10068600567030E5554554702AE54C454B6024E5D7
:100696005EB4011FE4F5471214597F1E1211FF12B2
:1006A60011377547010559E4F551F552F55E754563
:1006B60001F529E55964026066E555640F455470F5
:1006C6005EE54564017058E54C454B6052E4F545DE
:1006D600F551F552E54B703FE54C14601414602259
:1006E60014601824FE602804702D7F0A1211D18030
:1006F600267F121211D1121281801C7F0F1211D186
:1007060080087F121211D112128112125780087FAF
:100716000C1211D1121137754801E4F54BF54CE571
:100726005964027065F548E555640F4554705BE5FC
:100736004564017055E54C454B604FE4F545F55170
:10074600F552E54B703FE54C1460171460251460B4
:100756001B24FE602804702D7F0C1211D11212FF8B
:1007660080237F141211D112132980197F0F1211C1
:10077600D180127F121211D112128180087F0C12C1
:1007860011D1121257E4F54BF54CE559640260039A
:10079600020355D3E55294BEE5516480948050031C
:1007A600020355E54C454B6003020355F551F552DE
:0807B60012145912145980FBC2
:100D63007580FFE580540F755400F555E5805430C8
:100D7300755600F5577F011211D1E5546003020E39
:100D83005CE55514B40F004003020E5C900D9D7595
:100D9300F003A4C58325F0C58373020DCA020DD8E1
:100DA300020DE1020E05020E21020E2A020E33028B
:100DB3000DF3020E5C020E3C020E5C020E0E020EDE
:100DC30045020E4E020E570552E552700205517D43
:100DD3000E7C0680150552E552700205512205521C
:100DE300E552700205517DDC7C057F0E7E06802B6B
:100DF3000552E552700205517DAA7C057FAA7E0546
:100E030080190552E55270510551220552E5527081
:100E13000205517DAA7C057FDC7E0502119F0552E8
:100E2300E55270350551220552E552702C055122C9
:100E33000552E55270230551220552E552701A05F9
:100E430051220552E55270110551220552E55270A7
:0A0E5300080551227F061211D1227A
:03000000020F5696
:0C0F5600787FE4F6D8FD758183020F9DC2
:100E5D00BC000BBE0029EF8DF084FFADF022E4CC79
:100E6D00F875F008EF2FFFEE33FEEC33FCEE9DEC42
:100E7D00984005FCEE9DFE0FD5F0E9E4CEFD22ED88
:100E8D00F8F5F0EE8420D21CFEADF075F008EF2FD2
:100E9D00FFED33FD4007985006D5F0F222C398FDC3
:050EAD000FD5F0EA2260
:100EB200EB9FF5F0EA9E42F0E99D42F0EC6480C8B7
:060EC20064809845F02257
:1007BE00E53E2432F8E6053E22782F3007027832E5
:1007CE00E475F001120F20020EC82000EB7F2ED22E
:1007DE00008018EF540F2490D43440D4FF30040B13
:1007EE00EF24BFB41A0050032461FFE53F600215E9
:1007FE003F0542E5427002054130070D782FE47542
:10080E00F001120F20EF020F0E0214E07403D20754
:10081E008003E4C207F53E8B2F8A308931E4F53F21
:10082E00F541F542E53F60077F201207F980F57527
:10083E0040FFC201C200C202C203C205C206C20804
:10084E001207C7FF700D3007057F0012080AAF426E
:10085E00AE4122B4255FC2D5C2041207C7FF24D011
:10086E00B40A00501A75F00A783F30D50508B6FF65
:10087E000106C6A426F620D5047002D20380D92420
:10088E00CFB41A00EF5004C2E5D204020A0AD20114
:10089E0080C6D20080C0D20280BCD2D580BAD2052A
:1008AE0080B47F201207F92002077401B53F004083
:1008BE00F11207BEFF1207F9020832D208D20680E3
:1008CE00951207BEFB1207BEFA1207BEF94A4B700D
:1008DE000679DB7A0A7BFF20022EE53F602A7E0036
:1008EE008E82758300120EE160060EEE654070F08A
:1008FE00C2D5EBC0E0EAC0E0E9C0E0EE120A51D08A
:10090E00E0F9D0E0FAD0E0FB120EC8FF60AAEBC00F
:10091E00E0EAC0E0E9C0E01207F9D0E02401F9D026
:10092E00E03400FAD0E0FBE5400460DCD540D9802D
:10093E00877BFF7A0A794DD202809C7910800279EA
:10094E0008C206C2088008D2D5790A8004790AC284
:10095E00D5E540047002F540E4FAFDFEFF1207BE35
:10096E00FC7B082001131207BEFD7B1030000A121B
:10097E0007BEFE1207BEFF7B20EC3382D592D55008
:10098E0013C3E43000069FFFE49EFEE42001039DA6
:10099E00FDE49CFCE4CBF8C201EC700CCFCECDCCC8
:1009AE00E824F8F870F38017C3EF33FFEE33FEED53
:1009BE0033FDEC33FCEB33FB994002FB0FD8E9EB34
:1009CE00300105F8D0E0C448B201C0E00AEC4D4E4B
:1009DE004F78207B0070C2EAB5400040BCC0E012E8
:1009EE000A53D0F0D0E0200104C4C0E0C4B201C06C
:1009FE00F01207E2D0F0D5F0EB020832120F3008F9
:100A0E00CF5309495808A04C089C42094D4F09552F
:0F0A1E004409554908B543095B55093F46093F4F
:100A2D0045093F470AFB5008A42D08A82E08CB2BDB
:100A3D0008AC2308C9200AE42A086448000008C34A
:100A4D003F3F3F00790AA2D5200314300509B910A4
:100A5D00020404B9080104A2D520060250010420A5
:100A6D0002689202B53F005034C0E07F2030031978
:100A7D007F30A20272067205500F120AAAC202C27C
:100A8D0006C205C2087F30800F300503E9C0E012B1
:100A9D0007F9300503D0E0F9D0E0B53FCC300517AC
:100AAD007F30B9100C1207F97F583004077F78801A
:100ABD0003B908031207F93002057F2D0207F97FEC
:100ACD00202008F87F2B2006F322920280CF286E7B
:100ADD00756C6C2900D2011207BE3001F8C2017885
:100AED003F30D50108F60208642D504349581207CE
:100AFD00BE2403B405004001E4900AF6931207EA00
:0D0B0D00743A1207EAD203753F0402094949
:100F6200020026E493A3F8E493A34003F68001F27F
:100F720008DFF48029E493A3F85407240CC8C33390
:100F8200C4540F4420C8834004F456800146F6DF5F
:100F9200E4800B0102040810204080900FE2E47EFE
:100FA200019360BCA3FF543F30E509541FFEE49354
:100FB200A360010ECF54C025E060A840B8E493A31B
:100FC200FAE493A3F8E493A3C8C582C8CAC583CA46
:100FD200F0A3C8C582C8CAC583CADFE9DEE780BEFE
:0110450000AA
:100EC800BB010689828A83E0225002E722BBFE0228
:090ED800E32289828A83E493225B
:100EE100BB010CE58229F582E5833AF583E02250C6
:100EF10006E92582F8E622BBFE06E92582F8E22210
:0D0F0100E58229F582E5833AF583E4932229
:100F0E00BB010689828A83F0225002F722BBFE01C2
:020F1E00F322BC
:100F2000FAE6FB0808E6F925F0F618E6CA3AF622D2
:100F3000D083D082F8E4937012740193700DA3A350
:100F400093F8740193F5828883E473740293686064
:060F5000EFA3A3A380DF64
:00000001FF
