:1011F9007C007D0A120B4EEF1F70011E144E70F712
:0112090022C2
:10117900AB07AA060BBB00010AEB1B70011A144A44
:0C11890060097F847E031211F980EE22C1
:03002000DFFE22DE
:10115C00D2907FDC7E051211F9C290D2917FDC7E99
:0D116C00051211F9C2917F147E0002117965
:020ED4008F523B
:100ED600E4F553E553C395525021D2907F9F7E058A
:100EE6001211F9C290D2917F197E061211F9C291A0
:0B0EF6007F147E00121179055380D894
:010F010022CD
:0A0DCE008E698F6A8C6B8D6C8B6D43
:100DD800E4F56EE56EC3956D5021D290AF6CAE6BA5
:100DE8001211F9C290D291AF6AAE691211F9C2918B
:0B0DF8007F147E00121179056E80D878
:010E030022CC
:020F02008F520C
:100F0400E4F553E553C395525021D2907F2C7E06CD
:100F14001211F9C290D2917F8C7E051211F9C291FF
:0B0F24007F147E00121179055380D865
:010F2F00229F
:080EA2008E528F538C548D55C4
:100EAA00E4F556D290AF55AE541211F9C290D291D0
:100EBA00AF53AE521211F9C2917F147E001211790A
:090ECA000556E556C3940240DA16
:010ED30022FC
:0A0E04008E528F538C548D558B567F
:100E0E00E4F557E557C395565021D290AF55AE54E1
:100E1E001211F9C290D291AF53AE521211F9C29182
:0B0E2E007F147E00121179055780D858
:010E39002296
:100F3000E4F576D2907FAA7E051211F9C290D29183
:100F40007FAA7E051211F9C2917F147E00121179D9
:090F50000576E576C3946440DAED
:010F59002275
:100F5A00E4F552D2907F787E051211F9C290D291AF
:100F6A007F787E051211F9C2917F147E00121179E1
:090F7A000552E552C3941640DA59
:010F8300224B
:100F8400E4F552D2907F787E051211F9C290D29185
:100F94007F787E051211F9C2917F147E00121179B7
:090FA4000552E552C3940F40DA36
:010FAD002221
:100FAE00E4F552D2907FB47E051211F9C290D2911F
:100FBE007FB47E051211F9C2917F147E0012117951
:090FCE000552E552C3944B40DAD0
:010FD70022F7
:100FD800E4F577D2907F0E7E061211F9C290D29175
:100FE8007F0E7E061211F9C2917F147E00121179CC
:090FF8000577E577C3944640DA61
:0110010022CC
:10100200E4F552D2907F407E061211F9C290D2913D
:101012007F407E061211F9C2917F147E001211796F
:091022000552E552C3941A40DAAC
:01102B0022A2
:10102C00E4F552D2907F407E061211F9C290D29113
:10103C007F407E061211F9C2917F147E0012117945
:09104C000552E552C3940F40DA8D
:011055002278
:10105600E4F552D2907F047E061211F9C290D29125
:101066007F047E061211F9C2917F147E0012117957
:091076000552E552C3944640DA2C
:01107F00224E
:10108000E4F578D2907F407E061211F9C290D29199
:101090007F407E061211F9C2917F147E00121179F1
:0910A0000578E578C3941A40DAE2
:0110A9002224
:10111A008E528F53D290AF05AE041211F9C290D2FB
:10112A0091AF53AE521211F9C2917F147E0002118F
:01113A00793B
:100E3A00E4F552F553D2907FA07E051211F9C290C3
:100E4A00D2917FA07E051211F9C2917F147E001201
:100E5A0011790553E55370020552C39444E552943F
:030E6A000040D273
:010E6D002262
:100E6E00E4F51EF51FD2907F187E061211F9C2907E
:100E7E00D2917F187E061211F9C2917F147E001254
:100E8E001179051FE51F7002051EC39444E51E94DB
:030E9E000040D23F
:010EA100222E
:03002300020D4982
:070D4900C0E0C0D075D00826
:100D5000309820AF99C298E56F2408FDE433FCE594
:100D6000716D7001EC600CAE710571EE5407247A60
:100D7000F8A60F30991BC299E57065726011AF70CB
:100D80000570EF54072482F8E6F599C20A8002C282
:010D90000959
:050D9100D0D0D0E032DB
:1010D200200A22200905D2098F9922C2ACAE7205DC
:1010E20072EE54072482F8A607E572657054077001
:0610F20002D20AD2AC227A
:1011E300AD07BD0A08200AFD7F0D1210D2200AFDAB
:0611F300AF051210D2222C
:1011CC00E571656F60FAC2ACAF6F056FEF54072421
:0611DC007AF8E6FFD2AC38
:0111E20022EA
:1011B100E4F56FF571F570F572C209C20A43892031
:0B11C100758DFDD28E7598D8D2AC223F
:060003001211B1D2AF2280
:070CD3000173000274000030
:0F120A00438901E4F58CF58AD2AFD2A9C28C22B8
:03000B00021219C5
:03121900C28C3252
:100D9600E4F552F553C2A6C2A7D2A67F19FE1211D8
:100DA600F9C2A630A7FDD28C30A703208CFAC28CDC
:100DB600AF8CEFFEAD8A7C00E42DFFEC3EFE7D3A63
:070DC600120B4E8E528F53F9
:010DCD002203
:1010AA007265643D256C642C677265656E3D256CBE
:1010BA00642C626C75653D256C640A00636F6C6F05
:0810CA0072203D2025640A009C
:100CDA0004100000000004180000000004140000C2
:020CEA00000008
:10119500D2AFE4F5C943C81075985075CDFF75CC2D
:0C11A500DC75CBFF75CADCD2CAD29922DF
:10113B00E4F579C2937FC87E00121179D2937FC8F0
:10114B007E001211790579E579C3940340E5C293CA
:01115B002271
:10000E00758951758CFC758A66D2AFD2A9D28CD205
:02001E008E2230
:03000B000210F8E8
:1010F800C0E0C0D0C28CC28E051DE51D7002051C63
:10110800758CFCE58A2466F58AD28CD28ED0D0D034
:02111800E032C3
:10080B00755202D293D2A1D2A212000E121195AF41
:10081B00521552EF70030208F9E4F51CF51DC2A343
:10082B00D2A4E51D6448451C70F8C28CC28EAF8DF6
:10083B00EFFEAD8B7C00E42DFFEC3EFEE48F178EBC
:10084B0016F515F514F58BF58DF51CF51DD28CD21F
:10085B008ED2A3D2A4E51D6449451C70F8C28CC28C
:10086B008EAF8DEFFEAD8B7C00E42DFFEC3EFEE4F6
:10087B008F138E12F511F510F58BF58DF51CF51DFB
:10088B00D28CD28EC2A3C2A4E51D644C451C70F859
:10089B00C28CC28EAF8DEFFEAD8B7C00E42DFFECD6
:1008AB003EFEE48F1B8E1AF519F518F58BF58DF5B9
:1008BB001CF51D7BFF7A1079AA851B5B851A5A855F
:1008CB00195985185885135F85125E85115D851042
:1008DB005C85176385166285156185146012051199
:1008EB007FC87E00121179D28CD28E02081A7BFF40
:1008FB007A1079AA851B5B851A5A85195985185860
:10090B0085135F85125E85115D85105C8517638588
:10091B001662851561851460120511E47F23FEFDB7
:10092B00FCAB1BAA1AA919A818D3120BA3502FE4BE
:10093B007F23FEFDFCAB13AA12A911A810120BA367
:10094B00501CE47F23FEFDFCAB17AA16A915A814B7
:10095B00120BA35009755300755402020A47E47F2A
:10096B00C8FEFDFCAB1BAA1AA919A818C3120BA32E
:10097B00402FE47FC8FEFDFCAB13AA12A911A810EF
:10098B00120BA3401CE47FC8FEFDFCAB17AA16A9F3
:10099B0015A814120BA34009755300755401020AD4
:1009AB0047E47F96FEFDFCAB1BAA1AA919A818C336
:1009BB00120BA3402FE47F32FEFDFCAB13AA12A94E
:1009CB0011A810D3120BA3501BE47F32FEFDFCAB1E
:1009DB0017AA16A915A814120BA350087553007566
:1009EB0054038058E47FC8FEFDFCAB1BAA1AA9195F
:1009FB00A818C3120BA3402FE47F96FEFDFCAB138C
:100A0B00AA12A911A810120BA3401CE47F64FEFDCF
:100A1B00FCAB17AA16A915A814D3120BA350087573
:100A2B00530075540480157553007554057BFF7A7C
:100A3B001079C6855358855459120511C2AFC2A9F6
:080A4B00C28CC28EAE53AF5401
:010A53002280
:100CEC000235000002440000012B00012D010142DD
:100CFC0000012601013401014700013200012500E9
:100D0C00013100013700012A00012C0001300001E3
:100D1C002401012900013300013E0001410001289A
:100D2C0001014300012300014000013C0001460089
:0C0D3C00012700013D00012200013F00E2
:10002600E4F548F549F54AF54DF54EF54F1200034E
:100036007FD07E071211797F28120ED4E4F547F59A
:1000460026752801F53DF52EF52FF550755164F509
:100056004FF535F536752A01E528B40103120A5421
:10006600E52A6401706EF54DF54EF54BF54C12120E
:100076000A120D968E508F517DFA7C057FFA7E0509
:1000860012111AC3E551940AE55094004030E55127
:100096009414E55094005026854B4D854C4EE54A08
:1000A600940640187D047C067F047E0612111A12FF
:1000B600115C7F0F120ED4753E018015054A054C62
:1000C600E54C7002054BC394C8E54B6480948040B0
:1000D6009DE4F52AD3E54E942DE54D648094804049
:1000E60008753001E4F52C8006752C01E4F530E541
:1000F60039640F4538703DE53E64017037F535F5D6
:1001060036754101E52CB401117F0E120ED47B1A0F
:100116007D227C067F227E068014E530B401127FA4
:1001260010120ED47B237D967C057F967E05120EDB
:1001360004E4F53EE539640F45387042E541640153
:10014600703CD3E536940AE53564809480402FE40C
:10015600F535F536E52CB4010A7F0F120ED41210D0
:1001660056800DE530B401137F0F120ED4120FAE78
:100176007F14120ED4E4F526753301E4F541E53912
:10018600640F45387079E53364017073D3E53694AE
:100196001EE53564809480406612115C12080B8E51
:1001A6002E8F2FE52F6402452E7003754701E4F567
:1001B60033F526F535F536F54FE52E703FE52F1468
:1001C600601714602514601B24FE602804702D7FC0
:1001D6000C120ED4120F5A80237F0F120ED4120F58
:1001E6008480197F0F120ED480127F0F120ED41244
:1001F600102C80087F0F120ED4121002754201D304
:10020600E5369450E5356480948050030203AAE5F0
:100216002F6401452E6010E52F6403452E6008E526
:100226002F6402452E7047E53B6430453A6010E581
:100236003B6410453A6008E53B6420453A702FE57B
:100246002F452E6029E542B40124E4F5287F0B12E0
:100256000ED412115C7F1E120F02120E3A7528017F
:10026600053DE4F535F536F542752601F54FE52FE2
:100276006404452E6003020333E53B6420453A706F
:1002860052E52F452E604CE54264017046F5287F05
:1002960012120ED4E4F544F5457DE67C057FE67E34
:1002A6000512111A0545E54570020544C39403E598
:1002B600446480948040E212115C7F1E120F021289
:1002C6000E3A752801053DE4F535F536F5427526F5
:1002D60001F54FE53B6410453A7052E539453870F3
:1002E6004CE52F452E6046E54264017040F528F541
:1002F60044F5457DE67C057FE67E0512111A054527
:10030600E54570020544C39403E544648094804047
:10031600E212115C7F1E120F02120E3A75280105B9
:100326003DE4F535F536F542752601F54FE52F64C2
:1003360005452E706FE53B6410453A702FE52F4555
:100346002E6029E542B40124E4F5287F12120ED46A
:1003560012115C7F1E120F02120E3A752801053D1E
:10036600E4F535F536F542752601F54FE53B642093
:10037600453A7030E5394538702AE52F452E602418
:10038600E542B4011FE4F52812115C7F1E120F022C
:10039600120E3A752801053DE4F535F536F5427538
:1003A6002601F54FE53D64026066E539640F453880
:1003B600705EE52664017058E52F452E6052E4F51F
:1003C60026F535F536E52E703FE52F1460141460DA
:1003D6002214601824FE602804702D7F0C120ED49F
:1003E60080267F0F120ED4120F84801C7F0F120EF0
:1003F600D480087F0F120ED4120F84120F5A800871
:100406007F0C120ED4120E3A752A01E4F52EF52F42
:10041600E53D64027065F52AE539640F4538705B81
:10042600E52664017055E52F452E604FE4F526F567
:1004360035F536E52E703FE52F1460171460251448
:10044600601B24FE602804702D7F0C120ED412103F
:100456000280237F14120ED412102C80197F0F12E3
:100466000ED480127F12120ED4120F8480087F0CD5
:10047600120ED4120F5AE4F52EF52FE53D640260F4
:100486000302005ED3E53694BEE535648094805061
:100496000302005EE52F452E600302005EF535F58A
:0904A6003612115C12115C80FB9E
:100A54007580FFE580540F753800F539E580543012
:100A6400753A00F53B7F01120ED4E5386003020BA2
:100A74004DE53914B40F004003020B4D900A8E75F6
:100A8400F003A4C58325F0C58373020ABB020AC917
:100A9400020AD2020AF6020B12020B1B020B2402F8
:100AA4000AE4020B4D020B2D020B4D020AFF020B4E
:100AB40036020B3F020B480536E536700205357DDC
:100AC4000E7C0680150536E536700205352205369E
:100AD400E536700205357DDC7C057F0E7E06802BB5
:100AE4000536E536700205357DAA7C057FAA7E05AC
:100AF40080190536E53670510535220536E5367020
:100B04000205357DAA7C057FDC7E05020EA2053632
:100B1400E53670350535220536E536702C05352267
:100B24000536E53670230535220536E536701A0597
:100B340035220536E53670110535220536E5367061
:0A0B4400080535227F06120ED422A8
:03000000020C47A8
:0C0C4700787FE4F6D8FD758189020C8EE0
:100B4E00BC000BBE0029EF8DF084FFADF022E4CC8B
:100B5E00F875F008EF2FFFEE33FEEC33FCEE9DEC54
:100B6E00984005FCEE9DFE0FD5F0E9E4CEFD22ED9A
:100B7E00F8F5F0EE8420D21CFEADF075F008EF2FE4
:100B8E00FFED33FD4007985006D5F0F222C398FDD5
:050B9E000FD5F0EA2272
:100BA300EB9FF5F0EA9E42F0E99D42F0EC6480C8C9
:060BB30064809845F02269
:1004AF00E5642458F8E60564227855300702785839
:1004BF00E475F001120C11020BB92000EB7F2ED264
:1004CF00008018EF540F2490D43440D4FF30040B25
:1004DF00EF24BFB41A0050032461FFE565600215D5
:1004EF00650568E5687002056730070D7855E47596
:1004FF00F001120C11EF020BFF0211E37403D2078C
:10050F008003E4C207F5648B558A568957E4F56575
:10051F00F567F568E56560077F201204EA80F575D9
:10052F0066FFC201C200C202C203C205C206C208F0
:10053F001204B8FF700D3007057F001204FBAF687F
:10054F00AE6722B4255FC2D5C2041204B8FF24D00F
:10055F00B40A00501A75F00A786530D50508B6FF51
:10056F000106C6A426F620D5047002D20380D92432
:10057F00CFB41A00EF5004C2E5D2040206FBD20139
:10058F0080C6D20080C0D20280BCD2D580BAD2053C
:10059F0080B47F201204EA2002077401B565004081
:1005AF00F11204AFFF1204EA020523D208D206802B
:1005BF00951204AFFB1204AFFA1204AFF94A4B7055
:1005CF000679CC7A077BFF20022EE565602A7E0034
:1005DF008E82758300120BD260060EEE656670F088
:1005EF00C2D5EBC0E0EAC0E0E9C0E0EE120742D0AE
:1005FF00E0F9D0E0FAD0E0FB120BB9FF60AAEBC034
:10060F00E0EAC0E0E9C0E01204EAD0E02401F9D04A
:10061F00E03400FAD0E0FBE5660460DCD566D980F3
:10062F00877BFF7A07793ED202809C79108002790E
:10063F0008C206C2088008D2D5790A8004790AC296
:10064F00D5E566047002F566E4FAFDFEFF1204AF0D
:10065F00FC7B082001131204AFFD7B1030000A123F
:10066F0004AFFE1204AFFF7B20EC3382D592D5503E
:10067F0013C3E43000069FFFE49EFEE42001039DB8
:10068F00FDE49CFCE4CBF8C201EC700CCFCECDCCDA
:10069F00E824F8F870F38017C3EF33FFEE33FEED65
:1006AF0033FDEC33FCEB33FB994002FB0FD8E9EB46
:1006BF00300105F8D0E0C448B201C0E00AEC4D4E5D
:1006CF004F78207B0070C2EAB5660040BCC0E012D4
:1006DF000744D0F0D0E0200104C4C0E0C4B201C090
:1006EF00F01204D3D0F0D5F0EB020523120C210544
:1006FF00C053063A5805914C058D42063E4F0646AB
:0F070F004406464905A643064C550630460630BB
:10071E004506304707EC5005952D05992E05BC2B47
:10072E00059D2305BA2007D52A055548000005B4B6
:10073E003F3F3F00790AA2D5200314300509B910B6
:10074E00020404B9080104A2D520060250010420B7
:10075E0002689202B565005034C0E07F2030031964
:10076E007F30A20272067205500F12079BC202C2A0
:10077E0006C205C2087F30800F300503E9C0E012C3
:10078E0004EA300503D0E0F9D0E0B565CC300517AA
:10079E007F30B9100C1204EA7F583004077F78803E
:1007AE0003B908031204EA3002057F2D0204EA7F22
:1007BE00202008F87F2B2006F322920280CF286E8D
:1007CE00756C6C2900D2011204AF3001F8C20178A9
:1007DE006530D50108F60205552D504349581204CF
:1007EE00AF2403B405004001E49007E7931204DB45
:0D07FE00743A1204DBD20375650402063A5A
:100C5300020026E493A3F8E493A34003F68001F291
:100C630008DFF48029E493A3F85407240CC8C333A2
:100C7300C4540F4420C8834004F456800146F6DF71
:100C8300E4800B0102040810204080900CD3E47E22
:100C9300019360BCA3FF543F30E509541FFEE49366
:100CA300A360010ECF54C025E060A840B8E493A32D
:100CB300FAE493A3F8E493A3C8C582C8CAC583CA58
:100CC300F0A3C8C582C8CAC583CADFE9DEE780BE10
:010D480000AA
:100BB900BB010689828A83E0225002E722BBFE023A
:090BC900E32289828A83E493226D
:100BD200BB010CE58229F582E5833AF583E02250D8
:100BE20006E92582F8E622BBFE06E92582F8E22222
:0D0BF200E58229F582E5833AF583E493223C
:100BFF00BB010689828A83F0225002F722BBFE01D5
:020C0F00F322CE
:100C1100FAE6FB0808E6F925F0F618E6CA3AF622E4
:100C2100D083D082F8E4937012740193700DA3A362
:100C310093F8740193F5828883E473740293686076
:060C4100EFA3A3A380DF76
:00000001FF
