:1011C9007C007D0A120B57EF1F70011E144E70F739
:0111D90022F3
:10114900AB07AA060BBB00010AEB1B70011A144A74
:0C11590060097F847E031211C980EE2221
:03002000DFFE22DE
:10112C00D2907FDC7E051211C9C290D2917FDC7EF9
:0D113C00051211C9C2917F147E00021149F5
:020EA4008F516C
:100EA600E4F552E552C395515021D2907F9F7E05BD
:100EB6001211C9C290D2917F197E061211C9C29130
:0B0EC6007F147E00121149055280D8F5
:010ED10022FE
:0A0DD4008E688F698C6A8D6B8B6C42
:100DDE00E4F56DE56DC3956C5021D290AF6BAE6AA4
:100DEE001211C9C290D291AF69AE681211C9C291E7
:0B0DFE007F147E00121149056D80D8A3
:010E090022C6
:020ED2008F513E
:100ED400E4F552E552C395515021D2907F2C7E0601
:100EE4001211C9C290D2917F8C7E051211C9C29190
:0B0EF4007F147E00121149055280D8C7
:010EFF0022D0
:080E72008E518F528C538D54F8
:100E7A00E4F555D290AF54AE531211C9C290D29133
:100E8A00AF52AE511211C9C2917F147E001211499C
:090E9A000555E555C3940240DA48
:010EA300222C
:100F0000E4F575D2907FAA7E051211C9C290D291E4
:100F10007FAA7E051211C9C2917F147E0012114969
:090F20000575E575C3946440DA1F
:010F290022A5
:100F2A00E4F551D2907F787E051211C9C290D29110
:100F3A007F787E051211C9C2917F147E0012114971
:090F4A000551E551C3941840DA89
:010F5300227B
:100F5400E4F551D2907F787E051211C9C290D291E6
:100F64007F787E051211C9C2917F147E0012114947
:090F74000551E551C3940F40DA68
:010F7D002251
:100F7E00E4F551D2907FB47E051211C9C290D29180
:100F8E007FB47E051211C9C2917F147E00121149E1
:090F9E000551E551C3944B40DA02
:010FA7002227
:100FA800E4F576D2907F0E7E061211C9C290D291D6
:100FB8007F0E7E061211C9C2917F147E001211495C
:090FC8000576E576C3944640DA93
:010FD10022FD
:100FD200E4F551D2907F407E061211C9C290D2919F
:100FE2007F407E061211C9C2917F147E0012114900
:090FF2000551E551C3941A40DADF
:010FFB0022D3
:100FFC00E4F551D2907F407E061211C9C290D29175
:10100C007F407E061211C9C2917F147E00121149D5
:09101C000551E551C3940F40DABF
:0110250022A8
:10102600E4F551D2907F047E061211C9C290D29186
:101036007F047E061211C9C2917F147E00121149E7
:091046000551E551C3944640DA5E
:01104F00227E
:10105000E4F577D2907F407E061211C9C290D291FA
:101060007F407E061211C9C2917F147E0012114981
:091070000577E577C3941A40DA14
:011079002254
:1010EA008E518F52D290AF05AE041211C9C290D25E
:1010FA0091AF52AE511211C9C2917F147E000211F2
:01110A00499B
:100E0A00E4F551F552D2907FA07E051211C9C29025
:100E1A00D2917FA07E051211C9C2917F147E001261
:100E2A0011490552E55270020551C39444E55194A3
:030E3A000040D2A3
:010E3D002292
:100E3E00E4F51EF51FD2907F187E061211C9C290DE
:100E4E00D2917F187E061211C9C2917F147E0012B4
:100E5E001149051FE51F7002051EC39444E51E943B
:030E6E000040D26F
:010E7100225E
:03002300020D4F7C
:070D4F00C0E0C0D075D00820
:100D5600309820AF99C298E56E2408FDE433FCE58F
:100D6600706D7001EC600CAE700570EE540724785F
:100D7600F8A60F30991BC299E56F65716011AF6FC8
:100D8600056FEF54072480F8E6F599C20A8002C27F
:010D96000953
:050D9700D0D0D0E032D5
:1010A200200A22200905D2098F9922C2ACAE71050D
:1010B20071EE54072480F8A607E571656F54077036
:0610C20002D20AD2AC22AA
:1011B300AD07BD0A08200AFD7F0D1210A2200AFD0B
:0611C300AF051210A2228C
:10119C00E570656E60FAC2ACAF6E056EEF54072455
:0611AC0078F8E6FFD2AC6A
:0111B200221A
:10118100E4F56EF570F56FF571C209C20A43892065
:0B119100758DFDD28E7598D8D2AC226F
:06000300121181D2AF22B0
:070CDC000172000273000029
:0F11DA00438901E4F58CF58AD2AFD2A9C28C22E9
:03000B000211E9F6
:0311E900C28C3283
:100D9C00E4F551F552C2A6C2A7D2A67F19FE1211D4
:100DAC00C9C2A630A7FDD28C30A703208CFAC28C06
:100DBC00AF8CEFFEAD8A7C00E42DFFEC3EFE7D3A5D
:070DCC00120B578E518F52EC
:010DD30022FD
:10107A007265643D256C642C677265656E3D256CEE
:10108A00642C626C75653D256C640A00636F6C6F35
:08109A0072203D2025640A00CC
:100CE30004100000000004180000000004140000B9
:020CF3000000FF
:10116500D2AFE4F5C943C81075985075CDFF75CC5D
:0C117500DC75CBFF75CADCD2CAD299220F
:10110B00E4F554C2937FC87E00121149D2937FC875
:10111B007E001211490554E554C3940340E5C29374
:01112B0022A1
:10000E00758951758CFC758A66D2AFD2A9D28CD205
:02001E008E2230
:03000B000210C818
:1010C800C0E0C0D0C28CC28E051DE51D7002051C93
:1010D800758CFCE58A2466F58AD28CD28ED0D0D065
:0210E800E032F4
:10080A0075510212110B7F507E00121149D293D2F8
:10081A00A1D2A212000E121165AF511551EF700349
:10082A00020902E4F51CF51DC2A3D2A4E51D644821
:10083A00451C70F8C28CC28EAF8DEFFEAD8B7C006A
:10084A00E42DFFEC3EFEE48F178E16F515F514F530
:10085A008BF58DF51CF51DD28CD28ED2A3D2A4E5D0
:10086A001D6449451C70F8C28CC28EAF8DEFFEAD77
:10087A008B7C00E42DFFEC3EFEE48F138E12F51103
:10088A00F510F58BF58DF51CF51DD28CD28EC2A311
:10089A00C2A4E51D644C451C70F8C28CC28EAF8D93
:1008AA00EFFEAD8B7C00E42DFFEC3EFEE48F1B8E49
:1008BA001AF519F518F58BF58DF51CF51D7BFF7AE0
:1008CA0010797A851B5A851A5985195885185785BA
:1008DA00135E85125D85115C85105B85176285162E
:1008EA006185156085145F1205107FC87E0012119C
:1008FA0049D28CD28E0208237BFF7A10797A851B23
:10090A005A851A5985195885185785135E85125DB7
:10091A0085115C85105B8517628516618515608572
:10092A00145F120510E47F23FEFDFCAB1BAA1AA973
:10093A0019A818D3120BAC502FE47F23FEFDFCAB91
:10094A0013AA12A911A810120BAC501CE47F23FEA3
:10095A00FDFCAB17AA16A915A814120BAC50097501
:10096A005200755302020A50E47FC8FEFDFCAB1B1D
:10097A00AA1AA919A818C3120BAC402FE47FC8FE03
:10098A00FDFCAB13AA12A911A810120BAC401CE46F
:10099A007FC8FEFDFCAB17AA16A915A814120BAC4A
:1009AA004009755200755301020A50E47F96FEFD14
:1009BA00FCAB1BAA1AA919A818C3120BAC402FE446
:1009CA007F32FEFDFCAB13AA12A911A810D3120B99
:1009DA00AC501BE47F32FEFDFCAB17AA16A915A882
:1009EA0014120BAC50087552007553038058E47FFB
:1009FA00C8FEFDFCAB1BAA1AA919A818C3120BAC96
:100A0A00402FE47F96FEFDFCAB13AA12A911A81091
:100A1A00120BAC401CE47F64FEFDFCAB17AA16A9BE
:100A2A0015A814D3120BAC500875520075530480E4
:100A3A00157552007553057BFF7A107996855257C2
:100A4A00855358120510C2AFC2A9C28CC28EAE52CB
:020A5A00AF5398
:010A5C002277
:100CF5000234000002430000012B00012D010141D7
:100D050000012601013301014600013100012500E2
:100D1500013600012A00012C0001300001240101E7
:100D25002900013200013D00014000012801014276
:100D350000012300013F00013B00014500012700A0
:090D4500013C00012200013E0006
:10002600E4F547F548F549F54CF54DF54E12000354
:100036007FD07E071211497F28120EA4E4F546F5FB
:100046002DF526752801F53CF52EF52FF54F755043
:1000560064F54EF534F535752A01E528B401031229
:100066000A5DE52A6401706EF54CF54DF54AF54BCF
:100076001211DA120D9C8E4F8F507DFA7C057FFA95
:100086007E051210EAC3E550940AE54F940040300D
:10009600E5509414E54F94005026854A4C854B4D07
:1000A600E549940640187D047C067F047E061210FE
:1000B600EA12112C7F0F120EA4753D018015054919
:1000C600054BE54B7002054AC394C8E54A64809423
:1000D60080409DE4F52AD3E54D942DE54C6480944B
:1000E600804008753001E4F52C8006752C01E4F596
:1000F60030E538640F4537702CE53D64017026F510
:1001060034F535754001E52CB4010A7F0E120EA4B4
:10011600120FD2800DE530B401087F12120EA41220
:100126000F2AE4F53DE538640F45377050E5406425
:1001360001704AD3E535940AE53464809480403DE5
:10014600E4F534F535E52CB401187F0F120EA41230
:1001560010267F14120EA4E4F526753201752D01C2
:100166008018E530B401137F0F120EA4120F7E7FA4
:1001760014120EA4E4F526753201E4F540E5386460
:100186000F45377079E53264017073D3E535941EF7
:10019600E53464809480406612112C12080A8E2E73
:1001A6008F2FE52F6402452E7003754601E4F53264
:1001B600F526F534F535F54EE52E703FE52F14603E
:1001C6001714602514601B24FE602804702D7F0C14
:1001D600120EA4120F2A80237F0F120EA4120F54A0
:1001E60080197F0F120EA480127F0F120EA4120F19
:1001F600FC80087F0F120EA4120FD2754101D3E5C1
:10020600359450E5346480948050030203A9E52FA9
:100216006401452E6010E52F6403452E6008E52F26
:100226006402452E7047E53A643045396010E53A78
:10023600641045396008E53A64204539702FE52F8A
:10024600452E6029E541B40124E4F5287F0B120E02
:10025600A412112C7F1E120ED2120E0A7528010549
:100266003CE4F534F535F541752601F54EE52F6488
:1002760004452E6003020332E53A64204539705284
:10028600E52F452E604CE54164017046F5287F1246
:10029600120EA4E4F543F5447DE67C057FE67E0573
:1002A6001210EA0544E54470020543C39403E5438E
:1002B6006480948040E212112C7F1E120ED2120E20
:1002C6000A752801053CE4F534F535F54175260136
:1002D600F54EE53A641045397052E5384537704CAD
:1002E600E52F452E6046E54164017040F528F5434B
:1002F600F5447DE67C057FE67E051210EA0544E5B9
:100306004470020543C39403E5436480948040E24D
:1003160012112C7F1E120ED2120E0A752801053CF0
:10032600E4F534F535F541752601F54EE52F6405FE
:10033600452E706FE53A64104539702FE52F452E2E
:100346006029E541B40124E4F5287F12120EA412B7
:10035600112C7F1E120ED2120E0A752801053CE4DE
:10036600F534F535F541752601F54EE53A64204537
:10037600397030E5384537702AE52F452E6024E57B
:1003860041B4011FE4F52812112C7F1E120ED21261
:100396000E0A752801053CE4F534F535F541752658
:1003A60001F54EE53C64026066E538640F4537703A
:1003B6005EE52664017058E52F452E6052E4F52669
:1003C600F534F535E52E703FE52F146014146022E0
:1003D60014601824FE602804702D7F0C120EA48071
:1003E600267F0F120EA4120F54801C7F0F120EA42C
:1003F60080087F0F120EA4120F54120F2A80087F56
:100406000C120EA4120E0A752A01E4F52EF52FE53C
:100416003C64027065F52AE538640F4537705BE584
:100426002664017055E52F452E604FE4F526F53418
:10043600F535E52E703FE52F14601714602514601E
:100446001B24FE602804702D7F0C120EA4120FD2FE
:1004560080237F14120EA4120FFC80197F0F120E38
:10046600A480127F12120EA4120F5480087F0C1261
:100476000EA4120F2AE4F52EF52FE53C6402600364
:10048600020060D3E53594BEE53464809480500361
:10049600020060E52F452E6003020060F534F53555
:0804A60012112C12112C80FB35
:100A5D007580FFE580540F753700F538E58054300B
:100A6D00753900F53A7F01120EA4E5376003020BCC
:100A7D0056E53814B40F004003020B56900A9775D3
:100A8D00F003A4C58325F0C58373020AC4020AD2FC
:100A9D00020ADB020AFF020B1B020B24020B2D02C2
:100AAD000AED020B56020B36020B56020B08020B17
:100ABD003F020B48020B510535E535700205347DBB
:100ACD000E7C0680150535E5357002053422053599
:100ADD00E535700205347DDC7C057F0E7E06802BAE
:100AED000535E535700205347DAA7C057FAA7E05A6
:100AFD0080190535E53570510534220535E535701C
:100B0D000205347DAA7C057FDC7E05020E7205355B
:100B1D00E53570350534220535E535702C05342263
:100B2D000535E53570230534220535E535701A0593
:100B3D0034220535E53570110534220535E535705E
:0A0B4D00080534227F06120EA422D0
:03000000020C509F
:0C0C5000787FE4F6D8FD758187020C97D0
:100B5700BC000BBE0029EF8DF084FFADF022E4CC82
:100B6700F875F008EF2FFFEE33FEEC33FCEE9DEC4B
:100B7700984005FCEE9DFE0FD5F0E9E4CEFD22ED91
:100B8700F8F5F0EE8420D21CFEADF075F008EF2FDB
:100B9700FFED33FD4007985006D5F0F222C398FDCC
:050BA7000FD5F0EA2269
:100BAC00EB9FF5F0EA9E42F0E99D42F0EC6480C8C0
:060BBC0064809845F02260
:1004AE00E5632457F8E6056322785430070278573F
:1004BE00E475F001120C1A020BC22000EB7F2ED253
:1004CE00008018EF540F2490D43440D4FF30040B26
:1004DE00EF24BFB41A0050032461FFE564600215D7
:1004EE00640567E5677002056630070D7854E4759C
:1004FE00F001120C1AEF020C080211B37403D207AA
:10050E008003E4C207F5638B548A558956E4F5647B
:10051E00F566F567E56460077F201204E980F575DE
:10052E0065FFC201C200C202C203C205C206C208F2
:10053E001204B7FF700D3007057F001204FAAF6783
:10054E00AE6622B4255FC2D5C2041204B7FF24D012
:10055E00B40A00501A75F00A786430D50508B6FF53
:10056E000106C6A426F620D5047002D20380D92433
:10057E00CFB41A00EF5004C2E5D2040206FAD2013B
:10058E0080C6D20080C0D20280BCD2D580BAD2053D
:10059E0080B47F201204E92002077401B564004084
:1005AE00F11204AEFF1204E9020522D208D206802F
:1005BE00951204AEFB1204AEFA1204AEF94A4B7059
:1005CE000679CB7A077BFF20022EE564602A7E0037
:1005DE008E82758300120BDB60060EEE656570F081
:1005EE00C2D5EBC0E0EAC0E0E9C0E0EE120741D0B0
:1005FE00E0F9D0E0FAD0E0FB120BC2FF60AAEBC02C
:10060E00E0EAC0E0E9C0E01204E9D0E02401F9D04C
:10061E00E03400FAD0E0FBE5650460DCD565D980F6
:10062E00877BFF7A07793DD202809C791080027910
:10063E0008C206C2088008D2D5790A8004790AC297
:10064E00D5E565047002F565E4FAFDFEFF1204AE11
:10065E00FC7B082001131204AEFD7B1030000A1241
:10066E0004AEFE1204AEFF7B20EC3382D592D55041
:10067E0013C3E43000069FFFE49EFEE42001039DB9
:10068E00FDE49CFCE4CBF8C201EC700CCFCECDCCDB
:10069E00E824F8F870F38017C3EF33FFEE33FEED66
:1006AE0033FDEC33FCEB33FB994002FB0FD8E9EB47
:1006BE00300105F8D0E0C448B201C0E00AEC4D4E5E
:1006CE004F78207B0070C2EAB5650040BCC0E012D6
:1006DE000743D0F0D0E0200104C4C0E0C4B201C092
:1006EE00F01204D2D0F0D5F0EB020522120C2A053E
:1006FE00BF5306395805904C058C42063D4F0645B2
:0F070E004406454905A543064B55062F46062FC1
:10071D0045062F4707EB5005942D05982E05BB2B4D
:10072D00059C2305B92007D42A055448000005B3BC
:10073D003F3F3F00790AA2D5200314300509B910B7
:10074D00020404B9080104A2D520060250010420B8
:10075D0002689202B564005034C0E07F2030031966
:10076D007F30A20272067205500F12079AC202C2A2
:10077D0006C205C2087F30800F300503E9C0E012C4
:10078D0004E9300503D0E0F9D0E0B564CC300517AD
:10079D007F30B9100C1204E97F583004077F788040
:1007AD0003B908031204E93002057F2D0204E97F25
:1007BD00202008F87F2B2006F322920280CF286E8E
:1007CD00756C6C2900D2011204AE3001F8C20178AB
:1007DD006430D50108F60205542D504349581204D2
:1007ED00AE2403B405004001E49007E6931204DA49
:0D07FD00743A1204DAD2037564040206395E
:100C5C00020026E493A3F8E493A34003F68001F288
:100C6C0008DFF48029E493A3F85407240CC8C33399
:100C7C00C4540F4420C8834004F456800146F6DF68
:100C8C00E4800B0102040810204080900CDCE47E10
:100C9C00019360BCA3FF543F30E509541FFEE4935D
:100CAC00A360010ECF54C025E060A840B8E493A324
:100CBC00FAE493A3F8E493A3C8C582C8CAC583CA4F
:100CCC00F0A3C8C582C8CAC583CADFE9DEE780BE07
:010D4E0000A4
:100BC200BB010689828A83E0225002E722BBFE0231
:090BD200E32289828A83E4932264
:100BDB00BB010CE58229F582E5833AF583E02250CF
:100BEB0006E92582F8E622BBFE06E92582F8E22219
:0D0BFB00E58229F582E5833AF583E4932233
:100C0800BB010689828A83F0225002F722BBFE01CB
:020C1800F322C5
:100C1A00FAE6FB0808E6F925F0F618E6CA3AF622DB
:100C2A00D083D082F8E4937012740193700DA3A359
:100C3A0093F8740193F5828883E47374029368606D
:060C4A00EFA3A3A380DF6D
:00000001FF
