:101BFC007C007D0A121560EF1F70011E144E70F7E9
:011C0C0022B5
:101B7C00AB07AA060BBB00010AEB1B70011A144A37
:0C1B8C0060097F847E03121BFC80EE22A7
:03002000DFFE22DE
:101B5F00D2907FDC7E05121BFCC290D2917FDC7E7F
:0D1B6F0005121BFCC2917F147E00021B7C3E
:0218D7008F2F51
:1018D900E4F530E530C3952F5021D2907F9F7E05E6
:1018E900121BFCC290D2917F197E06121BFCC29179
:0B18F9007F147E00121B7C053080D89D
:0119040022C0
:0A17D1008E678F688C698D6A8B6B40
:1017DB00E4F56CE56CC3956B5021D290AF6AAE69A2
:1017EB00121BFCC290D291AF68AE67121BFCC29168
:0B17FB007F147E00121B7C056C80D860
:0118060022BF
:021905008F2F22
:10190700E4F530E530C3952F5021D2907F2C7E0629
:10191700121BFCC290D2917F8C7E05121BFCC291D8
:0B1927007F147E00121B7C053080D86E
:011932002292
:0818A5008E2F8F308C318D3243
:1018AD00E4F533D290AF32AE31121BFCC290D2911F
:1018BD00AF30AE2F121BFCC2917F147E00121B7C29
:0918CD000533E533C3940240DA4F
:0118D60022EF
:0A1807008E2F8F308C318D328B3321
:10181100E4F534E534C395335021D290AF32AE3183
:10182100121BFCC290D291AF30AE2F121BFCC291A1
:0B1831007F147E00121B7C053480D861
:01183C002289
:10193300E4F574D2907FAA7E05121BFCC290D2916B
:101943007FAA7E05121BFCC2917F147E00121B7CB2
:091953000574E574C3946440DAE4
:01195C002268
:10195D00E4F52FD2907FA07E05121BFCC290D29190
:10196D007FA07E05121BFCC2917F147E00121B7C92
:09197D00052FE52FC3942340DA85
:01198600223E
:10198700E4F52FD2907FA07E05121BFCC290D29166
:101997007FA07E05121BFCC2917F147E00121B7C68
:0919A700052FE52FC3941140DA6D
:0119B0002214
:1019B100E4F52FD2907FB47E05121BFCC290D29128
:1019C1007FB47E05121BFCC2917F147E00121B7C2A
:0919D100052FE52FC3944B40DA09
:0119DA0022EA
:1019DB00E4F575D2907F0E7E06121BFCC290D2915D
:1019EB007F0E7E06121BFCC2917F147E00121B7CA5
:0919FB000575E575C3944640DA58
:011A040022BF
:101A0500E4F52FD2907F187E06121BFCC290D2916E
:101A15007F187E06121BFCC2917F147E00121B7C70
:091A2500052FE52FC3942340DADC
:011A2E002295
:101A2F00E4F52FD2907F187E06121BFCC290D29144
:101A3F007F187E06121BFCC2917F147E00121B7C46
:091A4F00052FE52FC3941140DAC4
:011A5800226B
:101A5900E4F52FD2907F047E06121BFCC290D2912E
:101A69007F047E06121BFCC2917F147E00121B7C30
:091A7900052FE52FC3944640DA65
:011A82002241
:101A8300E4F576D2907F407E06121BFCC290D29181
:101A93007F407E06121BFCC2917F147E00121B7CCA
:091AA3000576E576C3941A40DAD9
:011AAC002217
:101B1D008E2F8F30D290AF05AE04121BFCC290D227
:101B2D0091AF30AE2F121BFCC2917F147E00021BB1
:011B3D007C2B
:10183D00E4F52FF530D2907FA07E05121BFCC290EF
:10184D00D2917FA07E05121BFCC2917F147E0012E7
:10185D001B7C0530E5307002052FC39445E52F94B0
:03186D000040D266
:011870002255
:10187100E4F51EF51FD2907F187E06121BFCC29064
:10188100D2917F187E06121BFCC2917F147E00123A
:101891001B7C051FE51F7002051EC39444E51E94C1
:0318A1000040D232
:0118A4002221
:0300230002174C75
:07174C00C0E0C0D075D00819
:10175300309820AF99C298E56D2408FDE433FCE589
:101763006F6D7001EC600CAE6F056FEE540724785B
:10177300F8A60F30991BC299E56E65706011AF6EC4
:10178300056EEF54072480F8E6F599C20A8002C279
:01179300094C
:05179400D0D0D0E032CE
:101AD500200A22200905D2098F9922C2ACAE7005D1
:101AE50070EE54072480F8A607E570656E540770FC
:061AF50002D20AD2AC226D
:101BE600AD07BD0A08200AFD7F0D121AD5200AFD91
:061BF600AF05121AD52212
:101BCF00E56F656D60FAC2ACAF6D056DEF5407241C
:061BDF0078F8E6FFD2AC2D
:011BE50022DD
:101BB400E4F56DF56FF56EF570C209C20A4389202C
:0B1BC400758DFDD28E7598D8D2AC2232
:06000300121BB4D2AF2273
:0716E5000171000272000018
:0F1C0D00438901E4F58CF58AD2AFD2A9C28C22AB
:03000B00021C1CB8
:031C1C00C28C3245
:10179900E4F52FF530C2A6C2A7D2A67F19FE121B07
:1017A900FCC2A630A7FDD28C30A703208CFAC28CCC
:1017B900AF8CEFFEAD8A7C00E42DFFEC3EFE7D3A56
:0717C9001215608E2F8F3016
:0117D00022F6
:101AAD007265643D256C642C677265656E3D256CB1
:101ABD00642C626C75653D256C640A00636F6C6FF8
:081ACD0072203D2025640A008F
:1016EC0004100000000004180000000004140000A6
:0216FC000000EC
:101B9800D2AFE4F5C943C81075985075CDFF75CC20
:0C1BA800DC75CBFF75CADCD2CAD29922D2
:101B3E00E4F577C2937FC87E00121B7CD2937FC8D8
:101B4E007E00121B7C0577E577C3940340E5C293B4
:011B5E002264
:10000E00758951758CFC758A66D2AFD2A9D28CD205
:02001E008E2230
:03000B00021AFBDB
:101AFB00C0E0C0D0C28CC28E051DE51D7002051C56
:101B0B00758CFCE58A2466F58AD28CD28ED0D0D027
:021B1B00E032B6
:10121D00752F02D293D2A1D2A212000E121B98AF3B
:10122D002F152FEF700302130BE4F51CF51DC2A350
:10123D00D2A4E51D645F451C70F8C28CC28EAF8DC3
:10124D00EFFEAD8B7C00E42DFFEC3EFEE48F178EA0
:10125D0016F515F514F58BF58DF51CF51DD28CD203
:10126D008ED2A3D2A4E51D645F451C70F8C28CC25A
:10127D008EAF8DEFFEAD8B7C00E42DFFEC3EFEE4DA
:10128D008F138E12F511F510F58BF58DF51CF51DDF
:10129D00D28CD28EC2A3C2A4E51D645F451C70F82A
:1012AD00C28CC28EAF8DEFFEAD8B7C00E42DFFECBA
:1012BD003EFEE48F1B8E1AF519F518F58BF58DF59D
:1012CD001CF51D7BFF7A1A79AD851B38851A37857C
:1012DD00193685183585133C85123B85113A8510D5
:1012ED003985174085163F85153E85143D120F2310
:1012FD007FC87E00121B7CD28CD28E02122C7BFFFB
:10130D007A1A79AD851B38851A37851936851835C2
:10131D0085133C85123B85113A851039851740851B
:10132D00163F85153E85143D120F23E47F23FEFDE8
:10133D00FCAB1BAA1AA919A818D31215B5502FE486
:10134D007F23FEFDFCAB13AA12A911A8101215B52F
:10135D00501CE47F23FEFDFCAB17AA16A915A8149B
:10136D001215B55009753000753102021459E47F1C
:10137D00C8FEFDFCAB1BAA1AA919A818C31215B5F6
:10138D00402FE47FC8FEFDFCAB13AA12A911A810D3
:10139D001215B5401CE47FC8FEFDFCAB17AA16A9BB
:1013AD0015A8141215B540097530007531010214D8
:1013BD0059E47F96FEFDFCAB1BAA1AA919A818C308
:1013CD001215B5402FE47F41FEFDFCAB13AA12A907
:1013DD0011A810D31215B5501BE47F41FEFDFCABD7
:1013ED0017AA16A915A8141215B550087530007551
:1013FD0031038058E47FC8FEFDFCAB1BAA1AA91966
:10140D00A818C31215B5402FE47F96FEFDFCAB1353
:10141D00AA12A911A8101215B5401CE47F64FEFD97
:10142D00FCAB17AA16A915A814D31215B55008753B
:10143D00300075310480157530007531057BFF7AEC
:10144D001A79C9853035853136120F23C2AFC2A93D
:08145D00C28CC28EAE30AF312B
:011465002264
:1016FE000254000002640000014C00016100014828
:10170E000101530001660001510001620101560002
:10171E00014B00014D00015000015200015D00011E
:10172E006000014A01016300014700015F00015B97
:0D173E0000014900015C00014600015E024F
:10002600E4F522F523F524F525F52AF52BF52C1212
:1000360000037FD07E07121B7C7F281218D7E54A63
:10004600B40103121466E54760030200E7E558644D
:100056000F455760030200E7E55B60030200E77F98
:100066000E1218D7E4F554F5550522E52214B40A04
:1000760000505090008775F003A4C58325F0C58312
:10008600730200A50200A70200A90200AB0200C984
:100096000200C90200B20200B70200C10200C68017
:1000A6001F801880117F021218D78000121A2F8025
:1000B600127F021218D71219878008121A058003B8
:1000C60012195DE52230E00DD39400400875530106
:1000D600754B018009756301754701E4F553E4F535
:1000E6002CE54B6401600302016EF52AF52BF5261B
:1000F600F527121B5FE4F528F529121C0D12179936
:100106008E2D8F2E0529E52970020528C39402E558
:10011600286480948040E3D3E52E9405E52D940071
:100126004018E52E941EE52D9400500E755301855A
:10013600262A85272B121B5F802B7FF47E01121B3C
:100146007C7B117D187C067F187E06121807052217
:1001560005220527E52770020526C39404E52664D3
:10016600809480408DE4F54BE553B4010A121C0DD2
:100176001217998E2D8F2EC3E52E9405E52D94002A
:100186005029E553B40124055E7F111218D7121BBE
:100196005FE55EB403050522755B0212121D8E4EE5
:1001A6008F4F755601E4F553755101E556700302FC
:1001B6000385E54F6404454E7006E5226401603E02
:1001C600E54F6401454E7006E52264036030E54F55
:1001D6006403454E7006E52264056022E54F64021D
:1001E600454E7006E52264076014E54F6405454EEA
:1001F600600302037AE5226409600302037A7561EB
:1002060001755B01E54F6401454E6010E54F6403DF
:10021600454E6008E54F6402454E7046E55A643027
:1002260045596010E55A641045596008E55A64203E
:100236004559702EE54F454E6028E561B40123E42B
:10024600F54A7F061218D7121B5F7F1B121905127B
:10025600183D754A01055CE4F561F556F54EF54F16
:100266000522E54F6404454E6003020303E55A6424
:100276002045597051E54F454E604BE5616401706C
:1002860045F54A7F141218D7E4F564F5657DE67CDA
:10029600057FE67E05121B1D0565E5657002056492
:1002A600C39403E5646480948040E2121B5F7F1B65
:1002B60012190512183D754A01055CE4F561F556FB
:1002C600F54EF54F0522E55A64104559702FE5584D
:1002D60045577029E54F454E6023E561B4011EE49C
:1002E600F54A121B5F7F1B12190512183D754A014C
:1002F600055CE4F561F556F54EF54F0522E54F64CC
:1003060005454E707AE55A64104559702EE54F45FD
:100316004E6028E561B40123E4F54A7F121218D72E
:10032600121B5F7F1B12190512183D754A01055CE9
:10033600E4F561F556F54EF54F0522E55A6420457C
:1003460059703CE55845577036E54F454E6030E5E7
:10035600616401702AF54A121B5F7F1B1219051290
:10036600183D754A01055CE4F561F556F54EF54F05
:100376000522800B7F501218D712183DE4F556E57A
:100386002220E049D394004044E5516401703EE5E3
:100396006364017038E52375F028A4FFC374B49F25
:1003A600FFE495F0FED3E5559FEE6480F8E55464CE
:1003B600809840137F1B12190512183DE4F551F57C
:1003C60054F555F5630523E4F553020459E5223047
:1003D600E003020459D394004079E55B640170732D
:1003E600E558640F4557706BF554F555F551E52200
:1003F60024FC601D24FE601B24FE602424FE602A6B
:100406002408702E7F121218D712195D12198780D0
:1004160021800D7F121218D712183D121A2F801242
:100426007F121218D712198780057F121218D71259
:10043600195D0522E52230E00DD39400400875537E
:1004460001754B018008754701E4F54CF553E4F559
:100456002CF55BD3E5559450E554648094804010A8
:10046600E551700CE547B40107E4F554F555F54739
:10047600E55E64036003020044E558640F45576077
:1004860003020044E55B64026003020044F554F590
:1004960055E52224FC601A24FE602324FE602924EC
:1004A600FE602F240870337F0F1218D712195D8053
:1004B600297F0F1218D712195D121987801C7F1415
:1004C6001218D712183D80127F0F1218D7121A2F42
:1004D60080057F0F1218D7121A05121B5F7FC87E80
:1004E60000121B7CE4F548E55E64036003020755D1
:1004F600E54AB40103121466E55E6403703FE54FF6
:10050600454E6039E4F554F555F55E756101E54EE5
:10051600702BE54F14601214601B14601124FE60EA
:100526001904701912195D8014121987800F7F0A39
:100536001218D78008121A2F8003121A05C3E55520
:100546009450E5546480948050030206E0E54F64BD
:1005560001454E6010E54F6403454E6008E54F6463
:1005660002454E7045E55A643045596010E55A64B7
:100576001045596008E55A64204559702DE54F45E8
:100586004E6027E561B40122E4F54A7F061218D7CA
:10059600121B5F7F1B12190512183D754A01055C77
:1005A600E4F554F555754801F561E54F6404454E8B
:1005B600600302066BE55A642045597050E54F45C5
:1005C6004E604AE56164017044F54A7F141218D7FB
:1005D600E4F564F5657DE67C057FE67E05121B1D68
:1005E6000565E56570020564C39403E5646480945B
:1005F6008040E2121B5F7F1B12190512183D754AD7
:1006060001055CE4F554F555754801F561E55A6454
:100616001045597050E5584557704AE54F454E60AC
:1006260044E5616401703EF54AF564F5657DE67C56
:10063600057FE67E05121B1D0565E56570020564EE
:10064600C39403E5646480948040E2121B5F7F1BC1
:1006560012190512183D754A01055CE4F554F55565
:10066600754801F561E54F6405454E706DE55A64C0
:10067600104559702DE54F454E6027E561B40122BE
:10068600E4F54A7F121218D7121B5F7F1B12190559
:1006960012183D754A01055CE4F554F55575480197
:1006A600F561E55A642045597030E5584557702A7A
:1006B600E54F454E6024E561B4011FE4F54A121B7F
:1006C6005F7F1B12190512183D754A01055CE4F59A
:1006D60054F555754801F561F556E558640F4557CB
:1006E60060030204F6E548640160030204F6F5546B
:1006F600F555E54E703FE54F1460171460251460FC
:100706001B24FE602804702D7F0F1218D7121A05BD
:1007160080237F141218D7121A2F80197F0F1218F0
:10072600D780127F121218D712198780087F0C12F1
:1007360018D712195DE55CB403107B1C7D787C0527
:100746007F787E05121807754B01E4F54EF54F7557
:100756005301E4F566F561754A01754701F52CE527
:100766005C64037003020A47E54AB4010312146687
:10077600E553B4010A121C0D1217998E2D8F2EC344
:10078600E52E9405E52D94005024E553B4011F7F12
:10079600111218D7121B5F12121D8E4E8F4F121890
:1007A6003D7F141218D7E4F548F553754701D3E594
:1007B600559450E55464809480400CE547B4010795
:1007C600E4F554F555F547E5477058E558640F4587
:1007D600577050E548704CF554F555F52CE54E70BC
:1007E6003FE54F14601714602514601B24FE602833
:1007F60004702D7F0C1218D712195D80237F0F12FB
:1008060018D712198780197F0F1218D780127F0FF9
:100816001218D7121A2F80087F0F1218D7121A052E
:10082600756101D3E5559450E55464809480500376
:100836000209C4E54F6401454E6010E54F64034567
:100846004E6008E54F6402454E7045E55A643045F2
:10085600596010E55A641045596008E55A64204508
:1008660059702DE54F454E6027E561B40122E4F548
:100876004A7F061218D7121B5F7F1B121905121822
:100886003D754A01055CE4F554F555754801F56179
:10089600E54F6404454E6003020951E55A6420455C
:1008A600597050E54F454E604AE56164017044F564
:1008B6004A7F141218D7E4F564F5657DE67C057F5A
:1008C600E67E05121B1D0565E56570020564C39489
:1008D60003E5646480948040E2121B5F7F1B12195B
:1008E6000512183D754A01055CE4F554F555754841
:1008F60001F561E55A641045597050E55845577041
:100906004AE54F454E6044E5616401703EF54AF59F
:1009160064F5657DE67C057FE67E05121B1D056593
:10092600E56570020564C39403E5646480948040C1
:10093600E2121B5F7F1B12190512183D754A01054D
:100946005CE4F554F555754801F561E54F640545D8
:100956004E706BE55A64104559702DE54F454E6053
:1009660027E561B40122E4F54A7F121218D7121B5B
:100976005F7F1B12190512183D754A01055CE4F5E7
:1009860054F555754801F561E55A64204559702EB0
:10099600E55845577028E54F454E6022E561B4019C
:1009A6001DE4F54A121B5F7F1B12190512183D75CF
:1009B6004A01055CE4F554F555754801F561E547CE
:1009C600600302076EE558640F4557600302076E21
:1009D600E5486401600302076E755301F554F55549
:1009E600E54E703FE54F14601714602514601B2414
:1009F600FE602804702D7F0E1218D7121A05802368
:100A06007F141218D7121A2F80197F0E1218D7804A
:100A1600127F121218D712198780087F0E1218D764
:100A260012195DE4F54EF54FE55C640360030207B9
:100A36006E7B1C7D787C057F787E05121807754BCA
:100A460001E4F551F566F548754A01F55CF54EF594
:100A56004FF52D752E64F52CF554F555754B01E5BE
:100A66004AB40103121466E54B64017079F52AF560
:100A76002BF526F527121C0D1217998E2D8F2E7D1C
:100A8600FA7C057FFA7E05121B1DC3E52E9423E52D
:100A96002D9400502C85262A85272BE52494054085
:100AA6001E7D047C067F047E06121B1D121B5F7FC3
:100AB6000F1218D7755101755D01E4F524801505EF
:100AC600240527E52770020526C394C8E526648019
:100AD600948040A1E551700B121A05755C02E4F58D
:100AE6004EF54FE4F54BD3E52B9437E52A64809415
:100AF600804008755001E4F54D8006754D01E4F51A
:100B060050E558640F4557703DE55D64017037F553
:100B160054F555756001E54DB401117F0E1218D7D5
:100B26007B1E7D227C067F227E068014E550B40162
:100B3600127F171218D77B2D7D967C057F967E0532
:100B4600121807E4F55DE558640F45577042E560F5
:100B56006401703CD3E555940AE554648094804062
:100B66002FE4F554F555E54DB4010A7F0F1218D759
:100B7600121A59800DE550B401137F0F1218D712BF
:100B860019B17F141218D7E4F548755201E4F560DF
:100B9600E558640F45577079E55264017073D3E5E3
:100BA60055941EE554648094804066121B5F1212B1
:100BB6001D8E4E8F4FE54F6402454E7003756601DC
:100BC600E4F552F548F554F555F52CE54E703FE53C
:100BD6004F14601714602514601B24FE60280470EF
:100BE6002D7F0C1218D712195D80237F0F1218D78C
:100BF60012198780197F0F1218D780127F0F1218CB
:100C0600D7121A2F80087F0F1218D7121A0575618E
:100C160001D3E5559450E554648094805003020D49
:100C2600BCE54F6401454E6010E54F6403454E60D8
:100C360008E54F6402454E7047E55A6430455960F1
:100C460010E55A641045596008E55A642045597004
:100C56002FE54F454E6029E561B40124E4F54A7F4E
:100C66000C1218D7121B5F7F1E12190512183D753C
:100C76004A01055CE4F554F555F561754801F52C16
:100C8600E54F6404454E6003020D45E55A64204570
:100C9600597052E54F454E604CE56164017046F56A
:100CA6004A7F121218D7E4F564F5657DE67C057F68
:100CB600E67E05121B1D0565E56570020564C39495
:100CC60003E5646480948040E2121B5F7F1E121964
:100CD6000512183D754A01055CE4F554F555F561B4
:100CE600754801F52CE55A641045597052E558458A
:100CF60057704CE54F454E6046E56164017040F51E
:100D06004AF564F5657DE67C057FE67E05121B1DCA
:100D16000565E56570020564C39403E56464809423
:100D26008040E2121B5F7F1E12190512183D754A9C
:100D360001055CE4F554F555F561754801F52CE5BA
:100D46004F6405454E706FE55A64104559702FE59E
:100D56004F454E6029E561B40124E4F54A7F12123D
:100D660018D7121B5F7F1E12190512183D754A010E
:100D7600055CE4F554F555F561754801F52CE55A21
:100D8600642045597030E5584557702AE54F454E61
:100D96006024E561B4011FE4F54A121B5F7F1E1251
:100DA600190512183D754A01055CE4F554F555F52B
:100DB60061754801F52CE55C64026066E558640FD0
:100DC6004557705EE54864017058E54F454E6052E0
:100DD600E4F548F554F555E54E703FE54F146014BB
:100DE60014602214601824FE602804702D7F0A12F5
:100DF60018D780267F121218D7121987801C7F0FEA
:100E06001218D780087F121218D712198712195D87
:100E160080087F0C1218D712183D754B01E4F54E69
:100E2600F54FE55C64027065F54BE558640F455770
:100E3600705BE54864017055E54F454E604FE4F53B
:100E460048F554F555E54E703FE54F1460171460AC
:100E56002514601B24FE602804702D7F0C1218D701
:100E6600121A0580237F141218D7121A2F80197FA1
:100E76000F1218D780127F121218D71219878008FE
:100E86007F0C1218D712195DE4F54EF54FE55C6438
:100E9600026003020A65D3E55594C3E55464809461
:100EA600805003020A65E54F454E6003020A65F568
:0B0EB60054F555121B5F121B5F80FB00
:101466007580FFE580540F755700F558E5805430B8
:10147600755900F55A7F011218D7E5576003021512
:101486005FE55814B40F00400302155F9014A07571
:10149600F003A4C58325F0C583730214CD0214DBC3
:1014A6000214E402150802152402152D021536024F
:1014B60014F602155F02153F02155F02151102159B
:1014C6004802155102155A0555E555700205547D19
:1014D6000E7C0680150555E5557002055422055506
:1014E600E555700205547DDC7C057F0E7E06802B5B
:1014F6000555E555700205547DAA7C057FAA7E0533
:1015060080190555E55570510554220555E5557068
:101516000205547DAA7C057FDC7E050218A50555CB
:10152600E55570350554220555E555702C055422B0
:101536000555E55570230554220555E555701A05E0
:1015460054220555E55570110554220555E555708B
:0A155600080554227F061218D72260
:030000000216598C
:0C165900787FE4F6D8FD7581870216A0AA
:10156000BC000BBE0029EF8DF084FFADF022E4CC6F
:10157000F875F008EF2FFFEE33FEEC33FCEE9DEC38
:10158000984005FCEE9DFE0FD5F0E9E4CEFD22ED7E
:10159000F8F5F0EE8420D21CFEADF075F008EF2FC8
:1015A000FFED33FD4007985006D5F0F222C398FDB9
:0515B0000FD5F0EA2256
:1015B500EB9FF5F0EA9E42F0E99D42F0EC6480C8AD
:0615C50064809845F0224D
:100EC100E5412435F8E605412278323007027835CC
:100ED100E475F0011216230215CB2000EB7F2ED210
:100EE100008018EF540F2490D43440D4FF30040B09
:100EF100EF24BFB41A0050032461FFE542600215DC
:100F0100420545E5457002054430070D7832E47528
:100F1100F001121623EF021611021BE67403D20729
:100F21008003E4C207F5418B328A338934E4F54208
:100F3100F544F545E54260077F20120EFC80F5750A
:100F410043FFC201C200C202C203C205C206C208F7
:100F5100120ECAFF700D3007057F00120F0DAF454D
:100F6100AE4422B4255FC2D5C204120ECAFF24D0FA
:100F7100B40A00501A75F00A784230D50508B6FF58
:100F81000106C6A426F620D5047002D20380D92416
:100F9100CFB41A00EF5004C2E5D20402110DD20100
:100FA10080C6D20080C0D20280BCD2D580BAD20520
:100FB10080B47F20120EFC2002077401B54200406C
:100FC100F1120EC1FF120EFC020F35D208D20680BB
:100FD10095120EC1FB120EC1FA120EC1F94A4B70E5
:100FE1000679DE7A117BFF20022EE542602A7E001F
:100FF1008E827583001215E460060EEE654370F073
:10100100C2D5EBC0E0EAC0E0E9C0E0EE121154D075
:10101100E0F9D0E0FAD0E0FB1215CBFF60AAEBC0FB
:10102100E0EAC0E0E9C0E0120EFCD0E02401F9D012
:10103100E03400FAD0E0FBE5430460DCD543D9801D
:10104100877BFF7A117950D202809C7910800279D6
:1010510008C206C2088008D2D5790A8004790AC27A
:10106100D5E543047002F543E4FAFDFEFF120EC11B
:10107100FC7B08200113120EC1FD7B1030000A1207
:101081000EC1FE120EC1FF7B20EC3382D592D550EA
:1010910013C3E43000069FFFE49EFEE42001039D9C
:1010A100FDE49CFCE4CBF8C201EC700CCFCECDCCBE
:1010B100E824F8F870F38017C3EF33FFEE33FEED49
:1010C10033FDEC33FCEB33FB994002FB0FD8E9EB2A
:1010D100300105F8D0E0C448B201C0E00AEC4D4E41
:1010E1004F78207B0070C2EAB5430040BCC0E012DB
:1010F1001156D0F0D0E0200104C4C0E0C4B201C058
:10110100F0120EE5D0F0D5F0EB020F351216330FC9
:10111100D253104C580FA34C0F9F4210504F1058F0
:0F112100441058490FB843105E55104246104213
:101130004510424711FE500FA72D0FAB2E0FCE2B9F
:101140000FAF230FCC2011E72A0F674800000FC60E
:101150003F3F3F00790AA2D5200314300509B9109A
:10116000020404B9080104A2D5200602500104209B
:1011700002689202B542005034C0E07F203003196B
:101180007F30A20272067205500F1211ADC202C268
:1011900006C205C2087F30800F300503E9C0E012A7
:1011A0000EFC300503D0E0F9D0E0B542CC30051795
:1011B0007F30B9100C120EFC7F583004077F788006
:1011C00003B90803120EFC3002057F2D020EFC7FCE
:1011D000202008F87F2B2006F322920280CF286E71
:1011E000756C6C2900D201120EC13001F8C2017871
:1011F0004230D50108F6020F672D50434958120EB0
:10120000C12403B405004001E49011F993120EEDDE
:0D121000743A120EEDD20375420402104C28
:10166500020026E493A3F8E493A34003F68001F275
:1016750008DFF48029E493A3F85407240CC8C33386
:10168500C4540F4420C8834004F456800146F6DF55
:10169500E4800B01020408102040809016E5E47EEA
:1016A500019360BCA3FF543F30E509541FFEE4934A
:1016B500A360010ECF54C025E060A840B8E493A311
:1016C500FAE493A3F8E493A3C8C582C8CAC583CA3C
:1016D500F0A3C8C582C8CAC583CADFE9DEE780BEF4
:01174B00009D
:1015CB00BB010689828A83E0225002E722BBFE021E
:0915DB00E32289828A83E4932251
:1015E400BB010CE58229F582E5833AF583E02250BC
:1015F40006E92582F8E622BBFE06E92582F8E22206
:0D160400E58229F582E5833AF583E493221F
:10161100BB010689828A83F0225002F722BBFE01B8
:02162100F322B2
:10162300FAE6FB0808E6F925F0F618E6CA3AF622C8
:10163300D083D082F8E4937012740193700DA3A346
:1016430093F8740193F5828883E47374029368605A
:06165300EFA3A3A380DF5A
:00000001FF
