:10112F007C007D0A120B00EF1F70011E144E70F72A
:01113F00228D
:1010AF00AB07AA060BBB00010AEB1B70011A144A0F
:0C10BF0060097F847E0312112F80EE2256
:03002000DFFE22DE
:10109200D2907FDC7E0512112FC290D2917FDC7E2E
:0D10A2000512112FC2917F147E000210AFC5
:020E0A008F3126
:100E0C00E4F532E532C395315021D2907F9F7E05B7
:100E1C0012112FC290D2917F197E0612112FC291FE
:0B0E2C007F147E001210AF053280D84A
:010E37002298
:0A0D6E008E5E8F5F8C608D618B62DA
:100D7800E4F563E563C395625021D290AF61AE603C
:100D880012112FC290D291AF5FAE5E12112FC29195
:0B0D98007F147E001210AF056380D8AE
:010DA300222D
:020E38008F31F8
:100E3A00E4F532E532C395315021D2907F2C7E06FB
:100E4A0012112FC290D2917F8C7E0512112FC2915E
:0B0E5A007F147E001210AF053280D81C
:010E6500226A
:080DD8008E318F328C338D3413
:100DE000E4F535D290AF34AE3312112FC290D291C8
:100DF000AF32AE3112112FC2917F147E001210AFAC
:090E00000535E535C3940240DA22
:010E090022C6
:100E6600E4F56BD2907FAA7E0512112FC290D29123
:100E76007FAA7E0512112FC2917F147E001210AF39
:090E8600056BE56BC3946440DACE
:010E8F002240
:100E9000E4F531D2907F787E0512112FC290D29165
:100EA0007F787E0512112FC2917F147E001210AF41
:090EB0000531E531C3941840DA64
:010EB9002216
:100EBA00E4F531D2907F787E0512112FC290D2913B
:100ECA007F787E0512112FC2917F147E001210AF17
:090EDA000531E531C3940F40DA43
:010EE30022EC
:100EE400E4F56CD2907FC87E0512112FC290D29186
:100EF4007FC87E0512112FC2917F147E001210AF9D
:090F0400056CE56CC394B440DAFD
:010F0D0022C1
:100F0E00E4F56DD2907F0E7E0612112FC290D29113
:100F1E007F0E7E0612112FC2917F147E001210AF2B
:090F2E00056DE56DC3944640DA3F
:010F37002297
:100F3800E4F531D2907F407E0612112FC290D291F3
:100F48007F407E0612112FC2917F147E001210AFCF
:090F58000531E531C3941A40DAB9
:010F6100226D
:100F6200E4F531D2907F407E0612112FC290D291C9
:100F72007F407E0612112FC2917F147E001210AFA5
:090F82000531E531C3940F40DA9A
:010F8B002243
:100F8C00E4F56ED2907FF07E0512112FC290D291B3
:100F9C007FF07E0512112FC2917F147E001210AFCC
:090FAC00056EE56EC394B440DA51
:010FB5002219
:100FB600E4F56FD2907F407E0612112FC290D29137
:100FC6007F407E0612112FC2917F147E001210AF51
:090FD600056FE56FC3941A40DABF
:010FDF0022EF
:101050008E1E8F1FD290AF05AE0412112FC290D2F8
:1010600091AF1FAE1E12112FC2917F147E0002108D
:01107000AFD0
:100DA400E4F531F532D2907FA07E0512112FC29066
:100DB400D2917FA07E0512112FC2917F147E001262
:100DC40010AF0532E53270020531C39444E5319425
:030DD4000040D20A
:010DD70022F9
:03002300020CD5F7
:070CD500C0E0C0D075D0089B
:100CDC00309820AF99C298E5642408FDE433FCE514
:100CEC00666D7001EC600CAE660566EE5407247000
:100CFC00F8A60F30991BC299E56565676011AF6561
:100D0C000565EF54072478F8E6F599C20A8002C20B
:010D1C0009CD
:050D1D00D0D0D0E0324F
:10100800200A22200905D2098F9922C2ACAE6705B1
:1010180067EE54072478F8A607E5676565540770F6
:0610280002D20AD2AC2244
:10111900AD07BD0A08200AFD7F0D121008200AFD3F
:06112900AF0512100822C0
:10110200E566656460FAC2ACAF640564EF54072417
:0611120070F8E6FFD2AC0C
:0111180022B4
:1010E700E4F564F566F565F567C209C20A43892028
:0B10F700758DFDD28E7598D8D2AC220A
:060003001210E7D2AF224B
:070C85000168000269000094
:0F114000438901E4F58CF58AD2AFD2A9C28C2283
:03000B0002114F90
:03114F00C28C321D
:100D2200E4F531F532C2A6C2A7D2A67F19FE12118E
:100D32002FC2A630A7FDD28C30A703208CFAC28C1A
:100D4200AF8CEFFEAD8A7C00E42DFFEC3EFE7D3AD7
:100D5200120B008E318F32C3E5329403E5319400D9
:0B0D62005005E4F531F532AE31AF3240
:010D6D002263
:100FE0007265643D256C642C677265656E3D256C89
:100FF000642C626C75653D256C640A00636F6C6FD0
:0810000072203D2025640A0066
:100C8C000410000000000418000000000414000010
:020C9C00000056
:1010CB00D2AFE4F5C943C81075985075CDFF75CCF8
:0C10DB00DC75CBFF75CADCD2CAD29922AA
:10107100E4F534C2937FC87E001210AFD2937FC8CB
:101081007E001210AF0534E534C3940340E5C293EA
:01109100223C
:10000E00758951758CFC758A66D2AFD2A9D28CD205
:02001E008E2230
:03000B0002102EB2
:10102E00C0E0C0D0C28CC28E051DE51D7002051C2D
:10103E00758CFCE58A2466F58AD28CD28ED0D0D0FF
:02104E00E0328E
:1008AD007531021210717F507E001210AFD293D2AB
:1008BD00A1D2A212000E1210CBAF311531EF700381
:1008CD000209A5E4F51CF51DC2A3D2A4E51D6448DB
:1008DD00451C70F8C28CC28EAF8DEFFEAD8B7C00C7
:1008ED00E42DFFEC3EFEE48F178E16F515F514F58D
:1008FD008BF58DF51CF51DD28CD28ED2A3D2A4E52D
:10090D001D6449451C70F8C28CC28EAF8DEFFEADD3
:10091D008B7C00E42DFFEC3EFEE48F138E12F5115F
:10092D00F510F58BF58DF51CF51DD28CD28EC2A36D
:10093D00C2A4E51D644C451C70F8C28CC28EAF8DEF
:10094D00EFFEAD8B7C00E42DFFEC3EFEE48F1B8EA5
:10095D001AF519F518F58BF58DF51CF51D7BFF7A3C
:10096D000F79E0851B3A851A398519388518378531
:10097D00133E85123D85113C85103B85174285162A
:10098D004185154085143F1205B37FC87E001210B6
:10099D00AFD28CD28E0208C67BFF7A0F79E0851B11
:1009AD003A851A3985193885183785133E85123DD4
:1009BD0085113C85103B851742851641851540856F
:1009CD00143F1205B3E47F23FEFDFCAB1BAA1AA94D
:1009DD0019A818D3120B55502FE47F23FEFDFCAB45
:1009ED0013AA12A911A810120B55501CE47F23FE57
:1009FD00FDFCAB17AA16A915A814120B55500975B5
:100A0D003200753302020AF3E47FC8FEFDFCAB1B16
:100A1D00AA1AA919A818C3120B55402FE47FC8FEB6
:100A2D00FDFCAB13AA12A911A810120B55401CE422
:100A3D007FC8FEFDFCAB17AA16A915A814120B55FD
:100A4D004009753200753301020AF3E47F96FEFD0D
:100A5D00FCAB1BAA1AA919A818C3120B55402FE4F9
:100A6D007F32FEFDFCAB13AA12A911A810D3120BF5
:100A7D0055501BE47F32FEFDFCAB17AA16A915A835
:100A8D0014120B5550087532007533038058E47FEE
:100A9D00C8FEFDFCAB1BAA1AA919A818C3120B5549
:100AAD00402FE47F96FEFDFCAB13AA12A911A810EE
:100ABD00120B55401CE47F64FEFDFCAB17AA16A972
:100ACD0015A814D3120B55500875320075330480D8
:100ADD00157532007533057BFF7A0F79FC8532373A
:100AED008533381205B3C2AFC2A9C28CC28EAE32E5
:020AFD00AF3315
:010AFF0022D4
:100C9E00014C00015C01014E01015B0001490101A3
:100CAE005201015D00015000015300014B00014D46
:100CBE0000014F00014801014A0001510001590095
:060CCE00015A000158006C
:10002600E4F522F523F524F525F528F529F52CF533
:100036002DF52E1200037FD07E071210AF7F2812F7
:100046000E0A7580FFE580540F755400F555E5805E
:100056005430755600F5570529E529700205287FA5
:1000660001120E0AE554706FE55514B40F0050677F
:1000760090008475F003A4C58325F0C58373020040
:10008600B10200B70200B70200CB0200D80200D8C6
:100096000200D80200C10200DD0200D80200DD0223
:1000A60000CB0200D80200D80200D87D0E7C068064
:1000B600047DDC7C057F0E7E0680127DAA7C057F92
:1000C600AA7E0580087DAA7C057FDC7E05120DD8F8
:1000D60080057F06120E0AE555640F45546003023B
:1000E60001870522755C01F528F529E52230E00D2A
:1000F600D394004008755201754E018005E4F5520F
:10010600F54EE52220E008D394004003E4F54CE5E3
:100116002214B40A00506790012B75F003A4C5831E
:1001260025F0C5837302014902014B02014D02010C
:100136005102015502015702015E02016802017275
:10014600020149803180257F0F80197F14800B8042
:10015600007F0F120E0A80267F0F120E0A120F6200
:10016600801C7F12120E0A120EBA80127F0F120E18
:100176000A120F3880087F0C120E0A120E90E4F550
:100186002EE552B4010A121140120D228E2F8F3025
:10019600D3E530940AE52F9400400DE530941EE532
:1001A6002F94005003755001D3E530945AE52F94EF
:1001B60000400AE550B40105E4F52FF530D3E530EB
:1001C6009402E52F94005024E54EB4011FE552B485
:1001D600011A121092755301E4F54EF5527550014D
:1001E6001208AD8E268F277F28120E0AE55370035C
:1001F600020283E527640445267006E52264016051
:1002060038E527640145267006E5226403602AE581
:1002160027640345267006E5226405601CE527640D
:100226000245267006E5226407600EE5276405454B
:10023600267044E5226409703E755B01E527640477
:1002460045267039E557641045567031E527452631
:10025600602BE55B640170251210927F0F120E0A67
:100266007F1E120E38120DA40558E4F55BF553F502
:1002760026F527F52E8006120DA4E4F553E5223067
:10028600E046E5507042E55545547002052ED3E52B
:100296002E648094824031E55545546018E55564D6
:1002A6000A45546010E555640545546008E55564F3
:1002B6000945547013E55CB4010EE4F55C7F281221
:1002C6000E0A120DA4E4F52EE52220E036D39400A2
:1002D6004031E54C702D052EE52325E0FFC374144F
:1002E6009FD36480F8E52E64809840127F1E120E1C
:1002F60038120DA4E4F550754C01F52E0523E4F5EE
:1003060052F54EE522640A6003020048F522F54CD8
:10031600D3E529940AE528648094804005E4F5280D
:10032600F529755201E4F55D754E01F550F55BF55D
:100336002EE55864037003020550E552B4010A1213
:100346001140120D228E2F8F307580FFE580540FDD
:10035600755400F555E5805430755600F557052956
:10036600E529700205287F01120E0AE554706FE533
:100376005514B40F00506790038B75F003A4C58322
:1003860025F0C583730203B80203BE0203BE02034F
:10039600D20203DF0203DF0203DF0203C80203E423
:1003A6000203DF0203E40203D20203DF0203DF02D9
:1003B60003DF7D0E7C0680047DDC7C057F0E7E06D9
:1003C60080127DAA7C057FAA7E0580087DAA7C0511
:1003D6007FDC7E05120DD880057F06120E0AD3E556
:1003E60030940FE52F9400400DE5309414E52F94DA
:1003F600005003755001D3E530945AE52F94004020
:100406000AE550B40105E4F52FF530D3E530940242
:10041600E52F94005021E54EB4011CE552B40117B6
:100426001210921208AD8E268F27120DA475500158
:10043600E4F54EF549F552E555640F45547050E51F
:1004460049704CF528F529F52EE526703FE5271469
:10045600601714602514601B24FE602804702D7F2D
:100466000C120E0A120E9080237F0F120E0A120E25
:10047600BA80197F0F120E0A80127F0F120E0A120F
:100486000F6280087F0F120E0A120F38755B01C3C8
:10049600E529941EE52864809480402DE555455451
:1004A6007002052ED3E52E64809482401CE55545E6
:1004B6005470167F1E120E38120DA40558E4F52846
:1004C600F529F550754901F52EE555640F4554603B
:1004D60003020340E54964016003020340755201CB
:1004E600754E01F549F528F529E526703FE52714EF
:1004F600601714602514601B24FE602804702D7F8D
:100506000C120E0A120F3880237F14120E0A120FD5
:100516006280197F0F120E0A80127F12120E0A12C3
:100526000EBA80087F0C120E0A120E90E55864036C
:100536006003020340D3E529940AE5286480948089
:0A0546005003020340E4F528F529F4
:010550002288
:03000000020BF9F7
:0C0BF900787FE4F6D8FD75817F020C4087
:100B0000BC000BBE0029EF8DF084FFADF022E4CCD9
:100B1000F875F008EF2FFFEE33FEEC33FCEE9DECA2
:100B2000984005FCEE9DFE0FD5F0E9E4CEFD22EDE8
:100B3000F8F5F0EE8420D21CFEADF075F008EF2F32
:100B4000FFED33FD4007985006D5F0F222C398FD23
:050B50000FD5F0EA22C0
:100B5500EB9FF5F0EA9E42F0E99D42F0EC6480C817
:060B650064809845F022B7
:10055100E5432437F8E6054322783430070278373B
:10056100E475F001120BC3020B6B2000EB7F2ED25E
:10057100008018EF540F2490D43440D4FF30040B82
:10058100EF24BFB41A0050032461FFE54460021553
:10059100440547E5477002054630070D7834E47598
:1005A100F001120BC3EF020BB10211197403D20750
:1005B1008003E4C207F5438B348A358936E4F54478
:1005C100F546F547E54460077F2012058C80F575F7
:1005D10045FFC201C200C202C203C205C206C2086F
:1005E10012055AFF700D3007057F0012059DAF47B8
:1005F100AE4622B4255FC2D5C20412055AFF24D0EB
:10060100B40A00501A75F00A784430D50508B6FFCF
:100611000106C6A426F620D5047002D20380D9248F
:10062100CFB41A00EF5004C2E5D20402079DD201F3
:1006310080C6D20080C0D20280BCD2D580BAD20599
:1006410080B47F2012058C2002077401B54400405C
:10065100F1120551FF12058C0205C5D208D20680A0
:1006610095120551FB120551FA120551F94A4B70C9
:1006710006796E7A087BFF20022EE544602A7E000F
:100681008E82758300120B8460060EEE654570F054
:10069100C2D5EBC0E0EAC0E0E9C0E0EE1207E4D069
:1006A100E0F9D0E0FAD0E0FB120B6BFF60AAEBC0DF
:1006B100E0EAC0E0E9C0E012058CD0E02401F9D005
:1006C100E03400FAD0E0FBE5450460DCD545D98093
:1006D100877BFF7A0779E0D202809C7910800279CA
:1006E10008C206C2088008D2D5790A8004790AC2F4
:1006F100D5E545047002F545E4FAFDFEFF1205510A
:10070100FC7B08200113120551FD7B1030000A12F9
:100711000551FE120551FF7B20EC3382D592D55055
:1007210013C3E43000069FFFE49EFEE42001039D15
:10073100FDE49CFCE4CBF8C201EC700CCFCECDCC37
:10074100E824F8F870F38017C3EF33FFEE33FEEDC2
:1007510033FDEC33FCEB33FB994002FB0FD8E9EBA3
:10076100300105F8D0E0C448B201C0E00AEC4D4EBA
:100771004F78207B0070C2EAB5450040BCC0E01252
:1007810007E6D0F0D0E0200104C4C0E0C4B201C04B
:10079100F0120575D0F0D5F0EB0205C5120BD306AA
:1007A100625306DC5806334C062F4206E04F06E83A
:0F07B1004406E84906484306EE5506D24606D2EE
:1007C0004506D247088E5006372D063B2E065E2B77
:1007D000063F23065C2008772A05F74800000656E6
:1007E0003F3F3F00790AA2D5200314300509B91014
:1007F000020404B9080104A2D52006025001042015
:1008000002689202B544005034C0E07F20300319E2
:100810007F30A20272067205500F12083DC202C25A
:1008200006C205C2087F30800F300503E9C0E01220
:10083000058C300503D0E0F9D0E0B544CC30051785
:100840007F30B9100C12058C7F583004077F7880F8
:1008500003B9080312058C3002057F2D02058C7F39
:10086000202008F87F2B2006F322920280CF286EEA
:10087000756C6C2900D2011205513001F8C2017863
:100880004430D50108F60205F72D504349581205AA
:10089000512403B405004001E49008899312057DBA
:0D08A000743A12057DD2037544040206DC93
:100C0500020026E493A3F8E493A34003F68001F2DF
:100C150008DFF48029E493A3F85407240CC8C333F0
:100C2500C4540F4420C8834004F456800146F6DFBF
:100C3500E4800B0102040810204080900C85E47EBE
:100C4500019360BCA3FF543F30E509541FFEE493B4
:100C5500A360010ECF54C025E060A840B8E493A37B
:100C6500FAE493A3F8E493A3C8C582C8CAC583CAA6
:100C7500F0A3C8C582C8CAC583CADFE9DEE780BE5E
:010CD400001F
:100B6B00BB010689828A83E0225002E722BBFE0288
:090B7B00E32289828A83E49322BB
:100B8400BB010CE58229F582E5833AF583E0225026
:100B940006E92582F8E622BBFE06E92582F8E22270
:0D0BA400E58229F582E5833AF583E493228A
:100BB100BB010689828A83F0225002F722BBFE0123
:020BC100F3221D
:100BC300FAE6FB0808E6F925F0F618E6CA3AF62233
:100BD300D083D082F8E4937012740193700DA3A3B1
:100BE30093F8740193F5828883E4737402936860C5
:060BF300EFA3A3A380DFC5
:00000001FF
