:101113007C007D0A120A09EF1F70011E144E70F73E
:0111230022A9
:10109300AB07AA060BBB00010AEB1B70011A144A2B
:0C10A30060097F847E0312111380EE228E
:03002000DFFE22DE
:10107600D2907FDC7E05121113C290D2917FDC7E66
:0D10860005121113C2917F147E0002109319
:020DEE008F3143
:100DF000E4F532E532C395315021D2907F9F7E05D4
:100E0000121113C290D2917F197E06121113C29152
:0B0E10007F147E00121093053280D882
:010E1B0022B4
:0A0D1E008E658F668C678D688B6907
:100D2800E4F56AE56AC395695021D290AF68AE6769
:100D3800121113C290D291AF66AE65121113C2910F
:0B0D48007F147E00121093056A80D813
:010D5300227D
:020E1C008F3114
:100E1E00E4F532E532C395315021D2907F2C7E0617
:100E2E00121113C290D2917F8C7E05121113C291B2
:0B0E3E007F147E00121093053280D854
:010E49002286
:080DBC008E318F328C338D342F
:100DC400E4F535D290AF34AE33121113C290D29100
:100DD400AF32AE31121113C2917F147E0012109300
:090DE4000535E535C3940240DA3F
:010DED0022E3
:100E4A00E4F51ED2907FAA7E05121113C290D291A8
:100E5A007FAA7E05121113C2917F147E001210938D
:090E6A00051EE51EC3946440DA84
:010E7300225C
:100E7400E4F531D2907F787E05121113C290D2919D
:100E84007F787E05121113C2917F147E0012109395
:090E94000531E531C3941840DA80
:010E9D002232
:100E9E00E4F531D2907F787E05121113C290D29173
:100EAE007F787E05121113C2917F147E001210936B
:090EBE000531E531C3940F40DA5F
:010EC7002208
:100EC800E4F531D2907FC87E05121113C290D291F9
:100ED8007FC87E05121113C2917F147E00121093F1
:090EE8000531E531C394B440DA90
:010EF10022DE
:100EF200E4F51FD2907F0E7E06121113C290D2919A
:100F02007F0E7E06121113C2917F147E001210937F
:090F1200051FE51FC3944640DAF7
:010F1B0022B3
:100F1C00E4F531D2907F407E06121113C290D2912B
:100F2C007F407E06121113C2917F147E0012109323
:090F3C000531E531C3941A40DAD5
:010F45002289
:100F4600E4F531D2907F407E06121113C290D29101
:100F56007F407E06121113C2917F147E00121093F9
:090F66000531E531C3940F40DAB6
:010F6F00225F
:100F7000E4F531D2907FF07E05121113C290D29128
:100F80007FF07E05121113C2917F147E0012109320
:090F90000531E531C394B440DAE7
:010F99002235
:100F9A00E4F572D2907F407E06121113C290D2916C
:100FAA007F407E06121113C2917F147E00121093A5
:090FBA000572E572C3941A40DAD5
:010FC300220B
:101034008E318F32D290AF05AE04121113C290D20A
:1010440091AF32AE31121113C2917F147E0002109F
:011054009308
:100D5400E4F531F532D2907FA07E05121113C290D2
:100D6400D2917FA07E05121113C2917F147E0012CE
:100D740010930532E53270020531C39444E5319491
:030D84000040D25A
:010D87002249
:100D8800E4F531F532D2907F187E06121113C29025
:100D9800D2917F187E06121113C2917F147E001221
:100DA80010930532E53270020531C39444E531945D
:030DB8000040D226
:010DBB002215
:03002300020C8547
:070C8500C0E0C0D075D008EB
:100C8C00309820AF99C298E56B2408FDE433FCE55D
:100C9C006D6D7001EC600CAE6D056DEE5407247338
:100CAC00F8A60F30991BC299E56C656E6011AF6C9C
:100CBC00056CEF5407247BF8E6F599C20A8002C252
:010CCC00091E
:050CCD00D0D0D0E032A0
:100FEC00200A22200905D2098F9922C2ACAE6E05C7
:100FFC006EEE5407247BF8A607E56E656C540770FB
:06100C0002D20AD2AC2260
:1010FD00AD07BD0A08200AFD7F0D120FEC200AFD79
:06110D00AF05120FEC22F9
:1010E600E56D656B60FAC2ACAF6B056BEF54072418
:0610F60073F8E6FFD2AC26
:0110FC0022D1
:1010CB00E4F56BF56DF56CF56EC209C20A43892028
:0B10DB00758DFDD28E7598D8D2AC2226
:060003001210CBD2AF2267
:070C2200016F0002700000E9
:0F112400438901E4F58CF58AD2AFD2A9C28C229F
:03000B00021133AC
:03113300C28C3239
:100CD200E4F531F532C2A6C2A7D2A67F19FE1211DF
:100CE20013C2A630A7FDD28C30A703208CFAC28C87
:100CF200AF8CEFFEAD8A7C00E42DFFEC3EFE7D3A28
:100D0200120A098E318F32C3E5329403E531940021
:0B0D12005005E4F531F532AE31AF3290
:010D1D0022B3
:100FC4007265643D256C642C677265656E3D256CA5
:100FD400642C626C75653D256C640A00636F6C6FEC
:080FE40072203D2025640A0083
:100C29000410000000000418000000000414000073
:020C39000000B9
:1010AF00D2AFE4F5C943C81075985075CDFF75CC14
:0C10BF00DC75CBFF75CADCD2CAD29922C6
:10105500E4F534C2937FC87E00121093D2937FC803
:101065007E001210930534E534C3940340E5C29322
:011075002258
:10000E00758951758CFC758A66D2AFD2A9D28CD205
:02001E008E2230
:03000B00021012CE
:10101200C0E0C0D0C28CC28E051DE51D7002051C49
:10102200758CFCE58A2466F58AD28CD28ED0D0D01B
:02103200E032AA
:1007B6007531021210557F507E00121093D293D2DB
:1007C600A1D2A212000E1210AFAF311531EF700395
:1007D6000208AEE4F51CF51DC2A3D2A4E51D6448CB
:1007E600451C70F8C28CC28EAF8DEFFEAD8B7C00BF
:1007F600E42DFFEC3EFEE48F178E16F515F514F585
:100806008BF58DF51CF51DD28CD28ED2A3D2A4E524
:100816001D6449451C70F8C28CC28EAF8DEFFEADCB
:100826008B7C00E42DFFEC3EFEE48F138E12F51157
:10083600F510F58BF58DF51CF51DD28CD28EC2A365
:10084600C2A4E51D644C451C70F8C28CC28EAF8DE7
:10085600EFFEAD8B7C00E42DFFEC3EFEE48F1B8E9D
:100866001AF519F518F58BF58DF51CF51D7BFF7A34
:100876000F79C4851B3A851A398519388518378545
:10088600133E85123D85113C85103B851742851622
:100896004185154085143F1204BC7FC87E001210A6
:1008A60093D28CD28E0207CF7BFF7A0F79C4851B39
:1008B6003A851A3985193885183785133E85123DCC
:1008C60085113C85103B8517428516418515408567
:1008D600143F1204BCE47F23FEFDFCAB1BAA1AA93D
:1008E60019A818D3120A5E502FE47F23FEFDFCAB35
:1008F60013AA12A911A810120A5E501CE47F23FE47
:10090600FDFCAB17AA16A915A814120A5E500975A4
:1009160032007533020209FCE47FC8FEFDFCAB1B06
:10092600AA1AA919A818C3120A5E402FE47FC8FEA6
:10093600FDFCAB13AA12A911A810120A5E401CE412
:100946007FC8FEFDFCAB17AA16A915A814120A5EED
:1009560040097532007533010209FCE47F96FEFDFD
:10096600FCAB1BAA1AA919A818C3120A5E402FE4E9
:100976007F32FEFDFCAB13AA12A911A810D3120AEE
:100986005E501BE47F32FEFDFCAB17AA16A915A824
:1009960014120A5E50087532007533038058E47FDE
:1009A600C8FEFDFCAB1BAA1AA919A818C3120A5E39
:1009B600402FE47F96FEFDFCAB13AA12A911A810E6
:1009C600120A5E401CE47F64FEFDFCAB17AA16A962
:1009D60015A814D3120A5E500875320075330480C8
:1009E600157532007533057BFF7A0F79E08532374E
:1009F6008533381204BCC2AFC2A9C28CC28EAE32D5
:020A0600AF330C
:010A080022CB
:100C3B0002560000014F00016301015101016100E7
:100C4B00014B0101550101640001530001580001E2
:100C5B004E00015000015200014A01014D000154A8
:100C6B0000015E00016000014C01016200014900BE
:090C7B00015F00015D0001480069
:10002600E4F522F523F524F525F52AF52BF52CF52F
:100036002DF52E1200037FD07E071210937F281213
:100046000DEEE54CB40103120B02E5496003020113
:100056000AE55A640F4559600302010AF556F55739
:100066000522756301E52214B40A005065900081EB
:1000760075F003A4C58325F0C5837302009F0200B3
:10008600A10200A50200A70200A90200AB0200B26D
:100096000200BC0200C60200D0802F7F0C802380A5
:1000A60015800980007F0F120DEE80267F0F120D3E
:1000B600EE120F46801C7F0F120DEE120E9E80125E
:1000C6007F0A120DEE120F1C80087F0C120DEE1225
:1000D6000E74E52220E013D39400400E7F0A120D21
:1000E600EE755F01754901E4F54FE52230E00DD369
:1000F600940040087555017551018005E4F555F5E4
:1001060051E4F52EE555B40137121124120CD28EA6
:100116002F8F30D3E5309406E52F9400400DE5305F
:100126009414E52F94005003755301D3E530945F82
:10013600E52F9400400AE553B40105E4F52FF530A8
:10014600D3E5309402E52F94005024E551B4011F05
:10015600E555B4011A121076755801E4F551F555B6
:100166007553011207B68E268F277F28120DEEE5EE
:1001760058700302035BE527640445267006E522F2
:100186006401603EE527640145267006E5226403A6
:100196006030E527640345267006E5226405602283
:1001A600E527640245267006E52264076014E52704
:1001B600640545266003020350E5226409600302D4
:1001C6000350756101E527640145266010E5276443
:1001D6000345266008E527640245267041E55C6410
:1001E60030455B6010E55C6410455B6008E55C6467
:1001F60020455B7029E52745266023E561B4011E8D
:10020600E4F54C1210767F1E120E1C120D54754C1E
:1002160001055DE4F561F558F526F527F52EE52788
:100226006404452660030202DDE55C6420455B70DC
:100236004FE52745266049E56164017043F54C7F2B
:1002460012120DEEE4F52CF52D7DE67C057FE67E9B
:1002560005121034052DE52D7002052CC39403E517
:100266002C6480948040E21210767F1E120E1C12BF
:100276000D54754C01055DE4F561F558F526F52735
:10028600E55C6410455B704FE55A45597049E527B2
:1002960045266043E5616401703DF54CF52CF52D6E
:1002A6007DE67C057FE67E05121034052DE52D7072
:1002B60002052CC39403E52C6480948040E212105E
:1002C600767F1E120E1C120D54754C01055DE4F569
:1002D60061F558F526F527E527640545267076E588
:1002E6005C6410455B702CE52745266026E561B405
:1002F6000121E4F54C7F12120DEE1210767F1E12CC
:100306000E1C120D54754C01055DE4F561F558F5AA
:1003160026F527E55C6420455B703AE55A45597039
:1003260034E5274526602EE56164017028F54C12F8
:1003360010767F1E120E1C120D54754C01055DE4DD
:10034600F561F558F526F527800B7F14120DEE1290
:100356000D54E4F558E52230E056E5537052E55A5F
:1003660045597002052ED3E52E648094824041E5FE
:100376005A45596028E55A640A45596020E55A6489
:100386000545596018E55A640945596010E55A64EF
:100396000B45596008E55A640D45597013E563B479
:1003A600010EE4F5637F28120DEE120D54E4F52ECE
:1003B600E55A640F45597047E55F64017041054889
:1003C600F556F557E54824FE601514601714601CB1
:1003D60014602124047028120F1C120F468020126C
:1003E6000EC8800B120E74120E9E8013120F70E44C
:1003F600F55F800B1210767F1E120E1C120D54D361
:10040600E557940FE556648094804017E548B4019B
:1004160012E55FB4010DE4F556F5577F1E120E1C6A
:10042600120D88D3E557940FE556648094805003E7
:10043600020048E54864036003020048E55F640182
:100446006003020048F556F5577F1E120E1C120D6A
:040456005402004804
:100B02007580FFE580540F755900F55AE580543021
:100B1200755B00F55C0557E557700205567F0112BB
:100B22000DEEE559706DE55A14B40F005065900B47
:100B32003E75F003A4C58325F0C58373020B6B02D7
:100B42000B71020B71020B85020B90020B90020BD0
:100B520090020B7B020B95020B90020B95020B8508
:100B6200020B90020B90020B907D0E7C0680047D9E
:100B7200DC7C057F0E7E0680127DAA7C057FAA7E24
:100B82000580087DAA7C057FDC7E05020DBC7F0600
:040B9200120DEE2230
:03000000020B965A
:0C0B9600787FE4F6D8FD758182020BDD4B
:100A0900BC000BBE0029EF8DF084FFADF022E4CCD1
:100A1900F875F008EF2FFFEE33FEEC33FCEE9DEC9A
:100A2900984005FCEE9DFE0FD5F0E9E4CEFD22EDE0
:100A3900F8F5F0EE8420D21CFEADF075F008EF2F2A
:100A4900FFED33FD4007985006D5F0F222C398FD1B
:050A59000FD5F0EA22B8
:100A5E00EB9FF5F0EA9E42F0E99D42F0EC6480C80F
:060A6E0064809845F022AF
:10045A00E5432437F8E60543227834300702783733
:10046A00E475F001120ACC020A742000EB7F2ED246
:10047A00008018EF540F2490D43440D4FF30040B7A
:10048A00EF24BFB41A0050032461FFE5446002154B
:10049A00440547E5477002054630070D7834E47590
:1004AA00F001120ACCEF020ABA0210FD7403D20755
:1004BA008003E4C207F5438B348A358936E4F54470
:1004CA00F546F547E54460077F2012049580F575E7
:1004DA0045FFC201C200C202C203C205C206C20867
:1004EA00120463FF700D3007057F001204A6AF47A0
:1004FA00AE4622B4255FC2D5C204120463FF24D0DB
:10050A00B40A00501A75F00A784430D50508B6FFC7
:10051A000106C6A426F620D5047002D20380D92487
:10052A00CFB41A00EF5004C2E5D2040206A6D201E3
:10053A0080C6D20080C0D20280BCD2D580BAD20591
:10054A0080B47F201204952002077401B54400404C
:10055A00F112045AFF1204950204CED208D2068080
:10056A009512045AFB12045AFA12045AF94A4B70A9
:10057A000679777A077BFF20022EE544602A7E00FF
:10058A008E82758300120A8D60060EEE654570F044
:10059A00C2D5EBC0E0EAC0E0E9C0E0EE1206EDD059
:1005AA00E0F9D0E0FAD0E0FB120A74FF60AAEBC0CF
:1005BA00E0EAC0E0E9C0E0120495D0E02401F9D0F5
:1005CA00E03400FAD0E0FBE5450460DCD545D9808B
:1005DA00877BFF7A0679E9D202809C7910800279BA
:1005EA0008C206C2088008D2D5790A8004790AC2EC
:1005FA00D5E545047002F545E4FAFDFEFF12045AFA
:10060A00FC7B0820011312045AFD7B1030000A12E9
:10061A00045AFE12045AFF7B20EC3382D592D5503D
:10062A0013C3E43000069FFFE49EFEE42001039D0D
:10063A00FDE49CFCE4CBF8C201EC700CCFCECDCC2F
:10064A00E824F8F870F38017C3EF33FFEE33FEEDBA
:10065A0033FDEC33FCEB33FB994002FB0FD8E9EB9B
:10066A00300105F8D0E0C448B201C0E00AEC4D4EB2
:10067A004F78207B0070C2EAB5450040BCC0E0124A
:10068A0006EFD0F0D0E0200104C4C0E0C4B201C03B
:10069A00F012047ED0F0D5F0EB0204CE120ADC058B
:1006AA006B5305E558053C4C05384205E94F05F101
:0F06BA004405F14905514305F75505DB4605DBBE
:1006C9004505DB4707975005402D05442E05672B47
:1006D90005482305652007802A0500480000055FB5
:1006E9003F3F3F00790AA2D5200314300509B9100C
:1006F900020404B9080104A2D5200602500104200D
:1007090002689202B544005034C0E07F20300319DA
:100719007F30A20272067205500F120746C202C24A
:1007290006C205C2087F30800F300503E9C0E01218
:100739000495300503D0E0F9D0E0B544CC30051775
:100749007F30B9100C1204957F583004077F7880E8
:1007590003B908031204953002057F2D0204957F21
:10076900202008F87F2B2006F322920280CF286EE2
:10077900756C6C2900D20112045A3001F8C2017853
:100789004430D50108F60205002D5043495812049A
:100799005A2403B405004001E49007929312048699
:0D07A900743A120486D2037544040205E57B
:100BA200020026E493A3F8E493A34003F68001F243
:100BB20008DFF48029E493A3F85407240CC8C33354
:100BC200C4540F4420C8834004F456800146F6DF23
:100BD200E4800B0102040810204080900C22E47E85
:100BE200019360BCA3FF543F30E509541FFEE49318
:100BF200A360010ECF54C025E060A840B8E493A3DF
:100C0200FAE493A3F8E493A3C8C582C8CAC583CA09
:100C1200F0A3C8C582C8CAC583CADFE9DEE780BEC1
:010C8400006F
:100A7400BB010689828A83E0225002E722BBFE0280
:090A8400E32289828A83E49322B3
:100A8D00BB010CE58229F582E5833AF583E022501E
:100A9D0006E92582F8E622BBFE06E92582F8E22268
:0D0AAD00E58229F582E5833AF583E4932282
:100ABA00BB010689828A83F0225002F722BBFE011B
:020ACA00F32215
:100ACC00FAE6FB0808E6F925F0F618E6CA3AF6222B
:100ADC00D083D082F8E4937012740193700DA3A3A9
:100AEC0093F8740193F5828883E4737402936860BD
:060AFC00EFA3A3A380DFBD
:00000001FF
