:1018B9007C007D0A121244EF1F70011E144E70F74E
:0118C90022FC
:10183900AB07AA060BBB00010AEB1B70011A144A7D
:0C18490060097F847E031218B980EE2233
:03002000DFFE22DE
:10181C00D2907FDC7E051218B9C290D2917FDC7E0B
:0D182C00051218B9C2917F147E0002183910
:021594008F5274
:10159600E4F553E553C395525021D2907F9F7E05C3
:1015A6001218B9C290D2917F197E061218B9C2914B
:0B15B6007F147E00121839055380D806
:0115C1002207
:0A14C4008E698F6A8C6B8D6C8B6D46
:1014CE00E4F56EE56EC3956D5021D290AF6CAE6BA8
:1014DE001218B9C290D291AF6AAE691218B9C29100
:0B14EE007F147E00121839056E80D8B4
:0114F90022D0
:0215C2008F5246
:1015C400E4F553E553C395525021D2907F2C7E0607
:1015D4001218B9C290D2917F8C7E051218B9C291AB
:0B15E4007F147E00121839055380D8D8
:0115EF0022D9
:081562008E528F538C548D55FD
:10156A00E4F556D290AF55AE541218B9C290D29142
:10157A00AF53AE521218B9C2917F147E00121839B5
:09158A000556E556C3940240DA4F
:011593002235
:1015F000E4F576D2907FAA7E051218B9C290D291F6
:101600007FAA7E051218B9C2917F147E0012183984
:091610000576E576C3946440DA26
:0116190022AE
:10161A00E4F552D2907F787E051218B9C290D29121
:10162A007F787E051218B9C2917F147E001218398C
:09163A000552E552C3941840DA90
:011643002284
:10164400E4F552D2907F787E051218B9C290D291F7
:101654007F787E051218B9C2917F147E0012183962
:091664000552E552C3940F40DA6F
:01166D00225A
:10166E00E4F552D2907FB47E051218B9C290D29191
:10167E007FB47E051218B9C2917F147E00121839FC
:09168E000552E552C3944640DA0E
:011697002230
:10169800E4F577D2907F0E7E061218B9C290D291E7
:1016A8007F0E7E061218B9C2917F147E0012183977
:0916B8000577E577C3944640DA9A
:0116C1002206
:1016C200E4F552D2907F407E061218B9C290D291B0
:1016D2007F407E061218B9C2917F147E001218391B
:0916E2000552E552C3941A40DAE6
:0116EB0022DC
:1016EC00E4F552D2907F407E061218B9C290D29186
:1016FC007F407E061218B9C2917F147E00121839F1
:09170C000552E552C3940F40DAC6
:0117150022B1
:10171600E4F552D2907F047E061218B9C290D29197
:101726007F047E061218B9C2917F147E0012183902
:091736000552E552C3944640DA65
:01173F002287
:10174000E4F578D2907F407E061218B9C290D2910B
:101750007F407E061218B9C2917F147E001218399C
:091760000578E578C3941A40DA1B
:01176900225D
:1017DA008E528F53D290AF05AE041218B9C290D26E
:1017EA0091AF53AE521218B9C2917F147E000218FB
:0117FA0039B5
:1014FA00E4F552F553D2907FA07E051218B9C29036
:10150A00D2917FA07E051218B9C2917F147E001273
:10151A0018390553E55370020552C39444E55294B1
:03152A000040D2AC
:01152D00229B
:10152E00E4F51EF51FD2907F187E061218B9C290F0
:10153E00D2917F187E061218B9C2917F147E0012C6
:10154E001839051FE51F7002051EC39444E51E944D
:03155E000040D278
:011561002267
:0300230002143F85
:07143F00C0E0C0D075D00829
:10144600309820AF99C298E56F2408FDE433FCE597
:10145600716D7001EC600CAE710571EE5407247964
:10146600F8A60F30991BC299E57065726011AF70CE
:101476000570EF54072481F8E6F599C20A8002C286
:01148600095C
:05148700D0D0D0E032DE
:10179200200A22200905D2098F9922C2ACAE720515
:1017A20072EE54072481F8A607E57265705407703B
:0617B20002D20AD2AC22B3
:1018A300AD07BD0A08200AFD7F0D121792200AFD1D
:0618B300AF05121792229E
:10188C00E571656F60FAC2ACAF6F056FEF5407245A
:06189C0079F8E6FFD2AC72
:0118A2002223
:10187100E4F56FF571F570F572C209C20A4389206A
:0B188100758DFDD28E7598D8D2AC2278
:06000300121871D2AF22B9
:0713C9000173000274000033
:0F18CA00438901E4F58CF58AD2AFD2A9C28C22F2
:03000B000218D9FF
:0318D900C28C328C
:10148C00E4F552F553C2A6C2A7D2A67F19FE1218D4
:10149C00B9C2A630A7FDD28C30A703208CFAC28C1F
:1014AC00AF8CEFFEAD8A7C00E42DFFEC3EFE7D3A66
:0714BC001212448E528F53FF
:0114C3002206
:10176A007265643D256C642C677265656E3D256CF7
:10177A00642C626C75653D256C640A00636F6C6F3E
:08178A0072203D2025640A00D5
:1013D00004100000000004180000000004140000C5
:0213E00000000B
:10185500D2AFE4F5C943C81075985075CDFF75CC66
:0C186500DC75CBFF75CADCD2CAD2992218
:1017FB00E4F555C2937FC87E00121839D2937FC887
:10180B007E001218390555E555C3940340E5C29384
:01181B0022AA
:10000E00758951758CFC758A66D2AFD2A9D28CD205
:02001E008E2230
:03000B000217B821
:1017B800C0E0C0D0C28CC28E051DE51D7002051C9C
:1017C800758CFCE58A2466F58AD28CD28ED0D0D06E
:0217D800E032FD
:100D3B007552021217FB7F507E00121839D293D2D4
:100D4B00A1D2A212000E121855AF521552EF70031A
:100D5B00020E33E4F51CF51DC2A3D2A4E51D6448B5
:100D6B00451C70F8C28CC28EAF8DEFFEAD8B7C0034
:100D7B00E42DFFEC3EFEE48F178E16F515F514F5FA
:100D8B008BF58DF51CF51DD28CD28ED2A3D2A4E59A
:100D9B001D6449451C70F8C28CC28EAF8DEFFEAD41
:100DAB008B7C00E42DFFEC3EFEE48F138E12F511CD
:100DBB00F510F58BF58DF51CF51DD28CD28EC2A3DB
:100DCB00C2A4E51D644C451C70F8C28CC28EAF8D5D
:100DDB00EFFEAD8B7C00E42DFFEC3EFEE48F1B8E13
:100DEB001AF519F518F58BF58DF51CF51D7BFF7AAA
:100DFB0017796A851B5B851A5A8519598518588589
:100E0B00135F85125E85115D85105C8517638516F2
:100E1B0062851561851460120A417FC87E00121825
:100E2B0039D28CD28E020D547BFF7A17796A851BCF
:100E3B005B851A5A85195985185885135F85125E7B
:100E4B0085115D85105C8517638516628515618537
:100E5B001460120A41E47F23FEFDFCAB1BAA1AA906
:100E6B0019A818D3121299502FE47F23FEFDFCAB67
:100E7B0013AA12A911A810121299501CE47F23FE79
:100E8B00FDFCAB17AA16A915A814121299500975D7
:100E9B005300755402020FA2E47FC8FEFDFCAB1B8E
:100EAB00AA1AA919A818C3121299402FE47FC8FED9
:100EBB00FDFCAB13AA12A911A810121299401CE445
:100ECB007FC8FEFDFCAB17AA16A915A81412129920
:100EDB004009755300755401020FA2E47F96FEFD85
:100EEB00FCAB1BAA1AA919A818C3121299402FE41C
:100EFB007F32FEFDFCAB13AA12A911A810D312125C
:100F0B0099501BE47F32FEFDFCAB17AA16A915A85E
:100F1B001412129950087553007554038079E47FAD
:100F2B00C8FEFDFCAB1BAA1AA919A818C31212996B
:100F3B00402FE47F96FEFDFCAB13AA12A911A8105B
:100F4B00121299401CE47F64FEFDFCAB17AA16A994
:100F5B0015A814D3121299500875530075540480B8
:100F6B0036E47F28FEFDFCAB17AA16A915A814D3EF
:100F7B001212994022E47FBEFEFDFCA814121299B6
:100F8B0050157553007554057BFF7A177986855379
:100F9B0058855459120A41C2AFC2A9C28CC28EAE37
:030FAB0053AF54ED
:010FAE002220
:1013E2000234000002430000012B00014501012DDF
:1013F20001014100012601013301014700013100D1
:10140200012500013600012A00012C0001300001F3
:101412002401012900013200013D000140000128A0
:1014220001014200012300013F00013B000146008F
:0C143200012700013C00012200013E00E7
:10002600E4F548F549F54AF54DF54EF54F1200034E
:100036007FD07E071218397F28121594E528B4015F
:100046000312114AE5236003020103E538640F45F4
:10005600376003020103E53B6003020103F534F553
:10006600350548754501E54814B40A00506D900001
:100076008275F003A4C58325F0C583730200A00230
:1000860000A20200A60200A80200AA0200AC02001A
:10009600B00200BC0200C80200D480327F0C80246B
:1000A6008014800680007F0F802E7F0F1215941219
:1000B60016EC7F0A80227F0F1215941216447F0ACF
:1000C60080167F0A1215941216C27F0A800A7F0CC8
:1000D60012159412161A7F0A121594E54830E00D8F
:1000E600D394004008753301752D01800D754201CA
:1000F600752301E4F52BF533F52DE4F54FE533B41F
:10010600010A1218CA12148C8E508F51C3E55194ED
:1001160005E55094005037E52D64017031E53364F0
:1001260001702B053E7F0C12159412181CE53EB487
:1001360003050548753B02120D3B8E2E8F2F7F322D
:10014600121594753601E4F52DF533753101E53652
:10015600700302035EE52F6404452E7006E54864CD
:1001660001603EE52F6401452E7006E54864036094
:1001760030E52F6403452E7006E54864056022E5E8
:100186002F6402452E7006E54864076014E52F6467
:1001960005452E6003020353E54864096003020324
:1001A60053754101753B01E52F6401452E6010E54D
:1001B6002F6403452E6008E52F6402452E704BE53B
:1001C6003A643045396010E53A641045396008E50F
:1001D6003A642045397033E52F452E602DE541649C
:1001E600017027F5287F0612159412181C7F1E121F
:1001F60015C21214FA752801053CE4F541F5367569
:100206002501F52EF52F0548F54FE52F6404452EFB
:1002160060030202D3E53A642045397054E52F4560
:100226002E604EE54164017048F5287F141215943E
:10023600E4F543F5447DE67C057FE67E051217DA94
:100246000544E54470020543C39403E54364809482
:100256008040E212181C7F1E1215C21214FA75286D
:1002660001053CE4F541F536752501F52EF52F051A
:1002760048E53A641045397054E5384537704EE51F
:100286002F452E6048E54164017042F528F543F597
:10029600447DE67C057FE67E051217DA0544E544D3
:1002A60070020543C39403E5436480948040E212E0
:1002B600181C7F1E1215C21214FA752801053CE49B
:1002C600F541F536752501F52EF52F0548E52F6420
:1002D60005452E600302035EE53A64104539703128
:1002E600E52F452E602BE54164017025F5287F1228
:1002F60012159412181C7F1E1215C21214FA7528B4
:1003060001053CE4F541F536752501F52EF52F0579
:1003160048E53A64204539703FE53845377039E598
:100326002F452E6033E5416401702DF52812181C07
:100336007F1E1215C21214FA752801053CE4F54118
:10034600F536752501F52EF52F0548800B7F14121D
:1003560015941214FAE4F536E54830E056E53170A6
:1003660052E53845377002054FD3E54F64809482D5
:100376004041E53845376028E538640A453760204E
:10038600E538640545376018E53864094537601077
:10039600E538640B45376008E538640D453770135A
:1003A600E4F545753B017F411215941214FA054890
:1003B600E4F54FE54820E04ED394004049E531642A
:1003C600017043E5426401703DE54975F032A4FFD2
:1003D600C374B49FFFE495F0FED3E5359FEE6480C9
:1003E600F8E53464809840167F1E1215C21214FA7E
:1003F600E4F531752B01F534F535F5420549E4F59B
:1004060033F52D02049AE54830E00302049AD394AA
:1004160000500302049AE53B64017078E538640FE6
:1004260045377070F534F535754501F531E54824E5
:10043600FC601D24FE601B24FE602424FE602A242A
:1004460008702E7F1212159412161A121644802165
:10045600800D7F121215941214FA1216EC80127F78
:100466001212159412164480057F12121594121654
:100476001A0548E54830E00DD3940040087533016D
:10048600752D01800A752301E4F52BF533F52DE46E
:10049600F54FF53BD3E5359464E5346480948040AC
:1004A6000FE52BB4010AE5317006F534F535F52371
:1004B600E53E64036003020042752703E538640FD6
:1004C60045376003020042E53B64026003020042D6
:1004D600F534F535E54824FC601A24FE602324FE35
:1004E600602924FE602F240870337F0C12159412A5
:1004F600161A80297F0F12159412161A12164480A6
:100506001C7F0F1215941214FA80127F0F12159485
:100516001216EC80087F0C1215941216C2E53E6482
:10052600037052E528B4010312114AE538640F45F9
:10053600377030E52F452E602AE4F534F535E52E83
:100546007021E52F14600F14601124FD60120470F1
:100556001212161A800D12164480081216EC800329
:100566001216C2C3E535941EE5346480948040B308
:10057600120FAF80AEE4F533F547F52DF53175244E
:1005860001F526752801F53CF52EF52FF550755128
:1005960064F54FF534F5357527031214FAE528B4DA
:1005A600010312114AE538640F45377010E524B48B
:1005B600010B7F0C1215941216C2752A01E52A64E6
:1005C600017066F54DF54EF54BF54C1218CA12142E
:1005D6008C8E508F517DFA7C057FFA7E051217DAD4
:1005E600C3E551940AE55094004028E5519414E57A
:1005F600509400501E854B4D854C4EE54A9405405F
:100606001012181C7F62121594E4F524753D0180C2
:1006160015054A054CE54C7002054BC394C8E54BDD
:100626006480948040A5E4F52AD3E54E9428E54DF0
:10063600648094804008753001E4F52C8006752CA2
:1006460001E4F530E538640F4537702CE53D64016B
:100656007026F534F535754001E52CB4010A7F0C9A
:100666001215941216C2800DE530B401087F0C12E3
:10067600159412161AE4F53DE538640F4537704DAA
:10068600E54064017047D3E535940AE53464809407
:1006960080403AE4F534F535E52CB4010A7F1412AE
:1006A6001594121716800DE530B4011E7F1412152D
:1006B6009412166E7F2812159412181C7F1E12159E
:1006C600C2753201753301752D01E4F540E533B489
:1006D6000126E54070221218CA12148C8E508F51D2
:1006E600D3E5519405E5509400400DE5519414E589
:1006F6005094005003753101C3E5519405E55094BB
:10070600005037E52D64017031E5336401702BE547
:1007160032B401267F0A12159412181C120D3B8E54
:100726002E8F2FE52F6402452E7003754701E4F5E1
:1007360032753101F52DF526F533E538640F453769
:10074600705BE5267057E5247053E52F452E604D06
:10075600E4F534F535F54FE52E703FE52F146017B7
:1007660014602514601B24FE602804702D7F0C1273
:10077600159412161A80237F0F12159412164480B0
:10078600197F0F12159480127F0F1215941216EC12
:1007960080087F0F1215941216C2754101E52F6469
:1007A60001452E6010E52F6403452E6008E52F6491
:1007B60002452E7049E53A643045396010E53A64E1
:1007C6001045396008E53A642045397031E52F4512
:1007D6002E602BE54164017025F5287F05121594DE
:1007E60012181C7F1E1215C21214FA752801053C38
:1007F600E4F534F535F541F531752601F54FE52F6C
:100806006404452E60030208C7E53A642045397042
:1008160054E52F452E604EE54164017048F5287F6A
:1008260012121594E4F543F5447DE67C057FE67ED9
:10083600051217DA0544E54470020543C39403E53F
:10084600436480948040E212181C7F1E1215C21267
:1008560014FA752801053CE4F534F535F541F53112
:10086600752601F54FE53A641045397054E538456B
:1008760037704EE52F452E6048E54164017042F51C
:1008860028F543F5447DE67C057FE67E051217DAFA
:100896000544E54470020543C39403E5436480942C
:1008A6008040E212181C7F1E1215C21214FA752817
:1008B60001053CE4F534F535F541F531752601F5CC
:1008C6004FE52F6405452E7073E53A64104539707F
:1008D60031E52F452E602BE54164017025F5287F13
:1008E6001212159412181C7F1E1215C21214FA75D4
:1008F6002801053CE4F534F535F541F53175260159
:10090600F54FE53A642045397032E5384537702CA5
:10091600E52F452E6026E541B40121E4F52812189D
:100926001C7F1E1215C21214FA752801053CE4F547
:1009360034F535F541F531752601F54FE538640F87
:100946004537706FE52664017069E52F452E6063B3
:10095600752D01E4F526F534F535E52E703FE52FC6
:1009660014601714602514601B24FE602804702D83
:100976007F0C1215941216C280237F14121594123E
:1009860016EC80197F0F12159480127F121215949F
:1009960012164480087F0C12159412161AE4F52ECE
:1009A600F52F7F28121594E53C640260031214FAB1
:1009B600752401E53C640260030205A3D3E5359482
:1009C600B4E5346480948050030205A3E4F534F55D
:0909D6003512181C12181C80FBDC
:10114A007580FFE580540F753700F538E580543017
:10115A00753900F53A7F01121594E53760030212DA
:10116A0043E53814B40F004003021243901184750A
:10117A00F003A4C58325F0C583730211B10211BF20
:10118A000211C80211EC02120802121102121A020A
:10119A0011DA0212430212230212430211F5021259
:1011AA002C02123502123E0535E535700205347DF2
:1011BA000E7C0680150535E53570020534220535A5
:1011CA00E535700205347DDC7C057F0E7E06802BBA
:1011DA000535E535700205347DAA7C057FAA7E05B2
:1011EA0080190535E53570510534220535E5357028
:1011FA000205347DAA7C057FDC7E05021562053571
:10120A00E53570350534220535E535702C0534226F
:10121A000535E53570230534220535E535701A059F
:10122A0034220535E53570110534220535E535706A
:0A123A00080534227F0612159422E5
:100FAF00E52F6401452E6010E52F6403452E600880
:100FBF00E52F6402452E704AE4F53BE53A6430456F
:100FCF00396010E53A641045396008E53A64204508
:100FDF0039702FE52F452E6029E541B40124E4F542
:100FEF00287F0312159412181C7F1E1215C212149B
:100FFF00FA752801053CE4F534F535F53175260110
:10100F00F541E52F6404452E60030210D0E53A64E4
:10101F002045397052E52F452E604CE54164017033
:10102F0046F5287F0F121594E4F543F5447DE67CD1
:10103F00057FE67E051217DA0544E5447002054385
:10104F00C39403E5436480948040E212181C7F1E12
:10105F001215C21214FA752801053CE4F534F53562
:10106F00F531752601F541E53A641045397052E5C1
:10107F00384537704CE52F452E6046E541640170C9
:10108F0040F528F543F5447DE67C057FE67E0512A5
:10109F0017DA0544E54470020543C39403E543643E
:1010AF0080948040E212181C7F1E1215C21214FA8F
:1010BF00752801053CE4F534F535F531752601F554
:1010CF0041E52F6405452E7071E53A64104539707E
:1010DF002FE52F452E6029E541B40124E4F5287F43
:1010EF000A12159412181C7F1E1215C21214FA75CB
:1010FF002801053CE4F534F535F531752601F54148
:10110F00E53A642045397032E5384537702CE52FC4
:10111F00452E6026E541B40121E4F52812181C7F05
:10112F001E1215C21214FA752801053CE4F534F5A8
:0B113F0035F531752601F541F536222B
:0300000002133DAB
:0C133D00787FE4F6D8FD758188021384E7
:10124400BC000BBE0029EF8DF084FFADF022E4CC8E
:10125400F875F008EF2FFFEE33FEEC33FCEE9DEC57
:10126400984005FCEE9DFE0FD5F0E9E4CEFD22ED9D
:10127400F8F5F0EE8420D21CFEADF075F008EF2FE7
:10128400FFED33FD4007985006D5F0F222C398FDD8
:051294000FD5F0EA2275
:10129900EB9FF5F0EA9E42F0E99D42F0EC6480C8CC
:0612A90064809845F0226C
:1009DF00E5642458F8E60564227855300702785804
:1009EF00E475F0011213070212AF2000EB7F2ED235
:1009FF00008018EF540F2490D43440D4FF30040BF0
:100A0F00EF24BFB41A0050032461FFE5656002159F
:100A1F00650568E5687002056730070D7855E47560
:100A2F00F001121307EF0212F50218A37403D20795
:100A3F008003E4C207F5648B558A568957E4F56540
:100A4F00F567F568E56560077F20120A1A80F5756E
:100A5F0066FFC201C200C202C203C205C206C208BB
:100A6F001209E8FF700D3007057F00120A2BAF68DF
:100A7F00AE6722B4255FC2D5C2041209E8FF24D0A5
:100A8F00B40A00501A75F00A786530D50508B6FF1C
:100A9F000106C6A426F620D5047002D20380D924FD
:100AAF00CFB41A00EF5004C2E5D204020C2BD201CE
:100ABF0080C6D20080C0D20280BCD2D580BAD20507
:100ACF0080B47F20120A1A2002077401B565004016
:100ADF00F11209DFFF120A1A020A53D208D2068056
:100AEF00951209DFFB1209DFFA1209DFF94A4B7081
:100AFF000679FC7A0C7BFF20022EE565602A7E00CA
:100B0F008E827583001212C860060EEE656670F055
:100B1F00C2D5EBC0E0EAC0E0E9C0E0EE120C72D043
:100B2F00E0F9D0E0FAD0E0FB1212AFFF60AAEBC001
:100B3F00E0EAC0E0E9C0E0120A1AD0E02401F9D0DF
:100B4F00E03400FAD0E0FBE5660460DCD566D980BE
:100B5F00877BFF7A0C796ED202809C7910800279A4
:100B6F0008C206C2088008D2D5790A8004790AC261
:100B7F00D5E566047002F566E4FAFDFEFF1209DFA3
:100B8F00FC7B082001131209DFFD7B1030000A12D5
:100B9F0009DFFE1209DFFF7B20EC3382D592D5509F
:100BAF0013C3E43000069FFFE49EFEE42001039D83
:100BBF00FDE49CFCE4CBF8C201EC700CCFCECDCCA5
:100BCF00E824F8F870F38017C3EF33FFEE33FEED30
:100BDF0033FDEC33FCEB33FB994002FB0FD8E9EB11
:100BEF00300105F8D0E0C448B201C0E00AEC4D4E28
:100BFF004F78207B0070C2EAB5660040BCC0E0129F
:100C0F000C74D0F0D0E0200104C4C0E0C4B201C025
:100C1F00F0120A03D0F0D5F0EB020A531213170AA1
:100C2F00F0530B6A580AC14C0ABD420B6E4F0B763C
:0F0C3F00440B76490AD6430B7C550B60460B607D
:100C4E00450B60470D1C500AC52D0AC92E0AEC2B08
:100C5E000ACD230AEA200D052A0A854800000AE477
:100C6E003F3F3F00790AA2D5200314300509B91081
:100C7E00020404B9080104A2D52006025001042082
:100C8E0002689202B565005034C0E07F203003192F
:100C9E007F30A20272067205500F120CCBC202C236
:100CAE0006C205C2087F30800F300503E9C0E0128E
:100CBE000A1A300503D0E0F9D0E0B565CC3005173F
:100CCE007F30B9100C120A1A7F583004077F7880D3
:100CDE0003B90803120A1A3002057F2D020A1A7F81
:100CEE00202008F87F2B2006F322920280CF286E58
:100CFE00756C6C2900D2011209DF3001F8C201783F
:100D0E006530D50108F6020A852D5043495812095F
:100D1E00DF2403B405004001E4900D1793120A0B73
:0D0D2E00743A120A0BD203756504020B6AB9
:10134900020026E493A3F8E493A34003F68001F294
:1013590008DFF48029E493A3F85407240CC8C333A5
:10136900C4540F4420C8834004F456800146F6DF74
:10137900E4800B01020408102040809013C9E47E28
:10138900019360BCA3FF543F30E509541FFEE49369
:10139900A360010ECF54C025E060A840B8E493A330
:1013A900FAE493A3F8E493A3C8C582C8CAC583CA5B
:1013B900F0A3C8C582C8CAC583CADFE9DEE780BE13
:01143E0000AD
:1012AF00BB010689828A83E0225002E722BBFE023D
:0912BF00E32289828A83E4932270
:1012C800BB010CE58229F582E5833AF583E02250DB
:1012D80006E92582F8E622BBFE06E92582F8E22225
:0D12E800E58229F582E5833AF583E493223F
:1012F500BB010689828A83F0225002F722BBFE01D8
:02130500F322D1
:10130700FAE6FB0808E6F925F0F618E6CA3AF622E7
:10131700D083D082F8E4937012740193700DA3A365
:1013270093F8740193F5828883E473740293686079
:06133700EFA3A3A380DF79
:00000001FF
