:101605007C007D0A120F83EF1F70011E144E70F7C8
:0116150022B2
:10158500AB07AA060BBB00010AEB1B70011A144A34
:0C15950060097F847E0312160580EE22A0
:03002000DFFE22DE
:10156800D2907FDC7E05121605C290D2917FDC7E78
:0D15780005121605C2917F147E0002158534
:0212E0008F304D
:1012E200E4F531E531C395305021D2907F9F7E05E0
:1012F200121605C290D2917F197E06121605C2916E
:0B1302007F147E00121585053180D895
:01130D0022BD
:0A1210008E688F698C6A8D6B8B6C01
:10121A00E4F56DE56DC3956C5021D290AF6BAE6A63
:10122A00121605C290D291AF69AE68121605C29124
:0B123A007F147E00121585056D80D822
:011245002286
:02130E008F301E
:10131000E4F531E531C395305021D2907F2C7E0623
:10132000121605C290D2917F8C7E05121605C291CD
:0B1330007F147E00121585053180D867
:01133B00228F
:0812AE008E308F318C328D333C
:1012B600E4F534D290AF33AE32121605C290D29115
:1012C600AF31AE30121605C2917F147E001215851D
:0912D6000534E534C3940240DA4A
:0112DF0022EC
:10133C00E4F575D2907FAA7E05121605C290D29163
:10134C007FAA7E05121605C2917F147E00121585A8
:09135C000575E575C3946440DADF
:011365002265
:10136600E4F530D2907F787E05121605C290D291B0
:101376007F787E05121605C2917F147E00121585B0
:091386000530E530C3941840DA8B
:01138F00223B
:10139000E4F530D2907F787E05121605C290D29186
:1013A0007F787E05121605C2917F147E0012158586
:0913B0000530E530C3940F40DA6A
:0113B9002211
:1013BA00E4F576D2907FC87E05121605C290D291C6
:1013CA007FC87E05121605C2917F147E001215850C
:0913DA000576E576C394B440DA0F
:0113E30022E7
:1013E400E4F577D2907F0E7E06121605C290D29154
:1013F4007F0E7E06121605C2917F147E001215859B
:091404000577E577C3944640DA50
:01140D0022BC
:10140E00E4F530D2907F407E06121605C290D2913E
:10141E007F407E06121605C2917F147E001215853E
:09142E000530E530C3941A40DAE0
:011437002292
:10143800E4F530D2907F407E06121605C290D29114
:101448007F407E06121605C2917F147E0012158514
:091458000530E530C3940F40DAC1
:011461002268
:10146200E4F578D2907FF07E05121605C290D291F3
:101472007FF07E05121605C2917F147E001215853B
:091482000578E578C394B440DA62
:01148B00223E
:10148C00E4F579D2907F407E06121605C290D29177
:10149C007F407E06121605C2917F147E00121585C0
:0914AC000579E579C3941A40DAD0
:0114B5002214
:101526008E308F31D290AF05AE04121605C290D21E
:1015360091AF31AE30121605C2917F147E000215AE
:01154600851F
:10124600E4F530F531D2907FA07E05121605C290E6
:10125600D2917FA07E05121605C2917F147E0012E0
:1012660015850531E53170020530C39444E53094A7
:031276000040D263
:011279002252
:10127A00E4F51EF51FD2907F187E06121605C2905D
:10128A00D2917F187E06121605C2917F147E001233
:10129A001585051FE51F7002051EC39444E51E94BB
:0312AA000040D22F
:0112AD00221E
:0300230002117750
:07117700C0E0C0D075D008F4
:10117E00309820AF99C298E56E2408FDE433FCE563
:10118E00706D7001EC600CAE700570EE5407247A31
:10119E00F8A60F30991BC299E56F65716011AF6F9C
:1011AE00056FEF54072482F8E6F599C20A8002C251
:0111BE000927
:0511BF00D0D0D0E032A9
:1014DE00200A22200905D2098F9922C2ACAE7105CD
:1014EE0071EE54072482F8A607E571656F540770F4
:0614FE0002D20AD2AC226A
:1015EF00AD07BD0A08200AFD7F0D1214DE200AFD8B
:0615FF00AF051214DE220C
:1015D800E570656E60FAC2ACAF6E056EEF54072415
:0615E8007AF8E6FFD2AC28
:0115EE0022DA
:1015BD00E4F56EF570F56FF571C209C20A43892025
:0B15CD00758DFDD28E7598D8D2AC222F
:060003001215BDD2AF2270
:0711080001720002730000F8
:0F161600438901E4F58CF58AD2AFD2A9C28C22A8
:03000B00021625B5
:03162500C28C3242
:1011C400E4F530F531C2A6C2A7D2A67F19FE1216E5
:1011D40005C2A630A7FDD28C30A703208CFAC28C9E
:1011E400AF8CEFFEAD8A7C00E42DFFEC3EFE7D3A31
:1011F400120F838E308F31C3E5319403E5309400B0
:0B1204005005E4F530F531AE30AF319D
:01120F0022BC
:1014B6007265643D256C642C677265656E3D256CAE
:1014C600642C626C75653D256C640A00636F6C6FF5
:0814D60072203D2025640A008C
:10110F000410000000000418000000000414000088
:02111F000000CE
:1015A100D2AFE4F5C943C81075985075CDFF75CC1D
:0C15B100DC75CBFF75CADCD2CAD29922CF
:10154700E4F533C2937FC87E00121585D2937FC816
:101557007E001215850533E533C3940340E5C29336
:011567002261
:10000E00758951758CFC758A66D2AFD2A9D28CD205
:02001E008E2230
:03000B00021504D7
:10150400C0E0C0D0C28CC28E051DE51D7002051C52
:10151400758CFCE58A2466F58AD28CD28ED0D0D024
:02152400E032B3
:100C36007530021215477F507E00121585D293D269
:100C4600A1D2A212000E1215A1AF301530EF70031B
:100C5600020D2EE4F51CF51DC2A3D2A4E51D6448C1
:100C6600451C70F8C28CC28EAF8DEFFEAD8B7C003A
:100C7600E42DFFEC3EFEE48F178E16F515F514F500
:100C86008BF58DF51CF51DD28CD28ED2A3D2A4E5A0
:100C96001D6449451C70F8C28CC28EAF8DEFFEAD47
:100CA6008B7C00E42DFFEC3EFEE48F138E12F511D3
:100CB600F510F58BF58DF51CF51DD28CD28EC2A3E1
:100CC600C2A4E51D644C451C70F8C28CC28EAF8D63
:100CD600EFFEAD8B7C00E42DFFEC3EFEE48F1B8E19
:100CE6001AF519F518F58BF58DF51CF51D7BFF7AB0
:100CF6001479B6851B39851A3885193785183685CE
:100D0600133D85123C85113B85103A8517418516A2
:100D16004085153F85143E12093C7FC87E0012159A
:100D260085D28CD28E020C4F7BFF7A1479B6851B46
:100D360039851A3885193785183685133D85123C4D
:100D460085113B85103A85174185164085153F85E7
:100D5600143E12093CE47F23FEFDFCAB1BAA1AA934
:100D660019A818D3120FD8502FE47F23FEFDFCAB31
:100D760013AA12A911A810120FD8501CE47F23FE43
:100D8600FDFCAB17AA16A915A814120FD8500975A1
:100D96003100753202020E7CE47FC8FEFDFCAB1BFF
:100DA600AA1AA919A818C3120FD8402FE47FC8FEA3
:100DB600FDFCAB13AA12A911A810120FD8401CE40F
:100DC6007FC8FEFDFCAB17AA16A915A814120FD8EA
:100DD6004009753100753201020E7CE47F96FEFDF6
:100DE600FCAB1BAA1AA919A818C3120FD8402FE4E6
:100DF6007F32FEFDFCAB13AA12A911A810D3120F65
:100E0600D8501BE47F32FEFDFCAB17AA16A915A825
:100E160014120FD850087531007532038058E47FDC
:100E2600C8FEFDFCAB1BAA1AA919A818C3120FD835
:100E3600402FE47F96FEFDFCAB13AA12A911A81061
:100E4600120FD8401CE47F64FEFDFCAB17AA16A95E
:100E560015A814D3120FD8500875310075320480C6
:100E6600157531007532057BFF7A1479D2853136D6
:100E760085323712093CC2AFC2A9C28CC28EAE31CE
:020E8600AF3289
:010E88002247
:1011210002570000015000016601015201016400F3
:10113100014C01015601016700015400014B0001FE
:101141005900014F00015100015300014A01014EB4
:1011510000015500016000016300014D01016500BE
:10116100014900016200015E00015F0001480001C8
:051171006100014700D0
:10002600E4F522F523F524F529F52AF52BF52CF52B
:100036002D1200037FD07E071215857F281212E04D
:10004600E54DB40103120E89E549600302012DE571
:100056005B640F455A600302012DE55E60030201F1
:100066002DF557F5580522756601E52214B40A00E8
:10007600400302010E90008975F003A4C58325F0A4
:10008600C583730200A70200B10200BB0200C502CD
:1000960000CF0200D30200D70200E30200EF020005
:1000A600FE7F0C1212E0121366802E7F0C1212E0F5
:1000B60012140E80307F0F1212E0121390801A7FF6
:1000C6000F1212E0121438801C7F0F80267F0F80DB
:1000D600317F0F1212E01214387F0A80167F0F123A
:1000E60012E01213907F0A80197F0A1212E012148E
:1000F6000E7F0A1212E080107F0C1212E0121366B5
:100106007F0A1212E0756501E52230E00DD39400F6
:100116004008755601755201800A754901E4F5508B
:10012600F556F552E4F52DE55664017041121616A2
:100136001211C48E2E8F2FD3E52F9405E52E940031
:10014600400DE52F9408E52E94005003755401D315
:10015600E52F945FE52E94004014E52F946EE52E6E
:100166009400500AE554B40105E4F52EF52FC3E5D5
:100176002F9403E52E9400502FE55264017029E573
:1001860056B401241215680561E561B40303755E72
:1001960002755901E4F552F556755401120C368E66
:1001A600258F267F321212E0E55970030203B3E56C
:1001B60026640445257006E5226401603EE5266452
:1001C6000145257006E52264036030E52664034593
:1001D600257006E52264056022E526640245257041
:1001E60006E52264076014E52664054525600302DA
:1001F60003A8E522640960030203A8756401755E1D
:1002060001E526640145256010E526640345256061
:1002160008E526640245257046E55D6430455C6068
:1002260010E55D6410455C6008E55D6420455C7022
:100236002EE52645256028E564B40123E4F54D1234
:1002460015687F1E12130E121246754D01055FE4E6
:10025600F564F559754B01F525F5260522F52DE5CD
:1002660026640445256003020328E55D6420455C99
:100276007054E5264525604EE56464017048F54DE9
:100286007F121212E0E4F52BF52C7DE67C057FE665
:100296007E05121526052CE52C7002052BC394034A
:1002A600E52B6480948040E21215687F1E12130EBF
:1002B600121246754D01055FE4F564F559754B015B
:1002C600F525F5260522E55D6410455C7054E55B71
:1002D600455A704EE52645256048E564640170423E
:1002E600F54DF52BF52C7DE67C057FE67E05121592
:1002F60026052CE52C7002052BC39403E52B6480A0
:10030600948040E21215687F1E12130E1212467573
:100316004D01055FE4F564F559754B01F525F526A4
:100326000522E5266405452560030203B3E55D6401
:1003360010455C7031E5264525602BE56464017047
:1003460025F54D7F121212E01215687F1E12130E4C
:10035600121246754D01055FE4F564F559754B01BA
:10036600F525F5260522E55D6420455C703FE55BD5
:10037600455A7039E52645256033E5646401702DDC
:10038600F54D1215687F1E12130E121246754D0199
:10039600055FE4F564F559754B01F525F52605224B
:1003A600800B7F141212E0121246E4F559E5223052
:1003B600E05BE5547057E55B455A7002052DD3E5C1
:1003C6002D648094824046E55B455A6028E55B646F
:1003D6000A455A6020E55B6405455A6018E55B648A
:1003E60009455A6010E55B640B455A6008E55B6495
:1003F6000D455A7018E566B40113E4F566755E019D
:100406007F3C1212E01212460522E4F52DE5222069
:10041600E052D39400404DE5507049E554640170B4
:0704260043E5656401703D30
:10042D00E52375F028A4FFC374C89FFFE495F0FE83
:10043D00D3E5589FEE6480F8E55764809840167FA9
:10044D001E12130E121246E4F554755001F557F5B0
:0A045D0058F5650523E4F556F55245
:1004670002050AE52230E00302050AD3940050038F
:1004770002050AE550600302050AE55E64016003B0
:1004870002050AE55B640F455A7078F557F558750C
:100497006601E52224FC601424FE601D24FE60260C
:1004A70024FE602F240870387F0C80027F0F121201
:1004B700E012136612139080227F0F1212E01212BD
:1004C7004612143880157F0F1212E0121390121380
:1004D7006680087F0C1212E01213667F141212E076
:1004E7000522E52230E00DD39400400875560175CA
:1004F7005201800A754901E4F550F556F552E4F5C5
:100507002DF55ED3E5589414E55764809480400F29
:10051700E550B4010AE5547006F557F558F549E575
:100527006164036003020046E55B640F455A60039C
:10053700020046E55E64036003020046F557F5587E
:10054700E52224FC601A24FE602324FE602924FE91
:1005570060322408703B7F0C1212E0121366802C65
:100567007F0F1212E0121366121390801F7F0F1273
:1005770012E012124680157F0F1212E01214381281
:10058700140E80087F0C1212E012140E7F14121240
:10059700E07F1E12130E755601E4F567755201F5DB
:1005A70054F564754D01754901F52DE55F640370D8
:1005B700030208D9E54DB40103120E89E556B401CB
:1005C700371216161211C48E2E8F2FD3E52F9406CD
:1005D700E52E9400400DE52F9414E52E940050036A
:1005E700755401D3E52F945FE52E9400400AE55436
:1005F700B40105E4F52EF52FC3E52F9403E52E94FA
:10060700005026E552B40121E556B4011C121568C5
:10061700120C368E258F261212467F141212E075A1
:100627005401E4F552F54CF556D3E558940AE557CD
:1006370064809480400EE54C700AE5547006F557C7
:10064700F558F549E5497058E55B640F455A705010
:10065700E54C704CF557F558F52DE525703FE52627
:1006670014601714602514601B24FE602804702D85
:100677007F0C1212E012136680237F0F1212E01212
:10068700139080197F0F1212E080127F0F1212E071
:1006970012143880087F0F1212E012140E756401CD
:1006A700C3E558941EE55764809480500302084EB2
:1006B700E526640145256010E526640345256008A5
:1006C700E526640245257047E55D6430455C6010AA
:1006D700E55D6410455C6008E55D6420455C702F4E
:1006E700E52645256029E564B40124E4F54D7F033B
:1006F7001212E01215687F1E12130E121246754D64
:1007070001055FE4F557F558F554754C01F564E5B7
:10071700266404452560030207D5E55D6420455C32
:100727007052E5264525604CE56464017046F54D39
:100737007F0F1212E0E4F52BF52C7DE67C057FE6B2
:100747007E05121526052CE52C7002052BC3940394
:10075700E52B6480948040E21215687F1E12130E09
:10076700121246754D01055FE4F557F558F55475B6
:100777004C01F564E55D6410455C7052E55B455AD4
:10078700704CE52645256046E56464017040F54DEB
:10079700F52BF52C7DE67C057FE67E0512152605F3
:1007A7002CE52C7002052BC39403E52B6480948001
:1007B70040E21215687F1E12130E121246754D0184
:1007C700055FE4F557F558F554754C01F564E526D2
:1007D700640545257071E55D6410455C702FE5265D
:1007E70045256029E564B40124E4F54D7F0A12121A
:1007F700E01215687F1E12130E121246754D010581
:100807005FE4F557F558F554754C01F564E55D64FB
:1008170020455C7032E55B455A702CE5264525601E
:1008270026E564B40121E4F54D1215687F1E121305
:100837000E121246754D01055FE4F557F558F5544C
:10084700754C01F564F559E54960030205BBE55BA5
:10085700640F455A60030205BBE54C64016003025F
:1008670005BB755601755201F557F558E525703FDB
:10087700E52614601714602514601B24FE60280405
:10088700702D7F0C1212E012140E80237F141212A7
:10089700E012143880197F0F1212E080127F1212B3
:1008A70012E012139080087F0C1212E0121366E414
:1008B700F525F526E55F640360030205BBD3E5581C
:1008C700940AE5576480948050030205BBE4F5570A
:0208D700F558D2
:0108D90022FC
:100E89007580FFE580540F755A00F55BE580543095
:100E9900755C00F55D7F011212E0E55A6003020FEF
:100EA90082E55B14B40F004003020F82900EC375F4
:100EB900F003A4C58325F0C58373020EF0020EFE6C
:100EC900020F07020F2B020F47020F50020F5902A0
:100ED9000F19020F82020F62020F82020F34020FF2
:100EE9006B020F74020F7D0558E558700205577D96
:100EF9000E7C0680150558E55870020557220558DD
:100F0900E558700205577DDC7C057F0E7E06802B37
:100F19000558E558700205577DAA7C057FAA7E050C
:100F290080190558E55870510557220558E558703C
:100F39000205577DAA7C057FDC7E050212AE0558A5
:100F4900E55870350557220558E558702C05572284
:100F59000558E55870230557220558E558701A05B4
:100F690057220558E55870110557220558E558705C
:0A0F7900080557227F061212E0223D
:0300000002107C6F
:0C107C00787FE4F6D8FD7581890210C36E
:100F8300BC000BBE0029EF8DF084FFADF022E4CC52
:100F9300F875F008EF2FFFEE33FEEC33FCEE9DEC1B
:100FA300984005FCEE9DFE0FD5F0E9E4CEFD22ED61
:100FB300F8F5F0EE8420D21CFEADF075F008EF2FAB
:100FC300FFED33FD4007985006D5F0F222C398FD9C
:050FD3000FD5F0EA2239
:100FD800EB9FF5F0EA9E42F0E99D42F0EC6480C890
:060FE80064809845F02230
:1008DA00E5422436F8E605422278333007027836B4
:1008EA00E475F001121046020FEE2000EB7F2ED2C3
:1008FA00008018EF540F2490D43440D4FF30040BF6
:10090A00EF24BFB41A0050032461FFE543600215C7
:10091A00430546E5467002054530070D7833E47510
:10092A00F001121046EF0210340215EF7403D207D9
:10093A008003E4C207F5428B338A348935E4F543F0
:10094A00F545F546E54360077F2012091580F575E0
:10095A0044FFC201C200C202C203C205C206C208E3
:10096A001208E3FF700D3007057F00120926AF4613
:10097A00AE4522B4255FC2D5C2041208E3FF24D0D3
:10098A00B40A00501A75F00A784330D50508B6FF44
:10099A000106C6A426F620D5047002D20380D92403
:1009AA00CFB41A00EF5004C2E5D204020B26D201DA
:1009BA0080C6D20080C0D20280BCD2D580BAD2050D
:1009CA0080B47F201209152002077401B543004044
:1009DA00F11208DAFF12091502094ED208D206806E
:1009EA00951208DAFB1208DAFA1208DAF94A4B7099
:1009FA000679F77A0B7BFF20022EE543602A7E00F8
:100A0A008E8275830012100760060EEE654470F040
:100A1A00C2D5EBC0E0EAC0E0E9C0E0EE120B6DD04F
:100A2A00E0F9D0E0FAD0E0FB120FEEFF60AAEBC0CB
:100A3A00E0EAC0E0E9C0E0120915D0E02401F9D0EB
:100A4A00E03400FAD0E0FBE5440460DCD544D98008
:100A5A00877BFF7A0B7969D202809C7910800279B0
:100A6A0008C206C2088008D2D5790A8004790AC267
:100A7A00D5E544047002F544E4FAFDFEFF1208DAF3
:100A8A00FC7B082001131208DAFD7B1030000A12E1
:100A9A0008DAFE1208DAFF7B20EC3382D592D550B1
:100AAA0013C3E43000069FFFE49EFEE42001039D89
:100ABA00FDE49CFCE4CBF8C201EC700CCFCECDCCAB
:100ACA00E824F8F870F38017C3EF33FFEE33FEED36
:100ADA0033FDEC33FCEB33FB994002FB0FD8E9EB17
:100AEA00300105F8D0E0C448B201C0E00AEC4D4E2E
:100AFA004F78207B0070C2EAB5440040BCC0E012C7
:100B0A000B6FD0F0D0E0200104C4C0E0C4B201C031
:100B1A00F01208FED0F0D5F0EB02094E1210560979
:100B2A00EB530A655809BC4C09B8420A694F0A7165
:0F0B3A00440A714909D1430A77550A5B460A5BA1
:100B4900450A5B470C175009C02D09C42E09E72B2C
:100B590009C82309E5200C002A098048000009DF9B
:100B69003F3F3F00790AA2D5200314300509B91087
:100B7900020404B9080104A2D52006025001042088
:100B890002689202B543005034C0E07F2030031957
:100B99007F30A20272067205500F120BC6C202C242
:100BA90006C205C2087F30800F300503E9C0E01294
:100BB9000915300503D0E0F9D0E0B543CC3005176D
:100BC9007F30B9100C1209157F583004077F7880DF
:100BD90003B908031209153002057F2D0209157F93
:100BE900202008F87F2B2006F322920280CF286E5E
:100BF900756C6C2900D2011208DA3001F8C201784B
:100C09004330D50108F60209802D5043495812088E
:100C1900DA2403B405004001E4900C12931209068A
:0D0C2900743A120906D203754304020A65ED
:10108800020026E493A3F8E493A34003F68001F258
:1010980008DFF48029E493A3F85407240CC8C33369
:1010A800C4540F4420C8834004F456800146F6DF38
:1010B800E4800B0102040810204080901108E47EAF
:1010C800019360BCA3FF543F30E509541FFEE4932D
:1010D800A360010ECF54C025E060A840B8E493A3F4
:1010E800FAE493A3F8E493A3C8C582C8CAC583CA1F
:1010F800F0A3C8C582C8CAC583CADFE9DEE780BED7
:011176000078
:100FEE00BB010689828A83E0225002E722BBFE0201
:090FFE00E32289828A83E4932234
:10100700BB010CE58229F582E5833AF583E022509E
:1010170006E92582F8E622BBFE06E92582F8E222E8
:0D102700E58229F582E5833AF583E4932202
:10103400BB010689828A83F0225002F722BBFE019B
:02104400F32295
:10104600FAE6FB0808E6F925F0F618E6CA3AF622AB
:10105600D083D082F8E4937012740193700DA3A329
:1010660093F8740193F5828883E47374029368603D
:06107600EFA3A3A380DF3D
:00000001FF
