:101C0F007C007D0A121573EF1F70011E144E70F7C2
:011C1F0022A2
:101B8F00AB07AA060BBB00010AEB1B70011A144A24
:0C1B9F0060097F847E03121C0F80EE2280
:03002000DFFE22DE
:101B7200D2907FDC7E05121C0FC290D2917FDC7E58
:0D1B820005121C0FC2917F147E00021B8F04
:0218EA008F2D40
:1018EC00E4F52EE52EC3952D5021D2907F9F7E05D9
:1018FC00121C0FC290D2917F197E06121C0FC2913E
:0B190C007F147E00121B8F052E80D878
:0119170022AD
:0A17E4008E658F668C678D688B6937
:1017EE00E4F56AE56AC395695021D290AF68AE6799
:1017FE00121C0FC290D291AF66AE65121C0FC29131
:0B180E007F147E00121B8F056A80D83B
:0118190022AC
:021918008F2D11
:10191A00E4F52EE52EC3952D5021D2907F2C7E061C
:10192A00121C0FC290D2917F8C7E05121C0FC2919D
:0B193A007F147E00121B8F052E80D84A
:01194500227F
:0818B8008E2D8F2E8C2F8D3038
:1018C000E4F531D290AF30AE2F121C0FC290D291FE
:1018D000AF2EAE2D121C0FC2917F147E00121B8FF3
:0918E0000531E531C3940240DA40
:0118E90022DC
:0A181A008E2D8F2E8C2F8D308B3118
:10182400E4F532E532C395315021D290AF30AE2F7A
:10183400121C0FC290D291AF2EAE2D121C0FC2916A
:0B1844007F147E00121B8F053280D83D
:01184F002276
:10194600E4F572D2907FAA7E05121C0FC290D29146
:101956007FAA7E05121C0FC2917F147E00121B8F78
:091966000572E572C3946440DAD5
:01196F002255
:10197000E4F52DD2907F787E05121C0FC290D29193
:101980007F787E05121C0FC2917F147E00121B8F80
:09199000052DE52DC3941840DA81
:01199900222B
:10199A00E4F52DD2907F787E05121C0FC290D29169
:1019AA007F787E05121C0FC2917F147E00121B8F56
:0919BA00052DE52DC3940F40DA60
:0119C3002201
:1019C400E4F52DD2907FB47E05121C0FC290D29103
:1019D4007FB47E05121C0FC2917F147E00121B8FF0
:0919E400052DE52DC3944B40DAFA
:0119ED0022D7
:1019EE00E4F573D2907F0E7E06121C0FC290D29138
:1019FE007F0E7E06121C0FC2917F147E00121B8F6B
:091A0E000573E573C3944640DA48
:011A170022AC
:101A1800E4F52DD2907F407E06121C0FC290D29121
:101A28007F407E06121C0FC2917F147E00121B8F0E
:091A3800052DE52DC3941A40DAD6
:011A41002282
:101A4200E4F52DD2907F407E06121C0FC290D291F7
:101A52007F407E06121C0FC2917F147E00121B8FE4
:091A6200052DE52DC3940F40DAB7
:011A6B002258
:101A6C00E4F52DD2907F047E06121C0FC290D29109
:101A7C007F047E06121C0FC2917F147E00121B8FF6
:091A8C00052DE52DC3944640DA56
:011A9500222E
:101A9600E4F574D2907F407E06121C0FC290D2915C
:101AA6007F407E06121C0FC2917F147E00121B8F90
:091AB6000574E574C3941A40DACA
:011ABF002204
:101B30008E2D8F2ED290AF05AE04121C0FC290D204
:101B400091AF2EAE2D121C0FC2917F147E00021B8E
:011B50008F05
:10185000E4F52DF52ED2907FA07E05121C0FC290CC
:10186000D2917FA07E05121C0FC2917F147E0012C0
:101870001B8F052EE52E7002052DC39444E52D9493
:031880000040D253
:011883002242
:10188400E4F51EF51FD2907F187E06121C0FC2903D
:10189400D2917F187E06121C0FC2917F147E001213
:1018A4001B8F051FE51F7002051EC39444E51E949B
:0318B4000040D21F
:0118B700220E
:0300230002175F62
:07175F00C0E0C0D075D00806
:10176600309820AF99C298E56B2408FDE433FCE578
:101776006D6D7001EC600CAE6D056DEE5407247650
:10178600F8A60F30991BC299E56C656E6011AF6CB7
:10179600056CEF5407247EF8E6F599C20A8002C26A
:0117A6000939
:0517A700D0D0D0E032BB
:101AE800200A22200905D2098F9922C2ACAE6E05C0
:101AF8006EEE5407247EF8A607E56E656C540770F1
:061B080002D20AD2AC2259
:101BF900AD07BD0A08200AFD7F0D121AE8200AFD6B
:061C0900AF05121AE822EB
:101BE200E56D656B60FAC2ACAF6B056BEF54072411
:061BF20076F8E6FFD2AC1C
:011BF80022CA
:101BC700E4F56BF56DF56CF56EC209C20A43892021
:0B1BD700758DFDD28E7598D8D2AC221F
:06000300121BC7D2AF2260
:0716F800016F000270000009
:0F1C2000438901E4F58CF58AD2AFD2A9C28C2298
:03000B00021C2FA5
:031C2F00C28C3232
:1017AC00E4F52DF52EC2A6C2A7D2A67F19FE121CF7
:1017BC000FC2A630A7FDD28C30A703208CFAC28CA6
:1017CC00AF8CEFFEAD8A7C00E42DFFEC3EFE7D3A43
:0717DC001215738E2D8F2EF4
:0117E30022E3
:101AC0007265643D256C642C677265656E3D256C9E
:101AD000642C626C75653D256C640A00636F6C6FE5
:081AE00072203D2025640A007C
:1016FF000410000000000418000000000414000093
:02170F000000D8
:101BAB00D2AFE4F5C943C81075985075CDFF75CC0D
:0C1BBB00DC75CBFF75CADCD2CAD29922BF
:101B5100E4F575C2937FC87E00121B8FD2937FC8B4
:101B61007E00121B8F0575E575C3940340E5C29392
:011B71002251
:10000E00758951758CFC758A66D2AFD2A9D28CD205
:02001E008E2230
:03000B00021B0EC7
:101B0E00C0E0C0D0C28CC28E051DE51D7002051C42
:101B1E00758CFCE58A2466F58AD28CD28ED0D0D014
:021B2E00E032A3
:10123000752D02D293D2A1D2A212000E121BABAF17
:101240002D152DEF700302131EE4F51CF51DC2A32E
:10125000D2A4E51D645F451C70F8C28CC28EAF8DB0
:10126000EFFEAD8B7C00E42DFFEC3EFEE48F178E8D
:1012700016F515F514F58BF58DF51CF51DD28CD2F0
:101280008ED2A3D2A4E51D645F451C70F8C28CC247
:101290008EAF8DEFFEAD8B7C00E42DFFEC3EFEE4C7
:1012A0008F138E12F511F510F58BF58DF51CF51DCC
:1012B000D28CD28EC2A3C2A4E51D645F451C70F817
:1012C000C28CC28EAF8DEFFEAD8B7C00E42DFFECA7
:1012D0003EFEE48F1B8E1AF519F518F58BF58DF58A
:1012E0001CF51D7BFF7A1A79C0851B36851A35855A
:1012F000193485183385133A8512398511388510CC
:101300003785173E85163D85153C85143B120F36F3
:101310007FC87E00121B8FD28CD28E02123F7BFFC1
:101320007A1A79C0851B36851A35851934851833A4
:1013300085133A85123985113885103785173E8512
:10134000163D85153C85143B120F36E47F23FEFDC8
:10135000FCAB1BAA1AA919A818D31215C8502FE460
:101360007F23FEFDFCAB13AA12A911A8101215C809
:10137000501CE47F23FEFDFCAB17AA16A915A81488
:101380001215C85009752E00752F0202146CE47FE7
:10139000C8FEFDFCAB1BAA1AA919A818C31215C8D0
:1013A000402FE47FC8FEFDFCAB13AA12A911A810C0
:1013B0001215C8401CE47FC8FEFDFCAB17AA16A995
:1013C00015A8141215C84009752E00752F010214B6
:1013D0006CE47F96FEFDFCAB1BAA1AA919A818C3E2
:1013E0001215C8402FE47F41FEFDFCAB13AA12A9E1
:1013F00011A810D31215C8501BE47F41FEFDFCABB1
:1014000017AA16A915A8141215C85008752E00752C
:101410002F038058E47FC8FEFDFCAB1BAA1AA91954
:10142000A818C31215C8402FE47F96FEFDFCAB132D
:10143000AA12A911A8101215C8401CE47F64FEFD71
:10144000FCAB17AA16A915A814D31215C850087515
:101450002E00752F048015752E00752F057BFF7AE1
:101460001A79DC852E33852F34120F36C2AFC2A90C
:08147000C28CC28EAE2EAF2F1C
:011478002251
:101711000252000002620000014A00015F0001461E
:1017210001015100016400014F00016001015400F9
:10173100014900014B00014E00015000015B000115
:101741005E00014801016100014500015D00015990
:0D17510000014700015A00014400015C0046
:10002600E4F522F523F524F525F528F529F52A1218
:1000360000037FD07E07121B8F7F281218EAE5483F
:10004600B40103121479E54560030200FCE5566429
:100056000F455560030200FCE55960030200FC12DF
:100066001B72E4F552F5530522E52214B40A00503A
:100076006790008575F003A4C58325F0C5837302D8
:1000860000A30200A50200A70200AB0200AF020017
:10009600B10200B80200C20200CC0200D680318054
:1000A600257F0D80197F0F800B80007F0D1218EAC7
:1000B60080267F0D1218EA121A42801C7F0F121832
:1000C600EA12199A80127F0D1218EA121A1880087D
:1000D6007F0D1218EA121970E52230E00DD3940054
:1000E6004008755101754901800975610175450121
:1000F600E4F551E4F52AE54964017066F528F52929
:10010600F526F527121B72121C201217AC8E2B8FA8
:100116002CC3E52C9408E52B94004018E52C941E7E
:10012600E52B9400500E7551018526288527291246
:100136001B72802B7FC87E00121B8F7B177D047C71
:10014600067F047E0612181A052205220527E527D2
:1001560070020526C39404E5266480948040A5E4D5
:10016600F549E551B4010A121C201217AC8E2B8FEB
:100176002CC3E52C9405E52B9400502FE551640122
:100186007029055C7F0F1218EA121B72E55CB40336
:100196000505227559021212308E4C8F4D7F37128B
:1001A60018EA755401E4F551754F01E554700302E0
:1001B6000385E54D6404454C7006E5226401603E06
:1001C600E54D6401454C7006E52264036030E54D5B
:1001D6006403454C7006E52264056022E54D640221
:1001E600454C7006E52264076014E54D6405454CF0
:1001F600600302037AE5226409600302037A755FED
:1002060001755901E54D6401454C6010E54D6403E7
:10021600454C6008E54D6402454C7046E55864302F
:1002260045576010E558641045576008E558642046
:100236004557702EE54D454C6028E55FB40123E433
:10024600F5487F061218EA121B727F1B1219181244
:100256001850754801055AE4F55FF554F54CF54D0F
:100266000522E54D6404454C6003020303E558642A
:100276002045577051E54D454C604BE55F64017074
:1002860045F5487F141218EAE4F562F5637DE67CCD
:10029600057FE67E05121B300563E5637002056285
:1002A600C39403E5626480948040E2121B727F1B54
:1002B600121918121850754801055AE4F55FF554DD
:1002C600F54CF54D0522E55864104557702FE55657
:1002D60045557029E54D454C6023E55FB4011EE4A4
:1002E600F548121B727F1912191812185075480119
:1002F600055AE4F55FF554F54CF54D0522E54D64D8
:1003060005454C707AE55864104557702EE54D4505
:100316004C6028E55FB40123E4F5487F121218EA21
:10032600121B727F1B121918121850754801055AB4
:10033600E4F55FF554F54CF54D0522E55864204586
:1003460057703CE55645557036E54D454C6030E5F1
:100356005F6401702AF548121B727F1B121918126E
:100366001850754801055AE4F55FF554F54CF54DFE
:100376000522800B7F141218EA121850E4F554E592
:100386002220E049D394004044E54F6401703EE5E5
:100396006164017038E52375F028A4FFC374B49F27
:1003A600FFE495F0FED3E5539FEE6480F8E55264D2
:1003B600809840137F1B121918121850E4F54FF558
:1003C60052F553F5610523E4F551020469E522303F
:1003D600E003020469D394005003020469E55964FA
:1003E600016003020469E556640F45557075F552C0
:1003F600F553F54FE52224FC602724FE602524FEF4
:10040600602E24FE6034240870387F121218EA7BAE
:10041600167D787C057F787E0512181A12199A8047
:1004260021800D7F121218EA121850121A428012F9
:100436007F121218EA12199A80057F121218EA1210
:1004460019700522E52230E00DD39400400875515D
:10045600017549018008754501E4F54AF551E4F551
:100466002AF559D3E5539450E552648094804010A0
:10047600E54F700CE545B40107E4F552F553F54533
:10048600E55C64036003020044E556640F4555606D
:1004960003020044E55964026003020044F552F584
:1004A60053E52224FC601A24FE602324FE602924DE
:1004B600FE602F240870337F121218EA121970801A
:1004C600297F121218EA12197012199A801C7F12CB
:1004D6001218EA12185080127F121218EA121A42E3
:1004E60080057F121218EA121A18E4F546E55C64D4
:1004F60003600302075BE548B40103121479E55C67
:100506006403703FE54D454C6039E4F552F553F50B
:100516005C755F01E54C702BE54D14601214601B91
:1005260014601124FE6019047019121970801412D7
:10053600199A800F7F0A1218EA8008121A4280035D
:10054600121A18C3E5539450E55264809480500300
:100556000206E6E54D6401454C6010E54D64034531
:100566004C6008E54D6402454C7045E558643045DD
:10057600576010E558641045576008E558642045F3
:1005860057702DE54D454C6027E55FB40122E4F533
:10059600487F061218EA121B727F1E1219181218CB
:1005A60050754801055AE4F552F553754601F55F55
:1005B600E54D6404454C6003020671E55864204528
:1005C600577050E54D454C604AE55F64017044F54F
:1005D600487F141218EAE4F562F5637DE67C057F30
:1005E600E67E05121B300563E56370020562C3945F
:1005F60003E5626480948040E2121B727F1E12192A
:1006060018121850754801055AE4F552F553754607
:1006160001F55FE558641045577050E5564555702D
:100626004AE54D454C6044E55F6401703EF548F58A
:1006360062F5637DE67C057FE67E05121B30056369
:10064600E56370020562C39403E5626480948040AA
:10065600E2121B727F1E12191812185075480105F6
:100666005AE4F552F553754601F55FE54D640545C7
:100676004C706DE55864104557702DE54D454C603E
:1006860027E55FB40122E4F5487F121218EA121B2F
:10069600727F1E121918121850754801055AE4F592
:1006A60052F553754601F55FE5586420455770309D
:1006B600E5564555702AE54D454C6024E55FB40185
:1006C6001FE4F548121B727F1E1219181218507576
:1006D6004801055AE4F552F553754601F55FF554A0
:1006E600E556640F455560030204FCE54664016067
:1006F600030204FCF552F553E54C703FE54D1460DA
:100706001714602514601B24FE602804702D7F0FCB
:100716001218EA121A1880237F141218EA121A42C3
:1007260080197F0F1218EA80127F121218EA121926
:100736009A80087F0C1218EA121970E55AB4031051
:100746007B1E7D787C057F787E0512181A75490117
:10075600E4F54CF54D755101E4F564F55F75480116
:10076600754501F52AE55A64037003020A4DE5480A
:10077600B40103121479E551B4010A121C201217B0
:10078600AC8E2B8F2CC3E52C9405E52B94005024BE
:10079600E551B4011F7F0F1218EA121B72121230B4
:1007A6008E4C8F4D1218507F141218EAE4F546F558
:1007B60051754501D3E5539450E5526480948040C9
:1007C6000CE545B40107E4F552F553F545E54570EA
:1007D60058E556640F45557050E546704CF552F590
:1007E60053F52AE54C703FE54D1460171460251447
:1007F600601B24FE602804702D7F0C1218EA121963
:100806007080237F0F1218EA12199A80197F0F122F
:1008160018EA80127F0F1218EA121A4280087F0F18
:100826001218EA121A18755F01D3E5539450E5526F
:100836006480948050030209CAE54D6401454C600A
:1008460010E54D6403454C6008E54D6402454C7067
:1008560045E558643045576010E5586410455760C3
:1008660008E55864204557702DE54D454C6027E551
:100876005FB40122E4F5487F061218EA121B727F64
:100886001E121918121850754801055AE4F552F54A
:1008960053754601F55FE54D6404454C6003020956
:1008A60057E558642045577050E54D454C604AE57C
:1008B6005F64017044F5487F141218EAE4F562F5A6
:1008C600637DE67C057FE67E05121B300563E563E6
:1008D60070020562C39403E5626480948040E2126C
:1008E6001B727F1E121918121850754801055AE41A
:1008F600F552F553754601F55FE558641045577096
:1009060050E5564555704AE54D454C6044E55F64F3
:1009160001703EF548F562F5637DE67C057FE67E6F
:1009260005121B300563E56370020562C39403E597
:10093600626480948040E2121B727F1E12191812A4
:100946001850754801055AE4F552F553754601F5F8
:100956005FE54D6405454C706BE55864104557706E
:100966002DE54D454C6027E55FB40122E4F5487F4F
:10097600121218EA121B727F1E12191812185075DD
:100986004801055AE4F552F553754601F55FE558F9
:1009960064204557702EE55645557028E54D454C63
:1009A6006022E55FB4011DE4F548121B727F1E123A
:1009B6001918121850754801055AE4F552F5537581
:1009C6004601F55FE5456003020774E556640F4589
:1009D600556003020774E5466401600302077475F7
:1009E6005101F552F553E54C703FE54D146017146F
:1009F600602514601B24FE602804702D7F0C1218DD
:100A0600EA121A1880237F141218EA121A42801961
:100A16007F0F1218EA80127F121218EA12199A80B2
:100A2600087F0C1218EA121970E4F54CF54DE55AD8
:100A3600640360030207747B1E7D787C057F787EE5
:100A46000512181A754901E4F54FF564F54675481F
:100A560001F55AF54CF54DF52B752C64F52AF55232
:100A6600F553754901E548B40103121479E5496463
:100A7600016003020AFFF528F529F526F527121C61
:100A8600201217AC8E2B8F2C7DFA7C057FFA7E0503
:100A9600121B30C3E52C9408E52B94004036E52C58
:100AA6009419E52B9400502C852628852729E524C2
:100AB6009406401E7D047C067F047E06121B3012BF
:100AC6001B727F0F1218EA754F01755B01E4F5245E
:100AD600801505240527E52770020526C394C8E579
:100AE60026648094804097E54F700B121A18755A49
:100AF60002E4F54CF54DE4F549D3E5299437E528AC
:100B0600648094804008754E01E4F54B8006754B71
:100B160001E4F54EE556640F4555703DE55B64010D
:100B26007037F552F553755E01E54BB401117F0E32
:100B36001218EA7B1E7D227C067F227E068014E543
:100B46004EB401127F171218EA7B2D7D967C057F25
:100B5600967E0512181AE4F55BE556640F45557046
:100B660042E55E6401703CD3E553940AE552648025
:100B76009480402FE4F552F553E54BB4010A7F0FFC
:100B86001218EA121A6C800DE54EB401137F0F128B
:100B960018EA1219C47F141218EAE4F546755001D2
:100BA600E4F55EE556640F45557079E550640170CD
:100BB60073D3E553941EE552648094804066121BFD
:100BC600721212308E4C8F4DE54D6402454C700307
:100BD600756401E4F550F546F552F553F52AE54CF2
:100BE600703FE54D14601714602514601B24FE60E9
:100BF6002804702D7F0C1218EA12197080237F0FBB
:100C06001218EA12199A80197F0F1218EA80127FB9
:100C16000F1218EA121A4280087F0F1218EA121AE7
:100C260018755F01D3E5539450E552648094805063
:100C360003020DCFE54D6401454C6010E54D64039C
:100C4600454C6008E54D6402454C7047E5586430F4
:100C560045576010E558641045576008E55864200C
:100C66004557702FE54D454C6029E55FB40124E4F6
:100C7600F5487F0C1218EA121B727F1E1219181201
:100C86001850754801055AE4F552F553F55F754657
:100C960001F52AE54D6404454C6003020D58E558FC
:100CA600642045577052E54D454C604CE55F640144
:100CB6007046F5487F121218EAE4F562F5637DE6A0
:100CC6007C057FE67E05121B300563E56370020531
:100CD60062C39403E5626480948040E2121B727FD3
:100CE6001E121918121850754801055AE4F552F5E6
:100CF60053F55F754601F52AE5586410455770525D
:100D0600E5564555704CE54D454C6046E55F64013A
:100D16007040F548F562F5637DE67C057FE67E0565
:100D2600121B300563E56370020562C39403E56236
:100D36006480948040E2121B727F1E1219181218EA
:100D460050754801055AE4F552F553F55F754601AD
:100D5600F52AE54D6405454C706FE5586410455716
:100D6600702FE54D454C6029E55FB40124E4F54854
:100D76007F121218EA121B727F1E121918121850CF
:100D8600754801055AE4F552F553F55F754601F5C8
:100D96002AE558642045577030E5564555702AE5D2
:100DA6004D454C6024E55FB4011FE4F548121B7203
:100DB6007F1E121918121850754801055AE4F5528B
:100DC600F553F55F754601F52AE55A64026066E556
:100DD60056640F4555705EE54664017058E54D450D
:100DE6004C6052E4F546F552F553E54C703FE54D3F
:100DF60014601414602214601824FE602804702DF8
:100E06007F0A1218EA80267F121218EA12199A80AF
:100E16001C7F0F1218EA80087F121218EA12199A1C
:100E260012197080087F0C1218EA121850754901C1
:100E3600E4F54CF54DE55A64027065F549E55664EE
:100E46000F4555705BE54664017055E54D454C60B0
:100E56004FE4F546F552F553E54C703FE54D146009
:100E66001714602514601B24FE602804702D7F0C67
:100E76001218EA121A1880237F141218EA121A425C
:100E860080197F0F1218EA80127F121218EA1219BF
:100E96009A80087F0C1218EA121970E4F54CF54D89
:100EA600E55A64026003020A6BD3E55394C3E55224
:100EB600648094805003020A6BE54D454C60030242
:0E0EC6000A6BF552F553121B72121B7280FB61
:101479007580FFE580540F755500F556E5805430A9
:10148900755700F5587F011218EAE55560030215F2
:1014990072E55614B40F0040030215729014B37527
:1014A900F003A4C58325F0C583730214E00214EE8A
:1014B9000214F702151B02153702154002154902DD
:1014C9001509021572021552021572021524021528
:1014D9005B02156402156D0553E553700205527DD3
:1014E9000E7C0680150553E55370020552220553FB
:1014F900E553700205527DDC7C057F0E7E06802B4C
:101509000553E553700205527DAA7C057FAA7E0525
:1015190080190553E55370510552220553E553705F
:101529000205527DAA7C057FDC7E050218B80553A9
:10153900E55370350552220553E553702C055222A7
:101549000553E55370230552220553E553701A05D7
:1015590052220553E55370110552220553E5537084
:0A156900080552227F061218EA223C
:0300000002166C79
:0C166C00787FE4F6D8FD7581850216B386
:10157300BC000BBE0029EF8DF084FFADF022E4CC5C
:10158300F875F008EF2FFFEE33FEEC33FCEE9DEC25
:10159300984005FCEE9DFE0FD5F0E9E4CEFD22ED6B
:1015A300F8F5F0EE8420D21CFEADF075F008EF2FB5
:1015B300FFED33FD4007985006D5F0F222C398FDA6
:0515C3000FD5F0EA2243
:1015C800EB9FF5F0EA9E42F0E99D42F0EC6480C89A
:0615D80064809845F0223A
:100ED400E53F2433F8E6053F2278303007027833C3
:100EE400E475F0011216360215DE2000EB7F2ED2D7
:100EF400008018EF540F2490D43440D4FF30040BF6
:100F0400EF24BFB41A0050032461FFE540600215CA
:100F1400400543E5437002054230070D7830E4751F
:100F2400F001121636EF021624021BF97403D207DD
:100F34008003E4C207F53F8B308A318932E4F540FF
:100F4400F542F543E54060077F20120F0F80F575E9
:100F540041FFC201C200C202C203C205C206C208E6
:100F6400120EDDFF700D3007057F00120F20AF4316
:100F7400AE4222B4255FC2D5C204120EDDFF24D0D6
:100F8400B40A00501A75F00A784030D50508B6FF47
:100F94000106C6A426F620D5047002D20380D92403
:100FA400CFB41A00EF5004C2E5D204021120D201DA
:100FB40080C6D20080C0D20280BCD2D580BAD2050D
:100FC40080B47F20120F0F2002077401B540004047
:100FD400F1120ED4FF120F0F020F48D208D206806E
:100FE40095120ED4FB120ED4FA120ED4F94A4B7099
:100FF4000679F17A117BFF20022EE540602A7E00FB
:101004008E827583001215F760060EEE654170F04E
:10101400C2D5EBC0E0EAC0E0E9C0E0EE121167D04F
:10102400E0F9D0E0FAD0E0FB1215DEFF60AAEBC0D5
:10103400E0EAC0E0E9C0E0120F0FD0E02401F9D0EB
:10104400E03400FAD0E0FBE5410460DCD541D9800E
:10105400877BFF7A117963D202809C7910800279B0
:1010640008C206C2088008D2D5790A8004790AC267
:10107400D5E541047002F541E4FAFDFEFF120ED4F9
:10108400FC7B08200113120ED4FD7B1030000A12E1
:101094000ED4FE120ED4FF7B20EC3382D592D550B1
:1010A40013C3E43000069FFFE49EFEE42001039D89
:1010B400FDE49CFCE4CBF8C201EC700CCFCECDCCAB
:1010C400E824F8F870F38017C3EF33FFEE33FEED36
:1010D40033FDEC33FCEB33FB994002FB0FD8E9EB17
:1010E400300105F8D0E0C448B201C0E00AEC4D4E2E
:1010F4004F78207B0070C2EAB5410040BCC0E012CA
:101104001169D0F0D0E0200104C4C0E0C4B201C031
:10111400F0120EF8D0F0D5F0EB020F481216460F7D
:10112400E553105F580FB64C0FB24210634F106B6B
:0F11340044106B490FCB431071551055461055A1
:10114300451055471211500FBA2D0FBE2E0FE12B2C
:101153000FC2230FDF2011FA2A0F7A4800000FD99C
:101163003F3F3F00790AA2D5200314300509B91087
:10117300020404B9080104A2D52006025001042088
:1011830002689202B540005034C0E07F203003195A
:101193007F30A20272067205500F1211C0C202C242
:1011A30006C205C2087F30800F300503E9C0E01294
:1011B3000F0F300503D0E0F9D0E0B540CC30051770
:1011C3007F30B9100C120F0F7F583004077F7880DF
:1011D30003B90803120F0F3002057F2D020F0F7F93
:1011E300202008F87F2B2006F322920280CF286E5E
:1011F300756C6C2900D201120ED43001F8C201784B
:101203004030D50108F6020F7A2D50434958120E8B
:10121300D42403B405004001E490120C93120F0090
:0D122300743A120F00D20375400402105FF0
:10167800020026E493A3F8E493A34003F68001F262
:1016880008DFF48029E493A3F85407240CC8C33373
:10169800C4540F4420C8834004F456800146F6DF42
:1016A800E4800B01020408102040809016F8E47EC4
:1016B800019360BCA3FF543F30E509541FFEE49337
:1016C800A360010ECF54C025E060A840B8E493A3FE
:1016D800FAE493A3F8E493A3C8C582C8CAC583CA29
:1016E800F0A3C8C582C8CAC583CADFE9DEE780BEE1
:01175E00008A
:1015DE00BB010689828A83E0225002E722BBFE020B
:0915EE00E32289828A83E493223E
:1015F700BB010CE58229F582E5833AF583E02250A9
:1016070006E92582F8E622BBFE06E92582F8E222F2
:0D161700E58229F582E5833AF583E493220C
:10162400BB010689828A83F0225002F722BBFE01A5
:02163400F3229F
:10163600FAE6FB0808E6F925F0F618E6CA3AF622B5
:10164600D083D082F8E4937012740193700DA3A333
:1016560093F8740193F5828883E473740293686047
:06166600EFA3A3A380DF47
:00000001FF
