:10000E007C007D0A1201A6EF1F70011E144E70F7C0
:01001E0022BF
:10055600AB07AA060BBB00010AEB1B70011A144A73
:0C05660060097F847E0312000E80EE22EC
:03001F00DFFE22DF
:10053900D2907FDC7E0512000EC290D2917FDC7EC4
:0D0549000512000EC2917F147E00020556BF
:02031C008F1739
:10031E00E4F518E518C395175021D2907F9F7E05FE
:10032E0012000EC290D2917F197E0612000EC2915B
:0B033E007F147E00120556051880D8C1
:010349002291
:0A0280008E218F228C238D248B2504
:10028A00E4F526E526C395255021D290AF24AE2366
:10029A0012000EC290D291AF22AE2112000EC2916C
:0B02AA007F147E00120556052680D848
:0102B5002226
:02034A008F170B
:10034C00E4F518E518C395175021D2907F2C7E0642
:10035C0012000EC290D2917F8C7E0512000EC291BB
:0B036C007F147E00120556051880D893
:010377002263
:0802EA008E178F188C198D1A74
:1002F200E4F51BD290AF1AAE1912000EC290D29141
:10030200AF18AE1712000EC2917F147E001205566E
:09031200051BE51BC3940240DA4F
:01031B0022BF
:10037800E4F530D2907FAA7E0512000EC290D29189
:100388007FAA7E0512000EC2917F147E00120556C8
:090398000530E530C3946440DA3D
:0103A1002239
:1003A200E4F531D2907F787E0512000EC290D29190
:1003B2007F787E0512000EC2917F147E00120556D0
:0903C2000531E531C3941840DA5D
:0103CB00220F
:1003CC00E4F532D2907F787E0512000EC290D29165
:1003DC007F787E0512000EC2917F147E00120556A6
:0903EC000532E532C3940F40DA3A
:0103F50022E5
:1003F600E4F533D2907FC87E0512000EC290D291EA
:100406007FC87E0512000EC2917F147E001205562B
:090416000533E533C394B440DA68
:01041F0022BA
:10042000E4F534D2907F0E7E0612000EC290D29177
:100430007F0E7E0612000EC2917F147E00120556BA
:090440000534E534C3944640DAAA
:010449002290
:10044A00E4F535D2907F407E0612000EC290D2911A
:10045A007F407E0612000EC2917F147E001205565E
:09046A000535E535C3941A40DAAA
:010473002266
:10047400E4F536D2907F407E0612000EC290D291EF
:100484007F407E0612000EC2917F147E0012055634
:090494000536E536C3940F40DA89
:01049D00223C
:10049E00E4F537D2907FF07E0512000EC290D29115
:1004AE007FF07E0512000EC2917F147E001205565B
:0904BE000537E537C394B440DAB8
:0104C7002212
:1004C800E4F538D2907F407E0612000EC290D29199
:1004D8007F407E0612000EC2917F147E00120556E0
:0904E8000538E538C3941A40DA26
:0104F10022E8
:100518008E2E8F2FD290AF05AE0412000EC290D24D
:1005280091AF2FAE2E12000EC2917F147E000205ED
:01053800566C
:1002B600E4F517F518D2907FA07E0512000EC290C5
:1002C600D2917FA07E0512000EC2917F147E00128D
:1002D60005560518E51870020517C39444E51794EA
:0302E6000040D203
:0102E90022F2
:030023000201FBDC
:0701FB00C0E0C0D075D00880
:10020200309820AF99C298E51C2408FDE433FCE540
:100212001E6D7001EC600CAE1E051EEE54072439F3
:10022200F8A60F30991BC299E51D651F6011AF1D1D
:10023200051DEF54072441F8E6F599C2018002C278
:0102420000BB
:05024300D0D0D0E03234
:1004F200200122200005D2008F9922C2ACAE1F0536
:100502001FEE54072441F8A607E51F651D54077026
:0605120002D201D2AC226E
:1005A400AD07BD0A082001FD7F0D1204F22001FDF4
:0605B400AF051204F22263
:10058D00E51E651C60FAC2ACAF1C051CEF540724B8
:06059D0039F8E6FFD2ACC4
:0105A3002235
:10057200E4F51CF51EF51DF51FC200C201438920DA
:0B058200758DFDD28E7598D8D2AC228A
:06000300120572D2AF22CB
:0705C900012B00022C0000D1
:0F05BA00438901E4F58CF58AD2AFD2A9C28C2215
:03000B000205D714
:0305D700C28C32A1
:10024800E4F517F518C2A6C2A7D2A67F19FE1200B8
:100258000EC2A630A7FDD28C30A703208CFAC28C20
:10026800AF8CEFFEAD8A7C00E42DFFEC3EFE7D3ABC
:070278001201A68E178F187A
:01027F00225C
:0605D000012700012A01D1
:10002600E4F510F511F512F513F514120003120597
:10003600BA1202488E158F1675800FE580540F751B
:100046002800F5297F0112031CE5287079E529149B
:10005600B40F00507190006975F003A4C58325F0B4
:10006600C5837302009602009C02009C0200B00247
:1000760000C70200C70200C70200A60200CC0200A9
:10008600C70200CC0200BA0200C70200C70200C7BE
:100096007D0E7C0680047DDC7C057F0E7E06801C42
:1000A6007DAA7C057FAA7E0580127DC87C057FDC43
:1000B6007E0580087DAA7C057FDC7E051202EA802B
:1000C600057F0612031CC3E5169403E5159400503C
:1000D6000BE52AB401061202B6E4F52AE52A600306
:1000E6000200340514E51175F008A4FFC3741E9FC1
:1000F600D36480F8E51464809850030200347F1EB0
:1001060012034A1202B6752701E4F5140511752A81
:0401160001020034AE
:0300000002011AE0
:0C011A00787FE4F6D8FD75814802016191
:1001A600BC000BBE0029EF8DF084FFADF022E4CC3D
:1001B600F875F008EF2FFFEE33FEEC33FCEE9DEC06
:1001C600984005FCEE9DFE0FD5F0E9E4CEFD22ED4C
:1001D600F8F5F0EE8420D21CFEADF075F008EF2F96
:1001E600FFED33FD4007985006D5F0F222C398FD87
:0501F6000FD5F0EA2224
:10012600020026E493A3F8E493A34003F68001F2C9
:1001360008DFF48029E493A3F85407240CC8C333DA
:10014600C4540F4420C8834004F456800146F6DFA9
:10015600E4800B01020408102040809005C9E47E6B
:10016600019360BCA3FF543F30E509541FFEE4939E
:10017600A360010ECF54C025E060A840B8E493A365
:10018600FAE493A3F8E493A3C8C582C8CAC583CA90
:10019600F0A3C8C582C8CAC583CADFE9DEE780BE48
:0105D6000024
:00000001FF
