:101BF8007C007D0A121469EF1F70011E144E70F7E5
:011C080022B9
:101B7800AB07AA060BBB00010AEB1B70011A144A3B
:0C1B880060097F847E03121BF880EE22AF
:03002000DFFE22DE
:101B5B00D2907FDC7E05121BF8C290D2917FDC7E87
:0D1B6B0005121BF8C2917F147E00021B784A
:0218D3008F2F55
:1018D500E4F530E530C3952F5021D2907F9F7E05EA
:1018E500121BF8C290D2917F197E06121BF8C29185
:0B18F5007F147E00121B78053080D8A5
:0119000022C4
:0A17CD008E648F658C668D678B6853
:1017D700E4F569E569C395685021D290AF67AE66B5
:1017E700121BF8C290D291AF65AE64121BF8C2917A
:0B17F7007F147E00121B78056980D86B
:0118020022C3
:021901008F2F26
:10190300E4F530E530C3952F5021D2907F2C7E062D
:10191300121BF8C290D2917F8C7E05121BF8C291E4
:0B1923007F147E00121B78053080D876
:01192E002296
:0818A1008E2F8F308C318D3247
:1018A900E4F533D290AF32AE31121BF8C290D29127
:1018B900AF30AE2F121BF8C2917F147E00121B7835
:0918C9000533E533C3940240DA53
:0118D20022F3
:0A1803008E2F8F308C318D328B3325
:10180D00E4F534E534C395335021D290AF32AE3187
:10181D00121BF8C290D291AF30AE2F121BF8C291AD
:0B182D007F147E00121B78053480D869
:01183800228D
:10192F00E4F571D2907FAA7E05121BF8C290D29176
:10193F007FAA7E05121BF8C2917F147E00121B78BE
:09194F000571E571C3946440DAEE
:01195800226C
:10195900E4F52FD2907FA07E05121BF8C290D29198
:101969007FA07E05121BF8C2917F147E00121B789E
:09197900052FE52FC3942340DA89
:011982002242
:10198300E4F52FD2907FA07E05121BF8C290D2916E
:101993007FA07E05121BF8C2917F147E00121B7874
:0919A300052FE52FC3941140DA71
:0119AC002218
:1019AD00E4F52FD2907FB47E05121BF8C290D29130
:1019BD007FB47E05121BF8C2917F147E00121B7836
:0919CD00052FE52FC3944B40DA0D
:0119D60022EE
:1019D700E4F572D2907F0E7E06121BF8C290D29168
:1019E7007F0E7E06121BF8C2917F147E00121B78B1
:0919F7000572E572C3944640DA62
:011A000022C3
:101A0100E4F52FD2907F187E06121BF8C290D29176
:101A11007F187E06121BF8C2917F147E00121B787C
:091A2100052FE52FC3942340DAE0
:011A2A002299
:101A2B00E4F52FD2907F187E06121BF8C290D2914C
:101A3B007F187E06121BF8C2917F147E00121B7852
:091A4B00052FE52FC3941140DAC8
:011A5400226F
:101A5500E4F52FD2907F047E06121BF8C290D29136
:101A65007F047E06121BF8C2917F147E00121B783C
:091A7500052FE52FC3944640DA69
:011A7E002245
:101A7F00E4F573D2907F407E06121BF8C290D2918C
:101A8F007F407E06121BF8C2917F147E00121B78D6
:091A9F000573E573C3941A40DAE3
:011AA800221B
:101B19008E2F8F30D290AF05AE04121BF8C290D22F
:101B290091AF30AE2F121BF8C2917F147E00021BB9
:011B39007833
:10183900E4F52FF530D2907FA07E05121BF8C290F7
:10184900D2917FA07E05121BF8C2917F147E0012EF
:101859001B780530E5307002052FC39443E52F94BA
:031869000040D26A
:01186C002259
:10186D00E4F51EF51FD2907F187E06121BF8C2906C
:10187D00D2917F187E06121BF8C2917F147E001242
:10188D001B78051FE51F7002051EC39444E51E94C9
:03189D000040D236
:0118A0002225
:0300230002174879
:07174800C0E0C0D075D0081D
:10174F00309820AF99C298E56A2408FDE433FCE590
:10175F006C6D7001EC600CAE6C056CEE540724756B
:10176F00F8A60F30991BC299E56B656D6011AF6BD1
:10177F00056BEF5407247DF8E6F599C20A8002C283
:01178F000950
:05179000D0D0D0E032D2
:101AD100200A22200905D2098F9922C2ACAE6D05D8
:101AE1006DEE5407247DF8A607E56D656B5407700C
:061AF10002D20AD2AC2271
:101BE200AD07BD0A08200AFD7F0D121AD1200AFD99
:061BF200AF05121AD1221A
:101BCB00E56C656A60FAC2ACAF6A056AEF5407242C
:061BDB0075F8E6FFD2AC34
:011BE10022E1
:101BB000E4F56AF56CF56BF56DC209C20A4389203C
:0B1BC000758DFDD28E7598D8D2AC2236
:06000300121BB0D2AF2277
:0716EA00016E00026F000019
:0F1C0900438901E4F58CF58AD2AFD2A9C28C22AF
:03000B00021C18BC
:031C1800C28C3249
:10179500E4F52FF530C2A6C2A7D2A67F19FE121B0B
:1017A500F8C2A630A7FDD28C30A703208CFAC28CD4
:1017B500AF8CEFFEAD8A7C00E42DFFEC3EFE7D3A5A
:0717C5001214698E2F8F3012
:0117CC0022FA
:101AA9007265643D256C642C677265656E3D256CB5
:101AB900642C626C75653D256C640A00636F6C6FFC
:081AC90072203D2025640A0093
:1016F10004100000000004180000000004140000A1
:021701000000E6
:101B9400D2AFE4F5C943C81075985075CDFF75CC24
:0C1BA400DC75CBFF75CADCD2CAD29922D6
:101B3A00E4F574C2937FC87E00121B78D2937FC8E3
:101B4A007E00121B780574E574C3940340E5C293C2
:011B5A002268
:10000E00758951758CFC758A66D2AFD2A9D28CD205
:02001E008E2230
:03000B00021AF7DF
:101AF700C0E0C0D0C28CC28E051DE51D7002051C5A
:101B0700758CFCE58A2466F58AD28CD28ED0D0D02B
:021B1700E032BA
:10120E00752F02D293D2A1D2A212000E121B94AF4E
:10121E002F152FEF70030212FCE4F51CF51DC2A36F
:10122E00D2A4E51D645F451C70F8C28CC28EAF8DD2
:10123E00EFFEAD8B7C00E42DFFEC3EFEE48F178EAF
:10124E0016F515F514F58BF58DF51CF51DD28CD212
:10125E008ED2A3D2A4E51D645F451C70F8C28CC269
:10126E008EAF8DEFFEAD8B7C00E42DFFEC3EFEE4E9
:10127E008F138E12F511F510F58BF58DF51CF51DEE
:10128E00D28CD28EC2A3C2A4E51D645F451C70F839
:10129E00C28CC28EAF8DEFFEAD8B7C00E42DFFECC9
:1012AE003EFEE48F1B8E1AF519F518F58BF58DF5AC
:1012BE001CF51D7BFF7A1A79A9851B38851A37858F
:1012CE00193685183585133C85123B85113A8510E4
:1012DE003985174085163F85153E85143D120F142E
:1012EE007FC87E00121B78D28CD28E02121D7BFF1D
:1012FE007A1A79A9851B38851A37851936851835D6
:10130E0085133C85123B85113A851039851740852A
:10131E00163F85153E85143D120F14E47F23FEFD06
:10132E00FCAB1BAA1AA919A818D31214BE502FE48D
:10133E007F23FEFDFCAB13AA12A911A8101214BE36
:10134E00501CE47F23FEFDFCAB17AA16A915A814AA
:10135E001214BE500975300075310202144AE47F32
:10136E00C8FEFDFCAB1BAA1AA919A818C31214BEFD
:10137E00402FE47FC8FEFDFCAB13AA12A911A810E2
:10138E001214BE401CE47FC8FEFDFCAB17AA16A9C2
:10139E0015A8141214BE40097530007531010214DF
:1013AE004AE47F96FEFDFCAB1BAA1AA919A818C326
:1013BE001214BE402FE47F41FEFDFCAB13AA12A90E
:1013CE0011A810D31214BE501BE47F41FEFDFCABDE
:1013DE0017AA16A915A8141214BE50087530007558
:1013EE0031038058E47FC8FEFDFCAB1BAA1AA91975
:1013FE00A818C31214BE402FE47F96FEFDFCAB135B
:10140E00AA12A911A8101214BE401CE47F64FEFD9E
:10141E00FCAB17AA16A915A814D31214BE50087542
:10142E00300075310480157530007531057BFF7AFB
:10143E001A79C5853035853136120F14C2AFC2A95F
:08144E00C28CC28EAE30AF313A
:011456002273
:101703000252000002610000014A00015F0001472C
:1017130001015100016300014F0001540001490020
:10172300014B00014E00015000015B00015E00010E
:101733004801016000014600015D00015900015AA2
:0417430000015C0045
:10002600E4F522F523F526F527F52AF52B1200032C
:100036007FDC7E05121B787F3C1218D3E548B4019D
:1000460003121562E54660030200E5E556640F45B6
:100056005560030200E5E55960030200E57F0E12D4
:1000660018D3E4F552F5530522E52214B40A0050DC
:100076005090008575F003A4C58325F0C5837302EF
:1000860000A30200A50200A70200A90200C7020001
:10009600C70200B00200B50200BF0200C4801F8084
:1000A6001880117F021218D38000121A2B80127F3B
:1000B600021218D31219838008121A01800312192A
:1000C60059E52230E00DD394004008755101754979
:1000D600018009756001754601E4F551E4F52EE5E8
:1000E600496401600302016BF52AF52BF524F52519
:1000F600121B5BE4F528F529121C091217958E2CA4
:100106008F2D0529E52970020528C39402E5289458
:100116000040E5D3E52D9405E52C9400401EE52D21
:10012600941EE52C94005014E4F549754F01755161
:100136000185242A85252B121B5B80297FF47E01ED
:10014600121B787B117D187C067F187E0612180319
:10015600052205220525E52570020524C39404E53C
:10016600249400408BE551B4010A121C091217951C
:100176008E2C8F2DC3E52D9405E52C94005029E592
:1001860051B40124055C7F111218D3121B5BE55C88
:10019600B40305052275590212120E8E4C8F4D7549
:1001A6005401E4F551754F01E554700302038FE5E0
:1001B6004D6404454C7006E5226401603EE54D64DD
:1001C60001454C7006E52264036030E54D64034545
:1001D6004C7006E52264056022E54D6402454C70CC
:1001E60006E52264076014E54D6405454C6003028C
:1001F6000384E52264096003020384755F0175596F
:1002060001E54D6401454C6010E54D6403454C60C5
:1002160008E54D6402454C7048E558643045576022
:1002260010E558641045576008E558642045577036
:1002360030E54D454C602AE55F64017024F5487F42
:10024600061218D3121B5B7F1B121901121839757F
:100256004801055AE4F54FF55FF554F54CF54D05A3
:1002660022E54D6404454C6003020306E55864200C
:1002760045577053E54D454C604DE55F6401704749
:10028600F5487F141218D3E4F561F5627DE67C0526
:100296007FE67E05121B190562E56270020561C3E1
:1002A6009403E5616480948040E2121B5B7F1B121D
:1002B6001901121839754801055AE4F54FF55FF52D
:1002C60054F54CF54D0522E558641045577031E557
:1002D600564555702BE54D454C6025E55FB401202C
:1002E600E4F548121B5B7F1B121901121839754879
:1002F60001055AE4F54FF55FF554F54CF54D052229
:10030600E54D6405454C600302038FE558641045CE
:10031600577030E54D454C602AE55F64017024F561
:10032600487F121218D3121B5B7F1B121901121879
:1003360039754801055AE4F54FF55FF554F54CF566
:100346004D0522E55864204557703EE556455570E3
:1003560038E54D454C6032E55F6401702CF5481276
:100366001B5B7F1B121901121839754801055AE4E7
:10037600F54FF55FF554F54CF54D0522800B7F5092
:100386001218D3121839E4F554E52220E04BD39421
:10039600004046E54F64017040E5606401703AAE86
:1003A60026AF27FC7D28121457C374B49FFFE49E22
:1003B600FED3E5539FE5529E40197F1B1219011289
:1003C6001839E4F54FF552F553F5600527E5277022
:1003D600020526E4F551020465E52230E003020435
:1003E60065D394004079E55964017073E556640F4E
:1003F6004555706BF552F553F54FE52224FC601D0B
:1004060024FE601B24FE602424FE602A2408702E2D
:100416007F121218D31219591219838021800D7F69
:10042600121218D3121839121A2B80127F121218B0
:10043600D312198380057F121218D3121959052277
:10044600E52230E00DD3940040087551017549014D
:100456008008754601E4F54AF551E4F52EF559D3C1
:10046600E5539450E552648094804010E54F700C3B
:10047600E546B40107E4F552F553F546E55C640339
:100486006003020042E556640F45556003020042D0
:10049600E55964026003020042F552F553E5222451
:1004A600FC601A24FE602324FE602924FE602F24AB
:1004B6000870337F0F1218D312195980297F0F1233
:1004C60018D3121959121983801C7F141218D312CB
:1004D600183980127F0F1218D3121A2B80057F0F3E
:1004E6001218D3121A01121B5B7FC87E00121B78EA
:1004F600E4F547E55C64036003020757E548B40189
:1005060003121562E55C6403703FE54D454C6039A6
:10051600E4F552F553F55C755F01E54C702BE54D3E
:1005260014601214601B14601124FE601904701903
:100536001219598014121983800F7F0A1218D3805A
:1005460008121A2B8003121A01C3E5539450E55280
:100556006480948050030206ECE54D6401454C60CE
:1005660010E54D6403454C6008E54D6402454C704A
:1005760045E558643045576010E5586410455760A6
:1005860008E55864204557702DE54D454C6027E534
:100596005FB40122E4F5487F061218D3121B5B7F75
:1005A6001B121901121839754801055AE4F552F55E
:1005B60053754701F55FE54D6404454C600302063B
:1005C60077E558642045577050E54D454C604AE53F
:1005D6005F64017044F5487F141218D3E4F561F5A1
:1005E600627DE67C057FE67E05121B190562E562E3
:1005F60070020561C39403E5616480948040E21251
:100606001B5B7F1B121901121839754801055AE444
:10061600F552F553754701F55FE558641045577077
:1006260050E5564555704AE54D454C6044E55F64D6
:1006360001703EF548F561F5627DE67C057FE67E54
:1006460005121B190562E56270020561C39403E594
:10065600616480948040E2121B5B7F1B12190112B9
:100666001839754801055AE4F552F553754701F5F1
:100676005FE54D6405454C706DE55864104557704F
:100686002DE54D454C6027E55FB40122E4F5487F32
:10069600121218D3121B5B7F1B121901121839751F
:1006A6004801055AE4F552F553754701F55FE558DB
:1006B600642045577030E5564555702AE54D454C42
:1006C6006024E55FB4011FE4F548121B5B7F1B1233
:1006D6001901121839754801055AE4F552F5537592
:1006E6004701F55FF554E556640F4555600302056D
:1006F60002E54764016003020502F552F553E54C35
:10070600703FE54D14601714602514601B24FE60CD
:100716002804702D7F111218D3121A0180237F141A
:100726001218D3121A2B80197F0F1218D380127F3A
:10073600121218D312198380087F0C1218D31219BB
:1007460059E55AB40306121959754901E4F54CF5F1
:100756004D755101E4F563F55F754801754601F580
:100766002EE55A64037003020A3FE548B4010312FA
:100776001562E551B4010A121C091217958E2C8FC9
:100786002DC3E52D9405E52C94005024E551B401C4
:100796001F7F111218D3121B5B12120E8E4C8F4D37
:1007A6001218397F141218D3E4F547F5517546012E
:1007B600D3E5539450E55264809480400CE546B4EA
:1007C6000107E4F552F553F546E5467058E55664DB
:1007D6000F45557050E547704CF552F553F52EE52B
:1007E6004C703FE54D14601714602514601B24FE01
:1007F600602804702D7F0C1218D312195980237F9C
:100806000F1218D312198380197F0F1218D3801272
:100816007F0F1218D3121A2B80087F0F1218D312CB
:100826001A01755F01D3E5539450E55264809480B4
:1008360050030209C6E54D6401454C6010E54D6460
:1008460003454C6008E54D6402454C7045E5586427
:100856003045576010E558641045576008E5586400
:10086600204557702DE54D454C6027E55FB40122C4
:10087600E4F5487F061218D3121B5B7F1B12190181
:10088600121839754801055AE4F552F553754701B2
:10089600F55FE54D6404454C6003020953E5586471
:1008A6002045577050E54D454C604AE55F64017040
:1008B60044F5487F141218D3E4F561F5627DE67CB1
:1008C600057FE67E05121B190562E5627002056169
:1008D600C39403E5616480948040E2121B5B7F1B36
:1008E600121901121839754801055AE4F552F553E3
:1008F600754701F55FE558641045577050E5564554
:1009060055704AE54D454C6044E55F6401703EF51F
:1009160048F561F5627DE67C057FE67E05121B19CA
:100926000562E56270020561C39403E56164809423
:100936008040E2121B5B7F1B1219011218397548A1
:1009460001055AE4F552F553754701F55FE54D6427
:1009560005454C706BE55864104557702DE54D45BF
:100966004C6027E55FB40122E4F5487F121218D3E4
:10097600121B5B7F1B121901121839754801055AA3
:10098600E4F552F553754701F55FE5586420455780
:10099600702EE55645557028E54D454C6022E55FBD
:1009A600B4011DE4F548121B5B7F1B1219011218D6
:1009B60039754801055AE4F552F553754701F55F57
:1009C600E5466003020770E556640F45556003026D
:1009D6000770E54764016003020770755101F5521F
:1009E600F553E54C703FE54D14601714602514600F
:1009F6001B24FE602804702D7F121218D3121A01D0
:100A060080237F141218D3121A2B80197F0E121806
:100A1600D380127F121218D312198380087F0F1207
:100A260018D3121959E4F54CF54DE55A64036003E1
:100A3600020770121959754901E4F54FF563F54738
:100A4600754801F55AF54CF54DF52C752D64F52EC6
:100A5600F552F553E548B40103121562E549640100
:100A66007077F52AF52BF524F525121C0912179532
:100A76008E2C8F2D7DFA7C057FFA7E05121B19C3FD
:100A8600E52D9420E52C9400502C85242A85252BD1
:100A9600E5239405401E7D047C067F047E06121B1A
:100AA60019121B5B7F0F1218D3754F01755B01E49A
:100AB600F523801305230525E52570020524C39437
:100AC600C8E524940040A3E54F700B121A01755A2D
:100AD60002E4F54CF54DE4F549D3E52B9437E52AC8
:100AE60094004008754E01E4F54B8006754B01E411
:100AF600F54EE556640F4555703DE55B640170376C
:100B0600F552F553755E01E54BB401117F0E1218CF
:100B1600D37B1E7D227C067F227E068014E54EB4A2
:100B260001127F171218D37B2D7D967C057F967E4A
:100B360005121803E4F55BE556640F45557042E56A
:100B46005E6401703CD3E553940AE5526480948058
:100B5600402FE4F552F553E54BB4010A7F0F121806
:100B6600D3121A55800DE54EB401137F0F1218D318
:100B76001219AD7F141218D3E4F547755001E4F548
:100B86005EE556640F45557079E55064017073D380
:100B9600E553941EE552648094804066121B5B12F6
:100BA600120E8E4C8F4DE54D6402454C70037563F5
:100BB60001E4F550F547F552F553F52EE54C703F37
:100BC600E54D14601714602514601B24FE6028048C
:100BD600702D7F0C1218D312195980237F0F12180B
:100BE600D312198380197F0F1218D380127F0F1228
:100BF60018D3121A2B80087F0F1218D3121A0175F8
:100C06005F01D3E5539450E552648094805003020B
:100C16000DADE54D6401454C6010E54D6403454C52
:100C26006008E54D6402454C7047E5586430455709
:100C36006010E558641045576008E558642045572C
:100C4600702FE54D454C6029E55FB40124E4F54875
:100C56007F0B1218D3121B5B7F1E12190112183953
:100C6600754801055AE4F552F553F55F754701F5E8
:100C76002EE54D6404454C6003020D36E5586420AC
:100C860045577052E54D454C604CE55F6401704632
:100C9600F5487F121218D3E4F561F5627DE67C050E
:100CA6007FE67E05121B190562E56270020561C3C7
:100CB6009403E5616480948040E2121B5B7F1E1200
:100CC6001901121839754801055AE4F552F553F51C
:100CD6005F754701F52EE558641045577052E55685
:100CE6004555704CE54D454C6046E55F64017040E6
:100CF600F548F561F5627DE67C057FE67E05121B0B
:100D0600190562E56270020561C39403E5616480BA
:100D1600948040E2121B5B7F1E121901121839756E
:100D26004801055AE4F552F553F55F754701F52E6E
:100D3600E54D6405454C706FE55864104557702FB6
:100D4600E54D454C6029E55FB40124E4F5487F1282
:100D56001218D3121B5B7F1E12190112183975481F
:100D660001055AE4F552F553F55F754701F52EE591
:100D760058642045577030E5564555702AE54D456F
:100D86004C6024E55FB4011FE4F548121B5B7F1E2F
:100D9600121901121839754801055AE4F552F5532E
:100DA600F55F754701F52EE55A64026066E55664FF
:100DB6000F4555705EE54764017058E54D454C603A
:100DC60052E4F547F552F553E54C703FE54D146096
:100DD6001414602214601824FE602804702D7F0A03
:100DE6001218D380267F121218D3121983801C7F03
:100DF6000F1218D380087F121218D31219831219F2
:100E06005980087F0C1218D3121839754901E4F578
:100E16004CF54DE55A64027065F549E556640F4593
:100E260055705BE54764017055E54D454C604FE4F0
:100E3600F547F552F553E54C703FE54D1460171430
:100E4600602514601B24FE602804702D7F0C121888
:100E5600D3121A0180237F141218D3121A2B801969
:100E66007F0F1218D380127F121218D312198380A3
:100E7600087F0C1218D3121959E4F54CF54DE55AB2
:100E860064026003020A5AD3E55394B9E5526480BA
:100E960094805003020A5AE54D454C6003020A5AF3
:0C0EA600F552F553121B5B121B5B80FB26
:101562007580FFE580540F755500F556E5805430BF
:10157200755700F5587F011218D3E555600302161E
:101582005DE55614B40F00400302165D90159C757C
:10159200F003A4C58325F0C583730215C90215D9CA
:1015A2000215E202160602162202162B0216340257
:1015B20015F402165D02163D02165D02160F0216A2
:1015C2004602164F0216580553E553700205527D26
:1015D2000E7C067F0E80170553E5537002055222DA
:1015E2000553E553700205527DDC7C057F047E06BF
:1015F200802B0553E553700205527DAA7C057FAA14
:101602007E0580190553E55370510552220553E5B5
:1016120053700205527DB47C057FDC7E050218A161
:101622000553E55370350552220553E553702C05D9
:1016320052220553E55370230552220553E5537098
:101642001A0552220553E55370110552220553E53E
:0C1652005370080552227F061218D322A4
:0300000002165E87
:0C165E00787FE4F6D8FD7581840216A5A3
:10145700EF8DF0A4A8F0CF8CF0A428CE8DF0A42EA9
:02146700FE2263
:10146900BC000BBE0029EF8DF084FFADF022E4CC67
:10147900F875F008EF2FFFEE33FEEC33FCEE9DEC30
:10148900984005FCEE9DFE0FD5F0E9E4CEFD22ED76
:10149900F8F5F0EE8420D21CFEADF075F008EF2FC0
:1014A900FFED33FD4007985006D5F0F222C398FDB1
:0514B9000FD5F0EA224E
:1014BE00EB9FF5F0EA9E42F0E99D42F0EC6480C8A5
:0614CE0064809845F02245
:100EB200E5412435F8E605412278323007027835DB
:100EC200E475F00112152C0214D42000EB7F2ED20F
:100ED200008018EF540F2490D43440D4FF30040B18
:100EE200EF24BFB41A0050032461FFE542600215EB
:100EF200420545E5457002054430070D7832E47538
:100F0200F00112152CEF02151A021BE27403D2072C
:100F12008003E4C207F5418B328A338934E4F54217
:100F2200F544F545E54260077F20120EED80F57528
:100F320043FFC201C200C202C203C205C206C20806
:100F4200120EBBFF700D3007057F00120EFEAF457B
:100F5200AE4422B4255FC2D5C204120EBBFF24D018
:100F6200B40A00501A75F00A784230D50508B6FF67
:100F72000106C6A426F620D5047002D20380D92425
:100F8200CFB41A00EF5004C2E5D2040210FED2011F
:100F920080C6D20080C0D20280BCD2D580BAD2052F
:100FA20080B47F20120EED2002077401B54200408A
:100FB200F1120EB2FF120EED020F26D208D20680F7
:100FC20095120EB2FB120EB2FA120EB2F94A4B7021
:100FD2000679CF7A117BFF20022EE542602A7E003D
:100FE2008E827583001214ED60060EEE654370F07A
:100FF200C2D5EBC0E0EAC0E0E9C0E0EE121145D094
:10100200E0F9D0E0FAD0E0FB1214D4FF60AAEBC002
:10101200E0EAC0E0E9C0E0120EEDD0E02401F9D030
:10102200E03400FAD0E0FBE5430460DCD543D9802C
:10103200877BFF7A117941D202809C7910800279F4
:1010420008C206C2088008D2D5790A8004790AC289
:10105200D5E543047002F543E4FAFDFEFF120EB239
:10106200FC7B08200113120EB2FD7B1030000A1225
:101072000EB2FE120EB2FF7B20EC3382D592D55017
:1010820013C3E43000069FFFE49EFEE42001039DAB
:10109200FDE49CFCE4CBF8C201EC700CCFCECDCCCD
:1010A200E824F8F870F38017C3EF33FFEE33FEED58
:1010B20033FDEC33FCEB33FB994002FB0FD8E9EB39
:1010C200300105F8D0E0C448B201C0E00AEC4D4E50
:1010D2004F78207B0070C2EAB5430040BCC0E012EA
:1010E2001147D0F0D0E0200104C4C0E0C4B201C076
:1010F200F0120ED6D0F0D5F0EB020F2612153C0FEF
:10110200C353103D580F944C0F904210414F104959
:0F111200441049490FA943104F5510334610336D
:101121004510334711EF500F982D0F9C2E0FBF2BF9
:101131000FA0230FBD2011D82A0F584800000FB768
:101141003F3F3F00790AA2D5200314300509B910A9
:10115100020404B9080104A2D520060250010420AA
:1011610002689202B542005034C0E07F203003197A
:101171007F30A20272067205500F12119EC202C286
:1011810006C205C2087F30800F300503E9C0E012B6
:101191000EED300503D0E0F9D0E0B542CC300517B3
:1011A1007F30B9100C120EED7F583004077F788024
:1011B10003B90803120EED3002057F2D020EED7FFB
:1011C100202008F87F2B2006F322920280CF286E80
:1011D100756C6C2900D201120EB23001F8C201788F
:1011E1004230D50108F6020F582D50434958120ECE
:1011F100B22403B405004001E49011EA93120EDE1B
:0D120100743A120EDED20375420402103D55
:10166A00020026E493A3F8E493A34003F68001F270
:10167A0008DFF48029E493A3F85407240CC8C33381
:10168A00C4540F4420C8834004F456800146F6DF50
:10169A00E4800B01020408102040809016EAE47EE0
:1016AA00019360BCA3FF543F30E509541FFEE49345
:1016BA00A360010ECF54C025E060A840B8E493A30C
:1016CA00FAE493A3F8E493A3C8C582C8CAC583CA37
:1016DA00F0A3C8C582C8CAC583CADFE9DEE780BEEF
:0117470000A1
:1014D400BB010689828A83E0225002E722BBFE0216
:0914E400E32289828A83E4932249
:1014ED00BB010CE58229F582E5833AF583E02250B4
:1014FD0006E92582F8E622BBFE06E92582F8E222FE
:0D150D00E58229F582E5833AF583E4932217
:10151A00BB010689828A83F0225002F722BBFE01B0
:02152A00F322AA
:10152C00FAE6FB0808E6F925F0F618E6CA3AF622C0
:10153C00D083D082F8E4937012740193700DA3A33E
:10154C0093F8740193F5828883E473740293686052
:06155C00EFA3A3A380DF52
:00000001FF
