:101C0C007C007D0A121570EF1F70011E144E70F7C8
:011C1C0022A5
:101B8C00AB07AA060BBB00010AEB1B70011A144A27
:0C1B9C0060097F847E03121C0C80EE2286
:03002000DFFE22DE
:101B6F00D2907FDC7E05121C0CC290D2917FDC7E5E
:0D1B7F0005121C0CC2917F147E00021B8C0D
:0218E7008F2F41
:1018E900E4F530E530C3952F5021D2907F9F7E05D6
:1018F900121C0CC290D2917F197E06121C0CC29147
:0B1909007F147E00121B8C053080D87C
:0119140022B0
:0A17E1008E678F688C698D6A8B6B30
:1017EB00E4F56CE56CC3956B5021D290AF6AAE6992
:1017FB00121C0CC290D291AF68AE67121C0CC29136
:0B180B007F147E00121B8C056C80D83F
:0118160022AF
:021915008F2F12
:10191700E4F530E530C3952F5021D2907F2C7E0619
:10192700121C0CC290D2917F8C7E05121C0CC291A6
:0B1937007F147E00121B8C053080D84E
:011942002282
:0818B5008E2F8F308C318D3233
:1018BD00E4F533D290AF32AE31121C0CC290D291FE
:1018CD00AF30AE2F121C0CC2917F147E00121B8CF8
:0918DD000533E533C3940240DA3F
:0118E60022DF
:0A1817008E2F8F308C318D328B3311
:10182100E4F534E534C395335021D290AF32AE3173
:10183100121C0CC290D291AF30AE2F121C0CC2916F
:0B1841007F147E00121B8C053480D841
:01184C002279
:10194300E4F574D2907FAA7E05121C0CC290D2914A
:101953007FAA7E05121C0CC2917F147E00121B8C81
:091963000574E574C3946440DAD4
:01196C002258
:10196D00E4F52FD2907F787E05121C0CC290D29197
:10197D007F787E05121C0CC2917F147E00121B8C89
:09198D00052FE52FC3941840DA80
:01199600222E
:10199700E4F52FD2907F787E05121C0CC290D2916D
:1019A7007F787E05121C0CC2917F147E00121B8C5F
:0919B700052FE52FC3940F40DA5F
:0119C0002204
:1019C100E4F52FD2907FB47E05121C0CC290D29107
:1019D1007FB47E05121C0CC2917F147E00121B8CF9
:0919E100052FE52FC3944B40DAF9
:0119EA0022DA
:1019EB00E4F575D2907F0E7E06121C0CC290D2913C
:1019FB007F0E7E06121C0CC2917F147E00121B8C74
:091A0B000575E575C3944640DA47
:011A140022AF
:101A1500E4F52FD2907F407E06121C0CC290D29125
:101A25007F407E06121C0CC2917F147E00121B8C17
:091A3500052FE52FC3941A40DAD5
:011A3E002285
:101A3F00E4F52FD2907F407E06121C0CC290D291FB
:101A4F007F407E06121C0CC2917F147E00121B8CED
:091A5F00052FE52FC3940F40DAB6
:011A6800225B
:101A6900E4F52FD2907F047E06121C0CC290D2910D
:101A79007F047E06121C0CC2917F147E00121B8CFF
:091A8900052FE52FC3944640DA55
:011A92002231
:101A9300E4F576D2907F407E06121C0CC290D29160
:101AA3007F407E06121C0CC2917F147E00121B8C99
:091AB3000576E576C3941A40DAC9
:011ABC002207
:101B2D008E2F8F30D290AF05AE04121C0CC290D206
:101B3D0091AF30AE2F121C0CC2917F147E00021B90
:011B4D008C0B
:10184D00E4F52FF530D2907FA07E05121C0CC290CE
:10185D00D2917FA07E05121C0CC2917F147E0012C6
:10186D001B8C0530E5307002052FC39445E52F9490
:03187D000040D256
:011880002245
:10188100E4F51EF51FD2907F187E06121C0CC29043
:10189100D2917F187E06121C0CC2917F147E001219
:1018A1001B8C051FE51F7002051EC39444E51E94A1
:0318B1000040D222
:0118B4002211
:0300230002175C65
:07175C00C0E0C0D075D00809
:10176300309820AF99C298E56D2408FDE433FCE579
:101773006F6D7001EC600CAE6F056FEE540724784B
:10178300F8A60F30991BC299E56E65706011AF6EB4
:10179300056EEF54072480F8E6F599C20A8002C269
:0117A300093C
:0517A400D0D0D0E032BE
:101AE500200A22200905D2098F9922C2ACAE7005C1
:101AF50070EE54072480F8A607E570656E540770EC
:061B050002D20AD2AC225C
:101BF600AD07BD0A08200AFD7F0D121AE5200AFD71
:061C0600AF05121AE522F1
:101BDF00E56F656D60FAC2ACAF6D056DEF5407240C
:061BEF0078F8E6FFD2AC1D
:011BF50022CD
:101BC400E4F56DF56FF56EF570C209C20A4389201C
:0B1BD400758DFDD28E7598D8D2AC2222
:06000300121BC4D2AF2263
:0716F5000171000272000008
:0F1C1D00438901E4F58CF58AD2AFD2A9C28C229B
:03000B00021C2CA8
:031C2C00C28C3235
:1017A900E4F52FF530C2A6C2A7D2A67F19FE121CF6
:1017B9000CC2A630A7FDD28C30A703208CFAC28CAC
:1017C900AF8CEFFEAD8A7C00E42DFFEC3EFE7D3A46
:0717D9001215708E2F8F30F6
:0117E00022E6
:101ABD007265643D256C642C677265656E3D256CA1
:101ACD00642C626C75653D256C640A00636F6C6FE8
:081ADD0072203D2025640A007F
:1016FC000410000000000418000000000414000096
:02170C000000DB
:101BA800D2AFE4F5C943C81075985075CDFF75CC10
:0C1BB800DC75CBFF75CADCD2CAD29922C2
:101B4E00E4F577C2937FC87E00121B8CD2937FC8B8
:101B5E007E00121B8C0577E577C3940340E5C29394
:011B6E002254
:10000E00758951758CFC758A66D2AFD2A9D28CD205
:02001E008E2230
:03000B00021B0BCA
:101B0B00C0E0C0D0C28CC28E051DE51D7002051C45
:101B1B00758CFCE58A2466F58AD28CD28ED0D0D017
:021B2B00E032A6
:10122D00752F02D293D2A1D2A212000E121BA8AF1B
:10123D002F152FEF700302131BE4F51CF51DC2A330
:10124D00D2A4E51D645F451C70F8C28CC28EAF8DB3
:10125D00EFFEAD8B7C00E42DFFEC3EFEE48F178E90
:10126D0016F515F514F58BF58DF51CF51DD28CD2F3
:10127D008ED2A3D2A4E51D645F451C70F8C28CC24A
:10128D008EAF8DEFFEAD8B7C00E42DFFEC3EFEE4CA
:10129D008F138E12F511F510F58BF58DF51CF51DCF
:1012AD00D28CD28EC2A3C2A4E51D645F451C70F81A
:1012BD00C28CC28EAF8DEFFEAD8B7C00E42DFFECAA
:1012CD003EFEE48F1B8E1AF519F518F58BF58DF58D
:1012DD001CF51D7BFF7A1A79BD851B38851A37855C
:1012ED00193685183585133C85123B85113A8510C5
:1012FD003985174085163F85153E85143D120F33F0
:10130D007FC87E00121B8CD28CD28E02123C7BFFCA
:10131D007A1A79BD851B38851A37851936851835A2
:10132D0085133C85123B85113A851039851740850B
:10133D00163F85153E85143D120F33E47F23FEFDC8
:10134D00FCAB1BAA1AA919A818D31215C5502FE466
:10135D007F23FEFDFCAB13AA12A911A8101215C50F
:10136D00501CE47F23FEFDFCAB17AA16A915A8148B
:10137D001215C55009753000753102021469E47FEC
:10138D00C8FEFDFCAB1BAA1AA919A818C31215C5D6
:10139D00402FE47FC8FEFDFCAB13AA12A911A810C3
:1013AD001215C5401CE47FC8FEFDFCAB17AA16A99B
:1013BD0015A8141215C540097530007531010214B8
:1013CD0069E47F96FEFDFCAB1BAA1AA919A818C3E8
:1013DD001215C5402FE47F41FEFDFCAB13AA12A9E7
:1013ED0011A810D31215C5501BE47F41FEFDFCABB7
:1013FD0017AA16A915A8141215C550087530007531
:10140D0031038058E47FC8FEFDFCAB1BAA1AA91955
:10141D00A818C31215C5402FE47F96FEFDFCAB1333
:10142D00AA12A911A8101215C5401CE47F64FEFD77
:10143D00FCAB17AA16A915A814D31215C55008751B
:10144D00300075310480157530007531057BFF7ADC
:10145D001A79D9853035853136120F33C2AFC2A90D
:08146D00C28CC28EAE30AF311B
:011475002254
:10170E000254000002640000014C00016100014817
:10171E0001015300016600015100016201015600F2
:10172E00014B00014D00015000015200015D00010E
:10173E006000014A01016300014700015F00015B87
:0D174E0000014900015C00014600015E0041
:10002600E4F522F523F524F525F52AF52BF52C1212
:1000360000037FD07E07121B8C7F281218E7E54A43
:10004600B40103121476E54760030200E7E558643D
:100056000F455760030200E7E55B60030200E77F98
:100066000E1218E7E4F554F5550522E52214B40AF4
:1000760000505090008775F003A4C58325F0C58312
:10008600730200A50200A70200A90200AB0200C984
:100096000200C90200B20200B70200C10200C68017
:1000A6001F801880117F021218E78000121A3F8005
:1000B600127F021218E71219978008121A15800388
:1000C60012196DE52230E00DD394004008755301F6
:1000D600754B018009756301754701E4F553E4F535
:1000E6002CE54B6401600302016EF52AF52BF5261B
:1000F600F527121B6FE4F528F529121C1D1217A906
:100106008E2D8F2E0529E52970020528C39402E558
:10011600286480948040E3D3E52E9405E52D940071
:100126004018E52E941EE52D9400500E755301855A
:10013600262A85272B121B6F802B7FC87E00121B59
:100146008C7B137D0E7C067F0E7E06121817052209
:1001560005220527E52770020526C39404E52664D3
:10016600809480408DE4F54BE553B4010A121C1DC2
:100176001217A98E2D8F2EC3E52E9405E52D94001A
:100186005029E553B40124055E7F111218E7121BAE
:100196006FE55EB403050522755B0212122D8E4EC5
:1001A6008F4F755601E4F553755101E556700302FC
:1001B6000385E54F6404454E7006E5226401603E02
:1001C600E54F6401454E7006E52264036030E54F55
:1001D6006403454E7006E52264056022E54F64021D
:1001E600454E7006E52264076014E54F6405454EEA
:1001F600600302037AE5226409600302037A7561EB
:1002060001755B01E54F6401454E6010E54F6403DF
:10021600454E6008E54F6402454E7046E55A643027
:1002260045596010E55A641045596008E55A64203E
:100236004559702EE54F454E6028E561B40123E42B
:10024600F54A7F061218E7121B6F7F1B121915124B
:10025600184D754A01055CE4F561F556F54EF54F06
:100266000522E54F6404454E6003020303E55A6424
:100276002045597051E54F454E604BE5616401706C
:1002860045F54A7F141218E7E4F564F5657DE67CCA
:10029600057FE67E05121B2D0565E5657002056482
:1002A600C39403E5646480948040E2121B6F7F1B55
:1002B60012191512184D754A01055CE4F561F556DB
:1002C600F54EF54F0522E55A64104559702FE5584D
:1002D60045577029E54F454E6023E561B4011EE49C
:1002E600F54A121B6F7F1B12191512184D754A011C
:1002F600055CE4F561F556F54EF54F0522E54F64CC
:1003060005454E707AE55A64104559702EE54F45FD
:100316004E6028E561B40123E4F54A7F121218E71E
:10032600121B6F7F1B12191512184D754A01055CB9
:10033600E4F561F556F54EF54F0522E55A6420457C
:1003460059703CE55845577036E54F454E6030E5E7
:10035600616401702AF54A121B6F7F1B1219151270
:10036600184D754A01055CE4F561F556F54EF54FF5
:100376000522800B7F501218E712184DE4F556E55A
:100386002220E049D394004044E5516401703EE5E3
:100396006364017038E52375F028A4FFC374B49F25
:1003A600FFE495F0FED3E5559FEE6480F8E55464CE
:1003B600809840137F1B12191512184DE4F551F55C
:1003C60054F555F5630523E4F553020469E5223037
:1003D600E003020469D394005003020469E55B64F8
:1003E600016003020469E558640F45577075F554BA
:1003F600F555F551E52224FC602724FE602524FEF0
:10040600602E24FE6034240870387F121218E77BB1
:10041600167D787C057F787E05121817121997804D
:1004260021800D7F121218E712184D121A3F801202
:100436007F121218E712199780057F121218E71219
:10044600196D0522E52230E00DD39400400875535E
:1004560001754B018008754701E4F54CF553E4F549
:100466002CF55BD3E5559450E55464809480401098
:10047600E551700CE547B40107E4F554F555F54729
:10048600E55E64036003020044E558640F45576067
:1004960003020044E55B64026003020044F554F580
:1004A60055E52224FC601A24FE602324FE602924DC
:1004B600FE602F240870337F0F1218E712196D8023
:1004C600297F141218E712196D121997801C7F14D0
:1004D6001218E712184D80127F121218E7121A3FEF
:1004E60080057F0F1218E7121A15121B6F7FC87E40
:1004F60000121B8CE4F548E55E64036003020765A1
:10050600E54AB40103121476E55E6403703FE54FD5
:10051600454E6039E4F554F555F55E756101E54ED5
:10052600702BE54F14601214601B14601124FE60DA
:100536001904701912196D8014121997800F7F0A09
:100546001218E78008121A3F8003121A15C3E555E0
:100556009450E5546480948050030206F0E54F649D
:1005660001454E6010E54F6403454E6008E54F6453
:1005760002454E7045E55A643045596010E55A64A7
:100586001045596008E55A64204559702DE54F45D8
:100596004E6027E561B40122E4F54A7F061218E7AA
:1005A600121B6F7F1B12191512184D754A01055C37
:1005B600E4F554F555754801F561E54F6404454E7B
:1005C600600302067BE55A642045597050E54F45A5
:1005D6004E604AE56164017044F54A7F141218E7DB
:1005E600E4F564F5657DE67C057FE67E05121B2D48
:1005F6000565E56570020564C39403E5646480944B
:100606008040E2121B6F7F1B12191512184D754A96
:1006160001055CE4F554F555754801F561E55A6444
:100626001045597050E5584557704AE54F454E609C
:1006360044E5616401703EF54AF564F5657DE67C46
:10064600057FE67E05121B2D0565E56570020564CE
:10065600C39403E5646480948040E2121B6F7F1BA1
:1006660012191512184D754A01055CE4F554F55535
:10067600754801F561E54F6405454E706DE55A64B0
:10068600104559702DE54F454E6027E561B40122AE
:10069600E4F54A7F121218E7121B6F7F1B12191519
:1006A60012184D754A01055CE4F554F55575480177
:1006B600F561E55A642045597030E5584557702A6A
:1006C600E54F454E6024E561B4011FE4F54A121B6F
:1006D6006F7F1B12191512184D754A01055CE4F55A
:1006E60054F555754801F561F556E558640F4557BB
:1006F6006003020506E54864016003020506F55439
:10070600F555E54E703FE54F1460171460251460EB
:100716001B24FE602804702D7F0F1218E7121A158D
:1007260080237F141218E7121A3F80197F0F1218C0
:10073600E780127F121218E712199780087F0C12B1
:1007460018E712196DE55CB403107B1C7D787C05F7
:100756007F787E05121817754B01E4F54EF54F7537
:100766005301E4F566F561754A01754701F52CE517
:100776005C64037003020A57E54AB4010312147657
:10078600E553B4010A121C1D1217A98E2D8F2EC314
:10079600E52E9405E52D94005024E553B4011F7F02
:1007A600111218E7121B6F12122D8E4E8F4F121850
:1007B6004D7F141218E7E4F548F553754701D3E564
:1007C600559450E55464809480400CE547B4010785
:1007D600E4F554F555F547E5477058E558640F4577
:1007E600577050E548704CF554F555F52CE54E70AC
:1007F6003FE54F14601714602514601B24FE602823
:1008060004702D7F0C1218E712196D80237F0F12CA
:1008160018E712199780197F0F1218E780127F0FB9
:100826001218E7121A3F80087F0F1218E7121A15DE
:10083600756101D3E5559450E55464809480500366
:100846000209D4E54F6401454E6010E54F64034547
:100856004E6008E54F6402454E7045E55A643045E2
:10086600596010E55A641045596008E55A642045F8
:1008760059702DE54F454E6027E561B40122E4F538
:100886004A7F061218E7121B6F7F1B1219151218E2
:100896004D754A01055CE4F554F555754801F56159
:1008A600E54F6404454E6003020961E55A6420453C
:1008B600597050E54F454E604AE56164017044F554
:1008C6004A7F141218E7E4F564F5657DE67C057F3A
:1008D600E67E05121B2D0565E56570020564C39469
:1008E60003E5646480948040E2121B6F7F1B12193B
:1008F6001512184D754A01055CE4F554F555754811
:1009060001F561E55A641045597050E55845577030
:100916004AE54F454E6044E5616401703EF54AF58F
:1009260064F5657DE67C057FE67E05121B2D056573
:10093600E56570020564C39403E5646480948040B1
:10094600E2121B6F7F1B12191512184D754A01050D
:100956005CE4F554F555754801F561E54F640545C8
:100966004E706BE55A64104559702DE54F454E6043
:1009760027E561B40122E4F54A7F121218E7121B3B
:100986006F7F1B12191512184D754A01055CE4F5A7
:1009960054F555754801F561E55A64204559702EA0
:1009A600E55845577028E54F454E6022E561B4018C
:1009B6001DE4F54A121B6F7F1B12191512184D758F
:1009C6004A01055CE4F554F555754801F561E547BE
:1009D600600302077EE558640F4557600302077EF1
:1009E600E5486401600302077E755301F554F55529
:1009F600E54E703FE54F14601714602514601B2404
:100A0600FE602804702D7F0E1218E7121A15802337
:100A16007F141218E7121A3F80197F0E1218E7800A
:100A2600127F121218E712199780087F0E1218E724
:100A360012196DE4F54EF54FE55C64036003020799
:100A46007E7B1C7D787C057F787E05121817754B9A
:100A560001E4F551F566F548754A01F55CF54EF584
:100A66004FF52D752E64F52CF554F555754B01E5AE
:100A76004AB40103121476E54B64017079F52AF540
:100A86002BF526F527121C1D1217A98E2D8F2E7DEC
:100A9600FA7C057FFA7E05121B2DC3E52E941EE512
:100AA6002D9400502C85262A85272BE52494054075
:100AB6001E7D047C067F047E06121B2D121B6F7F93
:100AC6000F1218E7755101755D01E4F524801505CF
:100AD600240527E52770020526C394C8E526648009
:100AE600948040A1E551700B121A15755C02E4F56D
:100AF6004EF54FE4F54BD3E52B9437E52A64809405
:100B0600804008755001E4F54D8006754D01E4F509
:100B160050E558640F4557703DE55D64017037F543
:100B260054F555756001E54DB401117F0E1218E7B5
:100B36007B1E7D227C067F227E068014E550B40152
:100B4600127F171218E77B2D7D967C057F967E0512
:100B5600121817E4F55DE558640F45577042E560D5
:100B66006401703CD3E555940AE554648094804052
:100B76002FE4F554F555E54DB4010A7F0F1218E739
:100B8600121A69800DE550B401137F0F1218E7128F
:100B960019C17F141218E7E4F548755201E4F560AF
:100BA600E558640F45577079E55264017073D3E5D3
:100BB60055941EE554648094804066121B6F121291
:100BC6002D8E4E8F4FE54F6402454E7003756601BC
:100BD600E4F552F548F554F555F52CE54E703FE52C
:100BE6004F14601714602514601B24FE60280470DF
:100BF6002D7F0C1218E712196D80237F0F1218E74C
:100C060012199780197F0F1218E780127F0F12189A
:100C1600E7121A3F80087F0F1218E7121A1575613E
:100C260001D3E5559450E554648094805003020D39
:100C3600CCE54F6401454E6010E54F6403454E60B8
:100C460008E54F6402454E7047E55A6430455960E1
:100C560010E55A641045596008E55A6420455970F4
:100C66002FE54F454E6029E561B40124E4F54A7F3E
:100C76000C1218E7121B6F7F1E12191512184D75EC
:100C86004A01055CE4F554F555F561754801F52C06
:100C9600E54F6404454E6003020D55E55A64204550
:100CA600597052E54F454E604CE56164017046F55A
:100CB6004A7F121218E7E4F564F5657DE67C057F48
:100CC600E67E05121B2D0565E56570020564C39475
:100CD60003E5646480948040E2121B6F7F1E121944
:100CE6001512184D754A01055CE4F554F555F56184
:100CF600754801F52CE55A641045597052E558457A
:100D060057704CE54F454E6046E56164017040F50D
:100D16004AF564F5657DE67C057FE67E05121B2DAA
:100D26000565E56570020564C39403E56464809413
:100D36008040E2121B6F7F1E12191512184D754A5C
:100D460001055CE4F554F555F561754801F52CE5AA
:100D56004F6405454E706FE55A64104559702FE58E
:100D66004F454E6029E561B40124E4F54A7F12122D
:100D760018E7121B6F7F1E12191512184D754A01BE
:100D8600055CE4F554F555F561754801F52CE55A11
:100D9600642045597030E5584557702AE54F454E51
:100DA6006024E561B4011FE4F54A121B6F7F1E1231
:100DB600191512184D754A01055CE4F554F555F5FB
:100DC60061754801F52CE55C64026066E558640FC0
:100DD6004557705EE54864017058E54F454E6052D0
:100DE600E4F548F554F555E54E703FE54F146014AB
:100DF60014602214601824FE602804702D7F0A12E5
:100E060018E780267F121218E7121997801C7F0FA9
:100E16001218E780087F121218E712199712196D37
:100E260080087F0C1218E712184D754B01E4F54E39
:100E3600F54FE55C64027065F54BE558640F455760
:100E4600705BE54864017055E54F454E604FE4F52B
:100E560048F554F555E54E703FE54F14601714609C
:100E66002514601B24FE602804702D7F0C1218E7E1
:100E7600121A1580237F141218E7121A3F80197F61
:100E86000F1218E780127F121218E71219978008BE
:100E96007F0C1218E712196DE4F54EF54FE55C6408
:100EA600026003020A75D3E55594C3E55464809441
:100EB600805003020A75E54F454E6003020A75F538
:0B0EC60054F555121B6F121B6F80FBD0
:101476007580FFE580540F755700F558E5805430A8
:10148600755900F55A7F011218E7E55760030215F2
:101496006FE55814B40F00400302156F9014B07531
:1014A600F003A4C58325F0C583730214DD0214EB93
:1014B6000214F402151802153402153D02154602EF
:1014C600150602156F02154F02156F02152102153A
:1014D6005802156102156A0555E555700205547DD9
:1014E6000E7C0680150555E55570020554220555F6
:1014F600E555700205547DDC7C057F0E7E06802B4B
:101506000555E555700205547DAA7C057FAA7E0522
:1015160080190555E55570510554220555E5557058
:101526000205547DAA7C057FDC7E050218B50555AB
:10153600E55570350554220555E555702C055422A0
:101546000555E55570230554220555E555701A05D0
:1015560054220555E55570110554220555E555707B
:0A156600080554227F061218E72240
:030000000216697C
:0C166900787FE4F6D8FD7581870216B08A
:10157000BC000BBE0029EF8DF084FFADF022E4CC5F
:10158000F875F008EF2FFFEE33FEEC33FCEE9DEC28
:10159000984005FCEE9DFE0FD5F0E9E4CEFD22ED6E
:1015A000F8F5F0EE8420D21CFEADF075F008EF2FB8
:1015B000FFED33FD4007985006D5F0F222C398FDA9
:0515C0000FD5F0EA2246
:1015C500EB9FF5F0EA9E42F0E99D42F0EC6480C89D
:0615D50064809845F0223D
:100ED100E5412435F8E605412278323007027835BC
:100EE100E475F0011216330215DB2000EB7F2ED2E0
:100EF100008018EF540F2490D43440D4FF30040BF9
:100F0100EF24BFB41A0050032461FFE542600215CB
:100F1100420545E5457002054430070D7832E47518
:100F2100F001121633EF021621021BF67403D207E9
:100F31008003E4C207F5418B328A338934E4F542F8
:100F4100F544F545E54260077F20120F0C80F575E9
:100F510043FFC201C200C202C203C205C206C208E7
:100F6100120EDAFF700D3007057F00120F1DAF451D
:100F7100AE4422B4255FC2D5C204120EDAFF24D0DA
:100F8100B40A00501A75F00A784230D50508B6FF48
:100F91000106C6A426F620D5047002D20380D92406
:100FA100CFB41A00EF5004C2E5D20402111DD201E0
:100FB10080C6D20080C0D20280BCD2D580BAD20510
:100FC10080B47F20120F0C2002077401B54200404B
:100FD100F1120ED1FF120F0C020F45D208D206807A
:100FE10095120ED1FB120ED1FA120ED1F94A4B70A5
:100FF1000679EE7A117BFF20022EE542602A7E00FF
:101001008E827583001215F460060EEE654370F052
:10101100C2D5EBC0E0EAC0E0E9C0E0EE121164D055
:10102100E0F9D0E0FAD0E0FB1215DBFF60AAEBC0DB
:10103100E0EAC0E0E9C0E0120F0CD0E02401F9D0F1
:10104100E03400FAD0E0FBE5430460DCD543D9800D
:10105100877BFF7A117960D202809C7910800279B6
:1010610008C206C2088008D2D5790A8004790AC26A
:10107100D5E543047002F543E4FAFDFEFF120ED1FB
:10108100FC7B08200113120ED1FD7B1030000A12E7
:101091000ED1FE120ED1FF7B20EC3382D592D550BA
:1010A10013C3E43000069FFFE49EFEE42001039D8C
:1010B100FDE49CFCE4CBF8C201EC700CCFCECDCCAE
:1010C100E824F8F870F38017C3EF33FFEE33FEED39
:1010D10033FDEC33FCEB33FB994002FB0FD8E9EB1A
:1010E100300105F8D0E0C448B201C0E00AEC4D4E31
:1010F1004F78207B0070C2EAB5430040BCC0E012CB
:101101001166D0F0D0E0200104C4C0E0C4B201C037
:10111100F0120EF5D0F0D5F0EB020F451216430F89
:10112100E253105C580FB34C0FAF4210604F106880
:0F113100441068490FC843106E551052461052B3
:1011400045105247120E500FB72D0FBB2E0FDE2B3E
:101150000FBF230FDC2011F72A0F774800000FD6AE
:101160003F3F3F00790AA2D5200314300509B9108A
:10117000020404B9080104A2D5200602500104208B
:1011800002689202B542005034C0E07F203003195B
:101190007F30A20272067205500F1211BDC202C248
:1011A00006C205C2087F30800F300503E9C0E01297
:1011B0000F0C300503D0E0F9D0E0B542CC30051774
:1011C0007F30B9100C120F0C7F583004077F7880E5
:1011D00003B90803120F0C3002057F2D020F0C7F9C
:1011E000202008F87F2B2006F322920280CF286E61
:1011F000756C6C2900D201120ED13001F8C2017851
:101200004230D50108F6020F772D50434958120E8F
:10121000D12403B405004001E490120993120EFD9D
:0D122000743A120EFDD20375420402105CF8
:10167500020026E493A3F8E493A34003F68001F265
:1016850008DFF48029E493A3F85407240CC8C33376
:10169500C4540F4420C8834004F456800146F6DF45
:1016A500E4800B01020408102040809016F5E47ECA
:1016B500019360BCA3FF543F30E509541FFEE4933A
:1016C500A360010ECF54C025E060A840B8E493A301
:1016D500FAE493A3F8E493A3C8C582C8CAC583CA2C
:1016E500F0A3C8C582C8CAC583CADFE9DEE780BEE4
:01175B00008D
:1015DB00BB010689828A83E0225002E722BBFE020E
:0915EB00E32289828A83E4932241
:1015F400BB010CE58229F582E5833AF583E02250AC
:1016040006E92582F8E622BBFE06E92582F8E222F5
:0D161400E58229F582E5833AF583E493220F
:10162100BB010689828A83F0225002F722BBFE01A8
:02163100F322A2
:10163300FAE6FB0808E6F925F0F618E6CA3AF622B8
:10164300D083D082F8E4937012740193700DA3A336
:1016530093F8740193F5828883E47374029368604A
:06166300EFA3A3A380DF4A
:00000001FF
