:1016A2007C007D0A12102DEF1F70011E144E70F780
:0116B2002215
:10162200AB07AA060BBB00010AEB1B70011A144A96
:0C16320060097F847E031216A280EE2265
:03002000DFFE22DE
:10160500D2907FDC7E051216A2C290D2917FDC7E3D
:0D161500051216A2C2917F147E000216225B
:02137D008F528D
:10137F00E4F553E553C395525021D2907F9F7E05DC
:10138F001216A2C290D2917F197E061216A2C29196
:0B139F007F147E00121622055380D838
:0113AA002220
:0A12AD008E698F6A8C6B8D6C8B6D5F
:1012B700E4F56EE56EC3956D5021D290AF6CAE6BC1
:1012C7001216A2C290D291AF6AAE691216A2C2914B
:0B12D7007F147E00121622056E80D8E6
:0112E20022E9
:0213AB008F525F
:1013AD00E4F553E553C395525021D2907F2C7E0620
:1013BD001216A2C290D2917F8C7E051216A2C291F6
:0B13CD007F147E00121622055380D80A
:0113D80022F2
:08134B008E528F538C548D5516
:10135300E4F556D290AF55AE541216A2C290D29174
:10136300AF53AE521216A2C2917F147E0012162200
:091373000556E556C3940240DA68
:01137C00224E
:1013D900E4F576D2907FAA7E051216A2C290D29128
:1013E9007FAA7E051216A2C2917F147E00121622D0
:0913F9000576E576C3946440DA40
:0114020022C7
:10140300E4F552D2907F787E051216A2C290D29153
:101413007F787E051216A2C2917F147E00121622D7
:091423000552E552C3941840DAA9
:01142C00229D
:10142D00E4F552D2907F787E051216A2C290D29129
:10143D007F787E051216A2C2917F147E00121622AD
:09144D000552E552C3940F40DA88
:011456002273
:10145700E4F552D2907FB47E051216A2C290D291C3
:101467007FB47E051216A2C2917F147E0012162247
:091477000552E552C3944640DA27
:011480002249
:10148100E4F577D2907F0E7E061216A2C290D29119
:101491007F0E7E061216A2C2917F147E00121622C2
:0914A1000577E577C3944640DAB3
:0114AA00221F
:1014AB00E4F552D2907F407E061216A2C290D291E2
:1014BB007F407E061216A2C2917F147E0012162266
:0914CB000552E552C3941A40DAFF
:0114D40022F5
:1014D500E4F552D2907F407E061216A2C290D291B8
:1014E5007F407E061216A2C2917F147E001216223C
:0914F5000552E552C3940F40DAE0
:0114FE0022CB
:1014FF00E4F552D2907F047E061216A2C290D291CA
:10150F007F047E061216A2C2917F147E001216224D
:09151F000552E552C3944640DA7E
:0115280022A0
:10152900E4F578D2907F407E061216A2C290D2913D
:101539007F407E061216A2C2917F147E00121622E7
:091549000578E578C3941A40DA34
:011552002276
:1015C3008E528F53D290AF05AE041216A2C290D2A0
:1015D30091AF53AE521216A2C2917F147E0002162F
:0115E30022E5
:1012E300E4F552F553D2907FA07E051216A2C29068
:1012F300D2917FA07E051216A2C2917F147E0012A6
:1013030016220553E55370020552C39444E55294E3
:031313000040D2C5
:0113160022B4
:10131700E4F51EF51FD2907F187E061216A2C29022
:10132700D2917F187E061216A2C2917F147E0012F8
:101337001622051FE51F7002051EC39444E51E947F
:031347000040D291
:01134A002280
:030023000212289E
:07122800C0E0C0D075D00842
:10122F00309820AF99C298E56F2408FDE433FCE5B0
:10123F00716D7001EC600CAE710571EE540724797D
:10124F00F8A60F30991BC299E57065726011AF70E7
:10125F000570EF54072481F8E6F599C20A8002C29F
:01126F000975
:05127000D0D0D0E032F7
:10157B00200A22200905D2098F9922C2ACAE72052E
:10158B0072EE54072481F8A607E572657054077054
:06159B0002D20AD2AC22CC
:10168C00AD07BD0A08200AFD7F0D12157B200AFD4F
:06169C00AF0512157B22D0
:10167500E571656F60FAC2ACAF6F056FEF54072473
:0616850079F8E6FFD2AC8B
:01168B00223C
:10165A00E4F56FF571F570F572C209C20A43892083
:0B166A00758DFDD28E7598D8D2AC2291
:0600030012165AD2AF22D2
:0711B200017300027400004C
:0F16B300438901E4F58CF58AD2AFD2A9C28C220B
:03000B000216C218
:0316C200C28C32A5
:10127500E4F552F553C2A6C2A7D2A67F19FE1216EF
:10128500A2C2A630A7FDD28C30A703208CFAC28C4F
:10129500AF8CEFFEAD8A7C00E42DFFEC3EFE7D3A7F
:0712A50012102D8E528F5331
:0112AC00221F
:101553007265643D256C642C677265656E3D256C10
:10156300642C626C75653D256C640A00636F6C6F57
:0815730072203D2025640A00EE
:1011B90004100000000004180000000004140000DE
:0211C900000024
:10163E00D2AFE4F5C943C81075985075CDFF75CC7F
:0C164E00DC75CBFF75CADCD2CAD2992231
:1015E400E4F555C2937FC87E00121622D2937FC8B9
:1015F4007E001216220555E555C3940340E5C293B7
:0116040022C3
:10000E00758951758CFC758A66D2AFD2A9D28CD205
:02001E008E2230
:03000B000215A13A
:1015A100C0E0C0D0C28CC28E051DE51D7002051CB5
:1015B100758CFCE58A2466F58AD28CD28ED0D0D087
:0215C100E03216
:100B24007552021215E47F507E00121622D293D21F
:100B3400A1D2A212000E12163EAF521552EF70034C
:100B4400020C1CE4F51CF51DC2A3D2A4E51D6448E7
:100B5400451C70F8C28CC28EAF8DEFFEAD8B7C004D
:100B6400E42DFFEC3EFEE48F178E16F515F514F513
:100B74008BF58DF51CF51DD28CD28ED2A3D2A4E5B3
:100B84001D6449451C70F8C28CC28EAF8DEFFEAD5A
:100B94008B7C00E42DFFEC3EFEE48F138E12F511E6
:100BA400F510F58BF58DF51CF51DD28CD28EC2A3F4
:100BB400C2A4E51D644C451C70F8C28CC28EAF8D76
:100BC400EFFEAD8B7C00E42DFFEC3EFEE48F1B8E2C
:100BD4001AF519F518F58BF58DF51CF51D7BFF7AC3
:100BE400157953851B5B851A5A85195985185885BB
:100BF400135F85125E85115D85105C85176385160C
:100C04006285156185146012082A7FC87E00121659
:100C140022D28CD28E020B3D7BFF7A157953851B31
:100C24005B851A5A85195985185885135F85125E94
:100C340085115D85105C8517638516628515618550
:100C4400146012082AE47F23FEFDFCAB1BAA1AA938
:100C540019A818D3121082502FE47F23FEFDFCAB99
:100C640013AA12A911A810121082501CE47F23FEAB
:100C7400FDFCAB17AA16A915A81412108250097509
:100C84005300755402020D8BE47FC8FEFDFCAB1BC0
:100C9400AA1AA919A818C3121082402FE47FC8FE0B
:100CA400FDFCAB13AA12A911A810121082401CE477
:100CB4007FC8FEFDFCAB17AA16A915A81412108252
:100CC4004009755300755401020D8BE47F96FEFDB7
:100CD400FCAB1BAA1AA919A818C3121082402FE44E
:100CE4007F32FEFDFCAB13AA12A911A810D3121077
:100CF40082501BE47F32FEFDFCAB17AA16A915A88F
:100D04001412108250087553007554038079E47FDF
:100D1400C8FEFDFCAB1BAA1AA919A818C31210829D
:100D2400402FE47F96FEFDFCAB13AA12A911A81074
:100D3400121082401CE47F64FEFDFCAB17AA16A9C6
:100D440015A814D3121082500875530075540480EA
:100D540036E47F28FEFDFCAB17AA16A915A814D308
:100D64001210824022E47FBEFEFDFCA81412108201
:100D740050157553007554057BFF7A15796F8553AB
:100D84005885545912082AC2AFC2A9C28CC28EAE69
:030D940053AF5406
:010D97002239
:1011CB000234000002430000012B00014501012DF8
:1011DB0001014100012601013301014700013100EA
:1011EB00012500013600012A00012C00013000010D
:1011FB002401012900013200013D000140000128BA
:10120B0001014200012300013F00013B00014600A8
:0C121B00012700013C00012200013E02FE
:10002600E4F548F549F54AF54DF54EF54F1200034E
:100036007FD07E071216227F2812137D753301E4C6
:10004600F547752D01F531F541752801752301F543
:100056004FE53C64037003020364E528B401031210
:100066000F33E533B401221216B31212758E508F78
:1000760051D3E5519406E5509400400DE551941492
:10008600E55094005003753101C3E5519404E550E1
:1000960094005035E52D6401702FE5316401702917
:1000A6007F0A12137D121605120B248E2E8F2FE552
:1000B6003E640360031212E37F1412137DE4F531EC
:1000C600F52DF526F533752301D3E535940AE53488
:1000D60064809480400CE523B40107E4F534F535DB
:1000E600F523E5237058E538640F45377050E5264B
:1000F600704CF534F535F54FE52E703FE52F14605D
:100106001714602514601B24FE602804702D7F0CD4
:1001160012137D12140380237F0F12137D12142DE8
:1001260080197F0F12137D80127F0F12137D121418
:10013600D580087F0F12137D1214AB754101D3E5EC
:1001460035941EE5346480948050030202EBE52F5B
:100156006401452E6010E52F6403452E6008E52FE7
:100166006402452E7047E53A643045396010E53A39
:10017600641045396008E53A64204539702FE52F4B
:10018600452E6029E541B40124E4F5287F031213C6
:100196007D1216057F1E1213AB1212E37528010598
:1001A6003CE4F534F535F531752601F541E52F6466
:1001B60004452E6003020272E53A64204539705206
:1001C600E52F452E604CE54164017046F5287F0F0A
:1001D60012137DE4F543F5447DE67C057FE67E0556
:1001E6001215C30544E54470020543C39403E54371
:1001F6006480948040E21216057F1E1213AB121221
:10020600E3752801053CE4F534F535F5317526012D
:10021600F541E53A641045397052E5384537704C7A
:10022600E52F452E6046E54164017040F528F5430B
:10023600F5447DE67C057FE67E051215C30544E59B
:100246004470020543C39403E5436480948040E20E
:100256001216057F1E1213AB1212E3752801053C18
:10026600E4F534F535F531752601F541E52F6405DC
:10027600452E7071E53A64104539702FE52F452EED
:100286006029E541B40124E4F5287F0A12137D12A2
:1002960016057F1E1213AB1212E3752801053CE406
:1002A600F534F535F531752601F541E53A64204515
:1002B600397032E5384537702CE52F452E6026E536
:1002C60041B40121E4F5281216057F1E1213AB1264
:1002D60012E3752801053CE4F534F535F53175264C
:1002E60001F541F536E5236003020060E538640F49
:1002F60045376003020060E5266401600302006082
:10030600753301752D01F534F535E52E703FE52F72
:1003160014601714602514601B24FE602804702DD9
:100326007F0C12137D1214AB80237F1412137D12DF
:1003360014D580197F0F12137D80127F1212137D40
:1003460012142D80087F0C12137D121403E4F52E6F
:10035600F52FE53C640360030200601212E3E4F546
:1003660033F547F52DF531752401F526752801F588
:100376003CF52EF52FF550755164F54FF534F535EE
:100386007527031212E3E528B40103120F33E5388B
:10039600640F45377010E524B4010B7F0C12137DF2
:1003A6001214AB752A01E52A64017066F54DF54E07
:1003B600F54BF54C1216B31212758E508F517DFA0D
:1003C6007C057FFA7E051215C3C3E551940AE550F4
:1003D60094004028E5519414E5509400501E854B36
:1003E6004D854C4EE54A940540101216057F621263
:1003F600137DE4F524753D018015054A054CE54C51
:100406007002054BC394C8E54B6480948040A5E414
:10041600F52AD3E54E9428E54D648094804008750E
:100426003001E4F52C8006752C01E4F530E53864DE
:100436000F4537702CE53D64017026F534F53575AA
:100446004001E52CB4010A7F0C12137D1214AB8017
:100456000DE530B401087F0C12137D121403E4F588
:100466003DE538640F4537704DE54064017047D36C
:10047600E535940AE53464809480403AE4F534F531
:1004860035E52CB4010A7F1412137D1214FF800D7A
:10049600E530B4011E7F1412137D1214577F281203
:1004A600137D1216057F1E1213AB753201753301CB
:1004B600752D01E4F540E533B40126E540702212BE
:1004C60016B31212758E508F51D3E5519405E5502F
:1004D6009400400DE5519414E55094005003753195
:1004E60001C3E5519405E55094005037E52D6401AC
:1004F6007031E5336401702BE532B401267F0A12B0
:10050600137D121605120B248E2E8F2FE52F6402F3
:10051600452E7003754701E4F532753101F52DF569
:1005260026F533E538640F4537705BE5267057E5E9
:10053600247053E52F452E604DE4F534F535F54F1F
:10054600E52E703FE52F14601714602514601B24F8
:10055600FE602804702D7F0C12137D121403802375
:100566007F0F12137D12142D80197F0F12137D80B9
:10057600127F0F12137D1214D580087F0F12137D80
:100586001214AB754101E52F6401452E6010E52F6D
:100596006403452E6008E52F6402452E7049E53A4E
:1005A600643045396010E53A641045396008E53A2B
:1005B600642045397031E52F452E602BE5416401F5
:1005C6007025F5287F0512137D1216057F1E12135E
:1005D600AB1212E3752801053CE4F534F535F54117
:1005E600F531752601F54FE52F6404452E600302AB
:1005F60006B0E53A642045397054E52F452E604E25
:10060600E54164017048F5287F1212137DE4F54335
:10061600F5447DE67C057FE67E051215C30544E5B7
:100626004470020543C39403E5436480948040E22A
:100636001216057F1E1213AB1212E3752801053C34
:10064600E4F534F535F541F531752601F54FE53A12
:10065600641045397054E5384537704EE52F452E00
:100666006048E54164017042F528F543F5447DE6AE
:100676007C057FE67E051215C30544E54470020538
:1006860043C39403E5436480948040E21216057FD9
:100696001E1213AB1212E3752801053CE4F534F57E
:1006A60035F541F531752601F54FE52F6405452EE3
:1006B6007073E53A641045397031E52F452E602B8D
:1006C600E54164017025F5287F1212137D12160587
:1006D6007F1E1213AB1212E3752801053CE4F534B4
:1006E600F535F541F531752601F54FE53A642045B6
:1006F600397032E5384537702CE52F452E6026E5F2
:1007060041B40121E4F5281216057F1E1213AB121F
:1007160012E3752801053CE4F534F535F541F5316C
:10072600752601F54FE538640F4537706FE5266489
:10073600017069E52F452E6063752D01E4F526F5F8
:1007460034F535E52E703FE52F1460171460251437
:10075600601B24FE602804702D7F0C12137D12147A
:10076600AB80237F1412137D1214D580197F0F12CC
:10077600137D80127F1212137D12142D80087F0CB8
:1007860012137D121403E4F52EF52F7F2812137D24
:10079600E53C640260031212E3752401E53C640241
:1007A600600302038CD3E53594B4E5346480948009
:1007B600500302038CE4F534F535121605121605BE
:0207C60080FBB6
:100F33007580FFE580540F753700F538E580543030
:100F4300753900F53A7F0112137DE537600302100E
:100F53002CE53814B40F00400302102C900F6D756C
:100F6300F003A4C58325F0C58373020F9A020FA86B
:100F7300020FB1020FD5020FF1020FFA02100302A2
:100F83000FC302102C02100C02102C020FDE0210F1
:100F93001502101E0210270535E535700205347D54
:100FA3000E7C0680150535E53570020534220535BE
:100FB300E535700205347DDC7C057F0E7E06802BD3
:100FC3000535E535700205347DAA7C057FAA7E05CB
:100FD30080190535E53570510534220535E5357041
:100FE3000205347DAA7C057FDC7E0502134B0535A3
:100FF300E53570350534220535E535702C05342289
:101003000535E53570230534220535E535701A05B8
:1010130034220535E53570110534220535E5357083
:0A102300080534227F0612137D2217
:100D9800E52F6401452E6010E52F6403452E600899
:100DA800E52F6402452E704AE4F53BE53A64304588
:100DB800396010E53A641045396008E53A64204521
:100DC80039702FE52F452E6029E541B40124E4F55B
:100DD800287F0312137D1216057F1E1213AB121201
:100DE800E3752801053CE4F534F535F53175260140
:100DF800F541E52F6404452E6003020EB9E53A6417
:100E08002045397052E52F452E604CE5416401704C
:100E180046F5287F0F12137DE4F543F5447DE67C03
:100E2800057FE67E051215C30544E54470020543B7
:100E3800C39403E5436480948040E21216057F1E44
:100E48001213AB1212E3752801053CE4F534F535AD
:100E5800F531752601F541E53A641045397052E5DA
:100E6800384537704CE52F452E6046E541640170E2
:100E780040F528F543F5447DE67C057FE67E0512BE
:100E880015C30544E54470020543C39403E5436470
:100E980080948040E21216057F1E1213AB1212E3F3
:100EA800752801053CE4F534F535F531752601F56D
:100EB80041E52F6405452E7071E53A641045397097
:100EC8002FE52F452E6029E541B40124E4F5287F5C
:100ED8000A12137D1216057F1E1213AB1212E37548
:100EE8002801053CE4F534F535F531752601F54161
:100EF800E53A642045397032E5384537702CE52FDE
:100F0800452E6026E541B40121E4F5281216057F37
:100F18001E1213AB1212E3752801053CE4F534F5F3
:0B0F280035F531752601F541F5362244
:03000000021126C4
:0C112600787FE4F6D8FD75818802116D19
:10102D00BC000BBE0029EF8DF084FFADF022E4CCA7
:10103D00F875F008EF2FFFEE33FEEC33FCEE9DEC70
:10104D00984005FCEE9DFE0FD5F0E9E4CEFD22EDB6
:10105D00F8F5F0EE8420D21CFEADF075F008EF2F00
:10106D00FFED33FD4007985006D5F0F222C398FDF1
:05107D000FD5F0EA228E
:10108200EB9FF5F0EA9E42F0E99D42F0EC6480C8E5
:0610920064809845F02285
:1007C800E5642458F8E6056422785530070278581D
:1007D800E475F0011210F00210982000EB7F2ED281
:1007E800008018EF540F2490D43440D4FF30040B09
:1007F800EF24BFB41A0050032461FFE565600215B9
:10080800650568E5687002056730070D7855E47579
:10081800F0011210F0EF0210DE02168C7403D207FA
:100828008003E4C207F5648B558A568957E4F56559
:10083800F567F568E56560077F2012080380F575A0
:1008480066FFC201C200C202C203C205C206C208D4
:100858001207D1FF700D3007057F00120814AF682A
:10086800AE6722B4255FC2D5C2041207D1FF24D0D7
:10087800B40A00501A75F00A786530D50508B6FF35
:100888000106C6A426F620D5047002D20380D92416
:10089800CFB41A00EF5004C2E5D204020A14D20100
:1008A80080C6D20080C0D20280BCD2D580BAD20520
:1008B80080B47F201208032002077401B565004048
:1008C800F11207C8FF12080302083CD208D20680BA
:1008D800951207C8FB1207C8FA1207C8F94A4B70E5
:1008E8000679E57A0A7BFF20022EE565602A7E00FC
:1008F8008E827583001210B160060EEE656670F088
:10090800C2D5EBC0E0EAC0E0E9C0E0EE120A5BD075
:10091800E0F9D0E0FAD0E0FB121098FF60AAEBC033
:10092800E0EAC0E0E9C0E0120803D0E02401F9D011
:10093800E03400FAD0E0FBE5660460DCD566D980D7
:10094800877BFF7A0A7957D202809C7910800279D6
:1009580008C206C2088008D2D5790A8004790AC27A
:10096800D5E566047002F566E4FAFDFEFF1207C8D5
:10097800FC7B082001131207C8FD7B1030000A1207
:1009880007C8FE1207C8FF7B20EC3382D592D550EA
:1009980013C3E43000069FFFE49EFEE42001039D9C
:1009A800FDE49CFCE4CBF8C201EC700CCFCECDCCBE
:1009B800E824F8F870F38017C3EF33FFEE33FEED49
:1009C80033FDEC33FCEB33FB994002FB0FD8E9EB2A
:1009D800300105F8D0E0C448B201C0E00AEC4D4E41
:1009E8004F78207B0070C2EAB5660040BCC0E012B8
:1009F8000A5DD0F0D0E0200104C4C0E0C4B201C058
:100A0800F01207ECD0F0D5F0EB02083C1211000808
:100A1800D95309535808AA4C08A64209574F095FE9
:0F0A280044095F4908BF43096555094946094913
:100A3700450949470B055008AE2D08B22E08D52B9E
:100A470008B62308D3200AEE2A086E48000008CD0E
:100A57003F3F3F00790AA2D5200314300509B9109A
:100A6700020404B9080104A2D5200602500104209B
:100A770002689202B565005034C0E07F2030031948
:100A87007F30A20272067205500F120AB4C202C268
:100A970006C205C2087F30800F300503E9C0E012A7
:100AA7000803300503D0E0F9D0E0B565CC30051771
:100AB7007F30B9100C1208037F583004077F788005
:100AC70003B908031208033002057F2D0208037FCC
:100AD700202008F87F2B2006F322920280CF286E71
:100AE700756C6C2900D2011207C83001F8C2017871
:100AF7006530D50108F602086E2D50434958120794
:100B0700C82403B405004001E4900B00931207F4D6
:0D0B1700743A1207F4D20375650402095305
:10113200020026E493A3F8E493A34003F68001F2AD
:1011420008DFF48029E493A3F85407240CC8C333BE
:10115200C4540F4420C8834004F456800146F6DF8D
:10116200E4800B01020408102040809011B2E47E5A
:10117200019360BCA3FF543F30E509541FFEE49382
:10118200A360010ECF54C025E060A840B8E493A349
:10119200FAE493A3F8E493A3C8C582C8CAC583CA74
:1011A200F0A3C8C582C8CAC583CADFE9DEE780BE2C
:0112270000C6
:10109800BB010689828A83E0225002E722BBFE0256
:0910A800E32289828A83E4932289
:1010B100BB010CE58229F582E5833AF583E02250F4
:1010C10006E92582F8E622BBFE06E92582F8E2223E
:0D10D100E58229F582E5833AF583E4932258
:1010DE00BB010689828A83F0225002F722BBFE01F1
:0210EE00F322EB
:1010F000FAE6FB0808E6F925F0F618E6CA3AF62201
:10110000D083D082F8E4937012740193700DA3A37E
:1011100093F8740193F5828883E473740293686092
:06112000EFA3A3A380DF92
:00000001FF
