:101C00007C007D0A121564EF1F70011E144E70F7E0
:011C100022B1
:101B8000AB07AA060BBB00010AEB1B70011A144A33
:0C1B900060097F847E03121C0080EE229E
:03002000DFFE22DE
:101B6300D2907FDC7E05121C00C290D2917FDC7E76
:0D1B730005121C00C2917F147E00021B8031
:0218DB008F2D4F
:1018DD00E4F52EE52EC3952D5021D2907F9F7E05E8
:1018ED00121C00C290D2917F197E06121C00C2916B
:0B18FD007F147E00121B80052E80D897
:0119080022BC
:0A17D5008E658F668C678D688B6946
:1017DF00E4F56AE56AC395695021D290AF68AE67A8
:1017EF00121C00C290D291AF66AE65121C00C2915E
:0B17FF007F147E00121B80056A80D85A
:01180A0022BB
:021909008F2D20
:10190B00E4F52EE52EC3952D5021D2907F2C7E062B
:10191B00121C00C290D2917F8C7E05121C00C291CA
:0B192B007F147E00121B80052E80D868
:01193600228E
:0818A9008E2D8F2E8C2F8D3047
:1018B100E4F531D290AF30AE2F121C00C290D2911C
:1018C100AF2EAE2D121C00C2917F147E00121B8020
:0918D1000531E531C3940240DA4F
:0118DA0022EB
:0A180B008E2D8F2E8C2F8D308B3127
:10181500E4F532E532C395315021D290AF30AE2F89
:10182500121C00C290D291AF2EAE2D121C00C29197
:0B1835007F147E00121B80053280D85B
:011840002285
:10193700E4F572D2907FAA7E05121C00C290D29164
:101947007FAA7E05121C00C2917F147E00121B80A5
:091957000572E572C3946440DAE4
:011960002264
:10196100E4F52DD2907F787E05121C00C290D291B1
:101971007F787E05121C00C2917F147E00121B80AD
:09198100052DE52DC3941840DA90
:01198A00223A
:10198B00E4F52DD2907F787E05121C00C290D29187
:10199B007F787E05121C00C2917F147E00121B8083
:0919AB00052DE52DC3940F40DA6F
:0119B4002210
:1019B500E4F52DD2907FB47E05121C00C290D29121
:1019C5007FB47E05121C00C2917F147E00121B801D
:0919D500052DE52DC3944B40DA09
:0119DE0022E6
:1019DF00E4F573D2907F0E7E06121C00C290D29156
:1019EF007F0E7E06121C00C2917F147E00121B8098
:0919FF000573E573C3944640DA58
:011A080022BB
:101A0900E4F52DD2907F407E06121C00C290D2913F
:101A19007F407E06121C00C2917F147E00121B803B
:091A2900052DE52DC3941A40DAE5
:011A32002291
:101A3300E4F52DD2907F407E06121C00C290D29115
:101A43007F407E06121C00C2917F147E00121B8011
:091A5300052DE52DC3940F40DAC6
:011A5C002267
:101A5D00E4F52DD2907F047E06121C00C290D29127
:101A6D007F047E06121C00C2917F147E00121B8023
:091A7D00052DE52DC3944640DA65
:011A8600223D
:101A8700E4F574D2907F407E06121C00C290D2917A
:101A97007F407E06121C00C2917F147E00121B80BD
:091AA7000574E574C3941A40DAD9
:011AB0002213
:101B21008E2D8F2ED290AF05AE04121C00C290D222
:101B310091AF2EAE2D121C00C2917F147E00021BAC
:011B41008023
:10184100E4F52DF52ED2907FA07E05121C00C290EA
:10185100D2917FA07E05121C00C2917F147E0012DE
:101861001B80052EE52E7002052DC39444E52D94B1
:031871000040D262
:011874002251
:10187500E4F51EF51FD2907F187E06121C00C2905B
:10188500D2917F187E06121C00C2917F147E001231
:101895001B80051FE51F7002051EC39444E51E94B9
:0318A5000040D22E
:0118A800221D
:0300230002175071
:07175000C0E0C0D075D00815
:10175700309820AF99C298E56B2408FDE433FCE587
:101767006D6D7001EC600CAE6D056DEE540724765F
:10177700F8A60F30991BC299E56C656E6011AF6CC6
:10178700056CEF5407247EF8E6F599C20A8002C279
:011797000948
:05179800D0D0D0E032CA
:101AD900200A22200905D2098F9922C2ACAE6E05CF
:101AE9006EEE5407247EF8A607E56E656C54077000
:061AF90002D20AD2AC2269
:101BEA00AD07BD0A08200AFD7F0D121AD9200AFD89
:061BFA00AF05121AD9220A
:101BD300E56D656B60FAC2ACAF6B056BEF54072420
:061BE30076F8E6FFD2AC2B
:011BE90022D9
:101BB800E4F56BF56DF56CF56EC209C20A43892030
:0B1BC800758DFDD28E7598D8D2AC222E
:06000300121BB8D2AF226F
:0716E900016F000270000018
:0F1C1100438901E4F58CF58AD2AFD2A9C28C22A7
:03000B00021C20B4
:031C2000C28C3241
:10179D00E4F52DF52EC2A6C2A7D2A67F19FE121C06
:1017AD0000C2A630A7FDD28C30A703208CFAC28CC4
:1017BD00AF8CEFFEAD8A7C00E42DFFEC3EFE7D3A52
:0717CD001215648E2D8F2E12
:0117D40022F2
:101AB1007265643D256C642C677265656E3D256CAD
:101AC100642C626C75653D256C640A00636F6C6FF4
:081AD10072203D2025640A008B
:1016F00004100000000004180000000004140000A2
:021700000000E7
:101B9C00D2AFE4F5C943C81075985075CDFF75CC1C
:0C1BAC00DC75CBFF75CADCD2CAD29922CE
:101B4200E4F575C2937FC87E00121B80D2937FC8D2
:101B52007E00121B800575E575C3940340E5C293B0
:011B62002260
:10000E00758951758CFC758A66D2AFD2A9D28CD205
:02001E008E2230
:03000B00021AFFD7
:101AFF00C0E0C0D0C28CC28E051DE51D7002051C52
:101B0F00758CFCE58A2466F58AD28CD28ED0D0D023
:021B1F00E032B2
:10122100752D02D293D2A1D2A212000E121B9CAF35
:101231002D152DEF700302130FE4F51CF51DC2A34C
:10124100D2A4E51D6448451C70F8C28CC28EAF8DD6
:10125100EFFEAD8B7C00E42DFFEC3EFEE48F178E9C
:1012610016F515F514F58BF58DF51CF51DD28CD2FF
:101271008ED2A3D2A4E51D6449451C70F8C28CC26C
:101281008EAF8DEFFEAD8B7C00E42DFFEC3EFEE4D6
:101291008F138E12F511F510F58BF58DF51CF51DDB
:1012A100D28CD28EC2A3C2A4E51D644C451C70F839
:1012B100C28CC28EAF8DEFFEAD8B7C00E42DFFECB6
:1012C1003EFEE48F1B8E1AF519F518F58BF58DF599
:1012D1001CF51D7BFF7A1A79B1851B36851A358578
:1012E100193485183385133A8512398511388510DB
:1012F1003785173E85163D85153C85143B120F2712
:101301007FC87E00121B80D28CD28E0212307BFFEE
:101311007A1A79B1851B36851A35851934851833C2
:1013210085133A85123985113885103785173E8521
:10133100163D85153C85143B120F27E47F23FEFDE6
:10134100FCAB1BAA1AA919A818D31215B9502FE47E
:101351007F23FEFDFCAB13AA12A911A8101215B927
:10136100501CE47F23FEFDFCAB17AA16A915A81497
:101371001215B95009752E00752F0202145DE47F14
:10138100C8FEFDFCAB1BAA1AA919A818C31215B9EE
:10139100402FE47FC8FEFDFCAB13AA12A911A810CF
:1013A1001215B9401CE47FC8FEFDFCAB17AA16A9B3
:1013B10015A8141215B94009752E00752F010214D4
:1013C1005DE47F96FEFDFCAB1BAA1AA919A818C300
:1013D1001215B9402FE47F32FEFDFCAB13AA12A90E
:1013E10011A810D31215B9501BE47F32FEFDFCABDE
:1013F10017AA16A915A8141215B95008752E00754B
:101401002F038058E47FC8FEFDFCAB1BAA1AA91963
:10141100A818C31215B9402FE47F96FEFDFCAB134B
:10142100AA12A911A8101215B9401CE47F64FEFD8F
:10143100FCAB17AA16A915A814D31215B950087533
:101441002E00752F048015752E00752F057BFF7AF0
:101451001A79CD852E33852F34120F27C2AFC2A939
:08146100C28CC28EAE2EAF2F2B
:011469002260
:101702000252000002620000014A00015F0001462D
:1017120001015100016400014F0001600101540008
:10172200014900014B00014E00015000015B000124
:101732005E00014801016100014500015D0001599F
:0D17420000014700015A00014400015C0055
:10002600E4F522F523F524F525F528F529F52A1218
:1000360000037FD07E07121B807F281218DBE5485D
:10004600B4010312146AE54560030200F5E556643F
:100056000F455560030200F5E55960030200F5F50A
:1000660052F5530522E52214B40A00506790008128
:1000760075F003A4C58325F0C5837302009F0200B3
:10008600A10200A30200A70200AB0200AD0200B469
:100096000200BE0200C80200D2803180257F0D809A
:1000A600197F0F800B80007F0D1218DB80267F0DD5
:1000B6001218DB121A33801C7F0F1218DB12198BF1
:1000C60080127F0D1218DB121A0980087F0D121894
:1000D600DB121961E52230E00AD394004005755120
:1000E600018009756101754501E4F551E4F52AE5DC
:1000F60051B4010A121C1112179D8E2B8F2CC3E5C9
:100106002C9405E52B9400502FE5516401702905C8
:100116005C7F0F1218DB121B63E55CB40305052236
:100126007559021212218E4C8F4D7F3C1218DB75C9
:100136005401E4F551754F01E5547003020334E5AB
:100146004D6404454C7006E5226401603EE54D644D
:1001560001454C7006E52264036030E54D640345B5
:100166004C7006E52264056022E54D6402454C703C
:1001760006E52264076014E54D6405454C600302FC
:100186000329E52264096003020329755F01755995
:1001960001E54D6401454C6010E54D6403454C6036
:1001A60008E54D6402454C7046E558643045576095
:1001B60010E558641045576008E5586420455770A7
:1001C6002EE54D454C6028E55FB40123E4F5487FF4
:1001D600061218DB121B637F1912190912184175D2
:1001E6004801055AE4F55FF554F54CF54D0522E551
:1001F6004D6404454C60030202B2E558642045573D
:100206007051E54D454C604BE55F64017045F5481E
:100216007F141218DBE4F562F5637DE67C057FE664
:100226007E05121B210563E56370020562C3940314
:10023600E5626480948040E2121B637F19121909FB
:10024600121841754801055AE4F55FF554F54CF569
:100256004D0522E558641045577051E556455570D1
:100266004BE54D454C6045E55F6401703FF548F54B
:1002760062F5637DE67C057FE67E05121B2105633C
:10028600E56370020562C39403E56264809480406E
:10029600E2121B637F1912190912184175480105EC
:1002A6005AE4F55FF554F54CF54D0522E54D640528
:1002B600454C707AE55864104557702EE54D454C0F
:1002C6006028E55FB40123E4F5487F121218DB12BB
:1002D6001B637F19121909121841754801055AE462
:1002E600F55FF554F54CF54D0522E5586420455764
:1002F600703CE55645557036E54D454C6030E55F3A
:100306006401702AF548121B637F19121909121825
:1003160041754801055AE4F55FF554F54CF54D0570
:1003260022800B7F141218DB121841E4F554E522E3
:1003360030E053E54F704FE55645557002052AD318
:10034600E52A64809482403EE55645556028E55688
:10035600640A45556020E556640545556018E5561E
:10036600640945556010E556640B45556008E55629
:10037600640D455570107559017F411218DB12182E
:10038600410522E4F52AE52220E049D394004044C1
:10039600E54F6401703EE56164017038E52375F050
:1003A60028A4FFC374B49FFFE495F0FED3E5539FE2
:1003B600EE6480F8E55264809840137F1E12190996
:1003C600121841E4F54FF552F553F5610523E4F5AE
:1003D6005102045AE52220E07BD394004076E55989
:1003E60064017070E556640F45557068F552F55313
:1003F600F54FE52224FC601D24FE601B24FE6024CC
:1004060024FE602A2408702E7F121218DB1219614E
:1004160012198B8021800D7F121218DB12184112DF
:100426001A3380127F121218DB12198B80057F1285
:100436001218DB1219610522E52230E00AD3940076
:1004460040057551018008754501E4F54AF551E40A
:10045600F52AF559D3E5539450E5526480948040CB
:1004660010E54F700CE545B40107E4F552F553F578
:1004760045E55C64036003020044E556640F455598
:100486006003020044E55964026003020044F55229
:10049600F553E52224FC601A24FE602324FE60291D
:1004A60024FE602F240870337F121218DB121961A4
:1004B60080297F121218DB12196112198B801C7F9A
:1004C600121218DB12184180127F121218DB121A50
:1004D6003380057F121218DB121A09E4F546E55C33
:1004E6006403600302074CE548B4010312146AE58D
:1004F6005C6403703FE54D454C6039E4F552F553B5
:10050600F55C755F01E54C702BE54D1460121460C7
:100516001B14601124FE60190470191219618014ED
:1005260012198B800F7F0A1218DB8008121A33808B
:1005360003121A09C3E5539450E55264809480501F
:10054600030206D7E54D6401454C6010E54D640392
:10055600454C6008E54D6402454C7045E5586430ED
:1005660045576010E558641045576008E558642003
:100576004557702DE54D454C6027E55FB40122E4F3
:10058600F5487F061218DB121B637F1E121909122B
:100596001841754801055AE4F552F553754601F5BB
:1005A6005FE54D6404454C6003020662E55864202D
:1005B60045577050E54D454C604AE55F640170440F
:1005C600F5487F141218DBE4F562F5637DE67C05D9
:1005D6007FE67E05121B210563E56370020562C393
:1005E6009403E5626480948040E2121B637F1E12CE
:1005F6001909121841754801055AE4F552F5537563
:100606004601F55FE558641045577050E556455567
:10061600704AE54D454C6044E55F6401703EF5481F
:10062600F562F5637DE67C057FE67E05121B2105F6
:1006360063E56370020562C39403E5626480948097
:1006460040E2121B637F1E121909121841754801F8
:10065600055AE4F552F553754601F55FE54D640517
:10066600454C706DE55864104557702DE54D454C69
:100676006027E55FB40122E4F5487F121218DB1209
:100686001B637F1E121909121841754801055AE4A9
:10069600F552F553754601F55FE5586420455770E8
:1006A60030E5564555702AE54D454C6024E55FB466
:1006B600011FE4F548121B637F1E12190912184127
:1006C600754801055AE4F552F553754601F55FF58F
:1006D60054E556640F455560030204EDE546640192
:1006E60060030204EDF552F553E54C703FE54D14F9
:1006F600601714602514601B24FE602804702D7F8B
:100706000F1218DB121A0980237F141218DB121A33
:100716003380197F0F1218DB80127F121218DB123A
:10072600198B80087F0C1218DB121961E55AB40385
:10073600107B1E7D787C057F787E0512180B754927
:1007460001E4F54CF54D755101E4F564F55F754826
:1007560001754501F52AE55A64037003020A3EE570
:1007660048B4010312146AE551B4010A121C1112AD
:10077600179D8E2B8F2CC3E52C9405E52B940050EA
:1007860024E551B4011F7F0F1218DB121B631212EE
:10079600218E4C8F4D1218417F141218DBE4F5465A
:1007A600F551754501D3E5539450E5526480948024
:1007B600400CE545B40107E4F552F553F545E5452A
:1007C6007058E556640F45557050E546704CF55225
:1007D600F553F52AE54C703FE54D14601714602576
:1007E60014601B24FE602804702D7F0C1218DB1287
:1007F600196180237F0F1218DB12198B80197F0F66
:100806001218DB80127F0F1218DB121A3380087F52
:100816000F1218DB121A09755F01D3E5539450E5E0
:10082600526480948050030209BBE54D6401454C37
:100836006010E54D6403454C6008E54D6402454C87
:100846007045E558643045576010E55864104557C3
:100856006008E55864204557702DE54D454C6027E6
:10086600E55FB40122E4F5487F061218DB121B632C
:100876007F1E121909121841754801055AE4F552EE
:10088600F553754601F55FE54D6404454C6003027A
:100896000948E558642045577050E54D454C604A77
:1008A600E55F64017044F5487F141218DBE4F562D5
:1008B600F5637DE67C057FE67E05121B210563E573
:1008C6006370020562C39403E5626480948040E22B
:1008D600121B637F1E121909121841754801055A29
:1008E600E4F552F553754601F55FE5586410455732
:1008F6007050E5564555704AE54D454C6044E55FF8
:100906006401703EF548F562F5637DE67C057FE699
:100916007E05121B210563E56370020562C394031D
:10092600E5626480948040E2121B637F1E121909FF
:10093600121841754801055AE4F552F553754601FA
:10094600F55FE54D6405454C706BE55864104557F9
:10095600702DE54D454C6027E55FB40122E4F5486E
:100966007F121218DB121B637F1E1219091218411F
:10097600754801055AE4F552F553754601F55FE5EC
:100986005864204557702EE55645557028E54D4567
:100996004C6022E55FB4011DE4F548121B637F1E1F
:1009A600121909121841754801055AE4F552F55312
:1009B600754601F55FE5456003020765E556640F78
:1009C60045556003020765E5466401600302076555
:1009D600755101F552F553E54C703FE54D1460171E
:1009E60014602514601B24FE602804702D7F0C12F1
:1009F60018DB121A0980237F141218DB121A3380AF
:100A0600197F0F1218DB80127F121218DB12198B56
:100A160080087F0C1218DB121961E4F54CF54DE5E0
:100A26005A640360030207657B1E7D787C057F7828
:100A36007E0512180B754901E4F54FF564F5467508
:100A46004801F55AF54CF54DF52B752C64F52AF54C
:100A560052F553754901E548B4010312146AE54994
:100A660064016003020AF0F528F529F526F5271238
:100A76001C1112179D8E2B8F2C7DFA7C057FFA7E1A
:100A860005121B21C3E52C9408E52B94004036E59E
:100A96002C9419E52B9400502C852628852729E5CA
:100AA600249406401E7D047C067F047E06121B21CC
:100AB600121B637F0F1218DB754F01755B01E4F59E
:100AC60024801505240527E52770020526C394C84A
:100AD600E526648094804097E54F700B121A0975DD
:100AE6005A02E4F54CF54DE4F549D3E5299437E58A
:100AF60028648094804008754E01E4F54B800675A5
:100B06004B01E4F54EE556640F4555703DE55B64D3
:100B1600017037F552F553755E01E54BB401117F4F
:100B26000E1218DB7B1E7D227C067F227E06801439
:100B3600E54EB401127F171218DB7B2A7D967C05E1
:100B46007F967E0512180BE4F55BE556640F455556
:100B56007042E55E6401703CD3E553940AE5526445
:100B6600809480402FE4F552F553E54BB4010A7F9B
:100B76000F1218DB121A5D800DE54EB401137F0FBC
:100B86001218DB1219B57F141218DBE4F5467550FE
:100B960001E4F55EE556640F45557079E55064014C
:100BA6007073D3E553941EE55264809480406612B8
:100BB6001B631212218E4C8F4DE54D6402454C701D
:100BC60003756401E4F550F546F552F553F52AE54B
:100BD6004C703FE54D14601714602514601B24FE0D
:100BE600602804702D7F0C1218DB12196180237F98
:100BF6000F1218DB12198B80197F0F1218DB801267
:100C06007F0F1218DB121A3380087F0F1218DB12BF
:100C16001A09755F01D3E5539450E55264809480B8
:100C26005003020DC0E54D6401454C6010E54D646E
:100C360003454C6008E54D6402454C7047E5586431
:100C46003045576010E558641045576008E558640C
:100C5600204557702FE54D454C6029E55FB40124CA
:100C6600E4F5487F0B1218DB121B637F1E1219096D
:100C7600121841754801055AE4F552F553F55F75AA
:100C86004601F52AE54D6404454C6003020D49E52D
:100C960058642045577052E54D454C604CE55F64FD
:100CA600017046F5487F121218DBE4F562F5637DA4
:100CB600E67C057FE67E05121B210563E56370026F
:100CC6000562C39403E5626480948040E2121B636C
:100CD6007F1E121909121841754801055AE4F5528A
:100CE600F553F55F754601F52AE5586410455770CA
:100CF60052E5564555704CE54D454C6046E55F64FA
:100D0600017040F548F562F5637DE67C057FE67E79
:100D160005121B210563E56370020562C39403E5B2
:100D2600626480948040E2121B637F1E12190912CE
:100D36001841754801055AE4F552F553F55F7546B5
:100D460001F52AE54D6405454C706FE5586410457C
:100D560057702FE54D454C6029E55FB40124E4F555
:100D6600487F121218DB121B637F1E121909121814
:100D760041754801055AE4F552F553F55F7546018C
:100D8600F52AE558642045577030E5564555702AD2
:100D9600E54D454C6024E55FB4011FE4F548121BA0
:100DA600637F1E121909121841754801055AE4F5A8
:100DB60052F553F55F754601F52AE55A64026066F9
:100DC600E556640F4555705EE54664017058E54D7D
:100DD600454C6052E4F546F552F553E54C703FE557
:100DE6004D14601414602214601824FE60280470E8
:100DF6002D7F0A1218DB80267F121218DB12198B40
:100E0600801C7F0F1218DB80087F121218DB121964
:100E16008B12196180087F0C1218DB121841754974
:100E260001E4F54CF54DE55A64027065F549E55661
:100E3600640F4555705BE54664017055E54D454CBC
:100E4600604FE4F546F552F553E54C703FE54D1419
:100E5600601714602514601B24FE602804702D7F23
:100E66000C1218DB121A0980237F141218DB121ACF
:100E76003380197F0F1218DB80127F121218DB12D3
:100E8600198B80087F0C1218DB121961E4F54CF5FA
:100E96004DE55A64026003020A5CD3E55394BEE54D
:100EA60052648094805003020A5CE54D454C600311
:0F0EB600020A5CF552F553121B63121B6380FB9B
:10146A007580FFE580540F755500F556E5805430B8
:10147A00755700F5587F011218DBE5556003021510
:10148A0063E55614B40F0040030215639014A47563
:10149A00F003A4C58325F0C583730214D10214DFB7
:1014AA000214E802150C02152802153102153A0237
:1014BA0014FA021563021543021563021515021583
:1014CA004C02155502155E0553E553700205527D0F
:1014DA000E7C0680150553E553700205522205530A
:1014EA00E553700205527DDC7C057F0E7E06802B5B
:1014FA000553E553700205527DAA7C057FAA7E0535
:10150A0080190553E55370510552220553E553706E
:10151A000205527DAA7C057FDC7E050218A90553C7
:10152A00E55370350552220553E553702C055222B6
:10153A000553E55370230552220553E553701A05E6
:10154A0052220553E55370110552220553E5537093
:0A155A00080552227F061218DB225A
:0300000002165D88
:0C165D00787FE4F6D8FD7581850216A4A4
:10156400BC000BBE0029EF8DF084FFADF022E4CC6B
:10157400F875F008EF2FFFEE33FEEC33FCEE9DEC34
:10158400984005FCEE9DFE0FD5F0E9E4CEFD22ED7A
:10159400F8F5F0EE8420D21CFEADF075F008EF2FC4
:1015A400FFED33FD4007985006D5F0F222C398FDB5
:0515B4000FD5F0EA2252
:1015B900EB9FF5F0EA9E42F0E99D42F0EC6480C8A9
:0615C90064809845F02249
:100EC500E53F2433F8E6053F2278303007027833D2
:100ED500E475F0011216270215CF2000EB7F2ED204
:100EE500008018EF540F2490D43440D4FF30040B05
:100EF500EF24BFB41A0050032461FFE540600215DA
:100F0500400543E5437002054230070D7830E4752E
:100F1500F001121627EF021615021BEA7403D20719
:100F25008003E4C207F53F8B308A318932E4F5400E
:100F3500F542F543E54060077F20120F0080F57507
:100F450041FFC201C200C202C203C205C206C208F5
:100F5500120ECEFF700D3007057F00120F11AF4343
:100F6500AE4222B4255FC2D5C204120ECEFF24D0F4
:100F7500B40A00501A75F00A784030D50508B6FF56
:100F85000106C6A426F620D5047002D20380D92412
:100F9500CFB41A00EF5004C2E5D204021111D201F8
:100FA50080C6D20080C0D20280BCD2D580BAD2051C
:100FB50080B47F20120F002002077401B540004065
:100FC500F1120EC5FF120F00020F39D208D20680AA
:100FD50095120EC5FB120EC5FA120EC5F94A4B70D5
:100FE5000679E27A117BFF20022EE540602A7E0019
:100FF5008E827583001215E860060EEE654170F06D
:10100500C2D5EBC0E0EAC0E0E9C0E0EE121158D06D
:10101500E0F9D0E0FAD0E0FB1215CFFF60AAEBC0F3
:10102500E0EAC0E0E9C0E0120F00D0E02401F9D009
:10103500E03400FAD0E0FBE5410460DCD541D9801D
:10104500877BFF7A117954D202809C7910800279CE
:1010550008C206C2088008D2D5790A8004790AC276
:10106500D5E541047002F541E4FAFDFEFF120EC517
:10107500FC7B08200113120EC5FD7B1030000A12FF
:101085000EC5FE120EC5FF7B20EC3382D592D550DE
:1010950013C3E43000069FFFE49EFEE42001039D98
:1010A500FDE49CFCE4CBF8C201EC700CCFCECDCCBA
:1010B500E824F8F870F38017C3EF33FFEE33FEED45
:1010C50033FDEC33FCEB33FB994002FB0FD8E9EB26
:1010D500300105F8D0E0C448B201C0E00AEC4D4E3D
:1010E5004F78207B0070C2EAB5410040BCC0E012D9
:1010F500115AD0F0D0E0200104C4C0E0C4B201C050
:10110500F0120EE9D0F0D5F0EB020F391216370FB9
:10111500D6531050580FA74C0FA34210544F105CD4
:0F11250044105C490FBC431062551046461046FB
:10113400451046471202500FAB2D0FAF2E0FD22B86
:101144000FB3230FD02011EB2A0F6B4800000FCAF6
:101154003F3F3F00790AA2D5200314300509B91096
:10116400020404B9080104A2D52006025001042097
:1011740002689202B540005034C0E07F2030031969
:101184007F30A20272067205500F1211B1C202C260
:1011940006C205C2087F30800F300503E9C0E012A3
:1011A4000F00300503D0E0F9D0E0B540CC3005178E
:1011B4007F30B9100C120F007F583004077F7880FD
:1011C40003B90803120F003002057F2D020F007FC0
:1011D400202008F87F2B2006F322920280CF286E6D
:1011E400756C6C2900D201120EC53001F8C2017869
:1011F4004030D50108F6020F6B2D50434958120EAA
:10120400C52403B405004001E49011FD93120EF1CE
:0D121400743A120EF1D2037540040210501E
:10166900020026E493A3F8E493A34003F68001F271
:1016790008DFF48029E493A3F85407240CC8C33382
:10168900C4540F4420C8834004F456800146F6DF51
:10169900E4800B01020408102040809016E9E47EE2
:1016A900019360BCA3FF543F30E509541FFEE49346
:1016B900A360010ECF54C025E060A840B8E493A30D
:1016C900FAE493A3F8E493A3C8C582C8CAC583CA38
:1016D900F0A3C8C582C8CAC583CADFE9DEE780BEF0
:01174F000099
:1015CF00BB010689828A83E0225002E722BBFE021A
:0915DF00E32289828A83E493224D
:1015E800BB010CE58229F582E5833AF583E02250B8
:1015F80006E92582F8E622BBFE06E92582F8E22202
:0D160800E58229F582E5833AF583E493221B
:10161500BB010689828A83F0225002F722BBFE01B4
:02162500F322AE
:10162700FAE6FB0808E6F925F0F618E6CA3AF622C4
:10163700D083D082F8E4937012740193700DA3A342
:1016470093F8740193F5828883E473740293686056
:06165700EFA3A3A380DF56
:00000001FF
