:101048007C007D0A1209D6EF1F70011E144E70F73E
:011058002275
:100FC800AB07AA060BBB00010AEB1B70011A144AF7
:0C0FD80060097F847E0312104880EE2226
:03002000DFFE22DE
:100FAB00D2907FDC7E05121048C290D2917FDC7EFE
:0D0FBB0005121048C2917F147E00020FC87D
:020D23008F51EE
:100D2500E4F552E552C395515021D2907F9F7E053F
:100D3500121048C290D2917F197E06121048C291B6
:0B0D45007F147E00120FC8055280D8FA
:010D50002280
:0A0C53008E688F698C6A8D6B8B6CC4
:100C5D00E4F56DE56DC3956C5021D290AF6BAE6A26
:100C6D00121048C290D291AF69AE68121048C2916D
:0B0C7D007F147E00120FC8056D80D8A8
:010C88002249
:020D51008F51C0
:100D5300E4F552E552C395515021D2907F2C7E0683
:100D6300121048C290D2917F8C7E05121048C29116
:0B0D73007F147E00120FC8055280D8CC
:010D7E002252
:080CF1008E518F528C538D547B
:100CF900E4F555D290AF54AE53121048C290D29138
:100D0900AF52AE51121048C2917F147E00120FC823
:090D19000555E555C3940240DACA
:010D220022AE
:100D7F00E4F575D2907FAA7E05121048C290D291E9
:100D8F007FAA7E05121048C2917F147E00120FC8F1
:090D9F000575E575C3946440DAA2
:010DA8002228
:100DA900E4F551D2907F787E05121048C290D29115
:100DB9007F787E05121048C2917F147E00120FC8F9
:090DC9000551E551C3941840DA0C
:010DD20022FE
:100DD300E4F551D2907F787E05121048C290D291EB
:100DE3007F787E05121048C2917F147E00120FC8CF
:090DF3000551E551C3940F40DAEB
:010DFC0022D4
:100DFD00E4F576D2907FB47E05121048C290D29160
:100E0D007FB47E05121048C2917F147E00120FC868
:090E1D000576E576C3944640DA3F
:010E260022A9
:100E2700E4F577D2907F0E7E06121048C290D291D9
:100E37007F0E7E06121048C2917F147E00120FC8E3
:090E47000577E577C3944640DA13
:010E5000227F
:100E5100E4F551D2907F407E06121048C290D291A3
:100E61007F407E06121048C2917F147E00120FC887
:090E71000551E551C3941A40DA61
:010E7A002255
:100E7B00E4F551D2907F407E06121048C290D29179
:100E8B007F407E06121048C2917F147E00120FC85D
:090E9B000551E551C3940F40DA42
:010EA400222B
:100EA500E4F578D2907F047E06121048C290D29164
:100EB5007F047E06121048C2917F147E00120FC86F
:090EC5000578E578C3944640DA93
:010ECE002201
:100ECF00E4F579D2907F407E06121048C290D291FD
:100EDF007F407E06121048C2917F147E00120FC809
:090EEF000579E579C3941A40DA93
:010EF80022D7
:100F69008E518F52D290AF05AE04121048C290D262
:100F790091AF52AE51121048C2917F147E00020FF8
:010F8900C89F
:100C8900E4F551F552D2907FA07E05121048C2902A
:100C9900D2917FA07E05121048C2917F147E001266
:100CA9000FC80552E55270020551C39444E55194A9
:030CB9000040D226
:010CBC002215
:100CBD00E4F51EF51FD2907F187E06121048C290E3
:100CCD00D2917F187E06121048C2917F147E0012B9
:100CDD000FC8051FE51F7002051EC39444E51E9441
:030CED000040D2F2
:010CF00022E1
:03002300020BCEFF
:070BCE00C0E0C0D075D008A3
:100BD500309820AF99C298E56E2408FDE433FCE512
:100BE500706D7001EC600CAE700570EE5407247AE0
:100BF500F8A60F30991BC299E56F65716011AF6F4B
:100C0500056FEF54072482F8E6F599C20A8002C2FF
:010C150009D5
:050C1600D0D0D0E03257
:100F2100200A22200905D2098F9922C2ACAE71058F
:100F310071EE54072482F8A607E571656F540770B6
:060F410002D20AD2AC222C
:10103200AD07BD0A08200AFD7F0D120F21200AFD0F
:06104200AF05120F212290
:10101B00E570656E60FAC2ACAF6E056EEF540724D7
:06102B007AF8E6FFD2ACEA
:01103100229C
:10100000E4F56EF570F56FF571C209C20A438920E7
:0B101000758DFDD28E7598D8D2AC22F1
:06000300121000D2AF2232
:070B5B0001720002730000AB
:0F105900438901E4F58CF58AD2AFD2A9C28C226B
:03000B0002106878
:03106800C28C3205
:100C1B00E4F551F552C2A6C2A7D2A67F19FE121057
:100C2B0048C2A630A7FDD28C30A703208CFAC28C09
:100C3B00AF8CEFFEAD8A7C00E42DFFEC3EFE7D3ADF
:070C4B001209D68E518F52F1
:010C5200227F
:100EF9007265643D256C642C677265656E3D256C71
:100F0900642C626C75653D256C640A00636F6C6FB7
:080F190072203D2025640A004E
:100B6200041000000000041800000000041400003B
:020B7200000081
:100FE400D2AFE4F5C943C81075985075CDFF75CCE0
:0C0FF400DC75CBFF75CADCD2CAD2992292
:100F8A00E4F554C2937FC87E00120FC8D2937FC87B
:100F9A007E00120FC80554E554C3940340E5C2937A
:010FAA002224
:10000E00758951758CFC758A66D2AFD2A9D28CD205
:02001E008E2230
:03000B00020F479A
:100F4700C0E0C0D0C28CC28E051DE51D7002051C15
:100F5700758CFCE58A2466F58AD28CD28ED0D0D0E7
:020F6700E03276
:10068900755102120F8A7F507E00120FC8D293D281
:10069900A1D2A212000E120FE4AF511551EF70034F
:1006A900020781E4F51CF51DC2A3D2A4E51D644827
:1006B900451C70F8C28CC28EAF8DEFFEAD8B7C00ED
:1006C900E42DFFEC3EFEE48F178E16F515F514F5B3
:1006D9008BF58DF51CF51DD28CD28ED2A3D2A4E553
:1006E9001D6449451C70F8C28CC28EAF8DEFFEADFA
:1006F9008B7C00E42DFFEC3EFEE48F138E12F51186
:10070900F510F58BF58DF51CF51DD28CD28EC2A393
:10071900C2A4E51D644C451C70F8C28CC28EAF8D15
:10072900EFFEAD8B7C00E42DFFEC3EFEE48F1B8ECB
:100739001AF519F518F58BF58DF51CF51D7BFF7A62
:100749000E79F9851B5A851A5985195885185785BF
:10075900135E85125D85115C85105B8517628516B0
:100769006185156085145F1200887FC87E00120FAD
:10077900C8D28CD28E0206A27BFF7A0E79F9851B2C
:100789005A851A5985195885185785135E85125D3A
:1007990085115C85105B85176285166185156085F5
:1007A900145F120088E47F23FEFDFCAB1BAA1AA983
:1007B90019A818D3120A2B502FE47F23FEFDFCAB96
:1007C90013AA12A911A810120A2B501CE47F23FEA8
:1007D900FDFCAB17AA16A915A814120A2B50097506
:1007E90052007553020208CFE47FC8FEFDFCAB1B23
:1007F900AA1AA919A818C3120A2B402FE47FC8FE08
:10080900FDFCAB13AA12A911A810120A2B401CE473
:100819007FC8FEFDFCAB17AA16A915A814120A2B4E
:1008290040097552007553010208CFE47F96FEFD19
:10083900FCAB1BAA1AA919A818C3120A2B402FE44A
:100849007F32FEFDFCAB13AA12A911A810D3120A1C
:100859002B501BE47F32FEFDFCAB17AA16A915A885
:1008690014120A2B50087552007553038058E47FFF
:10087900C8FEFDFCAB1BAA1AA919A818C3120A2B9A
:10088900402FE47F96FEFDFCAB13AA12A911A81014
:10089900120A2B401CE47F64FEFDFCAB17AA16A9C3
:1008A90015A814D3120A2B500875520075530480E9
:1008B900157552007553057BFF7A0F7915855257C7
:1008C900855358120088C2AFC2A9C28CC28EAE52DB
:0208D900AF531B
:0108DB0022FA
:100B74000234000002430000012B00012D01014159
:100B84000001260101330101460001310001250065
:100B9400013600012A00012C00013000012401016A
:100BA4002900013200013D000140000128010142F9
:100BB40000012300013F00013B0001450001270023
:090BC400013C00012200013E0089
:10038200E4F547F548F549F54CF54DF54E120003F5
:100392007FD07E07120FC87F28120D23753301E428
:1003A200F546F541752801752301F54EE53C6403D8
:1003B2007003020688E528B401031208DCE533B4B1
:1003C200010A121059120C1B8E4F8F50C3E5509424
:1003D20005E54F94005024E533B4011F7F0C120D44
:1003E20023120FAB1206898E2E8F2F120C897F14C7
:1003F200120D23E4F526F533752301D3E535945028
:10040200E53464809480400CE523B40107E4F534BC
:10041200F535F523E5237058E538640F45377050FC
:10042200E526704CF534F535F54EE52E703FE52F97
:1004320014601714602514601B24FE602804702DBC
:100442007F0C120D23120DA980237F0F120D231290
:100452000DD380197F0F120D2380127F0F120D23EF
:10046200120E7B80087F0F120D23120E517541016F
:10047200D3E5359450E53464809480500302060D30
:10048200E52F6401452E6010E52F6403452E6008B8
:10049200E52F6402452E7045E53A64304539601017
:1004A200E53A641045396008E53A64204539702D13
:1004B200E52F452E6027E541B40122E4F5287F06A9
:1004C200120D23120FAB7F1E120D51120C897528CB
:1004D20001053CE4F534F535752601F541E52F6457
:1004E20004452E600302059AE53A642045397050AE
:1004F200E52F452E604AE54164017044F5287F14DA
:10050200120D23E4F543F5447DE67C057FE67E0586
:10051200120F690544E54470020543C39403E543A1
:100522006480948040E2120FAB7F1E120D51120CB8
:1005320089752801053CE4F534F535752601F54148
:10054200E53A641045397050E5384537704AE52F71
:10055200452E6044E5416401703EF528F543F544BB
:100562007DE67C057FE67E05120F690544E5447051
:10057200020543C39403E5436480948040E2120F72
:10058200AB7F1E120D51120C89752801053CE4F552
:1005920034F535752601F541E52F6405452E706B5E
:1005A200E53A64104539702DE52F452E6027E54167
:1005B200B40122E4F5287F12120D23120FAB7F1E25
:1005C200120D51120C89752801053CE4F534F535FC
:1005D200752601F541E53A64204539702EE5384526
:1005E200377028E52F452E6022E541B4011DE4F560
:1005F20028120FAB7F1E120D51120C8975280105AE
:100602003CE4F534F535752601F541E52360030236
:1006120003B7E538640F453760030203B7E5266484
:100622000160030203B7753301F534F535E52E7029
:100632003FE52F14601714602514601B24FE602808
:1006420004702D7F0C120D23120E5180237F141281
:100652000D23120E7B80197F0F120D2380127F1241
:10066200120D23120DD380087F0C120D23120DA937
:10067200E4F52EF52FE53C640360030203B7120C88
:06068200897F1E120D51DC
:01068800224F
:1008DC007580FFE580540F753700F538E58054308E
:1008EC00753900F53A7F01120D23E53760030209D3
:1008FC00D5E53814B40F0040030209D590091675DC
:10090C00F003A4C58325F0C5837302094302095182
:10091C0002095A02097E02099A0209A30209AC02D1
:10092C00096C0209D50209B50209D5020987020929
:10093C00BE0209C70209D00535E535700205347DC4
:10094C000E7C0680150535E535700205342205351B
:10095C00E535700205347DDC7C057F0E7E06802B30
:10096C000535E535700205347DAA7C057FAA7E0528
:10097C0080190535E53570510534220535E535709E
:10098C000205347DAA7C057FDC7E05020CF1053561
:10099C00E53570350534220535E535702C053422E6
:1009AC000535E53570230534220535E535701A0516
:1009BC0034220535E53570110534220535E53570E1
:0A09CC00080534227F06120D2322D5
:03000000020ACF22
:0C0ACF00787FE4F6D8FD758189020B16D3
:1009D600BC000BBE0029EF8DF084FFADF022E4CC05
:1009E600F875F008EF2FFFEE33FEEC33FCEE9DECCE
:1009F600984005FCEE9DFE0FD5F0E9E4CEFD22ED14
:100A0600F8F5F0EE8420D21CFEADF075F008EF2F5D
:100A1600FFED33FD4007985006D5F0F222C398FD4E
:050A26000FD5F0EA22EB
:100A2B00EB9FF5F0EA9E42F0E99D42F0EC6480C842
:060A3B0064809845F022E2
:10002600E5632457F8E605632278543007027857CB
:10003600E475F001120A99020A412000EB7F2ED2E4
:10004600008018EF540F2490D43440D4FF30040BB2
:10005600EF24BFB41A0050032461FFE56460021563
:10006600640567E5677002056630070D7854E47528
:10007600F001120A99EF020A870210327403D207BE
:100086008003E4C207F5638B548A558956E4F56408
:10009600F566F567E56460077F2012006180F575F7
:1000A60065FFC201C200C202C203C205C206C2087F
:1000B60012002FFF700D3007057F00120072AF6728
:1000C600AE6622B4255FC2D5C20412002FFF24D02B
:1000D600B40A00501A75F00A786430D50508B6FFE0
:1000E6000106C6A426F620D5047002D20380D924C0
:1000F600CFB41A00EF5004C2E5D204020272D20154
:1001060080C6D20080C0D20280BCD2D580BAD205C9
:1001160080B47F201200612002077401B56400409C
:10012600F1120026FF12006102009AD208D2068060
:1001360095120026FB120026FA120026F94A4B7089
:100146000679437A037BFF20022EE564602A7E004F
:100156008E82758300120A5A60060EEE656570F08F
:10016600C2D5EBC0E0EAC0E0E9C0E0EE1202B9D0C9
:10017600E0F9D0E0FAD0E0FB120A41FF60AAEBC03A
:10018600E0EAC0E0E9C0E0120061D0E02401F9D065
:10019600E03400FAD0E0FBE5650460DCD565D98083
:1001A600877BFF7A0279B5D202809C79108002792A
:1001B60008C206C2088008D2D5790A8004790AC224
:1001C600D5E565047002F565E4FAFDFEFF1200262A
:1001D600FC7B08200113120026FD7B1030000A125A
:1001E6000026FE120026FF7B20EC3382D592D550E6
:1001F60013C3E43000069FFFE49EFEE42001039D46
:10020600FDE49CFCE4CBF8C201EC700CCFCECDCC67
:10021600E824F8F870F38017C3EF33FFEE33FEEDF2
:1002260033FDEC33FCEB33FB994002FB0FD8E9EBD3
:10023600300105F8D0E0C448B201C0E00AEC4D4EEA
:100246004F78207B0070C2EAB5650040BCC0E01262
:1002560002BBD0F0D0E0200104C4C0E0C4B201C0AB
:10026600F012004AD0F0D5F0EB02009A120AA9016A
:10027600375301B15801084C01044201B54F01BD85
:0F0286004401BD49011D4301C35501A74601A70E
:100295004501A747036350010C2D01102E01332B97
:1002A500011423013120034C2A00CC480000012B06
:1002B5003F3F3F00790AA2D5200314300509B91044
:1002C500020404B9080104A2D52006025001042045
:1002D50002689202B564005034C0E07F20300319F3
:1002E5007F30A20272067205500F120312C202C2BB
:1002F50006C205C2087F30800F300503E9C0E01251
:100305000061300503D0E0F9D0E0B564CC300517C5
:100315007F30B9100C1200617F583004077F788058
:1003250003B908031200613002057F2D0200617FC9
:10033500202008F87F2B2006F322920280CF286E1A
:10034500756C6C2900D2011200263001F8C20178C3
:100355006430D50108F60200CC2D504349581200EF
:10036500262403B405004001E490035E9312005275
:0D037500743A120052D2037564040201B103
:100ADB00020382E493A3F8E493A34003F68001F2AC
:100AEB0008DFF48029E493A3F85407240CC8C3331C
:100AFB00C4540F4420C8834004F456800146F6DFEB
:100B0B00E4800B0102040810204080900B5BE47E14
:100B1B00019360BCA3FF543F30E509541FFEE493DF
:100B2B00A360010ECF54C025E060A840B8E493A3A6
:100B3B00FAE493A3F8E493A3C8C582C8CAC583CAD1
:100B4B00F0A3C8C582C8CAC583CADFE9DEE780BE89
:010BCD000027
:100A4100BB010689828A83E0225002E722BBFE02B3
:090A5100E32289828A83E49322E6
:100A5A00BB010CE58229F582E5833AF583E0225051
:100A6A0006E92582F8E622BBFE06E92582F8E2229B
:0D0A7A00E58229F582E5833AF583E49322B5
:100A8700BB010689828A83F0225002F722BBFE014E
:020A9700F32248
:100A9900FAE6FB0808E6F925F0F618E6CA3AF6225E
:100AA900D083D082F8E4937012740193700DA3A3DC
:100AB90093F8740193F5828883E4737402936860F0
:060AC900EFA3A3A380DFF0
:00000001FF
